:020000040800F2
:1000000000500020AD2A00082529000827290008F3
:10001000292900082B2900082D29000800000000CC
:100020000000000000000000000000002F29000870
:100030003129000800000000332900083529000894
:10004000F52A0008F52A0008F52A0008F52A000814
:10005000F52A0008F52A0008F52A0008F52A000804
:10006000F52A0008F52A0008F52A0008F52A0008F4
:10007000F52A0008F52A0008F52A0008F52A0008E4
:10008000F52A0008F52A0008F52A0008F52A0008D4
:10009000F52A0008F52A0008F52A0008F52A0008C4
:1000A000F52A0008F52A0008F52A0008F52A0008B4
:1000B000F52A0008F52A0008F52A0008F52A0008A4
:1000C000F52A0008F52A0008F52A0008F52A000894
:1000D000F52A0008F52A0008F52A0008F52A000884
:1000E000F52A0008F52A0008F52A0008000000009B
:1000F0000000000000000000000000000000000000
:0C01000000000000000000005FF808F1A3
:10010C0010B5054C237833B9044B13B10448AFF345
:10011C0000800123237010BD8C0000200000000023
:10012C00D433000808B5034B1BB103490348AFF3A4
:10013C00008008BD0000000090000020D4330008AF
:10014C00034613F8012B002AFBD1181A013870470B
:10015C0038B50E4B054618784FF47A73B3FBF0F3B1
:10016C000B4A1068B0FBF3F000F092F8044658B953
:10017C000F2D09D8024629464FF0FF3000F054F8F5
:10018C00044B20461D6038BD012038BD0000002006
:10019C002400002004000020074A08B5136803203F
:1001AC0043F01003136000F02DF80020FFF7D0FF90
:1001BC0002F0CCFA002008BD00200240034A044B98
:1001CC0011681B780B441360704700BFB40000200B
:1001DC0000000020014B1868704700BFB4000020DD
:1001EC0038B50446FFF7F6FF0546631C1EBF044BEB
:1001FC001B78E418FFF7EEFF401B8442FAD838BD99
:10020C0000000020074A0002D36800F4E06023F4E9
:10021C00E0631B041B0C43F0BF6343F40033034344
:10022C00D360704700ED00E0174B30B5DC68C4F3C9
:10023C000224C4F10703251D042B28BF0423062D1B
:10024C004FF0010598BF002405FA03F303F1FF33C7
:10025C0088BF033C1940A14005FA04F4013C22403C
:10026C00002842EA01024FEA0212A9BF00F16040E5
:10027C00064BD2B200F56140BBBF00F00F00D2B20A
:10028C0080F800231A5430BD00ED00E014ED00E0BE
:10029C000138B0F1807F0AD2F021064B064A586033
:1002AC0082F823100020072298601A607047012002
:1002BC00704700BF10E000E000ED00E02DE9F74FC3
:1002CC0000242646664BDFF8A8E1DFF8A8C10A68CF
:1002DC0032FA06F502D103B0BDE8F08F4FF00108F9
:1002EC0008FA06F802EA080290457FD14D68122DF3
:1002FC0000F0AA8000F28380022D00F0A28077D853
:10030C00002D00F08980012D00F099804FF00F092D
:10031C00FF2A93BF824606F18045083DD0F800B015
:10032C0092BFB500D0F804B0AD0009FA05F82BEA7D
:10033C00080804FA05F588BF00F1040A48EA050527
:10034C00CAF80050D1F804A01AF0805F4ED0454D89
:10035C00444FAD6926F0030845F00105BD61BD6948
:10036C0008F1804805F00105019508F5803806F084
:10037C00030B019D4FEA8B0BD8F8085009FA0BF9C7
:10038C0025EA0909384DA84263D005F58065A842D5
:10039C0061D005F58065A8425FD005F58065A8425F
:1003AC000CBF0325042505FA0BF545EA0905C8F829
:1003BC0008501D681AF4803F14BF154395431D6007
:1003CC005D681AF4003F14BF154395435D609D684A
:1003DC001AF4801F14BF154395439D60DD681AF411
:1003EC00001F14BF2A4325EA0202DA6001366EE7C9
:1003FC00032D22D0112D89D1CC68043486E71B4FF4
:10040C00BD4209D012D8DFF870904D4504D009F5E3
:10041C0080394D457FF47AAF8C68C4B1012C0CBF88
:10042C00C0F81080C0F8148008246FE77545F3D02D
:10043C006545F1D0DFF84490EBE7002466E7CC6823
:10044C0064E7CC68083461E7CC680C345EE70424BC
:10045C005CE70025A7E70125A5E70225A3E700BF78
:10046C00000401400010024000080140000021106F
:10047C00000031100000321000001110000022109A
:10048C002DE9F04F4FF0040A00234FF001094FF013
:10049C000F0C304A00EB0A0B31FA03F401D1BDE822
:1004AC00F08F09FA03F60E404CD023F0030404F14C
:1004BC00804404F5803403F00307A568BF000CFAF0
:1004CC0007F805EA080E244DA8423DD005F58065D5
:1004DC00A8423BD005F58065A84239D005F580656A
:1004EC00A8420CBF03250425BD40AE456FEA0605A6
:1004FC000FD1A76827EA0807A76014682C4014607E
:10050C0054682C40546094682C409460D4682C40FF
:10051C00D460FF2E91BF07465F4603F18044083C30
:10052C0095BFD0F800E0D0F804E09C00A4000CFAD1
:10053C0004F62EEA06060AFA04F426433E60C46862
:10054C002540C5600133A7E70025CDE70125CBE7A2
:10055C000225C9E7000401400008014083681942E4
:10056C0014BF0120002070470AB1016170470904D3
:10057C00FBE700002DE9F341054608B901203CE0FA
:10058C000368DB0710D42B689F075DD42B68190711
:10059C0000F194802B685A0700F1BE80E8690028AE
:1005AC0040F02C81002028E08F4C636803F00C0392
:1005BC00042B07D0636803F00C03082B09D1636884
:1005CC00DE0306D523689C03DDD56B68002BDAD1DE
:1005DC00D4E76B68B3F5803F12D1236843F48033C2
:1005EC002360FFF7F7FD064623689803CBD4FFF78B
:1005FC00F1FD801B6428F7D9032002B0BDE8F0811F
:10060C009BB9236823F480332360236823F480236D
:10061C002360FFF7DFFD064623689903B3D5FFF788
:10062C00D9FD801B6428F7D9E6E7B3F5A02F236822
:10063C0003D143F480232360CFE723F4803323607A
:10064C00236823F48023CBE7674C636813F00C0F0B
:10065C0007D0636803F00C03082B10D16368DA032E
:10066C000DD423689B0702D52B69012B86D12368F7
:10067C006A6923F0F80343EAC203236086E72A6918
:10068C005A4B6AB101221A60FFF7A4FD0646236893
:10069C009F07ECD4FFF79EFD801B0228F7D9ABE730
:1006AC001A60FFF797FD0646236898077FF56EAF33
:1006BC00FFF790FD801B0228F6D99DE7AA694A4CEA
:1006CC004B4BDAB101221A60FFF784FD0646636AD0
:1006DC009B070DD54FF4FA52464B1B68B3FBF2F354
:1006EC00019300BF019B5A1E0192002BF9D151E7D7
:1006FC00FFF770FD801B0228E9D97DE71A60FFF730
:10070C0069FD0646636A9F077FF544AFFFF762FDFC
:10071C00801B0228F6D96FE7334CE369D80024D448
:10072C000127E36943F08053E361E36903F08053ED
:10073C000093009B304E3368D90518D5EB68012B1C
:10074C0026D1236A43F001032362FFF743FD41F2F4
:10075C0088368046236A9B073FD5002F3FF41EAF97
:10076C00E36923F08053E36118E70027E2E733687D
:10077C0043F480733360FFF72DFD80463368DA0550
:10078C00DCD4FFF727FDA0EB08006428F6D933E78B
:10079C00ABB9236A41F2883823F001032362236A40
:1007AC0023F004032362FFF715FD0646236A98071E
:1007BC00D3D5FFF70FFD801B4045F7D91CE7052B60
:1007CC00236A03D143F004032362BAE723F0010345
:1007DC002362236A23F00403B6E7FFF7FBFCA0EBCC
:1007EC000800B042B6D907E70010024000004242B0
:1007FC008004424224000020007000402A4B5A68BA
:10080C001C4602F00C02082A3DD00023274E022879
:10081C0033602BD1FFF7DEFC0746236899011FD408
:10082C002B6AB3F5803F05D16268A96822F40032C7
:10083C000A436260696A62680B4322F474121343C0
:10084C00636001233360FFF7C5FC054623689A01FA
:10085C003FF5A8AEFFF7BEFC401B0228F6D9CBE64D
:10086C00FFF7B8FCC01B0228D7D9C5E6FFF7B2FCCE
:10087C00054623689B017FF595AEFFF7ABFC401B4B
:10088C000228F6D9B8E601283FF4B7AE58682B6AAF
:10089C0000F480329A427FF471AE6B6A00F47010EF
:1008AC00C01A18BF0120A8E60010024060004242A6
:1008BC0030B5194B87B002AC03F11005224618680D
:1008CC005968083303C2AB421446F7D101238DF8A3
:1008DC000430022311498DF805304B6803F00C02EB
:1008EC00082A17D1C3F3834206A80244DB0312F88B
:1008FC00102C0CD54B680A48C3F34043504306AA4E
:10090C00134413F8143CB0FBF3F007B030BD0548AA
:10091C005043FAE70248F8E7EC33000800100240B5
:10092C0000127A0000093D002DE9F0410D46044605
:10093C0010B90120BDE8F081454A136803F00703A4
:10094C008B4229D321688E0731D4CA0744D4404A3C
:10095C00136803F007039D4267D322683D4D12F0E4
:10096C00040F6ED1130706D56B68226923F460530C
:10097C0043EAC2036B60FFF79BFF6B68364AC3F315
:10098C000313D35CD840354B1860354B1868FFF710
:10099C00DFFB0020BDE8F081136823F007030B4355
:1009AC001360136803F007039942C2D1CAE7294BBD
:1009BC0011F0040F1EBF5A6842F4E0625A60080737
:1009CC0042BF5A6842F460525A605A68A06822F0DA
:1009DC00F00202435A60B8E762681E4E012A33687F
:1009EC001BD113F4003FA4D0736841F2883823F074
:1009FC00030313437360FFF7EDFB074673686268EC
:100A0C0003F00C03B3EB820FA1D0FFF7E3FBC01B89
:100A1C004045F3D90320BDE8F081022A02D113F03E
:100A2C00007FE0E713F0020FDDE7136823F0070304
:100A3C002B431360136803F007039D427FF479AFD7
:100A4C008BE76B68E16823F4E0630B436B6089E729
:100A5C000020024000100240B58E00082400002047
:100A6C0004000020044B054A5B68C3F30223D35CEB
:100A7C00034A1068D840704700100240C58E000829
:100A8C0024000020044B054A5B68C3F3C223D35CEB
:100A9C00034A1068D840704700100240C58E000809
:100AAC0024000020F8B504460E4615461F46216862
:100ABC008A6836EA020301D00020F8BD6B1CF7D01F
:100ACC00FFF788FBC01B8542F1D823685A6822F0D7
:100ADC00E0025A606268B2F5827F0AD1A268B2F570
:100AEC00004F02D0B2F5806F03D11A6822F0400299
:100AFC001A60A26AB2F5005F07D11A6822F400529C
:100B0C001A601A6842F400521A60012384F85130BA
:100B1C000023032084F85030F8BD10B513460A4664
:100B2C0080210446FFF7BEFF20B10320636D43F024
:100B3C002003636510BD10B50446002834D0002393
:100B4C00836290F8513003F0FF021BB980F85020FB
:100B5C0001F01EFE0223226884F851301368A0684D
:100B6C0023F0400313606368A1690343E068034307
:100B7C002069034360690343E0690343206A03432C
:100B8C00A06A034301F40070090C034301F0040153
:100B9C0013605160D369002023F40063D3610123F7
:100BAC00606584F8513010BD012010BD10B50446AD
:100BBC0080B10223026880F85130136823F040039F
:100BCC00136001F01FFE0020606584F8500084F86B
:100BDC00510010BD012010BD2DE9F3411E4690F8C7
:100BEC0050300446012B0D46904600F09C800123AA
:100BFC0080F85030FFF7EEFA074694F85100C0B277
:100C0C00012840F08E80002D5ED0B8F1000F5BD033
:100C1C000323002084F85130A3686065A063A4F816
:100C2C003680A087E087606420642068B3F5004FAD
:100C3C0008BF0368256308BF43F48043A4F83480DD
:100C4C0008BF036003685B065EBF036843F04003A4
:100C5C000360E368B3F5006F63683ED113B1B8F17C
:100C6C00010F07D135F8023BC3602563E38E013BCE
:100C7C009BB2E386E38E9BB2A3B93A46314620463B
:100C8C00FFF74BFF002849D1A36833B901932368C0
:100C9C00DA6801929B680193019B606D003018BF6C
:100CAC00012011E022689368980705D5236B33F86F
:100CBC00021BD1602363D9E7FFF78CFAC01BB0424B
:100CCC00D8D3711CD6D00320012384F851300023D3
:100CDC0084F8503002B0BDE8F08113B1B8F1010FC7
:100CEC0008D12B780373236B01332363E38E013B11
:100CFC009BB2E386E38E9BB2002BBED023689A682E
:100D0C00920703D5226B12781A73ECE7FFF762FA9D
:100D1C00C01B8642EED8731CECD0D4E7202363654D
:100D2C00B2E70220D0E70220D4E72DE9F7431E46B4
:100D3C0090F850300446012B0D4691460A9F00F066
:100D4C00E280012380F85030FFF744FA94F85130D8
:100D5C008046DBB2012B61680AD0B1F5827F40F08E
:100D6C00D080A068002840F0CC80042B40F0C980D3
:100D7C00002D00F0C480B9F1000F00F0C080002EEF
:100D8C0000F0BD8094F85130C4F83890042B1CBF8F
:100D9C00052384F85130002363652364636423685E
:100DAC00E687E6861A68A687500658BF1A68256338
:100DBC0058BF42F04002A68658BF1A60E268B2F5EE
:100DCC00006F58D109B1012E07D135F8022BDA602A
:100DDC00E38E2563013B9BB2E3860125E38E9BB238
:100DEC00ABB9E38F9BB293B9424639462046FFF725
:100DFC0094FE002840F08180A368002B32D1236838
:100E0C000190DA6801929B680193019B2AE02268A9
:100E1C00936899070DD5E38E9BB253B14DB1002564
:100E2C00236B33F8021BD1602363E38E013B9BB22F
:100E3C00E3869368DB070CD5E38F9BB24BB101259E
:100E4C00D268A36B23F8022BA363E38F013B9BB205
:100E5C00E387FFF7BFF9A0EB08008742BED87E1CE2
:100E6C00BCD00320012384F85130002384F8503087
:100E7C0003B0BDE8F08309B1012E08D12A781A73AA
:100E8C00236B01332363E38E013B9BB2E386012585
:100E9C00E38E9BB21BB9E38F9BB2002BA4D02268CC
:100EAC00936898070ED5E38E9BB25BB155B10025C4
:100EBC00236B1B781373236B01332363E38E013B8A
:100ECC009BB2E38622689368D9070DD5E38F9BB25A
:100EDC0053B10125D268A36B1A70A36B0133A363C2
:100EEC00E38F013B9BB2E387FFF774F9A0EB08009B
:100EFC008742CDD87B1CCBD0B3E720236365012080
:100F0C00B0E70220AEE70220B2E70000036A70B53A
:100F1C0023F001030362036A446882690D6822F0BE
:100F2C0073022A438D6823F002032B430A4DA84217
:100F3C000BD1CD6823F008032B438E694D6924F443
:100F4C004074354323F004032C43446082614A68A7
:100F5C004263036270BD00BF002C0140036A70B590
:100F6C0023F480730362036A4468C2690D6822F03B
:100F7C0073022A438D6823F4007343EA05230B4D57
:100F8C00A8420DD1CD6823F4006343EA05238E6992
:100F9C004D6924F44054354323F4806344EA05142A
:100FAC004460C2614A68C263036270BD002C014098
:100FBC00036A30B523F480530362036A4468C26940
:100FCC000D6822F4E64242EA05228D6823F40053B0
:100FDC0043EA0533064DA84202BF4D6924F4804410
:100FEC0044EA85144460C2614A680264036230BDFD
:100FFC00002C01401A4A036890420AD0B0F1804F8D
:10100C0007D0A2F59432904203D002F58062904250
:10101C0015D14A6823F070031343114A90420AD049
:10102C00B0F1804F07D0A2F59432904203D002F574
:10103C008062904203D1CA6823F4407313434A6917
:10104C0023F08003134303608B68C3620B688362D5
:10105C00034B984204BF0B69036301234361704740
:10106C00002C014010B50446A0B190F83D3003F0BF
:10107C00FF021BB980F83C2001F0D8FB022320684A
:10108C0084F83D30211DFFF7B5FF0123002084F8C3
:10109C003D3010BD012010BD036A70B523F0100364
:1010AC000362036A446882690D6822F4E64242EAEC
:1010BC0005228D6823F0200343EA05130B4DA8424B
:1010CC000DD1CD6823F0800343EA05138E694D6979
:1010DC0024F44064354323F0400344EA850444601F
:1010EC0082614A688263036270BD00BF002C0140BC
:1010FC0038B590F83C300446012B4FF0020025D057
:10110C00012384F83D0084F83C300C2A18D8DFE821
:10111C0002F0071717171E1717172F17171740006E
:10112C002068FFF7F3FE236809699A6942F0080208
:10113C009A619A6922F004029A619A690A439A6147
:10114C000123002084F83D3084F83C0038BD206831
:10115C00FFF7A2FF236809699A6942F400629A6159
:10116C009A6922F480629A619A6942EA0122E6E75E
:10117C002068FFF7F3FE23680969DA6942F0080278
:10118C00DA61DA6922F00402DA61DA690A43DA61B7
:10119C00D6E72068FFF70CFF23680969DA6942F487
:1011AC000062DA61DA6922F48062DA61DA6942EAB1
:1011BC000122ECE710B50124036A01F01F018C40F9
:1011CC0023EA04030362036A8A401A43026210BDD5
:1011DC0010B5044601220068FFF7ECFF2368094AAA
:1011EC000020934202BF5A6C42F400425A649A683F
:1011FC0002F00702062A1EBF1A6842F001021A60AA
:10120C0010BD00BF002C014090F83C3030B5012BD4
:10121C004FF0020314D0046880F83D306268A36874
:10122C000D68496822F0700223F080030B432A43B7
:10123C006260A360012380F83D30002380F83C30CD
:10124C00184630BD38B505460368C1681A691924BB
:10125C0022F440520A431A6182680069D968024339
:10126C00686921F4B05121F00C0102430A43DA60A1
:10127C005A69A96922F440720A435A610D4A934291
:10128C0014D1FFF7FFFB60436C686422A400B0FB31
:10129C00F4F0B0FBF2F402FB14031B013233B3FB8A
:1012AC00F2F3296803EB04138B6038BDFFF7DAFB0C
:1012BC00E9E700BF00380140F8B504460E46174672
:1012CC001D4621680B6836EA030301D10020F8BDE6
:1012DC006B1CF7D095B923680320DA6822F4D0721E
:1012EC00DA605A6922F001025A61202384F83930FD
:1012FC0084F83A30002384F83830F8BDFEF76AFFE2
:10130C00C01B8542DDD2E6E710B5044640B390F829
:10131C00393003F0FF021BB980F8382001F0C0FA15
:10132C002423226884F83930D368204623F40053F0
:10133C00D360FFF787FF236800201A6922F49042DC
:10134C001A615A6922F02A025A61DA6842F4005290
:10135C00DA602023E06384F8393084F83A3010BD29
:10136C00012010BD2DE9F0411F4690F8393004469C
:10137C00202B0D4690464ED1002949D0002A47D04B
:10138C0090F83830012B46D0012380F838300023F8
:10139C00C363212380F83930FEF71CFF0646A4F8FE
:1013AC002480A4F82680E38C9BB26BB93B46324672
:1013BC0040212046FFF780FFA8B9202384F838008D
:1013CC0084F83930BDE8F081E38C3246013B9BB2A6
:1013DC00E384A3688021B3F5805F20463B460ED1A1
:1013EC00FFF76AFF10B10320BDE8F0812B8822685B
:1013FC00C3F308035360236943B90235D3E7FFF7FE
:10140C005BFF0028EFD123682A785A600135CAE7C0
:10141C000120BDE8F0810220BDE8F08110B5044642
:10142C0000224FF400610B48FFF79EF800220221C6
:10143C000848FFF799F8084BDC609A689107FCD5CF
:10144C009A681206FCD40122BDE810400221014822
:10145C00FFF78AB8000C01400030014010B504467B
:10146C0001224FF400610B48FFF77EF800220221A5
:10147C000848FFF779F8084BDC609A689107FCD5AF
:10148C009A681206FCD40122BDE8104002210148E2
:10149C00FFF76AB8000C0140003001402DE9F04123
:1014AC0080460E4640484FF40061174600221D4608
:1014BC00FFF75AF8002202213B48FFF755F82A2380
:1014CC003A4CE360A3689A07FCD5A3681B06FCD4CE
:1014DC0001224FF400613448FFF746F8334A4FEAD3
:1014EC0018231146E36093689C07FCD55FFA88F3D8
:1014FC00D3608B689807FCD53B0ACB602B4B1C4602
:10150C009A689207FCD5FFB2DF60A3689B07FCD5F5
:10151C00A26812F08002FBD14FF400612248FFF761
:10152C0023F82B23E360214B1C469A689707FCD5C4
:10153C00A3681806FCD401224FF400611A48FFF787
:10154C0013F8330AE360194B1A4699688907FCD5DE
:10155C00F6B2DE6093689F07FCD52B0AD360134B61
:10156C001C469A689607FCD5EDB2DD60A368980717
:10157C00FCD5A26812F08002FBD14FF400610A483E
:10158C00FEF7F2FF2C23E360084B1A469968890793
:10159C00FCD593681B06FCD40122BDE8F041022166
:1015AC000148FEF7E1BF00BF000C014000300140D4
:1015BC0010B50D4C00224FF480612046FEF7D4FF8D
:1015CC00C820FEF70DFE002202212046FEF7CCFFBC
:1015DC00C820FEF705FE2046BDE8104001224FF45E
:1015EC008061FEF7C1BF00BF000C014010B50022A6
:1015FC004FF4006104461A48FEF7B6FF00220221A0
:10160C001748FEF7B1FF3622164BDA609A6891073D
:10161C00FCD59A681206FCD4012202211048FEF770
:10162C00A3FF032C0DD8DFE804F0020D1618482098
:10163C00FFF714FFF0220C4B1A804FF4A0720B4BE7
:10164C001A8010BD2820FFF709FF4FF4A072064B3B
:10165C001A80F022F3E78820EAE7E820F3E700BFDE
:10166C00000C0140003001400A000020080000205E
:10167C0008B501224FF480618448FEF775FFFFF72F
:10168C0097FF0120FFF7CAFE4FF47A70FEF7A8FD12
:10169C00CB20FFF7C3FE3920FFF7E0FE2C20FFF72D
:1016AC00DDFE0020FFF7DAFE3420FFF7D7FE022024
:1016BC00FFF7D4FECF20FFF7B1FE0020FFF7CEFEE0
:1016CC00C120FFF7CBFE3020FFF7C8FEE820FFF764
:1016DC00A5FE8520FFF7C2FE0020FFF7BFFE782095
:1016EC00FFF7BCFEEA20FFF799FE0020FFF7B6FEDD
:1016FC000020FFF7B3FEED20FFF790FE6420FFF70C
:10170C00ADFE0320FFF7AAFE1220FFF7A7FE8120F3
:10171C00FFF7A4FEF720FFF781FE2020FFF79EFEC7
:10172C00C020FFF77BFE2320FFF798FEC120FFF7B8
:10173C0075FE1020FFF792FEC520FFF76FFE3E20CE
:10174C00FFF78CFE2820FFF789FEC720FFF766FE07
:10175C008620FFF783FE3620FFF760FE4820FFF758
:10176C007DFE3A20FFF75AFE5520FFF777FEB12099
:10177C00FFF754FE0020FFF771FE1820FFF76EFEF6
:10178C00B620FFF74BFE0820FFF768FE8220FFF71C
:10179C0065FE2720FFF762FEF220FFF73FFE0020D8
:1017AC00FFF75CFE2620FFF739FE0120FFF756FEFF
:1017BC00E020FFF733FE0F20FFF750FE3120FFF73C
:1017CC004DFE2B20FFF74AFE0C20FFF747FE0E20A4
:1017DC00FFF744FE0820FFF741FE4E20FFF73EFEC8
:1017EC00F120FFF73BFE3720FFF738FE0720FFF70D
:1017FC0035FE1020FFF732FE0320FFF72FFE0E20E0
:10180C00FFF72CFE0920FFF729FE0020FFF726FE2C
:10181C00E120FFF703FE0020FFF720FE0E20FFF76C
:10182C001DFE1420FFF71AFE0320FFF717FE1120F0
:10183C00FFF714FE0720FFF711FE3120FFF70EFE15
:10184C00C120FFF70BFE4820FFF708FE0820FFF72A
:10185C0005FE0F20FFF702FE0C20FFF7FFFD3120E5
:10186C00FFF7FCFD3620FFF7F9FD0F20FFF7F6FD23
:10187C001120FFF7D3FD7820FEF7B2FC2920FFF7EB
:10188C00CDFDBDE808400320FFF7B0BE000C0140C1
:10189C0038B50546012212480C464FF40061FEF79C
:1018AC0063FE002202210E48FEF75EFE0D4B2A0A53
:1018BC0064B99A689107FCD59A681206FCD4012287
:1018CC00BDE8384002210648FEF74EBEDA60996842
:1018DC008907FCD5DD6099688807FCD5013CE7E7F2
:1018EC00000C014000300140002170B50646094D46
:1018FC00094C2A88238808469BB292B2FFF7CEFD8A
:10190C002B8821889BB289B23046BDE87040594380
:10191C00FFF7BEBF0A00002008000020F8B54F4BAF
:10192C0005461B880C469BB28342174640F29580B5
:10193C004B4B1B889BB28B4240F28F8000224FF4A2
:10194C0000614848FEF710FE002202214548FEF7D0
:10195C000BFE2A23444EF360B3689B07FCD5B36897
:10196C001806FCD401224FF400613E48FEF7FCFD42
:10197C002B0AF3603C4B1A4699688907FCD5DD604D
:10198C0093689E07FCD501352B12D360364B1E464F
:10199C009A689007FCD5DD60B3689907FCD5B268EE
:1019AC0012F08002FBD14FF400612E48FEF7DCFDF3
:1019BC002B23F3602C4B1D469A689207FCD5AB6821
:1019CC001E06FCD401224FF400612648FEF7CCFD24
:1019DC00230AEB60244B1A4699688807FCD5DC6017
:1019EC0093689907FCD501342312D3601E4B1D4616
:1019FC009A689207FCD5DC60AB689B07FCD5AA689B
:101A0C0012F08002FBD14FF400611648FEF7ACFDDA
:101A1C002C23EB60144B1C469A689607FCD5A368E4
:101A2C001D06FCD401224FF400610E48FEF79CFD0C
:101A3C003B0AE3600C4B1A4699688807FCD5DF60BB
:101A4C0093689907FCD593681B06FCD40122BDE86A
:101A5C00F84002210348FEF787BDF8BD0A000020BC
:101A6C0008000020000C014000300140F8B51A4F6E
:101A7C001C463B8815469BB28342BDF8186029D999
:101A8C00164B1A8892B28A4224D93A8800EB050E7A
:101A9C0092B29645C8BF3D881A88C8BF2D1A01EB73
:101AAC00040792B2C8BFADB29742C8BF1C8800F100
:101ABC00FF32C4BF641AA4B24B1E23442A449BB207
:101ACC0092B2FFF7EBFC05FB04F13046BDE8F840A1
:101ADC00FFF7DEBEF8BD00BF0A00002008000020A2
:101AEC0070B51D46104B14461A8892B282421AD910
:101AFC000E4A128892B28A4215D91A88061992B2E5
:101B0C009642C8BF1C8800F1FF32C4BF241AA4B28D
:101B1C0022440B4692B2FFF7C1FC21462846BDE891
:101B2C007040FFF7B5BE70BD0A0000200800002011
:101B3C0070B51D46104B14461B889BB283421AD9B4
:101B4C000E4B1A8892B28A4215D91A880E1992B283
:101B5C009642C8BF1C8801F1FF33C4BF641AA4B2FB
:101B6C00234402469BB2FFF799FC21462846BDE868
:101B7C007040FFF78DBE70BD0A00002008000020E9
:101B8C002DE9F04F560089B01F46531E5242009368
:101B9C005300069301230293039300238046894646
:101BAC00C6F101060193009B019A934202DA09B037
:101BBC00BDE8F08FBDF80050BDF8044005EB0803FC
:101BCC009BB2049304EB09039BB219463A46049862
:101BDC00079305EB090BFFF7A1FE08EB040293B288
:101BEC001FFA8BFBA8EB040A184659463A461FFA13
:101BFC008AFA0593FFF792FE59463A465046FFF78C
:101C0C008DFEA8EB050B079B1FFA8BFBA9EB0404BD
:101C1C0019463A465846A4B2A9EB0505FFF77EFED5
:101C2C00ADB23A4621465846FFF778FE3A46294669
:101C3C005046FFF773FE3A4629460598FFF76EFEAD
:101C4C003A4621460498FFF769FE002E09DC019BF9
:101C5C0001330193029B1E44002E03F102030293F5
:101C6C00A1DD009B069A013B0093039B0233039377
:101C7C0013441E4497E72DE9F04F0026074688468B
:101C8C00154634469946530085B0C3F101030093C1
:101C9C0063001FFA84FB019308EB0B039BB2A7EBC9
:101CAC00050A02937B199A451CDD1FFA85FB08EB8C
:101CBC000B039BB2A7EB040A02933B199A4524DD54
:101CCC00019B01341E44009B03EB4603002B04DDF7
:101CDC00009B013D1E4402330093A542D8DA05B0A7
:101CEC00BDE8F08F1FFA8AF318464A46029903930F
:101CFC00FFF714FE039BA8EB0B014A4689B218466A
:101D0C00FFF70CFE0AF1010ACCE71FFA8AF318461A
:101D1C004A4602990393FFF701FE039BA8EB0B01C4
:101D2C004A4689B21846FFF7F9FD0AF1010AC4E7E1
:101D3C002DE9F04706469A4689461746151A48BFBC
:101D4C00851ABDF82080ADB25C1A2A464346FFF7CF
:101D5C00C7FE43462A4651463046FFF7C1FE002CCB
:101D6C00B8BFA9EB0A04A4B2434622464946304602
:101D7C00FFF7DEFE4346224649463846FFF7D8FEBB
:101D8C0005B934B1424651463846BDE8F047FFF735
:101D9C00C5BDBDE8F087F0B516461F46151AA3EB76
:101DAC00010448BF801BBDF814E052BFAAB282B236
:101DBC003046002CB6BFC91BA3B28BB2CDF814E0D1
:101DCC00B8BF3946BDE8F040FFF750BE2DE9F74FDC
:101DDC0016465F1AA6EB0008002FB8BF7F42B8F179
:101DEC00000FB8BFC8F10008474504460D461A4617
:101DFC00BDF830B004DD33460C46164605461A468F
:101E0C00B44205DD2B4615461A46234634461E467B
:101E1C00A2EB050A5346002BB8BF5B420193022389
:101E2C00A6EB04091FFA89F90FFA89F191FBF3FA71
:101E3C009542B4BF01234FF0FF330093B44202DD4F
:101E4C0003B0BDE8F08F4745A0B21FFA85FEC8BFAE
:101E5C0001465A46CCBF70467146FFF75FFD019BA9
:101E6C00AAEB03039AB20FFA82FABAF1000F06DA60
:101E7C00009B1D4409EB02032DB20FFA83FA0134C7
:101E8C0024B2DBE770B504460846BDF81060114675
:101E9C00013A1644421E1A4492B2B3B2059DFFF7A2
:101EAC00FDFA01224FF400611048FEF75DFB0F486C
:101EBC0000220221FEF758FB20460D4B2544A84278
:101ECC000CD19A689107FCD59A681206FCD40122B1
:101EDC00BDE8704002210548FEF746BB10F8012B07
:101EEC00DA609A689407FCD5E9E700BF000C014062
:101EFC000030014082B02DE9F04F914687B00C467E
:101F0C00BDF85010BDF84CB01193DFB2C3F30725E8
:101F1C000B0A03934FEA1B230293CBB2059319F8D8
:101F2C0001ABBAF1000F04D107B0BDE8F04F02B01D
:101F3C007047C319B3F5A07F08DB2C44A4B2631916
:101F4C00EF2BF1DCBAF1200F3AD00020AAF1200AD5
:101F5C00C61905FB0AFAB6B26B1EDDF8488023449D
:101F6C00721E9BB292B22146FFF798FA08EB4A0315
:101F7C004FF0000A00935FFA8BF30493AA4501D348
:101F8C003046CCE74FF00008009B33F81A30019331
:101F9C00B84502D30AF1010AF0E7019B03FA08F1F4
:101FAC000B0408D50298FFF759FA0498FFF756FA74
:101FBC0008F10108ECE70398FFF750FA0598F5E7EC
:101FCC000026DDE710B590B02822002106A800F00D
:101FDC00B7FD0021142201A800F0B2FD4FF48033AC
:101FEC000122022407930E934FF4E01306A80692E5
:101FFC000A920F930D94FEF7BDFA0F234FF48062F3
:10200C0001930023214601A80294039304920593A3
:10201C00FEF78AFC10B010BD2DE9F04F9FB0FEF713
:10202C00BBF8FFF7CFFF102200210EA800F088FDAF
:10203C009F4B40F603419A699E4842F020029A61F8
:10204C009A69002402F020020892089A9A694FF0CB
:10205C00010842F004029A619A694FF0020902F0F9
:10206C0004020992099A9A69934D42F008029A6106
:10207C009B69002203F008030A930A9BFEF774FA8B
:10208C0040F603430EA98B480E93CDF83C80CDF857
:10209C0044901094FEF712F904230EA985480E9370
:1020AC000F941094FEF70AF94FF48273834A0A26B0
:1020BC0085E80C004FF40073AB6108232846EB61F4
:1020CC00EE62AC60EC602C616C612C626C62AC6298
:1020DC00FEF731FD4FF4E133794F7A49384687E802
:1020EC000A000C23BC607B61FC603C61BC61FC6140
:1020FC00FFF70AF91C2221460EA80B940C9400F051
:10210C001FFD47234FF47A7BDFF8D0A16E48CAF845
:10211C0008408AE809005046CAF80CB0CAF81040CA
:10212C00CAF81840FEF79EFF0BA950460B940C946E
:10213C00FFF76AF860230E934FF4FA7322460EA948
:10214C0050460F9310941294FEF7D2FF504600F0B5
:10215C0081FB21465046FFF73BF85B4606225B4964
:10216C003846FFF7FFF842F6651A49464FF6FF79F5
:10217C002A6850481368564F43F040031360424698
:10218C00FEF7F2F9424641464A48FEF7EDF9FFF7F1
:10219C006FFA0320FFF72AFA42F66510FFF7A4FB4B
:1021AC004C4BCDF808A0CDF804905A6831460092FB
:1021BC0030463A461B68484EFFF79CFECDF808A007
:1021CC00CDF8049073683A46009333681E211420AE
:1021DC00FFF790FE4FF4787302931F23DFF8008112
:1021EC000193D8F804303A460093D8F800303C21DB
:1021FC001E20FFF77FFE386879680BAB03C3B86805
:10220C004FF4784718604FF4FC6301970293D8F8A9
:10221C0004300BAA0093D8F8003060212820FFF777
:10222C0069FE5846FDF7DCFF5046FFF75DFB642165
:10223C004A460846FFF772FB4FF49670FDF7D0FF45
:10224C004FF4F04264216620FFF768FB4FF4967060
:10225C00FDF7C6FF1F2266216420FFF75FFB4FF4DA
:10226C009670FDF7BDFF66213A460846FFF756FB10
:10227C004FF49670FDF7B4FFAA46A0B24FF6FF726A
:10228C001421FFF74BFB01340A20FDF7A9FF642C46
:10229C00F3D10024A1B21F222820FFF73FFB013409
:1022AC000A20FDF79DFF642CF4D100251AE000BF35
:1022BC0000100240000C01403801002000300140A9
:1022CC00F80000200038014000080040108E000883
:1022DC00178E00081C0000200C000020B800002005
:1022EC0014000020A9B208464FF47842FFF716FB01
:1022FC0001350A20FDF774FF642DF3D14FF47A7089
:10230C00FDF76EFF42F665104FF6FF74FFF7ECFA1F
:10231C000A214623084632220094FFF7A7FB4FF40C
:10232C007A70FDF75DFF42F66510FFF7DDFA0A21C2
:10233C0023460846C822FFF7D3FB4FF47A70FDF70B
:10234C004FFF42F66510FFF7CFFA0A2123460846E5
:10235C00C822FFF7EDFB4FF47A70FDF741FF42F610
:10236C006510FFF7C1FAAF23322278210094A02028
:10237C00FFF72CFD4FF47A70FDF732FF4B239622BA
:10238C00B42100947B20FFF721FD4FF47A70FDF708
:10239C0027FF42F66510FFF7A7FA2346294632229B
:1023AC002846FFF7EDFB4FF47A70FDF719FF42F664
:1023BC006510FFF799FA2346294628229620FFF745
:1023CC005AFC4FF47A70FDF70BFF42F66510FFF7DD
:1023DC008BFA0A214623084632220094FFF7A8FC08
:1023EC004FF47A70FDF7FCFE42F66510FFF77CFAAD
:1023FC0014213C23084646220094FFF7CCFC4FF4F2
:10240C007A70FDF7EDFE42F665105025FFF76CFA79
:10241C004FF448581E222B4611468DE82001BE4829
:10242C00FFF730FD4FF47A70FDF7DAFE42F66510D7
:10243C00FFF75AFA0020FFF7D9F81E2242F665176B
:10244C002B4611468DE82001B348FFF71BFD029780
:10245C0001947368B14A0093336878211E20FFF70A
:10246C0049FD4FF47A70FDF7BBFE3846FFF73CFA96
:10247C000120FFF7BBF81E222B4611468DE82001E8
:10248C00A548FFF7FFFC029701947368A44A0093D8
:10249C00336878211E20FFF72DFD4FF47A70FDF77D
:1024AC009FFE3846FFF720FA0220FFF79FF81E2206
:1024BC002B4611468DE820019748FFF7E3FC029765
:1024CC0001947368974A0093336878211E20FFF7B4
:1024DC0011FD4FF47A70FDF783FE3846FFF704FACE
:1024EC000320FFF783F81E222B4611468DE82001AE
:1024FC008948FFF7C7FC0297019473688A4A0093D6
:10250C00336878211E20FFF7F5FC402200210EA82D
:10251C0000F016FB0124002327469B46834DDFF871
:10252C002892ADF81C30ADF81E30059304212846D6
:10253C00FEF714F88046002840F08A80002F00F047
:10254C00888001220DF1780B2BF85A0D1146ADF84D
:10255C001C002846FEF708F8022101222846FEF747
:10256C0003F84846FEF722FB28234846CAF81C30DD
:10257C00FEF7E1FA594607A800F018FAD0B1BDF8F9
:10258C001E20BDF81C30402100920EA8684A00F0B5
:10259C00DFFA0EA8FDF7D4FD642382B20EA96548BC
:1025AC00FEF7E0FE0EA8FDF7CBFD47461EAB184428
:1025BC0000F8418C4846FEF7F9FA08234846CAF859
:1025CC001C30FEF7B8FADAF800200221136828460E
:1025DC0043F0400313600022FDF7C6FF42F665107E
:1025EC00FFF782F942F6651302934FF6FF730193DE
:1025FC0073680EAA0093336878210A20FFF77AFCDF
:10260C00BDF81C30A3F1FB02212A05D8BDF81E2011
:10261C00423A92B21D2A18D9A3F17902262A05D87A
:10262C00BDF81E20333A92B2262A0ED99A1F532A8D
:10263C004BD8BDF81E20A13A92B2442A45D8002CA2
:10264C0043D0FDF7C7FD00240590FDF7C3FD83467D
:10265C003FB9FDF7BFFDA0EB0B00C82894BF0027C6
:10266C00012784BB04212846FDF778FF58BBFDF7F2
:10267C00B1FD059BC01AB0F5FA6F7FF657AF042178
:10268C002846FDF76BFFF0B9BDF81C20931F532BA8
:10269C0027D8BDF81E30A13B9BB2442B21D8642314
:1026AC000D2225492348FEF75DFE42F66513029381
:1026BC004FF6FF7301937368204A00933368962199
:1026CC000A20FFF717FC012430E7653B622BBCD8CE
:1026DC00BDF81E30A13B9BB2442BB6D8002CB4D015
:1026EC00AFE7653A622AEED8BDF81E30A13B9BB22B
:1026FC00442BE8D864230D2211490E48FEF732FE14
:10270C0042F6651302934FF6FF73019373680D4AFB
:10271C0000933368D3E700BF105C0008238E0008D9
:10272C00358E0008498E00085B8E0008000C0140B5
:10273C006F8E0008F80000207F8E00088D8E000838
:10274C009A8E0008A88E0008380100200E4B82B02B
:10275C009A6942F001029A619A6902F001020092B0
:10276C00009ADA6942F08052DA61DB69074A03F0B9
:10277C0080530193019B536823F0E06343F0007393
:10278C00536002B0704700BF0010024000000140CF
:10279C0010B5044686B01022002102A800F0D0F932
:1027AC002268164B9A4226D103F560439A6902A916
:1027BC0042F480529A619A69114802F48052009254
:1027CC00009A9A6942F004029A619B6903F004032F
:1027DC000193019BA02302930223039303230593EC
:1027EC00FDF76CFD40230293002302A904480393D8
:1027FC000493FDF763FD06B010BD00BF003001402F
:10280C00000801400268064B9A4208D1054AE021B3
:10281C009369054823F480539361FDF731BE7047EB
:10282C000030014000100240000801400268084BD3
:10283C0082B09A420AD103F50233DA6942F00402FB
:10284C00DA61DB6903F004030193019B02B070476A
:10285C000008004010B5044686B01022002102A8E2
:10286C0000F06EF922680C4B9A4213D103F5023337
:10287C009A6902A942F008029A619B69074803F021
:10288C0008030193019B40230293022303930593B6
:10289C00FDF714FD06B010BD00080040000C01400F
:1028AC0010B5044686B01022002102A800F048F9A9
:1028BC002268174B9A4228D103F558439A6902A90A
:1028CC0042F480429A619A69124802F48042009262
:1028DC00009A9A6942F004029A619B6903F004031E
:1028EC000193019B4FF40073029302230393032380
:1028FC000593FDF7E3FC4FF480630293002302A9D8
:10290C00044803930493FDF7D9FC06B010BD00BF37
:10291C0000380140000801407047FEE7FEE7FEE783
:10292C00FEE7704770477047FDF748BC08B50A4B87
:10293C000246196809B909491960694618680244C0
:10294C008A4206D900F0D2F80C2303604FF0FF3016
:10295C0008BD1A6008BD00BFA8000020940100202B
:10296C000F4B1A6842F001021A6059680D4A0A406E
:10297C005A601A6822F0847222F480321A601A6843
:10298C0022F480221A605A6822F4FE025A604FF434
:10299C001F029A604FF00062034B9A60704700BFB1
:1029AC00001002400000FFF800ED00E0F0B5064614
:1029BC0085B00D4635480421FDF7D0FD04460028AE
:1029CC0062D14FF47A77024601213048FDF7CCFDF5
:1029DC004FF47A7301222E492E48FEF7FDF804AA13
:1029EC0022F8084D022300972B492A48FEF79DF93F
:1029FC003B46012229492748FEF7EEF804AA22F8A3
:102A0C00044D0223009724492248FEF78EF9012237
:102A1C001E481146BDF80C70BDF80840FDF7A4FD2A
:102A2C0040F2DB537FBABFB264BA9F42A4B225D93D
:102A3C0047F23052974228BF17469C4221D947F2A1
:102A4C0030539C4228BF1C464FF4A07346F6547278
:102A5C007B43A3F5EA23A3F54073B3FBF2F3338076
:102A6C00F02346F66C326343A3F51223A3F5F86307
:102A7C00B3FBF2F301202B8005B0F0BD40F2DC5724
:102A8C00DBE740F6C414DFE70020F5E7000C01405B
:102A9C00CE8E000838010020CF8E0008CD8E0008A5
:102AAC00002103E00B4B5B58435004310A480B4B9D
:102ABC0042189A42F6D30A4A02E0002342F8043B39
:102ACC00084B9A42F9D3FFF74BFF00F015F8FFF7CC
:102ADC00A3FA70470C8F0008000000208C00002027
:102AEC008C00002094010020FEE70000014B1868C8
:102AFC00704700BF2800002070B500250C4E0D4C0F
:102B0C00A41BA410A54209D100F05EFC00250A4EBE
:102B1C000A4CA41BA410A54205D170BD56F8253053
:102B2C0098470135EEE756F8253098470135F2E71E
:102B3C00048F0008048F0008048F0008088F000819
:102B4C0003460244934200D1704703F8011BF9E796
:102B5C000CB430B5174B0C1E9DB01D6808DA8B23D6
:102B6C004FF0FF302B601DB0BDE8304002B0704715
:102B7C004FF40273ADF814300CBF234604F1FF334D
:102B8C00049307934FF6FF7302900690ADF816303E
:102B9C00209A21AB02A92846019300F069F8431C46
:102BAC00BCBF8B232B60002CDDD00022029B1A7043
:102BBC00D9E700BF280000202DE9F0478E68824637
:102BCC009E420C469146984635D88A8912F4906FED
:102BDC0031D00223256809696F1A656905EB450533
:102BEC0095FBF3F508F101033B449D4238BF1D46AC
:102BFC00530531D5294600F047FB064650B90C2346
:102C0C00CAF80030A3894FF0FF3043F04003A38192
:102C1C00BDE8F0873A46216900F0C4FAA38923F491
:102C2C00906343F08003A38126613E4426604646B0
:102C3C006561ED1BA560464528BF464649463246B0
:102C4C00206800F0BAFAA36800209B1BA3602368DD
:102C5C001E442660BDE8F0872A4600F073FB06464A
:102C6C000028E1D12169504600F0C2FAC7E7000004
:102C7C002DE9F04F9DB003938B8980461C060D46C1
:102C8C0016460FD50B696BB9402100F0FDFA286090
:102C9C00286128B90C23C8F800304FF0FF30C4E08D
:102CAC0040236B610023099320238DF829303023B6
:102CBC004FF0010B8DF82A3037463C4614F8013B97
:102CCC00002B3CD1B7EB060A0BD0534632462946B3
:102CDC004046FFF771FF013000F0A280099B53447E
:102CEC0009933B78002B00F09B8000234FF0FF32C0
:102CFC0004930793059206938DF853301A9305228B
:102D0C002178504800F040FA671C049BD8B9D906CA
:102D1C0044BF20228DF853201A0744BF2B228DF874
:102D2C00532022782A2A16D000210A20079A2746F7
:102D3C003B780134303B092B50D9C9B111E0252B1C
:102D4C00C0D02746B9E73F4A3C46801A0BFA00F040
:102D5C0018430490D3E7039A111D12680391002ABB
:102D6C0001DB079204E0524243F002030792049302
:102D7C003B782E2B0DD17B78791C2A2B32D1039BDF
:102D8C0002371A1D1B680392002BB8BF4FF0FF339C
:102D9C0005932D4C03223978204600F0F5F938B113
:102DAC004023001B03FA00F0049B013703430493F8
:102DBC003978062225487E1C8DF8281000F0E4F99D
:102DCC00002835D0224BFBB9039B073323F00703B4
:102DDC0008330393099B4B4409936DE700FB0232C4
:102DEC000121A4E700230A24184605930F463A78DC
:102DFC000131303A092A03D9002BCAD00590C8E713
:102E0C0004FB00200123F1E703AB00932A46114B8E
:102E1C0004A94046AFF30080B0F1FF3F8146D9D101
:102E2C00AB895B063FF539AF09981DB0BDE8F08F53
:102E3C0003AB00932A46074B04A9404600F084F8E4
:102E4C00EAE700BFD18E0008D78E0008DB8E0008A1
:102E5C0000000000C52B00082DE9F04791461F46E5
:102E6C008A680B6906469342B8BF1346C9F800300E
:102E7C0091F843200C46DDF8208012B10133C9F8DB
:102E8C0000302368990642BFD9F800300233C9F8E4
:102E9C000030256815F0060507D104F1190AE3681E
:102EAC00D9F800209B1A9D422ADB94F84330226803
:102EBC00003318BF012392062FD404F14302394684
:102ECC003046C047013022D02368E56803F0060382
:102EDC00042B18BF0025D9F800204FF0000908BFBB
:102EEC00AD1AA368226908BF25EAE5759342C4BFF1
:102EFC009B1AED181A344D451BD10020BDE8F08704
:102F0C000123524639463046C047013003D14FF0B9
:102F1C00FF30BDE8F0870135C1E73020E11881F8BA
:102F2C0043005A1C94F845102244023382F8431093
:102F3C00C3E70123224639463046C0470130E6D06C
:102F4C0009F10109D7E700002DE9F04317460A7E85
:102F5C0085B06E2A984606460C460C9B01F1430E32
:102F6C0000F0BC801AD8632A2ED00AD8002A00F0B0
:102F7C00C880582A00F08A8004F1420584F8422067
:102F8C002AE0642A01D0692AF6D121681A6811F066
:102F9C00800F23D0111D1960136827E0732A00F0ED
:102FAC00B48008D86F2A2AD0702AE5D10A6842F07A
:102FBC0020020A6003E0752A21D0782ADCD178221D
:102FCC006F4984F8452064E01A6801F14205111D2F
:102FDC001960136884F842300123A3E011F0400F0C
:102FEC0002F104011960D7D0B2F90030002B03DADA
:102FFC002D225B4284F8432062490A2217E02068A4
:10300C00196810F0800F03D0081D18600B6806E0DB
:10301C0010F0400F01F104001860F7D00B886F2AF4
:10302C0014BF0A2208225749002084F8430065681F
:10303C00002DA560C0F29C80206820F00400206068
:10304C00002B3FD1002D40F095807546082A0BD1FE
:10305C002368DA0708D5236962689A42DEBF3023F9
:10306C0005F8013C05F1FF35AEEB05032361CDF806
:10307C0000803B4603AA21463046FFF7EDFE0130A7
:10308C0055D14FF0FF3005B0BDE8F08381F84520F5
:10309C003C492268186812F0800F00F104051D608D
:1030AC0001D0036802E05506FBD50388D00744BF66
:1030BC0042F0200222601BB9226822F0200222601A
:1030CC001022B1E77546B3FBF2F002FB1033CB5C78
:1030DC0005F8013D03460028F5D1B7E708681A68E2
:1030EC0010F0800F496904D0101D18601368196026
:1030FC0007E010F0400F02F1040018601368F6D0DE
:10310C001980002375462361B1E71A68111D1960F7
:10311C00156800216268284600F036F808B1401B9B
:10312C00606063682361002384F843309FE7236960
:10313C002A4639463046C0470130A2D023689B0747
:10314C0007D5002504F11909E368039A9B1A9D42DF
:10315C0005DBE068039B9842B8BF184693E7012350
:10316C004A4639463046C04701308AD00135EBE734
:10317C00002BA7D10B7804F1420584F8423065E7A7
:10318C00F38E0008E28E000810B5C9B202449042DA
:10319C00034601D1002010BD1C7801308C42F6D1C1
:1031AC00184610BD10B5431E0A44914200D110BD03
:1031BC0011F8014B03F8014FF7E7884210B501EB0A
:1031CC00020303D8421E99420CD110BD9842F9D289
:1031DC008118D21AD34200D110BD13F8014D01F859
:1031EC00014DF7E711F8014B02F8014FEBE7000036
:1031FC0038B50546002943D051F8043C0C1F002B70
:10320C00B8BFE41800F0D4F81E4A1368104633B95E
:10321C00636014602846BDE8384000F0CAB8A34289
:10322C000BD921686218934201BF1A685B68521867
:10323C00226063600460EDE713465A680AB1A2424B
:10324C00FAD919685818A0420BD1206801445818B3
:10325C0082421960DED110685268014419605A60CC
:10326C00D8E702D90C232B60D4E7206821188A42B6
:10327C0001BF116852680918216062605C60C9E77F
:10328C0038BD00BFAC00002070B5CD1C25F0030587
:10329C0008350C2D38BF0C25002D064601DBA94244
:1032AC0003D90C233360002070BD00F081F8234A51
:1032BC001468214691B9224C23681BB9304600F0A2
:1032CC0067F820602946304600F062F8431C26D18E
:1032DC000C233046336000F06CF8E4E70B685B1BA2
:1032EC001AD40B2B0FD90B60CC18CD50304600F0F4
:1032FC0060F804F10B00231D20F00700C31A1BD04B
:10330C005A42E25070BD8C420BBF63684B6813602D
:10331C00636018BF0C46E9E70C464968CAE7C41C51
:10332C0024F00304A04205D0211A304600F030F8F6
:10333C000130CDD02560D9E770BD00BFAC000020B6
:10334C00B0000020F8B5074614460E4621B91146C8
:10335C00BDE8F840FFF798BF22B9FFF749FF2546B3
:10336C002846F8BD00F026F884420FD9214638468D
:10337C00FFF78AFF05460028F2D031462246FFF7B8
:10338C0011FF31463846FFF733FFE9E73546E7E7EB
:10339C0038B50023054C054608462360FFF7C6FAEE
:1033AC00431C02D1236803B12B6038BD900100206F
:1033BC007047704751F8040C0028A0F10400BCBF02
:1033CC000B58C01870470000F8B500BFF8BC08BC1B
:1033DC009E467047F8B500BFF8BC08BC9E467047C7
:1033EC0002030405060708090A0B0C0D0E0F10103A
:1033FC0000000000000000000000000000000000C1
:10340C0000000000000000000000000000000000B0
:10341C00000000000000000C000C000C000C000C64
:10342C00000C000C000C000C000C000C0000000C3C
:10343C00000C0000000000000000001B001B001B23
:10344C00001B001B0000000000000000000000003A
:10345C0000000000000000000000000000008019C7
:10346C00801980198019C07FC07F80190033C07FFC
:10347C00C07F003300330033003300000000000035
:10348C000000001E003F807580650074003C001E2B
:10349C0000078005806580658075003F001E000474
:1034AC00000400000000007000D840D8C0D880D9BB
:1034BC0000730006000C801BC036C066C046C006F8
:1034CC0080030000000000000000001E003F0033DD
:1034DC0000330033001E000CC03CC066806380616A
:1034EC008063C03E801C0000000000000000000C47
:1034FC00000C000C000C000C000000000000000090
:10350C0000000000000000000000000000000000AF
:10351C00800000010003000600060004000C000CF3
:10352C00000C000C000C000C00040006000600034C
:10353C0000018000002000100018000C000C00049A
:10354C000006000600060006000600060004000C3B
:10355C00000C0018001000200000000C002D003F93
:10356C00001E0033000000000000000000000000FE
:10357C00000000000000000000000000000000003F
:10358C000000000C000C000C000CC0FFC0FF000C75
:10359C00000C000C000C00000000000000000000FB
:1035AC00000000000000000000000000000000000F
:1035BC0000000000000000000000000C000C0004E3
:1035CC0000040008000000000000000000000000E3
:1035DC00000000000000001E001E000000000000A3
:1035EC0000000000000000000000000000000000CF
:1035FC0000000000000000000000000000000000BF
:10360C000000000C000C0000000000000000000393
:10361C00000300030006000600060006000C000C68
:10362C00000C000C0018001800180000000000002E
:10363C000000001E003F0033806180618061806D5E
:10364C00806D8061806180610033003F001E00004E
:10365C000000000000000006000E001E00360026D0
:10366C00000600060006000600060006000600061E
:10367C0000060000000000000000001E003F8073E8
:10368C0080618061800100030006000C001800308E
:10369C000060807F807F0000000000000000001CA4
:1036AC00003E006300630003000E000E0003800167
:1036BC00800180618073003F001E0000000000004C
:1036CC0000000006000E000E001E001E0016003644
:1036DC0000360066807F807F000600060006000032
:1036EC00000000000000007F007F006000600060B0
:1036FC00006E007F80638001800180618073003FD9
:10370C00001E0000000000000000001E003F80337F
:10371C0080610060006E007F8073806180618061D9
:10372C008033003F001E0000000000000000807F7E
:10373C00807F80010003000300060006000C000CD3
:10374C00000C000800180018001800000000000011
:10375C000000001E003F8063806180610021001E1C
:10376C00003F8061806180618061003F001E00002D
:10377C00000000000000001E003F007380618061AB
:10378C0080618073803F801D800180610073003FE9
:10379C00001E0000000000000000000000000000FF
:1037AC000000000C000C00000000000000000000F5
:1037BC000000000C000C00000000000000000000E5
:1037CC000000000000000000000C000C00000000D5
:1037DC00000000000000000C000C000400040008B5
:1037EC00000000000000000080008003000E003884
:1037FC0000600038000E8003800000000000000014
:10380C000000000000000000000000000000807FAD
:10381C00807F00000000807F807F0000000000009F
:10382C00000000000000000000000000000000008C
:10383C0000400070001C000780010007001C007095
:10384C000040000000000000000000000000001F0D
:10385C00803FC071C060C000C00180030007000E33
:10386C00000C000C0000000C000C0000000000001C
:10387C000000001E003F803180718063806F806D7E
:10388C00806D806F806700600032003E001C00007D
:10389C00000000000000000E000E001B001B001BAF
:1038AC00001B80318031803F803F8031C060C06020
:1038BC00C0600000000000000000007C007E00637F
:1038CC00006300630063007E007E006380618061A2
:1038DC008063007F007E0000000000000000001EDE
:1038EC00003F80318061006000600060006000601B
:1038FC00006080618031003F001E0000000000006D
:10390C000000007C007F00638063806180618061C7
:10391C0080618061806100630063007E007C000038
:10392C00000000000000807F807F0060006000606D
:10393C000060007F007F0060006000600060807F9E
:10394C00807F0000000000000000807F807F00600E
:10395C00006000600060007F007F0060006000601D
:10396C000060006000600000000000000000001E0D
:10397C00003F803180610060006000608063806384
:10398C00806180618031803F001E000000000000DB
:10399C000000806180618061806180618061807FD6
:1039AC00807F8061806180618061806180610000C6
:1039BC00000000000000003F003F000C000C000C59
:1039CC00000C000C000C000C000C000C000C003F58
:1039DC00003F000000000000000080018001800119
:1039EC008001800180018001800180018061806103
:1039FC008073003F001E0000000000000000C0604B
:103A0C008061006300660066006C0078007C0066D4
:103A1C000066006380618061C060000000000000EF
:103A2C0000000060006000600060006000600060EA
:103A3C0000600060006000600060807F807F00009C
:103A4C00000000000000C071C071C07BC07AC06A69
:103A5C00C06AC06EC064C060C060C060C060C0603E
:103A6C00C06000000000000000008071807180794F
:103A7C0080798079806D806D806D806580678067CE
:103A8C008067806380630000000000000000001E5F
:103A9C00003F003380618061806180618061806162
:103AAC00806180610033003F001E000000000000B8
:103ABC000000007E007F8063806180618061806394
:103ACC00007F007E0060006000600060006000000D
:103ADC00000000000000001E003F00338061806188
:103AEC008061806180618061806580670033803F88
:103AFC00401E0000000000000000007E007F80637C
:103B0C00806180618063007F007E006600630063DB
:103B1C0080618061C0600000000000000000000EA9
:103B2C00001F8031803100300038001E00078003F8
:103B3C00806180618031003F001E000000000000A9
:103B4C000000C0FFC0FF000C000C000C000C000CAF
:103B5C00000C000C000C000C000C000C000C000005
:103B6C0000000000000080618061806180618061E4
:103B7C008061806180618061806180618073003FC1
:103B8C00001E0000000000000000C060C060C060AB
:103B9C00803180318031001B001B001B001B000E8C
:103BAC00000E000E00040000000000000000C0C069
:103BBC00C0C0C0C0C0C0C0C0C0CC804C804C805EF7
:103BCC008052805280738061806100000000000090
:103BDC000000C0C0806080610033003B001E000C00
:103BEC00000C001E001F003B80718061C0C00000F3
:103BFC00000000000000C0C0806180610033003311
:103C0C00001E001E000C000C000C000C000C000C24
:103C1C00000C0000000000000000803F803F80018D
:103C2C00000300030006000C000C00180018003004
:103C3C000060807F807F000000000000000F000FFC
:103C4C00000C000C000C000C000C000C000C000C08
:103C5C00000C000C000C000C000C000C000F000FF2
:103C6C000000001800180018000C000C000C000CD0
:103C7C000006000600060006000300030003000017
:103C8C0000000000001E001E0006000600060006D4
:103C9C0000060006000600060006000600060006E8
:103CAC0000060006001E001E0000000C000C001E8A
:103CBC0000120033003380618061000000000000BE
:103CCC0000000000000000000000000000000000E8
:103CDC0000000000000000000000000000000000D8
:103CEC00000000000000000000000000E0FF0000E9
:103CFC00000000380018000C00000000000000005C
:103D0C0000000000000000000000000000000000A7
:103D1C000000000000000000000000000000001F78
:103D2C00803F80618001801F803F80618063807F45
:103D3C00C03800000000000000000060006000605F
:103D4C000060006E007F80738061806180618061A3
:103D5C008073007F006E0000000000000000000077
:103D6C00000000000000001E003F807380610060B6
:103D7C00006080618073003F001E000000000000A6
:103D8C0000008001800180018001801D803F8073D4
:103D9C0080618061806180618073803F801D000044
:103DAC000000000000000000000000000000001EE9
:103DBC00003F00738061807F807F00608071003FD6
:103DCC00001E0000000000000000C007C00F000C27
:103DDC00000C807F807F000C000C000C000C000C91
:103DEC00000C000C000C00000000000000000000A3
:103DFC0000000000801D803F8073806180618061C5
:103E0C0080618073803F801D80018063007F003E55
:103E1C0000000060006000600060006F807F8071B7
:103E2C00806180618061806180618061806100005F
:103E3C000000000000000006000600000000003E2C
:103E4C00003E0006000600060006000600060006FE
:103E5C000006000000000000000600060000000044
:103E6C00003E003E000600060006000600060006A6
:103E7C000006000600060046007E003C00000060C4
:103E8C00006000600060806100630066006C007C74
:103E9C000076006300638061C060000000000000D9
:103EAC000000003E003E000600060006000600066C
:103EBC0000060006000600060006000600060000CC
:103ECC00000000000000000000000000000080DD89
:103EDC00C0FFC0CEC0CCC0CCC0CCC0CCC0CCC0CC41
:103EEC00C0CC00000000000000000000000000003A
:103EFC000000006F807F80718061806180618061D3
:103F0C008061806180610000000000000000000002
:103F1C00000000000000001E003F80738061806183
:103F2C00806180618073003F001E00000000000073
:103F3C000000000000000000006E007F80738061B4
:103F4C008061806180618073007F006E0060006022
:103F5C00006000600000000000000000801D803F39
:103F6C00807380618061806180618073803F801D7F
:103F7C008001800180018001000000000000000031
:103F8C0000000067803F0039003000300030003006
:103F9C000030003000300000000000000000000085
:103FAC00000000000000001E803F80610060007F68
:103FBC00803F80018061007F001E00000000000037
:103FCC0000000000000800180018007F007F001897
:103FDC0000180018001800180018801F800F00002F
:103FEC0000000000000000000000000000008061E4
:103FFC008061806180618061806180618063807F8D
:10400C00803D0000000000000000000000000000E7
:10401C000000C060803180318031001B001B001B10
:10402C00000E000E00060000000000000000000062
:10403C0000000000000080DD80DD80DD00550055B3
:10404C0000550077007700220022000000000000DD
:10405C00000000000000000000008061003300330D
:10406C00001E000C000C001E0033003380610000A9
:10407C000000000000000000000000008061806172
:10408C00803100330033001B001B001B000E000EA0
:10409C00000E001C007C00700000000000000000FE
:1040AC000000C07FC07F800100030006000C0018D8
:1040BC000030C07FC07F000000000000800380073C
:1040CC0000060006000600060006000E001C001C80
:1040DC00000E00060006000600060006800780039E
:1040EC000006000600060006000600060006000694
:1040FC000006000600060006000600060006000684
:10410C00000600060038003C000C000C000C000CF3
:10411C00000C000E00070007000E000C000C000C39
:10412C00000C000C003C00380000000000000000F7
:10413C000000000000008038807F00470000000075
:10414C000000000000000000000000000000000063
:10415C000000000000000000000000000000000053
:10416C000000000000000000000000000000000043
:10417C000000000000000000000000000000000033
:10418C00E003E003E003E003E003E003E003E0030B
:10419C00C003C003C001C001C001C001C0010000C8
:1041AC0000000000E003E003E0030000000000005A
:1041BC00000000003C1E3C1E3C1E3C1E3C1E3C1ED7
:1041CC003C1E000000000000000000000000000089
:1041DC0000000000000000000000000000000000D3
:1041EC000000000000000000CE01CE03DE039E03A1
:1041FC009C039C07FF3FFF7F3807380F780F780F21
:10420C00780EFFFFFFFFF01EF01CE01CE03CE03DD1
:10421C00E03900000000000000000000FC03FE0F6D
:10422C00EE1FE01EE01EE01EE01EE01FE00FE007A8
:10423C00F003FC01FE01FE01FE01FE01FE01FE0188
:10424C00FE3DFC3FF00FE001E0010000000000002B
:10425C00033E07F78FE78EE79EE3BCE3B8E7F8E78A
:10426C00F0F7E03FC001FF03FF07F307F30FF31E66
:10427C00F33CF338F3787FF03FE0000000000000DF
:10428C0000000000E007F80F780F781F781F781FE8
:10429C00780FF00FE00F801FC37FC3FBE7F3F7F13C
:1042AC00F7F0FFF07FF03EF87F7CFF3FEF1F000040
:1042BC000000000000000000E003E003E003E00366
:1042CC00E003C003C001000000000000000000007B
:1042DC0000000000000000000000000000000000D2
:1042EC000000000000000000000000003F007C0007
:1042FC00F001E001C003C00780078007800F000FAA
:10430C00000F000F000F000F000F800F80078007B9
:10431C00C007C003E001F0017C003F000F0000006B
:10432C00007E001FC007C003E001F001F000F000A8
:10433C00F800780078007800780078007800F800B1
:10434C00F000F000F001E001C003C007001F007E88
:10435C0000780000E003C003C001CE39FF3F7F3F6F
:10436C0020037003F807780F3C1F3806000000008C
:10437C000000000000000000000000000000000031
:10438C000000000000000000000000000000000021
:10439C0000000000C001C001C001C001C001C0018B
:1043AC00C001FFFFFFFFC001C001C001C001C0017F
:1043BC00C001000000000000000000000000000030
:1043CC0000000000000000000000000000000000E1
:1043DC000000000000000000000000000000E003EE
:1043EC00E003E003E003E001E001E001C001800331
:1043FC0000000000000000000000000000000000B1
:10440C00000000000000FE3FFE3F00000000000026
:10441C000000000000000000000000000000000090
:10442C000000000000000000000000000000000080
:10443C000000000000000000000000000000000070
:10444C00000000000000E003E003E003E0030000D4
:10445C0000000000000000000F000F001E001E00F6
:10446C003C003C0078007800F000F000E001E00136
:10447C00C003C00380078007000F000F001E001E42
:10448C00003C003C0078007800F00000F007F80FCA
:10449C007C1F3E3E1E3C1F7C1F7C0F780F780F78D4
:1044AC000F780F780F780F781F7C1F7C1E3C3E3ED8
:1044BC007C1FF80FF0070000000000000000000057
:1044CC00F000F007F03FF03FF001F001F001F001D7
:1044DC00F001F001F001F001F001F001F001F00148
:1044EC00F001F001F001FF3FFF3F00000000000071
:1044FC0000000000E00FF83F7C3C3C003E003E001A
:10450C003E003C003C007C00F800F001E003C007DA
:10451C008007000F001E003E003CFE3FFE3F0000E7
:10452C000000000000000000F00FF81F7C1C3E0093
:10453C003E003E003C003C00F800F00FF80F7C0001
:10454C003E001E001E001E001E003E007C1CF81FBC
:10455C00E01F000000000000000000007800F800E0
:10456C00F800F801F803F807F807780F781E781EA2
:10457C00783C78787878FFFFFFFF78007800780037
:10458C0078007800780000000000000000000000B7
:10459C00FC1FFC1FFC1F001E001E001E001E001E28
:1045AC00E01FF81FFC007C003E003E001E003E0099
:1045BC003E003C007C1CF81FE01F000000000000C7
:1045CC0000000000FC01FE078E0F001F001E003EC5
:1045DC00003C003CF83DFC3F3E7F1F7E0F3C0F3CF7
:1045EC000F3C0F3C0F3E1F1E3E1FFC0FF003000044
:1045FC000000000000000000FF3FFF3FFF3F0F00E6
:10460C001E001E003C0038007800F000F000E001B5
:10461C00E001C003C0038007800F800F000F001F54
:10462C00001F00000000000000000000F807FC0F55
:10463C003E1F1E1E1E3E1E3E1E1E3C1FF80FF00788
:10464C00F80FFC1E3E3E1F3C1F7C0F7C0F7C1F3C5A
:10465C003E3FFC1FF00700000000000000000000BF
:10466C00F007F80F7C1E3E3C1E3C1F7C1F7C1F7C01
:10467C001F7C1F3C3F3EFF1FEF071F001E001E004C
:10468C003E003C00F838F03FE01F00000000000046
:10469C00000000000000000000000000000000000E
:1046AC00E003E003E003E003000000000000000072
:1046BC00000000000000E003E003E003E003000062
:1046CC0000000000000000000000000000000000DE
:1046DC0000000000E003E003E003E0030000000042
:1046EC0000000000000000000000E003E003E00315
:1046FC00E003E001E001E001C003800300000000E2
:10470C00000000000000000003000F003F00FC0050
:10471C00F003C00F003F00FE003FC00FF003FC0091
:10472C003F000F000300000000000000000000002C
:10473C00000000000000000000000000000000006D
:10474C0000000000FFFFFFFF000000000000FFFF63
:10475C00FFFF00000000000000000000000000004F
:10476C00000000000000000000000000000000003D
:10477C0000E000F8007E801FE007F8017E001F00BB
:10478C007E00F801E007801F007E00F800E00000CA
:10479C000000000000000000F01FFC3F3E381F38F6
:1047AC001F381E001E003C007800F000E001C00322
:1047BC00C003C007C007000000000000C007C0070E
:1047CC00C00700000000000000000000F803FE0F0E
:1047DC001E1F0F3E7F3CFF78EF79C773C7F38FF333
:1047EC008FF38FF39FF39FF3FF73FF7BF779003CFD
:1047FC001C1FFC0FF803000000000000000000006C
:10480C00000000000000E003E003F007F007F007F1
:10481C00780F780F7C0E3C1E3C1E3E3CFE3FFF3F4B
:10482C001F780F780FF007F007F000000000000071
:10483C0000000000000000000000F83FFC3F3E3C80
:10484C001E3C1E3C1E3C3E3C7C3CF03FF83F7E3CFC
:10485C001F3C1F3C0F3C0F3C1F3CFE3FF83F000031
:10486C000000000000000000000000000000FF013C
:10487C00FF07871F003E003C007C00780078007822
:10488C0000780078007C007C003E003F831FFF070F
:10489C00FF0100000000000000000000000000000C
:1048AC000000F07FFC7F7E781F781F780F780F78E0
:1048BC000F780F780F780F780F780F781F781E7895
:1048CC007E78F87FE07F0000000000000000000010
:1048DC00000000000000FF3FFF3F003E003E003E96
:1048EC00003E003E003EFE3FFE3F003E003E003ECE
:1048FC00003E003E003EFF3FFF3F00000000000076
:10490C0000000000000000000000FF1FFF1F001E41
:10491C00001E001E001E001E001EFF1FFF1F001E9B
:10492C00001E001E001E001E001E001E001E0000A9
:10493C000000000000000000000000000000FE036A
:10494C00FF0F871F003E007C007C007800F800F809
:10495C007FF87FF80F780F7C0F7C0F3E8F1FFF0FB7
:10496C00FE0300000000000000000000000000003A
:10497C0000001F7C1F7C1F7C1F7C1F7C1F7C1F7CEE
:10498C001F7CFF7FFF7F1F7C1F7C1F7C1F7C1F7C7D
:10499C001F7C1F7C1F7C000000000000000000003A
:1049AC00000000000000FF3FFF3FE003E003E003D6
:1049BC00E003E003E003E003E003E003E003E003D3
:1049CC00E003E003E003FF3FFF3F000000000000B6
:1049DC0000000000000000000000FC1FFC1F7C0019
:1049EC007C007C007C007C007C007C007C007C00DB
:1049FC007C007C0078007800F838F03FC03F000065
:104A0C0000000000000000000000000000001F3C3F
:104A1C001E3C3C3C783CF03CE03DE03FC03F803FDE
:104A2C00C03FE03FF03DF03C783C7C3C3E3C1F3CC2
:104A3C000F3C00000000000000000000000000001F
:104A4C000000003E003E003E003E003E003E003EA8
:104A5C00003E003E003E003E003E003E003E003E5A
:104A6C00003EFF3FFF3F0000000000000000000080
:104A7C000000000000001FF81FFC1FFC3FFE3FFE63
:104A8C003FFE7FFF77FF77FFF7F7E7F7E7F3E7F3F3
:104A9C00C7F307F007F007F007F000000000000074
:104AAC00000000000000000000000F7C0F7C0F7E57
:104ABC000F7F0F7F8F7F8F7FCF7FEF7BEF79FF791A
:104ACC00FF78FF787F783F783F781F781F78000059
:104ADC000000000000000000000000000000F007D3
:104AEC00FC1F3E3E1F7C0F780F780FF80FF80FF865
:104AFC000FF80FF80FF80F780F781F7C3E3EFC1F55
:104B0C00F0070000000000000000000000000000A2
:104B1C000000FC3FFF3F1F3E0F3E0F3E0F3E0F3E7F
:104B2C001F3E3F3EFC3FF03F003E003E003E003E3D
:104B3C00003E003E003E00000000000000000000AF
:104B4C00000000000000F007FC1F3E3E1F7C0F78A9
:104B5C000F780FF80FF80FF80FF80FF80FF80F7811
:104B6C000F781F7C3E3EFC1FF8077C003F000F00B7
:104B7C0003000000000000000000F03FFC3F7E3C02
:104B8C003E3C1E3C1E3C3E3C3C3CFC3CF03FE03F73
:104B9C00F03DF83C7C3C3E3C1E3C1F3C0F3C000076
:104BAC000000000000000000000000000000FC07F6
:104BBC00FE1F0E3E003C003C003C003EC01FF80FA8
:104BCC00FE037F001F000F000F001F203E3CFC3F28
:104BDC00F01F0000000000000000000000000000BA
:104BEC000000FFFFFFFFE003E003E003E003E0034E
:104BFC00E003E003E003E003E003E003E003E00391
:104C0C00E003E003E00300000000000000000000EF
:104C1C000000000000000F7C0F7C0F7C0F7C0F7CD1
:104C2C000F7C0F7C0F7C0F7C0F7C0F7C0F7C0F7C20
:104C3C001E3C1E3C3E3EFC1FF00700000000000026
:104C4C000000000000000000000007F007F007F86B
:104C5C000F780F7C1E3C1E3C1E3E3C1E3C1F781FDA
:104C6C00780FF80FF007F007F007E003E0030000FF
:104C7C00000000000000000000000000000003E045
:104C8C0003F003F007F0E7F3E7F3E7F3E773F77BE1
:104C9C00F77FFF7F7F7F7F7F7E7F7E3F3E3E3E3E66
:104CAC003E3E00000000000000000000000000007C
:104CBC00000007F80F7C1E3E3E3E3C1FF80FF0072D
:104CCC00E007E003E003F007F80F7C0F7C1E3E3C8E
:104CDC001F780F780FF000000000000000000000AB
:104CEC0000000000000007F807780F7C1E3C1E3EF9
:104CFC003C1F780FF80FF007E003E003E003E0033C
:104D0C00E003E003E003E003E00300000000000028
:104D1C0000000000000000000000FF7FFF7F0F007C
:104D2C001F003E007C00F800F000E001E003C0072B
:104D3C00800F000F001E003E007CFF7FFF7F0000F5
:104D4C000000000000000000FF07800780078007BC
:104D5C00800780078007800780078007800780070F
:104D6C0080078007800780078007800780078007FF
:104D7C00800780078007FF07FF0700000078007896
:104D8C00003C003C001E001E000F000F8007800737
:104D9C00C003C003E001E001F000F00078007800EF
:104DAC003C003C001E001E000F000F00070000001E
:104DBC00F07FF000F000F000F000F000F000F000E8
:104DCC00F000F000F000F000F000F000F000F00057
:104DDC00F000F000F000F000F000F000F000F07FC8
:104DEC00F07F0000C000C001C001E003E003F00749
:104DFC00F0077807780F380F3C1E3C1E1E3C1E3CFB
:104E0C000F380F7807780000000000000000000049
:104E1C000000000000000000000000000000000086
:104E2C000000000000000000000000000000000076
:104E3C000000000000000000000000000000000066
:104E4C000000FFFFFFFF000000000000F00000006A
:104E5C000000000000000000000000000000000046
:104E6C000000000000000000000000000000000036
:104E7C000000000000000000000000000000000026
:104E8C00000000000000000000000000F80FFC3FD4
:104E9C007C3C3E003E003E00FE07FE1F3E3E3E7C3C
:104EAC003E783E7C7E7CFF3FCF1F00000000000060
:104EBC0000000000003C003C003C003C003C003C7E
:104ECC00F83DFE3F3E3F1F3E0F3C0F3C0F3C0F3C5E
:104EDC000F3C0F3C1F3C1E3C3E3FFC3FF03B000098
:104EEC0000000000000000000000000000000000B6
:104EFC0000000000FE03FF0F871F003E003E003C39
:104F0C00007C007C007C003C003E003E871FFF0FB5
:104F1C00FE03000000000000000000001F001F0046
:104F2C001F001F001F001F00FF07FF1F3F3E1F3CFD
:104F3C001F7C1F7C1F7C1F781F781F7C1F7C3F3CB5
:104F4C007F3EFF1FDF0F000000000000000000008C
:104F5C00000000000000000000000000F803FC0F3F
:104F6C003E1F1E3E1F3C1F7CFF7FFF7F007C007C92
:104F7C00003C003E071FFF0FFE0300000000000076
:104F8C0000000000FF01E103C003C007C007C00719
:104F9C00FF7FFF7FC007C007C007C007C007C0075F
:104FAC00C007C007C007C007C007C007C007000084
:104FBC0000000000000000000000000000000000E5
:104FCC0000000000EF07FF1F7F3E1F3C1F7C1F7C73
:104FDC001F781F781F781F7C1F7C3F3C7F3EFF1F74
:104FEC00DF0F1E001E001E007C38F83F003C003C0A
:104FFC00003C003C003C003CFC3DFE3F9E3F1F3F04
:10500C001F3E1F3C1F3C1F3C1F3C1F3C1F3C1F3CBA
:10501C001F3C1F3C1F3C0000000000000000000073
:10502C00F001F0010000000000000000E07FE07FD4
:10503C00E001E001E001E001E001E001E001E0015C
:10504C00E001E001E001E001E001000000000000EF
:10505C0000000000F800F800000000000000000054
:10506C00F83FF83FF800F800F800F800F800F800F6
:10507C00F800F800F800F800F800F800F800F80064
:10508C00F800F000F071E07F003C003C003C003C7C
:10509C00003C003C1F3C3E3C7C3CF83CF03DE03D81
:1050AC00C03FC03FE03FF03DF83C7C3C3E3C1F3CE9
:1050BC001F3C00000000000000000000F07FF00129
:1050CC00F001F001F001F001F001F001F001F0014C
:1050DC00F001F001F001F001F001F001F001F0013C
:1050EC00F001F001F00100000000000000000000E1
:1050FC000000000000000000000000009EF7FFFF11
:10510C00FFFFFFFFE7FBE7F9C7F1C7F1C7F1C7F1F5
:10511C00C7F1C7F1C7F1C7F1C7F1000000000000EB
:10512C000000000000000000000000000000000073
:10513C00FC3DFE3F9E3F1F3F1F3E1F3C1F3C1F3C44
:10514C001F3C1F3C1F3C1F3C1F3C1F3C1F3C0000D6
:10515C000000000000000000000000000000000043
:10516C0000000000F007FC1F3E3E1F3C1F7C0F7828
:10517C000F780F780F780F781F7C1F3C3E3EFC1F7A
:10518C00F00700000000000000000000000000001C
:10519C000000000000000000F83DFE3F3E3F1F3EB7
:1051AC000F3C0F3C0F3C0F3C0F3C0F3C1F3C1E3E7A
:1051BC003E3FFC3FF83F003C003C003C003C003CC8
:1051CC00000000000000000000000000EE07FE1FC1
:1051DC007E3E1E3C1E7C1E781E781E781E781E7825
:1051EC001E7C3E7C7E3EFE1FDE0F1E001E001E003F
:1051FC001E001E0000000000000000000000000067
:10520C007F1FFF1FE71FC71F871F001F001F001FE7
:10521C00001F001F001F001F001F001F001F0000A9
:10522C000000000000000000000000000000000072
:10523C0000000000FC07FE1F0E1E003E003E003F5B
:10524C00E01FFC07FE003E001E001E003E3CFC3F23
:10525C00F01F000000000000000000000000000033
:10526C000000800780078007FF7FFF7F8007800793
:10527C0080078007800780078007800780078007EA
:10528C00C007FF03FF010000000000000000000049
:10529C000000000000000000000000001E3C1E3C4E
:1052AC001E3C1E3C1E3C1E3C1E3C1E3C1E3C1E3C22
:1052BC003E3C7E3CFE3EFE1FDE0F00000000000068
:1052CC0000000000000000000000000000000000D2
:1052DC0007F00F780F781E3C1E3C1E3E3C1E3C1EF9
:1052EC00780F780FF00FF007F007E003E0030000F1
:1052FC0000000000000000000000000000000000A2
:10530C000000000003F0E3F1E3F3E7F3F7F3F7F346
:10531C00F77F777F7F7F7F7F7F7F3E3E3E3E3E3EA7
:10532C003E3E0000000000000000000000000000F5
:10533C0000000000000000000F7C1E3E3C3E3C1FA5
:10534C00F80FF007F007E003F007F807F80F7C1EE2
:10535C003E3E1F3C1F7800000000000000000000D3
:10536C0000000000000000000000000007F80F78AB
:10537C000F7C1E3C1E3C3C1E3C1E3C1F780FF80F45
:10538C00F007F007E003E003C003C003C00380078D
:10539C00800F007F000000000000000000000000F3
:1053AC00FF3FFF3F1F003E007C00F800F001E003D0
:1053BC00C007800F001F001E003CFF7FFF7F000016
:1053CC000000000000000000FE01E003C003C00369
:1053DC00C003C003E001E001E001C001C003803F55
:1053EC00803FC003C001E001E001E001C003C00345
:1053FC00C003C003E003FE017E000000C001C00139
:10540C00C001C001C001C001C001C001C001C00188
:10541C00C001C001C001C001C001C001C001C00178
:10542C00C001C001C001C001C001C001C001000029
:10543C00C03FE003E001E001E001E001C001C00376
:10544C00C003C001E001FE00FE00E001C001C0038A
:10545C00C003C001E001E001E001E001E003C03F56
:10546C00003F0000000000000000000000000000F1
:10547C0000000000000000000000073FC77FE7733A
:10548C00FFF17EF0000000000000000000000000B2
:10549C000000000000000000000000000000000000
:1054AC0000000000000000000000000000100010D0
:1054BC000010001000100010000000100000000090
:1054CC000028002800280000000000000000000058
:1054DC000000000000240024007C00240048007C14
:1054EC00004800480000000000380054005000380C
:1054FC000014005400540038001000000020005428
:10550C00005800300028005400140008000000006F
:10551C000010002800280010003400480048003417
:10552C00000000000010001000100000000000003F
:10553C000000000000000000000800100020002007
:10554C000020002000200020001000080020001087
:10555C0000080008000800080008000800100020DF
:10556C0000100038001000280000000000000000AF
:10557C00000000000000000000100010007C001073
:10558C0000100000000000000000000000000000FF
:10559C0000000000000000100010001000000000CF
:1055AC0000000000000000380000000000000000B7
:1055BC0000000000000000000000000000000010CF
:1055CC00000000000008000800100010001000107F
:1055DC00002000200000000000380044004400546B
:1055EC00004400440044003800000000001000306B
:1055FC0000500010001000100010001000000000FF
:10560C000038004400440004000800100020007C16
:10561C0000000000003800440004001800040004DE
:10562C000044003800000000000800180028002882
:10563C000048007C0008000800000000007C0040CE
:10564C000040007800040004004400380000000012
:10565C000038004400400078004400440044003806
:10566C0000000000007C0004000800100010002066
:10567C0000200020000000000038004400440038E6
:10568C00004400440044003800000000003800448E
:10569C0000440044003C00040044003800000000BA
:1056AC0000000000001000000000000000000010CE
:1056BC0000000000000000000000001000000000CE
:1056CC00000000100010001000000000000C003062
:1056DC0000400030000C0000000000000000000042
:1056EC000000007C0000007C0000000000000000B6
:1056FC0000000000006000180004001800600000AA
:10570C0000000000003800440004000800100010E5
:10571C00000000100000000000380044004C005451
:10572C00005C004000400038000000000010002821
:10573C00002800280028007C0044004400000000E1
:10574C000078004400440078004400440044007891
:10575C0000000000003800440040004000400040C1
:10576C000044003800000000007000480044004471
:10577C00004400440048007000000000007C004021
:10578C000040007C004000400040007C0000000015
:10579C00007C004000400078004000400040004089
:1057AC00000000000038004400400040005C004451
:1057BC000044003800000000004400440044007C19
:1057CC000044004400440044000000000038001075
:1057DC000010001000100010001000380000000035
:1057EC000004000400040004000400040044003819
:1057FC0000000000004400480050006000500048C9
:10580C000048004400000000004000400040004000
:10581C00004000400040007C000000000044006C90
:10582C00006C00540044004400440044000000009C
:10583C0000440064006400540054004C004C0044CC
:10584C0000000000003800440044004400440044C0
:10585C00004400380000000000780044004400447C
:10586C000078004000400040000000000038004478
:10587C00004400440044004400540038000400007C
:10588C00007800440044004400780048004800447C
:10589C000000000000380044004000300008000404
:1058AC000044003800000000007C001000100010C4
:1058BC000010001000100010000000000044004414
:1058CC000044004400440044004400380000000040
:1058DC000044004400440028002800280010001058
:1058EC000000000000440044005400540054006CBC
:1058FC0000280028000000000044002800280010A8
:10590C00001000280028004400000000004400445F
:10591C0000280028001000100010001000000000EB
:10592C00007C000400080010001000200040007CE7
:10593C0000000000001800100010001000100010F3
:10594C0000100010001000180020002000100010A3
:10595C0000100010000800080000000000300010CB
:10596C00001000100010001000100010001000308B
:10597C000010002800280044000000000000000077
:10598C00000000000000000000000000000000000B
:10599C0000000000000000FE0020001000000000CD
:1059AC0000000000000000000000000000000000EB
:1059BC0000380044003C0044004C0034000000005F
:1059CC00004000400058006400440044006400584B
:1059DC0000000000000000000038004400400040BF
:1059EC000044003800000000000400040034004CA7
:1059FC0000440044004C0034000000000000000093
:105A0C0000380044007C00400044003800000000D6
:105A1C00000C0010007C0010001000100010001092
:105A2C0000000000000000000034004C0044004462
:105A3C00004C003400040078004000400058006422
:105A4C00004400440044004400000000001000002A
:105A5C00007000100010001000100010000000007A
:105A6C00001000000070001000100010001000105A
:105A7C00001000E000400040004800500060005062
:105A8C0000480044000000000070001000100010DE
:105A9C0000100010001000100000000000000000BA
:105AAC0000780054005400540054005400000000CE
:105ABC00000000000058006400440044004400440E
:105ACC0000000000000000000038004400440044C6
