:020000040800F2
:100000000050002069130008FD120008FF120008CC
:100010000113000803130008051300080000000086
:1000200000000000000000000000000007130008AE
:1000300009130008000000000B1300080D1300084E
:10004000B1130008B1130008B1130008B113000880
:10005000B1130008B1130008B1130008B113000870
:10006000B1130008B1130008B11300081113000800
:10007000B1130008B1130008B1130008B113000850
:10008000B1130008B1130008B1130008B113000840
:10009000B1130008B1130008B1130008B113000830
:1000A000B1130008B1130008B1130008B113000820
:1000B000B1130008B1130008B1130008B113000810
:1000C000B1130008B1130008B1130008B113000800
:1000D000B1130008B1130008B1130008B1130008F0
:1000E000B1130008B1130008B113000800000000AC
:1000F0000000000000000000000000000000000000
:0C01000000000000000000005FF808F1A3
:10010C0010B5054C237833B9044B13B10448AFF345
:10011C0000800123237010BD70000020000000003F
:10012C00A01C000808B5034B1BB103490348AFF3EF
:10013C00008008BD0000000074000020A01C000816
:10014C00034613F8012B002AFBD1181A013870470B
:10015C0038B50E4B054618784FF47A73B3FBF0F3B1
:10016C000B4A1068B0FBF3F000F08CF8044658B959
:10017C000F2D09D8024629464FF0FF3000F042F807
:10018C00044B20461D6038BD012038BD0000002006
:10019C000800002004000020074A08B5136803205B
:1001AC0043F01003136000F01BF80020FFF7D0FFA2
:1001BC0001F040F8002008BD00200240034A044B27
:1001CC0011681B780B441360704700BFE4000020DB
:1001DC0000000020014B1868704700BFE4000020AD
:1001EC00074A0002D36800F4E06023F4E0631B04C8
:1001FC001B0C43F0BF6343F400330343D3607047DD
:10020C0000ED00E0174B30B5DC68C4F30224C4F1F8
:10021C000703251D042B28BF0423062D4FF00105D1
:10022C0098BF002405FA03F303F1FF3388BF033CA6
:10023C001940A14005FA04F4013C2240002842EA8E
:10024C0001024FEA0212AFBF00F16040064B00F012
:10025C000F00D2B2A5BFD2B200F561401A5480F89B
:10026C00002330BD00ED00E014ED00E00123420955
:10027C0000F01F0003FA00F0014B43F82200704716
:10028C0000E100E00138B0F1807F0AD2F021064B8A
:10029C00064A586082F823100020072298601A60E2
:1002AC0070470120704700BF10E000E000ED00E057
:1002BC0010B530B314220168134B84680B44B3FBA4
:1002CC00F2F39B000364114B0A68C363436822F486
:1002DC007F522343C46822F0300223430469234332
:1002EC004469234384692343C469234313430B6048
:1002FC000122002380F82120836380F820301846E7
:10030C0010BD012010BD00BFF8FFFDBF0000024072
:10031C00F0B590F82040012C35D0012490F82150F4
:10032C0080F82040A5424FF000064FF0020428D17F
:10033C0080F82140046886632668076C26F0010665
:10034C002660C66BBD407560636043680568102B02
:10035C00C36A0BBFA260A160E160E2604BB123688D
:10036C0043F00E0323602B68002043F001032B6045
:10037C00F0BD236823F004032360236843F00A03D1
:10038C00F0E780F820600220F0BD000070B4042576
:10039C00C66B026C3468036895402542196832D0EC
:1003AC004D0730D51A6896065EBF1A6822F0040213
:1003BC001A603E4A934219D01432934218D0143228
:1003CC00934217D01432934217D01432934217D061
:1003DC00143293420CBF4FF480034FF08063344AC5
:1003EC005360C36A002B5ED070BC18470423F6E739
:1003FC004023F4E74FF48063F1E74FF48043EEE7DA
:10040C004FF48023EBE702259540254235D08D072C
:10041C0033D51A68940606D41A6822F00A021A60B8
:10042C00012280F82120214A934219D014329342A0
:10043C0018D01432934217D01432934217D014327E
:10044C00934217D0143293420CBF4FF400134FF069
:10045C000073174A5360002380F82030836AC1E789
:10046C000223F6E72023F4E74FF40073F1E74FF48F
:10047C000053EEE74FF40033EBE708259540254297
:10048C0011D009070FD5196821F00E01196001234D
:10049C0003FA02F27260836380F82130002380F843
:1004AC002030036B9EE770BC704700BF0800024011
:1004BC000000024090F8203010B5012B04461AD0F1
:1004CC00012380F8203090F82100984211D10329A3
:1004DC000FD8DFE801F002080A0CA262002000230A
:1004EC0084F8203010BDE262F8E72263F6E762631D
:1004FC00F4E70120F3E7022010BD00002DE9F74FCF
:10050C0000221646654BDFF8A4E1DFF8A4C14FF0DA
:10051C0001080C6808FA06F808EA0404A0457FD123
:10052C004D68122D00F0AF8000F28880022D00F093
:10053C00A7807CD8002D00F08E80012D00F09E80CD
:10054C004FF00F09FF2C93BF824606F18045083D02
:10055C00D0F800B092BFB500D0F804B0AD0009FAE5
:10056C0005F82BEA080802FA05F588BF00F1040A21
:10057C0048EA0505CAF80050D1F804A01AF0805FCB
:10058C004ED0474D464FAD6926F0030845F00105A6
:10059C00BD61BD6908F1804805F00105019508F5BC
:1005AC00803806F0030B019D4FEA8B0BD8F80850EE
:1005BC0009FA0BF925EA09093A4DA84268D005F564
:1005CC008065A84266D005F58065A84264D005F523
:1005DC008065A8420CBF0325042505FA0BF545EAF6
:1005EC000905C8F808501D681AF4803F14BF25434C
:1005FC00A5431D605D681AF4003F14BF2543A54355
:10060C005D609D681AF4801F14BF2543A5439D604F
:10061C00DD681AF4001F14BF2C4325EA0404DC60C7
:10062C000136102E7FF473AF03B0BDE8F08F032DAD
:10063C0022D0112D84D1CA68043281E71A4FBD42F1
:10064C0009D012D8DFF86C904D4504D009F58039EB
:10065C004D457FF475AF8A68C2B1012A0CBFC0F852
:10066C001080C0F8148008226AE77545F3D0654500
:10067C00F1D0DFF84490EBE7002261E7CA685FE74E
:10068C00CA6808325CE7CA680C3259E7042257E79B
:10069C000025A2E70125A0E702259EE70004014002
:1006AC000010024000080140000021100000311031
:1006BC0000003210000011100000221003682DE918
:1006CC00F341DB07054610D42B689F075ED42B68DB
:1006DC00190700F195802B685A0700F1BF80EA6971
:1006EC00002A40F02D81002014E0904C636803F048
:1006FC000C03042B07D0636803F00C03082B0CD1FC
:10070C006368DE0309D523689C03DDD56B68002B79
:10071C00DAD1012002B0BDE8F0816B68B3F5803FFF
:10072C0010D1236843F480332360FFF753FD064652
:10073C0023689803C8D4FFF74DFD801B6428F7D9B4
:10074C000320E7E79BB9236823F4803323602368F5
:10075C0023F480232360FFF73DFD064623689903AD
:10076C00B2D5FFF737FD801B6428F7D9E8E7B3F55E
:10077C00A02F236803D143F480232360D1E723F413
:10078C0080332360236823F48023CDE7674C6368B0
:10079C0013F00C0F07D0636803F00C03082B10D177
:1007AC006368DA030DD423689B0702D52B69012BF0
:1007BC00AFD123686A6923F0F80343EAC2032360CC
:1007CC0085E72A695A4B6AB101221A60FFF702FDCC
:1007DC00064623689F07ECD4FFF7FCFC801B02281D
:1007EC00F7D9ADE71A60FFF7F5FC064623689807C2
:1007FC007FF56DAFFFF7EEFC801B0228F6D99FE763
:10080C00AA694A4C4B4BDAB101221A60FFF7E2FCA1
:10081C000646636A9B070DD54FF4FA52464B1B688C
:10082C00B3FBF2F3019300BF019B5A1E0192002B04
:10083C00F9D150E7FFF7CEFC801B0228E9D97FE7FE
:10084C001A60FFF7C7FC0646636A9F077FF543AF44
:10085C00FFF7C0FC801B0228F6D971E7334CE36923
:10086C00D80024D40127E36943F08053E361E369A2
:10087C0003F080530093009B304E3368D90518D594
:10088C00EB68012B26D1236A43F001032362FFF7A7
:10089C00A1FC41F288368046236A9B073FD5002F86
:1008AC003FF41DAFE36923F08053E36117E70027A2
:1008BC00E2E7336843F480733360FFF78BFC8046C8
:1008CC003368DA05DCD4FFF785FCA0EB080064285C
:1008DC00F6D935E7ABB9236A41F2883823F0010326
:1008EC002362236A23F004032362FFF773FC06469A
:1008FC00236A9807D3D5FFF76DFC801B4045F7D9C9
:10090C001EE7052B236A03D143F004032362BAE7E5
:10091C0023F001032362236A23F00403B6E7FFF7F5
:10092C0059FCA0EB0800B042B6D909E70010024010
:10093C000000424280044242080000200070004047
:10094C00224C636803F00C03082B3FF4E2AE002347
:10095C001F4E022A33602BD1FFF73CFC074623685D
:10096C0099011FD42B6AB3F5803F05D16268A96841
:10097C0022F400320A436260696A62680B4322F413
:10098C0074121343636001233360FFF723FC0546A5
:10099C0023689A013FF5A7AEFFF71CFC401B022809
:1009AC00F6D9CDE6FFF716FCC01B0228D7D9C7E64F
:1009BC00FFF710FC054623689B017FF594AEFFF70B
:1009CC0009FC401B0228F6D9BAE600BF0010024011
:1009DC006000424230B5194B87B002AC03F11005F0
:1009EC00224618685968083303C2AB421446F7D143
:1009FC0001238DF80430022311498DF805304B6822
:100A0C0003F00C02082A17D1C3F3834206A8024450
:100A1C00DB0312F8102C0CD54B680A48C3F3404387
:100A2C00504306AA134413F8143CB0FBF3F007B080
:100A3C0030BD05485043FAE70248F8E7B81C0008F7
:100A4C000010024000127A0000093D00544A2DE9C2
:100A5C00F0411368054603F007038B420E462AD378
:100A6C0029688C0734D4CA0747D44D4A136803F05D
:100A7C0007039E42C0F082802A684A4C12F0040F91
:100A8C0040F08780130706D563682A6923F4605306
:100A9C0043EAC2036360FFF79DFF6368424AC3F3F6
:100AAC000313D35CD840414B18600020FFF750FB78
:100ABC000020BDE8F081136823F007030B4313609B
:100ACC00136803F007039942CAD00120BDE8F081F6
:100ADC00344B11F0040F1EBF5A6842F4E0625A60A6
:100AEC00080742BF5A6842F460525A605A68A868B4
:100AFC0022F0F00202435A60B5E76A68294C012AD9
:100B0C0023681CD113F4003FDFD0636841F28838AE
:100B1C0023F0030313436360FFF75CFB6B6807462A
:100B2C00012B14D1636803F00C03042B9DD0FFF749
:100B3C0051FBC01B4045F5D90320BDE8F081022ACA
:100B4C0002D113F0007FDFE713F0020FDCE7022B7A
:100B5C000FD1636803F00C03082B86D0FFF73AFB28
:100B6C00C01B4045F5D9E7E7FFF734FBC01B4045F8
:100B7C00E2D8636813F00C0FF6D176E7136823F014
:100B8C00070333431360136803F007039E429CD1A1
:100B9C0072E76368E96823F4E0630B43636071E711
:100BAC000020024000100240461D000808000020F2
:100BBC00044B054A5B68C3F30223D35C034A1068F9
:100BCC00D840704700100240561D00080800002055
:100BDC00044B054A5B68C3F3C223D35C034A106819
:100BEC00D840704700100240561D00080800002035
:100BFC002DE9F0470568C2682B69016923F440535D
:100C0C0013432B618368EA680B43416922F4B052A9
:100C1C0022F00C020B431343EB606B69826923F4E3
:100C2C00407313436B61404B81469D424FF0190456
:100C3C0046D1FFF7CDFF04FB00F3D9F804604FF069
:100C4C006408B600B3FBF6F3B3FBF8F31E01FFF731
:100C5C00BFFF6043D9F804309B00B0FBF3F7FFF7FC
:100C6C00B7FF6043D9F804309B00B0FBF3F3B3FB40
:100C7C00F8F308FB13731B013233B3FBF8F303F0E7
:100C8C00F007FFF7A5FF6043D9F804209200B0FBF2
:100C9C00F2FAFFF79DFF6043D9F804309B00B0FBDC
:100CAC00F3F3B3FBF8F308FB13A31B013233B3FBD1
:100CBC00F8F303F00F033B433344AB60BDE8F0871C
:100CCC00FFF776FF04FB00F3D9F804604FF06408DB
:100CDC00B600B3FBF6F3B3FBF8F31E01FFF768FFA6
:100CEC006043D9F804309B00B0FBF3F7FFF760FFCB
:100CFC006043D9F804309B00B0FBF3F3B3FBF8F37B
:100D0C0008FB13731B013233B3FBF8F303F0F0074A
:100D1C00FFF74EFF6043D9F804209200B0FBF2FAC3
:100D2C00FFF746FFB7E700BF00380140F8B50446AF
:100D3C000E4617461D4621680B6836EA030301D19F
:100D4C000020F8BD6B1CF7D095B923680320DA6836
:100D5C0022F4D072DA605A6922F001025A6120231F
:100D6C0084F8393084F83A30002384F83830F8BDF0
:100D7C00FFF730FAC01B8542DDD2E6E710B504461A
:100D8C0040B390F8393003F0FF021BB980F83820DB
:100D9C0000F072FA2423226884F83930D368204694
:100DAC0023F40053D360FFF723FF236800201A6954
:100DBC0022F490421A615A6922F02A025A61DA68C6
:100DCC0042F40052DA602023E06384F8393084F86E
:100DDC003A3010BD012010BD2DE9F0411F4690F8AE
:100DEC0039300446202B0D4690464ED1002949D06F
:100DFC00002A47D090F83830012B46D0012380F8D8
:100E0C0038300023C363212380F83930FFF7E2F92F
:100E1C000646A4F82480A4F82680E38C9BB26BB918
:100E2C003B46324640212046FFF780FFA8B92023DD
:100E3C0084F8380084F83930BDE8F081E38C324610
:100E4C00013B9BB2E384A3688021B3F5805F20460D
:100E5C003B460ED1FFF76AFF10B10320BDE8F081CD
:100E6C002B882268C3F308035360236943B9023506
:100E7C00D3E7FFF75BFF0028EFD123682A785A608D
:100E8C000135CAE70120BDE8F0810220BDE8F08100
:100E9C00184B70B51B68184D184A3F211360284633
:100EAC00174A00F0ADFA2846FFF74AF9154C82B202
:100EBC0029464FF47A73144D2046FFF78DFF4FF4FB
:100ECC007A73092211492046FFF786FF2846FFF75F
:100EDC0037F9294682B24FF47A732046FFF77CFF2C
:100EEC002046BDE870404FF47A730A220849FFF798
:100EFC0073BF00BF041000E0B80000208C0000207D
:100F0C00C81C0008E800002090000020DA1C000833
:100F1C00E41C0008002310B5934200DB10BDCC5C30
:100F2C00C4540133F8E7002310B5934200DB10BD25
:100F3C0051F8234040F823400133F6E710B590B048
:100F4C002822002106A800F053FA0021142201A83F
:100F5C0000F04EFA4FF480330122022407930E93D3
:100F6C004FF4E01306A806920A920F930D94FFF724
:100F7C00A5FB0F234FF4806201930023214601A8A7
:100F8C000294039304920593FFF760FD10B010BD1B
:100F9C001FB5FFF701F9FFF7D1FF924B4FF48041DA
:100FAC009A69002442F020029A619A694FF4E13662
:100FBC0002F020020292029A9A698B4D42F00402CE
:100FCC009A619A69894802F004020392039A5A6959
:100FDC0042F001025A615B69402203F00103019364
:100FEC00019B802385E80F0028462C616C61AC6165
:100FFC00EC61FFF75DF9224621460B20FFF702F961
:10100C000B20FFF733F97A487A4B846080E848006C
:10101C000C23C460436104618461C461FFF7AEFEBC
:10102C00754A21462846FFF745FA744B744A03F17A
:10103C00140153F8040B8B4242F8040BF9D14FF412
:10104C007A7309226F496A48FFF7C6FE6C48FFF7AE
:10105C0077F84FF47A7382B269496548FFF7BCFEA2
:10106C004FF47A73012268496148FFF7B5FE0022FC
:10107C00664D67492A600B68664C43F080730B60C1
:10108C002260654A136843F0010313605C4B634AAA
:10109C0003F1140153F8040B8B4242F8040BF9D101
:1010AC0023685F4A3F215F482B6000F0A9F95D4837
:1010BC00FFF746F84FF47A7382B25A494C48FFF75F
:1010CC008BFE4FF47A73092257494948FFF784FE87
:1010DC005248FFF735F8002682B24FF47A734F4925
:1010EC004348FFF779FE4FF47A7301224649404892
:1010FC00FFF772FE14220021484800F079F92E60A7
:10110C0014223F4945482660FFF704FF2368474AED
:10111C003F2144482B6000F073F94248FFF710F868
:10112C004FF47A7382B23F493148FFF755FE4FF4C2
:10113C007A7309223C492E48FFF74EFE3748FEF7DA
:10114C00FFFF4FF47A7382B234492948FFF744FE0B
:10115C004FF47A7301222C492548FFF73DFE1422E7
:10116C0031462E4800F044F92E60052224492B48C4
:10117C002660FFF7D8FE23682D4A3F2129482B60B3
:10118C0000F03EF92748FEF7DBFF4FF47A7382B28A
:10119C0024491748FFF720FE4FF47A73092222499D
:1011AC001348FFF719FE1D48FEF7CAFF4FF47A7378
:1011BC0082B21A490E48FFF70FFE4FF47A730122E0
:1011CC0011490B48FFF708FE14223146134800F072
:1011DC000FF92E6014232660104A09490248FFF7C4
:1011EC0097F8FEE70010024028010020080002409A
:1011FC00E8000020003801409D0E0008EF1C00089C
:10120C00A4000020011D0008ED1C00088C0000202B
:10121C00FCED00E0041000E0001000E09000002065
:10122C000B1D0008B8000020DA1C00081D1D00086A
:10123C00311D00080E4B82B09A6942F001029A618E
:10124C009A6902F001020092009ADA6942F0805227
:10125C00DA61DB69074A03F080530193019B536801
:10126C0023F0E06343F00073536002B0704700BF9B
:10127C00001002400000014010B5044686B0102258
:10128C00002102A800F0B4F82268174B9A4228D12A
:10129C0003F558439A6902A942F480429A619A690B
:1012AC00124802F480420092009A9A6942F00402B9
:1012BC009A619B6903F004030193019B4FF4007343
:1012CC0002930223039303230593FFF717F94FF4BB
:1012DC0080630293002302A9044803930493FFF74D
:1012EC000DF906B010BD00BF0038014000080140E8
:1012FC007047FEE7FEE7FEE7FEE770477047704772
:10130C00FEF75CBF0148FFF741B800BF2801002081
:10131C000F4B1A6842F001021A6059680D4A0A40D4
:10132C005A601A6822F0847222F480321A601A68A9
:10133C0022F480221A605A6822F4FE025A604FF49A
:10134C001F029A604FF00062034B9A60704700BF17
:10135C00001002400000FFF800ED00E0002103E067
:10136C000B4B5B58435004310A480B4B42189A42C2
:10137C00F6D30A4A02E0002342F8043B084B9A4297
:10138C00F9D3FFF7C5FF00F00FF8FFF701FE704728
:10139C009C1D000800000020700000207000002040
:1013AC0070010020FEE7000070B500250C4E0D4CBE
:1013BC00A41BA410A54209D100F06CFC00250A4E18
:1013CC000A4CA41BA410A54205D170BD56F82530BB
:1013DC0098470135EEE756F8253098470135F2E786
:1013EC00941D0008941D0008941D0008981D000809
:1013FC0003460244934200D1704703F8011BF9E7FE
:10140C000CB430B5174B0C1E9DB01D6808DA8B233D
:10141C004FF0FF302B601DB0BDE8304002B070477C
:10142C004FF40273ADF814300CBF234604F1FF33B4
:10143C00049307934FF6FF7302900690ADF81630A5
:10144C00209A21AB02A92846019300F069F8431CAD
:10145C00BCBF8B232B60002CDDD00022029B1A70AA
:10146C00D9E700BF0C0000202DE9F0478E688246BA
:10147C009E420C469146984635D88A8912F4906F54
:10148C0031D00223256809696F1A656905EB45059A
:10149C0095FBF3F508F101033B449D4238BF1D4613
:1014AC00530531D5294600F047FB064650B90C23AD
:1014BC00CAF80030A3894FF0FF3043F04003A381FA
:1014CC00BDE8F0873A46216900F0C4FAA38923F4F9
:1014DC00906343F08003A38126613E442660464618
:1014EC006561ED1BA560464528BF46464946324618
:1014FC00206800F0BAFAA36800209B1BA360236845
:10150C001E442660BDE8F0872A4600F073FB0646B1
:10151C000028E1D12169504600F0C2FAC7E700006B
:10152C002DE9F04F9DB003938B8980461C060D4628
:10153C0016460FD50B696BB9402100F0FDFA2860F7
:10154C00286128B90C23C8F800304FF0FF30C4E0F4
:10155C0040236B610023099320238DF8293030231D
:10156C004FF0010B8DF82A3037463C4614F8013BFE
:10157C00002B3CD1B7EB060A0BD05346324629461A
:10158C004046FFF771FF013000F0A280099B5344E5
:10159C0009933B78002B00F09B8000234FF0FF3227
:1015AC0004930793059206938DF853301A930522F2
:1015BC002178504800F040FA671C049BD8B9D90632
:1015CC0044BF20228DF853201A0744BF2B228DF8DC
:1015DC00532022782A2A16D000210A20079A27465F
:1015EC003B780134303B092B50D9C9B111E0252B84
:1015FC00C0D02746B9E73F4A3C46801A0BFA00F0A8
:10160C0018430490D3E7039A111D12680391002A22
:10161C0001DB079204E0524243F002030792049369
:10162C003B782E2B0DD17B78791C2A2B32D1039B46
:10163C0002371A1D1B680392002BB8BF4FF0FF3303
:10164C0005932D4C03223978204600F0F5F938B17A
:10165C004023001B03FA00F0049B0137034304935F
:10166C003978062225487E1C8DF8281000F0E4F904
:10167C00002835D0224BFBB9039B073323F007031B
:10168C0008330393099B4B4409936DE700FB02322B
:10169C000121A4E700230A24184605930F463A7843
:1016AC000131303A092A03D9002BCAD00590C8E77A
:1016BC0004FB00200123F1E703AB00932A46114BF6
:1016CC0004A94046AFF30080B0F1FF3F8146D9D169
:1016DC00AB895B063FF539AF09981DB0BDE8F08FBB
:1016EC0003AB00932A46074B04A9404600F084F84C
:1016FC00EAE700BF5E1D0008641D0008681D0008B5
:10170C0000000000751400082DE9F04791461F46B3
:10171C008A680B6906469342B8BF1346C9F8003075
:10172C0091F843200C46DDF8208012B10133C9F842
:10173C0000302368990642BFD9F800300233C9F84B
:10174C000030256815F0060507D104F1190AE36885
:10175C00D9F800209B1A9D422ADB94F8433022686A
:10176C00003318BF012392062FD404F143023946EB
:10177C003046C047013022D02368E56803F00603E9
:10178C00042B18BF0025D9F800204FF0000908BF22
:10179C00AD1AA368226908BF25EAE5759342C4BF58
:1017AC009B1AED181A344D451BD10020BDE8F0876B
:1017BC000123524639463046C047013003D14FF021
:1017CC00FF30BDE8F0870135C1E73020E11881F822
:1017DC0043005A1C94F845102244023382F84310FB
:1017EC00C3E70123224639463046C0470130E6D0D4
:1017FC0009F10109D7E700002DE9F04317460A7EED
:10180C0085B06E2A984606460C460C9B01F1430E99
:10181C0000F0BC801AD8632A2ED00AD8002A00F017
:10182C00C880582A00F08A8004F1420584F84220CE
:10183C002AE0642A01D0692AF6D121681A6811F0CD
:10184C00800F23D0111D1960136827E0732A00F054
:10185C00B48008D86F2A2AD0702AE5D10A6842F0E1
:10186C0020020A6003E0752A21D0782ADCD1782284
:10187C006F4984F8452064E01A6801F14205111D96
:10188C001960136884F842300123A3E011F0400F73
:10189C0002F104011960D7D0B2F90030002B03DA41
:1018AC002D225B4284F8432062490A2217E020680B
:1018BC00196810F0800F03D0081D18600B6806E043
:1018CC0010F0400F01F104001860F7D00B886F2A5C
:1018DC0014BF0A2208225749002084F84300656887
:1018EC00002DA560C0F29C80206820F004002060D0
:1018FC00002B3FD1002D40F095807546082A0BD166
:10190C002368DA0708D5236962689A42DEBF302360
:10191C0005F8013C05F1FF35AEEB05032361CDF86D
:10192C0000803B4603AA21463046FFF7EDFE01300E
:10193C0055D14FF0FF3005B0BDE8F08381F845205C
:10194C003C492268186812F0800F00F104051D60F4
:10195C0001D0036802E05506FBD50388D00744BFCD
:10196C0042F0200222601BB9226822F02002226081
:10197C001022B1E77546B3FBF2F002FB1033CB5CDF
:10198C0005F8013D03460028F5D1B7E708681A6849
:10199C0010F0800F496904D0101D1860136819608D
:1019AC0007E010F0400F02F1040018601368F6D045
:1019BC001980002375462361B1E71A68111D19605F
:1019CC00156800216268284600F036F808B1401B03
:1019DC00606063682361002384F843309FE72369C8
:1019EC002A4639463046C0470130A2D023689B07AF
:1019FC0007D5002504F11909E368039A9B1A9D4247
:101A0C0005DBE068039B9842B8BF184693E70123B7
:101A1C004A4639463046C04701308AD00135EBE79B
:101A2C00002BA7D10B7804F1420584F8423065E70E
:101A3C00801D00086F1D000810B5C9B20244904209
:101A4C00034601D1002010BD1C7801308C42F6D128
:101A5C00184610BD10B5431E0A44914200D110BD6A
:101A6C0011F8014B03F8014FF7E7884210B501EB71
:101A7C00020303D8421E99420CD110BD9842F9D2F0
:101A8C008118D21AD34200D110BD13F8014D01F8C0
:101A9C00014DF7E711F8014B02F8014FEBE700009D
:101AAC0038B50546002943D051F8043C0C1F002BD7
:101ABC00B8BFE41800F0D4F81E4A1368104633B9C6
:101ACC00636014602846BDE8384000F0CAB8A342F1
:101ADC000BD921686218934201BF1A685B685218CF
:101AEC00226063600460EDE713465A680AB1A242B3
:101AFC00FAD919685818A0420BD12068014458181B
:101B0C0082421960DED110685268014419605A6033
:101B1C00D8E702D90C232B60D4E7206821188A421D
:101B2C0001BF116852680918216062605C60C9E7E6
:101B3C0038BD00BFD800002070B5CD1C25F00305C2
:101B4C0008350C2D38BF0C25002D064601DBA942AB
:101B5C0003D90C233360002070BD00F081F8234AB8
:101B6C001468214691B9224C23681BB9304600F009
:101B7C0067F820602946304600F062F8431C26D1F5
:101B8C000C233046336000F06CF8E4E70B685B1B09
:101B9C001AD40B2B0FD90B60CC18CD50304600F05B
:101BAC0060F804F10B00231D20F00700C31A1BD0B2
:101BBC005A42E25070BD8C420BBF63684B68136095
:101BCC00636018BF0C46E9E70C464968CAE7C41CB9
:101BDC0024F00304A04205D0211A304600F030F85E
:101BEC000130CDD02560D9E770BD00BFD8000020F2
:101BFC00DC000020F8B5074614460E4621B9114604
:101C0C00BDE8F840FFF798BF22B9FFF749FF25461A
:101C1C002846F8BD00F026F884420FD921463846F4
:101C2C00FFF78AFF05460028F2D031462246FFF71F
:101C3C0011FF31463846FFF733FFE9E73546E7E752
:101C4C0038B50023054C05460846236000F014F80F
:101C5C00431C02D1236803B12B6038BD6C010020FA
:101C6C007047704751F8040C0028A0F10400BCBF69
:101C7C000B58C01870470000044B0246196809B98C
:101C8C0003491960186802441A607047E00000208C
:101C9C0070010020F8B500BFF8BC08BC9E46704728
:0C1CAC00F8B500BFF8BC08BC9E467047AD
:101CB80002030405060708090A0B0C0D0E0F101085
:101CC800636F7079646D6120256C752074616B7425
:101CD8000A006473745F627566663D002D2D2D2DB4
:101CE8002D2D2D2D2D0A006973746172696B2E726A
:101CF800752073746D33320A007372635F627566A0
:101D0800663D006D656D6370793820256C752074AB
:101D1800616B740A00636F70795F6D656D3820259B
:101D28006C752074616B740A00636F70795F6D6500
:101D38006D333220256C752074616B740A000000C5
:101D48000000000000000102030406070809000063
:101D5800000001020304232D302B2000686C4C0086
:101D68006566674546470030313233343536373893
:101D780039414243444546003031323334353637F1
:0C1D880038396162636465660000000089
:041D94003101000811
:041D98000D01000831
:101D9C00010000001000000000A24A041000002006
:101DAC000000000000000000000000000000000027
:101DBC000000000000000000000000000000000017
:101DCC000000000000000000000000000000000007
:101DDC0000000000000000000000000000000000F7
:101DEC0000000000000000000000000000000000E7
:101DFC0000000000000000000000000000000000D7
:040000050800136973
:00000001FF
