:020000040800F2
:100000000050002025160008751500087715000817
:10001000791500087B1500087D1500080000000018
:100020000000000000000000000000007F15000834
:1000300081150008000000008315000885150008E0
:100040006D1600086D1600086D1600086D16000884
:100050006D1600086D1600086D1600086D16000874
:100060006D1600086D1600086D1600086D16000864
:100070006D1600086D1600086D1600086D16000854
:100080006D1600086D1600086D1600086D16000844
:100090006D1600086D1600086D1600086D16000834
:1000A0006D160008891500086D1600086D16000809
:1000B0006D1600086D1600086D1600086D16000814
:1000C0006D1600086D1600086D1600086D16000804
:1000D0006D160008951500086D1600086D160008CD
:1000E0006D1600086D1600086D160008000000006F
:1000F0000000000000000000000000000000000000
:0C01000000000000000000005FF808F1A3
:10010C0010B5054C237833B9044B13B10448AFF345
:10011C0000800123237010BD74000020000000003B
:10012C005C1F000808B5034B1BB103490348AFF330
:10013C00008008BD00000000780000205C1F000853
:10014C00034613F8012B002AFBD1181A013870470B
:10015C0038B50E4B054618784FF47A73B3FBF0F3B1
:10016C000B4A1068B0FBF3F000F09EF8044658B947
:10017C000F2D09D8024629464FF0FF3000F054F8F5
:10018C00044B20461D6038BD012038BD0000002006
:10019C000C00002004000020074A08B51368032057
:1001AC0043F01003136000F02DF80020FFF7D0FF90
:1001BC0001F028F9002008BD00200240034A044B3E
:1001CC0011681B780B441360704700BFC0000020FF
:1001DC0000000020014B1868704700BFC0000020D1
:1001EC0038B50446FFF7F6FF0546631C1EBF044BEB
:1001FC001B78E418FFF7EEFF401B8442FAD838BD99
:10020C0000000020074A0002D36800F4E06023F4E9
:10021C00E0631B041B0C43F0BF6343F40033034344
:10022C00D360704700ED00E0174B30B5DC68C4F3C9
:10023C000224C4F10703251D042B28BF0423062D1B
:10024C004FF0010598BF002405FA03F303F1FF33C7
:10025C0088BF033C1940A14005FA04F4013C22403C
:10026C00002842EA01024FEA0212AFBF00F16040DF
:10027C00064B00F00F00D2B2A5BFD2B200F5614020
:10028C001A5480F8002330BD00ED00E014ED00E0BE
:10029C000123420900F01F0003FA00F0014B43F860
:1002AC002200704700E100E00138B0F1807F0AD2F3
:1002BC00F021064B064A586082F8231000200722D2
:1002CC0098601A6070470120704700BF10E000E092
:1002DC0000ED00E02DE9F74F00221646654BDFF8E4
:1002EC00A4E1DFF8A4C14FF001080C6808FA06F885
:1002FC0008EA0404A0457FD14D68122D00F0AF80B0
:10030C0000F28880022D00F0A7807CD8002D00F030
:10031C008E80012D00F09E804FF00F09FF2C93BFB3
:10032C00824606F18045083DD0F800B092BFB5007A
:10033C00D0F804B0AD0009FA05F82BEA080802FA67
:10034C0005F588BF00F1040A48EA0505CAF8005013
:10035C00D1F804A01AF0805F4ED0474D464FAD69DE
:10036C0026F0030845F00105BD61BD6908F1804820
:10037C0005F00105019508F5803806F0030B019D89
:10038C004FEA8B0BD8F8085009FA0BF925EA090942
:10039C003A4DA84268D005F58065A84266D005F5AF
:1003AC008065A84264D005F58065A8420CBF032582
:1003BC00042505FA0BF545EA0905C8F808501D682F
:1003CC001AF4803F14BF2543A5431D605D681AF4E1
:1003DC00003F14BF2543A5435D609D681AF4801F40
:1003EC0014BF2543A5439D60DD681AF4001F14BF9C
:1003FC002C4325EA0404DC600136102E7FF473AF25
:10040C0003B0BDE8F08F032D22D0112D84D1CA6822
:10041C00043281E71A4FBD4209D012D8DFF86C9034
:10042C004D4504D009F580394D457FF475AF8A6888
:10043C00C2B1012A0CBFC0F81080C0F81480082289
:10044C006AE77545F3D06545F1D0DFF84490EBE7EA
:10045C00002261E7CA685FE7CA6808325CE7CA68CD
:10046C000C3259E7042257E70025A2E70125A0E743
:10047C0002259EE7000401400010024000080140E4
:10048C00000021100000311000003210000011108B
:10049C00000022100AB1016170470904FBE700005B
:1004AC0003682DE9F341DB07054610D42B689F0741
:1004BC005ED42B68190700F195802B685A0700F160
:1004CC00BF80EA69002A40F02D81002014E0904C96
:1004DC00636803F00C03042B07D0636803F00C0370
:1004EC00082B0CD16368DE0309D523689C03DDD58A
:1004FC006B68002BDAD1012002B0BDE8F0816B688B
:10050C00B3F5803F10D1236843F480332360FFF7A9
:10051C0061FE064623689803C8D4FFF75BFE801B78
:10052C006428F7D90320E7E79BB9236823F48033C9
:10053C002360236823F480232360FFF74BFE0646D9
:10054C0023689903B2D5FFF745FE801B6428F7D9C1
:10055C00E8E7B3F5A02F236803D143F4802323608D
:10056C00D1E723F480332360236823F48023CDE781
:10057C00674C636813F00C0F07D0636803F00C032F
:10058C00082B10D16368DA030DD423689B0702D5BE
:10059C002B69012BAFD123686A6923F0F80343EA76
:1005AC00C203236085E72A695A4B6AB101221A609B
:1005BC00FFF710FE064623689F07ECD4FFF70AFEF0
:1005CC00801B0228F7D9ADE71A60FFF703FE064639
:1005DC00236898077FF56DAFFFF7FCFD801B0228A1
:1005EC00F6D99FE7AA694A4C4B4BDAB101221A6043
:1005FC00FFF7F0FD0646636A9B070DD54FF4FA52E0
:10060C00464B1B68B3FBF2F3019300BF019B5A1ED0
:10061C000192002BF9D150E7FFF7DCFD801B02287B
:10062C00E9D97FE71A60FFF7D5FD0646636A9F0795
:10063C007FF543AFFFF7CEFD801B0228F6D971E79B
:10064C00334CE369D80024D40127E36943F0805389
:10065C00E361E36903F080530093009B304E3368F1
:10066C00D90518D5EB68012B26D1236A43F0010379
:10067C002362FFF7AFFD41F288368046236A9B0761
:10068C003FD5002F3FF41DAFE36923F08053E361A6
:10069C0017E70027E2E7336843F480733360FFF712
:1006AC0099FD80463368DA05DCD4FFF793FDA0EBA7
:1006BC0008006428F6D935E7ABB9236A41F28838CB
:1006CC0023F001032362236A23F004032362FFF760
:1006DC0081FD0646236A9807D3D5FFF77BFD801B67
:1006EC004045F7D91EE7052B236A03D143F00403D9
:1006FC002362BAE723F001032362236A23F0040385
:10070C00B6E7FFF767FDA0EB0800B042B6D909E7E2
:10071C000010024000004242800442420C000020C3
:10072C0000700040224C636803F00C03082B3FF46C
:10073C00E2AE00231F4E022A33602BD1FFF74AFD95
:10074C000746236899011FD42B6AB3F5803F05D166
:10075C006268A96822F400320A436260696A6268BE
:10076C000B4322F474121343636001233360FFF7CD
:10077C0031FD054623689A013FF5A7AEFFF72AFD28
:10078C00401B0228F6D9CDE6FFF724FDC01B02283A
:10079C00D7D9C7E6FFF71EFD054623689B017FF5F9
:1007AC0094AEFFF717FD401B0228F6D9BAE600BF3E
:1007BC00001002406000424230B5194B87B002ACC9
:1007CC0003F11005224618685968083303C2AB427E
:1007DC001446F7D101238DF80430022311498DF80A
:1007EC0005304B6803F00C02082A17D1C3F383427F
:1007FC0006A80244DB0312F8102C0CD54B680A48EF
:10080C00C3F34043504306AA134413F8143CB0FB03
:10081C00F3F007B030BD05485043FAE70248F8E75B
:10082C00741F00080010024000127A0000093D00FD
:10083C00544A2DE9F0411368054603F007038B4237
:10084C000E462AD329688C0734D4CA0747D44D4A9C
:10085C00136803F007039E42C0F082802A684A4C5A
:10086C0012F0040F40F08780130706D563682A69DD
:10087C0023F4605343EAC2036360FFF79DFF636890
:10088C00424AC3F30313D35CD840414B1860002099
:10089C00FFF75EFC0020BDE8F081136823F007032E
:1008AC000B431360136803F007039942CAD001206D
:1008BC00BDE8F081344B11F0040F1EBF5A6842F4AE
:1008CC00E0625A60080742BF5A6842F460525A60AC
:1008DC005A68A86822F0F00202435A60B5E76A68C9
:1008EC00294C012A23681CD113F4003FDFD0636824
:1008FC0041F2883823F0030313436360FFF76AFC6B
:10090C006B680746012B14D1636803F00C03042BAE
:10091C009DD0FFF75FFCC01B4045F5D90320BDE817
:10092C00F081022A02D113F0007FDFE713F0020FEF
:10093C00DCE7022B0FD1636803F00C03082B86D085
:10094C00FFF748FCC01B4045F5D9E7E7FFF742FC31
:10095C00C01B4045E2D8636813F00C0FF6D176E764
:10096C00136823F0070333431360136803F0070382
:10097C009E429CD172E76368E96823F4E0630B4301
:10098C00636071E70020024000100240072000085D
:10099C000C000020044B054A5B68C3F30223D35CB4
:1009AC00034A1068D8407047001002401720000816
:1009BC000C000020044B054A5B68C3F3C223D35CD4
:1009CC00034A1068D84070470010024017200008F6
:1009DC000C00002003680020DA6842F00102DA60A3
:1009EC001A6842F001021A60704790F83C3070B5FA
:1009FC00012B4FF002031CD0012280F83D3003681C
:100A0C0080F83C209A6822F47F4222F077029A60A8
:100A1C000A68402A79D019D8102A00F093800AD895
:100A2C00002A00F08980012380F83D30002380F8F3
:100A3C003C30184670BD202A00F08A80302AF2D152
:100A4C009A6822F0700242F0370236E0702A36D0F3
:100A5C001BD8502A42D0602AE5D11C6A4D6824F07C
:100A6C001004CE681C6299691A6A21F4704122F054
:100A7C00A00242EA051241EA063199611A629A68AB
:100A8C0022F0700242F0670217E0B2F5805F11D0DD
:100A9C00B2F5005FC7D18A684D689C68C9682A4363
:100AAC0024F47F4442EA012222439A609A6842F479
:100ABC00804202E09A6822F007029A60B3E78A68E3
:100ACC004D689C68C9682A4324F47F4442EA012299
:100ADC0022439A609A6842F07702EEE74C68CE683F
:100AEC00196A1D6A21F00A0125F001051D629A6937
:100AFC00214322F0F00242EA06129A6119629A68C6
:100B0C0022F0700242F05702D7E74C68CE68196A9F
:100B1C001D6A21F00A0125F001051D629A69214325
:100B2C0022F0F00242EA06129A6119629A6822F0E7
:100B3C00700242F04702C0E79A6822F0700242F05D
:100B4C000702BAE79A6822F0700242F01702B4E783
:100B5C009A6822F0700242F02702AEE770477047A5
:100B6C0070477047036810B51A69044691070ED593
:100B7C00DA6892070BD56FF002021A6101229B69A9
:100B8C0002779B0777D0FFF7EAFF002323772368D0
:100B9C001A69500710D5DA6851070DD56FF00402A9
:100BAC001A6102229B69227713F4407F204668D099
:100BBC00FFF7D5FF0023237723681A6912070FD597
:100BCC00DA6810070CD56FF008021A610422DB6991
:100BDC002277990720465AD0FFF7C1FF00232377CD
:100BEC0023681A69D20610D5DA68D0060DD56FF0D5
:100BFC0010021A610822DB69227713F4407F204629
:100C0C004BD0FFF7ACFF0023237723681A69D10779
:100C1C0008D5DA68D20705D56FF0010220461A61B3
:100C2C0000F008FA23681A69100608D5DA6811066C
:100C3C0005D56FF0800220461A6100F0AAF82368EF
:100C4C001A69520608D5DA68500605D56FF04002CD
:100C5C0020461A61FFF785FF23681A69910622D591
:100C6C00DA6892061FD56FF020022046BDE81040CE
:100C7C001A6100F08DB8FFF771FF2046FFF770FF87
:100C8C0083E7FFF76BFF2046FFF76AFF92E7FFF75A
:100C9C0065FF2046FFF764FFA0E7FFF75FFF2046E4
:100CAC00FFF75EFFAFE710BD1A4A036890420AD007
:100CBC00B0F1804F07D0A2F59432904203D002F5E8
:100CCC008062904215D14A6823F070031343114A95
:100CDC0090420AD0B0F1804F07D0A2F594329042E6
:100CEC0003D002F58062904203D1CA6823F44073AA
:100CFC0013434A6923F08003134303608B68C36278
:100D0C000B688362034B984204BF0B690363012396
:100D1C0043617047002C014010B50446A0B190F817
:100D2C003D3003F0FF021BB980F83C2000F08CFB37
:100D3C000223206884F83D30211DFFF7B5FF012305
:100D4C00002084F83D3010BD012010BD90F83C30DF
:100D5C0010B5012B4FF0020318D080F83D3003681A
:100D6C000C685A68496822F070025A605A6822432B
:100D7C005A609A6822F080029A609A680A439A60D4
:100D8C00012380F83D30002380F83C30184610BD1C
:100D9C00704770472DE9F0470568C2682B690169F7
:100DAC0023F4405313432B618368EA680B43416976
:100DBC0022F4B05222F00C020B431343EB606B692C
:100DCC00826923F4407313436B61404B81469D420F
:100DDC004FF0190446D1FFF7EDFD04FB00F3D9F8F1
:100DEC0004604FF06408B600B3FBF6F3B3FBF8F302
:100DFC001E01FFF7DFFD6043D9F804309B00B0FB08
:100E0C00F3F7FFF7D7FD6043D9F804309B00B0FB34
:100E1C00F3F3B3FBF8F308FB13731B013233B3FB8F
:100E2C00F8F303F0F007FFF7C5FD6043D9F8042091
:100E3C009200B0FBF2FAFFF7BDFD6043D9F8043025
:100E4C009B00B0FBF3F3B3FBF8F308FB13A31B01FC
:100E5C003233B3FBF8F303F00F033B433344AB6083
:100E6C00BDE8F087FFF796FD04FB00F3D9F80460AA
:100E7C004FF06408B600B3FBF6F3B3FBF8F31E01B6
:100E8C00FFF788FD6043D9F804309B00B0FBF3F703
:100E9C00FFF780FD6043D9F804309B00B0FBF3F3FF
:100EAC00B3FBF8F308FB13731B013233B3FBF8F3FA
:100EBC0003F0F007FFF76EFD6043D9F804209200B1
:100ECC00B0FBF2FAFFF766FDB7E700BF0038014050
:100EDC00F8B504460E4617461D4621680B6836EADF
:100EEC00030301D10020F8BD6B1CF7D095B9236822
:100EFC000320DA6822F4D072DA605A6922F0010217
:100F0C005A61202384F8393084F83A30002384F86D
:100F1C003830F8BDFFF75EF9C01B8542DDD2E6E73D
:100F2C0010B5044640B390F8393003F0FF021BB9FA
:100F3C0080F8382000F0A6FA2423226884F839308F
:100F4C00D368204623F40053D360FFF723FF2368B4
:100F5C0000201A6922F490421A615A6922F02A027E
:100F6C005A61DA6842F40052DA602023E06384F8B4
:100F7C00393084F83A3010BD012010BD2DE9F04114
:100F8C001F4690F839300446202B0D4690464ED122
:100F9C00002949D0002A47D090F83830012B46D090
:100FAC00012380F838300023C363212380F83930C3
:100FBC00FFF710F90646A4F82480A4F82680E38CE9
:100FCC009BB26BB93B46324640212046FFF780FF6F
:100FDC00A8B9202384F8380084F83930BDE8F081B2
:100FEC00E38C3246013B9BB2E384A3688021B3F5CA
:100FFC00805F20463B460ED1FFF76AFF10B10320FD
:10100C00BDE8F0812B882268C3F308035360236981
:10101C0043B90235D3E7FFF75BFF0028EFD1236814
:10102C002A785A600135CAE70120BDE8F081022018
:10103C00BDE8F08102680A4B9A4210D1094B09496C
:10104C001A7809480132D2B2592A88BF41221A7043
:10105C00064A13604FF47A730122FFF78FBF704773
:10106C00002C01400800002048010020C400002092
:10107C00094B0A4A1978137899420AD01378DBB2D3
:10108C00591CC9B21170064A03F01F03D05CC0B2E0
:10109C0070470020704700BFB1000020B000002056
:1010AC009000002000224FF400510148FFF7F2B9E4
:1010BC000010014010B590B02822002106A800F0C5
:1010CC00F5FA1422002101A800F0F0FA4FF4803355
:1010DC000122079302240E934FF4E01306A8069204
:1010EC000A920D940F93FFF7DBF908B1FFF7DAFFC3
:1010FC000F234FF4806201930023022101A8029474
:10110C00039304920593FFF793FB08B1FFF7CAFF13
:10111C0010B010BD2DE9F04FE3B0FFF73DF8FFF72D
:10112C00C9FF1022002122A800F0C0FAA34B4FF4F3
:10113C0000519A69A24842F010029A619A690025FE
:10114C0002F010020292029A9A699E4C42F020021E
:10115C009A619A6902F020020392039A9A6942F00A
:10116C0004029A619A6902F004020492049A9A6940
:10117C0042F008029A619B69012203F0080305936F
:10118C00059BFFF787F94FF4005322930123239318
:10119C00022322A98A4824952593FFF79BF84FF444
:1011AC00E13E894B204684E808400C23A560E560AD
:1011BC002561A561E5616361FFF7B2FE254608B1C3
:1011CC00FFF770FF4FF4E1378048814B0C2280E829
:1011DC008800002342618360C36003618361C36143
:1011EC00FFF79EFE08B1FFF75DFF1022002122A839
:1011FC0000F05CFA4FF4347276487749002380E8AB
:10120C0006004FF42F720FAC236063608360C260E2
:10121C00036143618361FFF77FFD08B1FFF742FF74
:10122C004FF4805322A96B482293FFF7DEFB08B1E1
:10123C00FFF738FF00232146664823606360FFF701
:10124C0085FD08B1FFF72EFF6248FFF7C3FB2A6844
:10125C0006AFD368002143F02003D3603846212227
:10126C0000F024FADFF890914FF48072002122A84C
:10127C0000F01CFA4A220021204600F017FACA4658
:10128C00DFF8788140F25320FEF7AAFF98F800307F
:10129C0099F800209B1A13F0FF0300F08C8099F84A
:1012AC00002098F8001002F01F0201F01F010191BC
:1012BC000092FF21494A22A800F000FA22A8FEF76A
:1012CC003FFF4FF47A7382B222A93E48FFF756FED5
:1012DC0098F80030424E1F3303F01F03F35C414A71
:1012EC00FF21009322A8234600F0E8F922A8FEF77C
:1012FC0027FF4FF47A7382B222A93248FFF73EFEE1
:10130C000025DFF8FCB01F2D11BF735DF37F5A462B
:10131C0005211CBF344A2B2122A800F0CFF922A8AA
:10132C00FEF70EFF013582B24FF47A7322A92548DD
:10133C00FFF724FE202DE6D14A220021204600F0A2
:10134C00B5F900239AF80020D9B202F01F02580018
:10135C009142C0B203F1010327DBFFF789FE23465C
:10136C003870224AFF21009722A800F0A7F922A882
:10137C00FEF7E6FE4FF47A7382B222A91148FFF70A
:10138C00FDFDFF219AF80030194A03F01F0322A833
:10139C0000F094F922A8FEF7D3FE4FF47A7382B2D0
:1013AC0022A90848FFF7EAFD6CE75A00013AD2B2CD
:1013BC002554A554C6E70F4A1E21E8E70010024049
:1013CC0000100140C80000200038014048010020F6
:1013DC000044004008010020002C0140841F00083C
:1013EC0090000020BC1F0008D01F0008D41F00086C
:1013FC00E11F0008F21F0008B0000020B10000201F
:10140C00CA1F00080E4B82B09A6942F001029A6121
:10141C009A6902F001020092009ADA6942F0805255
:10142C00DA61DB69074A03F080530193019B53682F
:10143C0023F0E06343F00073536002B0704700BFC9
:10144C00001002400000014007B50D4B02689A42A3
:10145C0012D103F564439A69192042F400629A612F
:10146C009B69002203F4006301930121019BFEF7A9
:10147C00DBFE1920FEF70CFF03B05DF804FB00BF88
:10148C00002C0140102210B5044688B00DEB020070
:10149C00002100F00BF923682F4A934231D12F4BD6
:1014AC0004A99A692E4842F480429A619A690024F0
:1014BC0002F480420092009A9A6942F004029A6106
:1014CC009B6903F004030193019B4FF40073049395
:1014DC000223059303230793FEF7FCFE4FF480636E
:1014EC0004A91F48049305940694FEF7F3FE2520E7
:1014FC0022462146FEF798FE2520FEF7C9FE08B0CD
:10150C0010BD184A9342FAD1144B04A9DA69144855
:10151C0042F40032DA61DA6902F400320292029A81
:10152C009A6942F004029A619B6903F004030393E5
:10153C00039B042304930223059303230793FEF7D1
:10154C00C9FE08230493002304A9054805930693B8
:10155C00FEF7C0FED3E700BF003801400010024088
:10156C0000080140004400407047FEE7FEE7FEE73C
:10157C00FEE7704770477047FEF720BE0148FFF743
:10158C00F1BA00BF080100200C4B1B681A689206C8
:10159C0012D50B490B485A680B7800781B1ADBB232
:1015AC001F2B09D80B78D2B2DBB2581CC0B2087012
:1015BC00054903F01F03CA54704700BFC800002040
:1015CC00B1000020B0000020900000200F4B1A68E2
:1015DC0042F001021A6059680D4A0A405A601A68B2
:1015EC0022F0847222F480321A601A6822F480226B
:1015FC001A605A6822F4FE025A604FF41F029A6075
:10160C004FF00062034B9A60704700BF001002401D
:10161C000000FFF800ED00E0002103E00B4B5B58ED
:10162C00435004310A480B4B42189A42F6D30A4AEB
:10163C0002E0002342F8043B084B9A42F9D3FFF72F
:10164C00C5FF00F00FF8FFF765FD70475C20000840
:10165C000000002074000020740000208C01002089
:10166C00FEE7000070B500250C4E0D4CA41BA41019
:10167C00A54209D100F06CFC00250A4E0A4CA41BB3
:10168C00A410A54205D170BD56F8253098470135F8
:10169C00EEE756F8253098470135F2E7542000085C
:1016AC005420000854200008582000080346024427
:1016BC00934200D1704703F8011BF9E70CB430B525
:1016CC00174B0C1E9DB01D6808DA8B234FF0FF30B2
:1016DC002B601DB0BDE8304002B070474FF4027370
:1016EC00ADF814300CBF234604F1FF330493079379
:1016FC004FF6FF7302900690ADF81630209A21AB8E
:10170C0002A92846019300F069F8431CBCBF8B2347
:10171C002B60002CDDD00022029B1A70D9E700BF91
:10172C00100000202DE9F0478E6882469E420C4640
:10173C009146984635D88A8912F4906F31D002239D
:10174C00256809696F1A656905EB450595FBF3F585
:10175C0008F101033B449D4238BF1D46530531D56A
:10176C00294600F047FB064650B90C23CAF8003056
:10177C00A3894FF0FF3043F04003A381BDE8F0870D
:10178C003A46216900F0C4FAA38923F4906343F02C
:10179C008003A38126613E44266046466561ED1BAD
:1017AC00A560464528BF464649463246206800F0AB
:1017BC00BAFAA36800209B1BA36023681E44266012
:1017CC00BDE8F0872A4600F073FB06460028E1D1FD
:1017DC002169504600F0C2FAC7E700002DE9F04F2E
:1017EC009DB003938B8980461C060D4616460FD57B
:1017FC000B696BB9402100F0FDFA2860286128B90B
:10180C000C23C8F800304FF0FF30C4E040236B616C
:10181C000023099320238DF8293030234FF0010B3E
:10182C008DF82A3037463C4614F8013B002B3CD14E
:10183C00B7EB060A0BD05346324629464046FFF713
:10184C0071FF013000F0A280099B534409933B784F
:10185C00002B00F09B8000234FF0FF320493079382
:10186C00059206938DF853301A930522217850482F
:10187C0000F040FA671C049BD8B9D90644BF20225B
:10188C008DF853201A0744BF2B228DF85320227851
:10189C002A2A16D000210A20079A27463B780134C1
:1018AC00303B092B50D9C9B111E0252BC0D02746AC
:1018BC00B9E73F4A3C46801A0BFA00F018430490F3
:1018CC00D3E7039A111D12680391002A01DB0792DA
:1018DC0004E0524243F00203079204933B782E2B10
:1018EC000DD17B78791C2A2B32D1039B02371A1D20
:1018FC001B680392002BB8BF4FF0FF3305932D4CA0
:10190C0003223978204600F0F5F938B14023001B4A
:10191C0003FA00F0049B0137034304933978062241
:10192C0025487E1C8DF8281000F0E4F9002835D0ED
:10193C00224BFBB9039B073323F0070308330393B4
:10194C00099B4B4409936DE700FB02320121A4E78C
:10195C0000230A24184605930F463A780131303A91
:10196C00092A03D9002BCAD00590C8E704FB002034
:10197C000123F1E703AB00932A46114B04A940461F
:10198C00AFF30080B0F1FF3F8146D9D1AB895B0644
:10199C003FF539AF09981DB0BDE8F08F03AB00934C
:1019AC002A46074B04A9404600F084F8EAE700BF3A
:1019BC001F20000825200008292000080000000036
:1019CC00311700082DE9F04791461F468A680B69CC
:1019DC0006469342B8BF1346C9F8003091F843202D
:1019EC000C46DDF8208012B10133C9F800302368B1
:1019FC00990642BFD9F800300233C9F80030256887
:101A0C0015F0060507D104F1190AE368D9F800208E
:101A1C009B1A9D422ADB94F843302268003318BF8E
:101A2C00012392062FD404F1430239463046C047B5
:101A3C00013022D02368E56803F00603042B18BF9D
:101A4C000025D9F800204FF0000908BFAD1AA36893
:101A5C00226908BF25EAE5759342C4BF9B1AED18AD
:101A6C001A344D451BD10020BDE8F08701235246A6
:101A7C0039463046C047013003D14FF0FF30BDE846
:101A8C00F0870135C1E73020E11881F843005A1C7A
:101A9C0094F845102244023382F84310C3E7012323
:101AAC00224639463046C0470130E6D009F10109DB
:101ABC00D7E700002DE9F04317460A7E85B06E2A61
:101ACC00984606460C460C9B01F1430E00F0BC8078
:101ADC001AD8632A2ED00AD8002A00F0C880582AB7
:101AEC0000F08A8004F1420584F842202AE0642A3E
:101AFC0001D0692AF6D121681A6811F0800F23D021
:101B0C00111D1960136827E0732A00F0B48008D8FF
:101B1C006F2A2AD0702AE5D10A6842F020020A60A6
:101B2C0003E0752A21D0782ADCD178226F4984F819
:101B3C00452064E01A6801F14205111D1960136813
:101B4C0084F842300123A3E011F0400F02F10401AC
:101B5C001960D7D0B2F90030002B03DA2D225B428A
:101B6C0084F8432062490A2217E02068196810F0B3
:101B7C00800F03D0081D18600B6806E010F0400FB2
:101B8C0001F104001860F7D00B886F2A14BF0A22E9
:101B9C0008225749002084F843006568002DA56091
:101BAC00C0F29C80206820F004002060002B3FD104
:101BBC00002D40F095807546082A0BD12368DA0772
:101BCC0008D5236962689A42DEBF302305F8013CD0
:101BDC0005F1FF35AEEB05032361CDF800803B46E4
:101BEC0003AA21463046FFF7EDFE013055D14FF0E8
:101BFC00FF3005B0BDE8F08381F845203C492268F0
:101C0C00186812F0800F00F104051D6001D0036804
:101C1C0002E05506FBD50388D00744BF42F02002F2
:101C2C0022601BB9226822F0200222601022B1E748
:101C3C007546B3FBF2F002FB1033CB5C05F8013DAB
:101C4C0003460028F5D1B7E708681A6810F0800F32
:101C5C00496904D0101D18601368196007E010F072
:101C6C00400F02F1040018601368F6D019800023AD
:101C7C0075462361B1E71A68111D196015680021BA
:101C8C006268284600F036F808B1401B6060636853
:101C9C002361002384F843309FE723692A463946A1
:101CAC003046C0470130A2D023689B0707D50025DA
:101CBC0004F11909E368039A9B1A9D4205DBE0685D
:101CCC00039B9842B8BF184693E701234A4639460E
:101CDC003046C04701308AD00135EBE7002BA7D145
:101CEC000B7804F1420584F8423065E74120000886
:101CFC003020000810B5C9B202449042034601D10D
:101D0C00002010BD1C7801308C42F6D1184610BD55
:101D1C0010B5431E0A44914200D110BD11F8014B7D
:101D2C0003F8014FF7E7884210B501EB020303D823
:101D3C00421E99420CD110BD9842F9D28118D21A88
:101D4C00D34200D110BD13F8014D01F8014DF7E756
:101D5C0011F8014B02F8014FEBE7000038B50546CE
:101D6C00002943D051F8043C0C1F002BB8BFE418D9
:101D7C0000F0D4F81E4A1368104633B9636014603F
:101D8C002846BDE8384000F0CAB8A3420BD92168F8
:101D9C006218934201BF1A685B6852182260636034
:101DAC000460EDE713465A680AB1A242FAD91968E1
:101DBC005818A0420BD1206801445818824219606F
:101DCC00DED110685268014419605A60D8E702D914
:101DDC000C232B60D4E7206821188A4201BF1168BC
:101DEC0052680918216062605C60C9E738BD00BFA9
:101DFC00B400002070B5CD1C25F0030508350C2D62
:101E0C0038BF0C25002D064601DBA94203D90C2353
:101E1C003360002070BD00F081F8234A146821461D
:101E2C0091B9224C23681BB9304600F067F820604A
:101E3C002946304600F062F8431C26D10C2330466C
:101E4C00336000F06CF8E4E70B685B1B1AD40B2BC7
:101E5C000FD90B60CC18CD50304600F060F804F16F
:101E6C000B00231D20F00700C31A1BD05A42E2506E
:101E7C0070BD8C420BBF63684B681360636018BF06
:101E8C000C46E9E70C464968CAE7C41C24F0030475
:101E9C00A04205D0211A304600F030F80130CDD0E8
:101EAC002560D9E770BD00BFB4000020B800002049
:101EBC00F8B5074614460E4621B91146BDE8F84060
:101ECC00FFF798BF22B9FFF749FF25462846F8BD12
:101EDC0000F026F884420FD921463846FFF78AFFD6
:101EEC0005460028F2D031462246FFF711FF314655
:101EFC003846FFF733FFE9E73546E7E738B5002307
:101F0C00054C05460846236000F014F8431C02D12A
:101F1C00236803B12B6038BD8801002070477047DF
:101F2C0051F8040C0028A0F10400BCBF0B58C018D9
:101F3C0070470000044B0246196809B9034919603F
:101F4C00186802441A607047BC0000208C01002005
:101F5C00F8B500BFF8BC08BC9E467047F8B500BF8A
:081F6C00F8BC08BC9E4670475A
:101F740002030405060708090A0B0C0D0E0F1010C6
:101F84002D2D2D2D2D2D2D2D2D2D2D2D0A4E6577FD
:101F94005F6461743A2025642C20696E6465785FFF
:101FA400723A2025642C20696E6465785F773A2044
:101FB40025645F454E440A0025737C25637C2077A5
:101FC400726974650A007C25637C0A007C256300C1
:101FD40025737C25737C20726561640A00696E64D4
:101FE40065785F723A2025645F454E440A004E6F5F
:101FF40074206E65775F6461743A2025645F454E92
:10200400440A00000000000000000001020304066E
:102014000708090000000001020304232D302B20CF
:1020240000686C4C006566674546470030313233C2
:10203400343536373839414243444546003031322D
:1020440033343536373839616263646566000000BD
:04205400310100084E
:042058000D0100086E
:10205C0001000000100000004100000000A24A0432
:10206C001400002000000000000000000000000030
:10207C000000000000000000000000000000000054
:10208C000000000000000000000000000000000044
:10209C000000000000000000000000000000000034
:1020AC000000000000000000000000000000000024
:1020BC000000000000000000000000000000000014
:0420CC000000000010
:0400000508001625B4
:00000001FF
