:020000040800F2
:100000000050002031150008B9140008BB14000886
:10001000BD140008BF140008C1140008000000004F
:10002000000000000000000000000000C3140008F1
:10003000C514000800000000C7140008C914000817
:100040007915000879150008791500087915000858
:100050007915000879150008791500087915000848
:100060007915000879150008791500087915000838
:100070007915000879150008791500087915000828
:100080007915000879150008791500087915000818
:100090007915000879150008791500087915000808
:1000A00079150008791500087915000879150008F8
:1000B00079150008CD140008D91400087915000836
:1000C00079150008791500087915000879150008D8
:1000D00079150008791500087915000879150008C8
:1000E000791500087915000879150008000000004E
:1000F0000000000000000000000000000000000000
:0C01000000000000000000005FF808F1A3
:10010C0010B5054C237833B9044B13B10448AFF345
:10011C0000800123237010BD70000020000000003F
:10012C00681E000808B5034B1BB103490348AFF325
:10013C00008008BD0000000074000020681E00084C
:10014C00034613F8012B002AFBD1181A013870470B
:10015C0038B50E4B054618784FF47A73B3FBF0F3B1
:10016C000B4A1068B0FBF3F000F08CF8044658B959
:10017C000F2D09D8024629464FF0FF3000F042F807
:10018C00044B20461D6038BD012038BD0000002006
:10019C000800002004000020074A08B5136803205B
:1001AC0043F01003136000F01BF80020FFF7D0FFA2
:1001BC0001F0C0F8002008BD00200240034A044BA7
:1001CC0011681B780B441360704700BFB00000200F
:1001DC0000000020014B1868704700BFB0000020E1
:1001EC00074A0002D36800F4E06023F4E0631B04C8
:1001FC001B0C43F0BF6343F400330343D3607047DD
:10020C0000ED00E0174B30B5DC68C4F30224C4F1F8
:10021C000703251D042B28BF0423062D4FF00105D1
:10022C0098BF002405FA03F303F1FF3388BF033CA6
:10023C001940A14005FA04F4013C2240002842EA8E
:10024C0001024FEA0212AFBF00F16040064B00F012
:10025C000F00D2B2A5BFD2B200F561401A5480F89B
:10026C00002330BD00ED00E014ED00E00123420955
:10027C0000F01F0003FA00F0014B43F82200704716
:10028C0000E100E00138B0F1807F0AD2F021064B8A
:10029C00064A586082F823100020072298601A60E2
:1002AC0070470120704700BF10E000E000ED00E057
:1002BC002DE9F74F00221646654BDFF8A4E1DFF875
:1002CC00A4C14FF001080C6808FA06F808EA040407
:1002DC00A0457FD14D68122D00F0AF8000F28880D0
:1002EC00022D00F0A7807CD8002D00F08E80012D0F
:1002FC0000F09E804FF00F09FF2C93BF824606F151
:10030C008045083DD0F800B092BFB500D0F804B0DD
:10031C00AD0009FA05F82BEA080802FA05F588BFC2
:10032C0000F1040A48EA0505CAF80050D1F804A007
:10033C001AF0805F4ED0474D464FAD6926F003084A
:10034C0045F00105BD61BD6908F1804805F0010566
:10035C00019508F5803806F0030B019D4FEA8B0BD5
:10036C00D8F8085009FA0BF925EA09093A4DA842C0
:10037C0068D005F58065A84266D005F58065A84271
:10038C0064D005F58065A8420CBF0325042505FA49
:10039C000BF545EA0905C8F808501D681AF4803FAA
:1003AC0014BF2543A5431D605D681AF4003F14BFBC
:1003BC002543A5435D609D681AF4801F14BF254337
:1003CC00A5439D60DD681AF4001F14BF2C4325EA79
:1003DC000404DC600136102E7FF473AF03B0BDE86B
:1003EC00F08F032D22D0112D84D1CA68043281E7FD
:1003FC001A4FBD4209D012D8DFF86C904D4504D08D
:10040C0009F580394D457FF475AF8A68C2B1012A70
:10041C000CBFC0F81080C0F8148008226AE775453C
:10042C00F3D06545F1D0DFF84490EBE7002261E7AB
:10043C00CA685FE7CA6808325CE7CA680C3259E7D9
:10044C00042257E70025A2E70125A0E702259EE735
:10045C00000401400010024000080140000021107F
:10046C0000003110000032100000111000002210AA
:10047C0003682DE9F341DB07054610D42B689F0771
:10048C005ED42B68190700F195802B685A0700F190
:10049C00BF80EA69002A40F02D81002014E0904CC6
:1004AC00636803F00C03042B07D0636803F00C03A0
:1004BC00082B0CD16368DE0309D523689C03DDD5BA
:1004CC006B68002BDAD1012002B0BDE8F0816B68BB
:1004DC00B3F5803F10D1236843F480332360FFF7DA
:1004EC0079FE064623689803C8D4FFF773FE801B79
:1004FC006428F7D90320E7E79BB9236823F48033FA
:10050C002360236823F480232360FFF763FE0646F1
:10051C0023689903B2D5FFF75DFE801B6428F7D9D9
:10052C00E8E7B3F5A02F236803D143F480232360BD
:10053C00D1E723F480332360236823F48023CDE7B1
:10054C00674C636813F00C0F07D0636803F00C035F
:10055C00082B10D16368DA030DD423689B0702D5EE
:10056C002B69012BAFD123686A6923F0F80343EAA6
:10057C00C203236085E72A695A4B6AB101221A60CB
:10058C00FFF728FE064623689F07ECD4FFF722FEF0
:10059C00801B0228F7D9ADE71A60FFF71BFE064651
:1005AC00236898077FF56DAFFFF714FE801B0228B8
:1005BC00F6D99FE7AA694A4C4B4BDAB101221A6073
:1005CC00FFF708FE0646636A9B070DD54FF4FA52F7
:1005DC00464B1B68B3FBF2F3019300BF019B5A1E01
:1005EC000192002BF9D150E7FFF7F4FD801B022894
:1005FC00E9D97FE71A60FFF7EDFD0646636A9F07AE
:10060C007FF543AFFFF7E6FD801B0228F6D971E7B3
:10061C00334CE369D80024D40127E36943F08053B9
:10062C00E361E36903F080530093009B304E336821
:10063C00D90518D5EB68012B26D1236A43F00103A9
:10064C002362FFF7C7FD41F288368046236A9B0779
:10065C003FD5002F3FF41DAFE36923F08053E361D6
:10066C0017E70027E2E7336843F480733360FFF742
:10067C00B1FD80463368DA05DCD4FFF7ABFDA0EBA7
:10068C0008006428F6D935E7ABB9236A41F28838FB
:10069C0023F001032362236A23F004032362FFF790
:1006AC0099FD0646236A9807D3D5FFF793FD801B67
:1006BC004045F7D91EE7052B236A03D143F0040309
:1006CC002362BAE723F001032362236A23F00403B5
:1006DC00B6E7FFF77FFDA0EB0800B042B6D909E7FB
:1006EC0000100240000042428004424208000020F8
:1006FC0000700040224C636803F00C03082B3FF49D
:10070C00E2AE00231F4E022A33602BD1FFF762FDAD
:10071C000746236899011FD42B6AB3F5803F05D196
:10072C006268A96822F400320A436260696A6268EE
:10073C000B4322F474121343636001233360FFF7FD
:10074C0049FD054623689A013FF5A7AEFFF742FD28
:10075C00401B0228F6D9CDE6FFF73CFDC01B022852
:10076C00D7D9C7E6FFF736FD054623689B017FF511
:10077C0094AEFFF72FFD401B0228F6D9BAE600BF56
:10078C00001002406000424230B5194B87B002ACF9
:10079C0003F11005224618685968083303C2AB42AE
:1007AC001446F7D101238DF80430022311498DF83A
:1007BC0005304B6803F00C02082A17D1C3F38342AF
:1007CC0006A80244DB0312F8102C0CD54B680A481F
:1007DC00C3F34043504306AA134413F8143CB0FB34
:1007EC00F3F007B030BD05485043FAE70248F8E78C
:1007FC00801E00080010024000127A0000093D0023
:10080C00544A2DE9F0411368054603F007038B4267
:10081C000E462AD329688C0734D4CA0747D44D4ACC
:10082C00136803F007039E42C0F082802A684A4C8A
:10083C0012F0040F40F08780130706D563682A690D
:10084C0023F4605343EAC2036360FFF79DFF6368C0
:10085C00424AC3F30313D35CD840414B18600020C9
:10086C00FFF776FC0020BDE8F081136823F0070346
:10087C000B431360136803F007039942CAD001209D
:10088C00BDE8F081344B11F0040F1EBF5A6842F4DE
:10089C00E0625A60080742BF5A6842F460525A60DC
:1008AC005A68A86822F0F00202435A60B5E76A68F9
:1008BC00294C012A23681CD113F4003FDFD0636854
:1008CC0041F2883823F0030313436360FFF782FC83
:1008DC006B680746012B14D1636803F00C03042BDF
:1008EC009DD0FFF777FCC01B4045F5D90320BDE830
:1008FC00F081022A02D113F0007FDFE713F0020F20
:10090C00DCE7022B0FD1636803F00C03082B86D0B5
:10091C00FFF760FCC01B4045F5D9E7E7FFF75AFC31
:10092C00C01B4045E2D8636813F00C0FF6D176E794
:10093C00136823F0070333431360136803F00703B2
:10094C009E429CD172E76368E96823F4E0630B4331
:10095C00636071E70020024000100240B01E0008E6
:10096C0008000020044B054A5B68C3F30223D35CE8
:10097C00034A1068D840704700100240C01E00089F
:10098C0008000020044B054A5B68C3F3C223D35C08
:10099C00034A1068D840704700100240C01E00087F
:1009AC000800002090F83C30012B1CD00C2918D8E2
:1009BC00DFE801F0071717170E171717111717177E
:1009CC00140003685B6B002280F83C2018467047CB
:1009DC0003689B6BF7E70368DB6BF4E703681B6C3E
:1009EC00F1E70023EFE70223F0E770477047704709
:1009FC007047036810B51A69044691070ED5DA687A
:100A0C0092070BD56FF002021A6101229B690277E3
:100A1C009B0777D000F040FB0023237723681A69EB
:100A2C00500710D5DA6851070DD56FF004021A6122
:100A3C0002229B69227713F4407F204668D000F095
:100A4C002BFB0023237723681A6912070FD5DA686A
:100A5C0010070CD56FF008021A610422DB692277AB
:100A6C00990720465AD000F017FB00232377236800
:100A7C001A69D20610D5DA68D0060DD56FF01002BF
:100A8C001A610822DB69227713F4407F20464BD091
:100A9C0000F002FB0023237723681A69D10708D5DD
:100AAC00DA68D20705D56FF0010220461A61FFF70C
:100ABC009CFF23681A69100608D5DA68110605D55B
:100ACC006FF0800220461A6100F095F923681A69CC
:100ADC00520608D5DA68500605D56FF0400220465C
:100AEC001A61FFF785FF23681A69910622D5DA6827
:100AFC0092061FD56FF020022046BDE810401A6107
:100B0C0000F078B9FFF772FF2046FFF770FF83E71C
:100B1C00FFF76CFF2046FFF76AFF92E7FFF766FFCF
:100B2C002046FFF764FFA0E7FFF760FF2046FFF7C2
:100B3C005EFFAFE710BD00001A4A036890420AD06E
:100B4C00B0F1804F07D0A2F59432904203D002F559
:100B5C008062904215D14A6823F070031343114A06
:100B6C0090420AD0B0F1804F07D0A2F59432904257
:100B7C0003D002F58062904203D1CA6823F440731B
:100B8C0013434A6923F08003134303608B68C362E9
:100B9C000B688362034B984204BF0B690363012308
:100BAC0043617047002C014010B50446A0B190F889
:100BBC003D3003F0FF021BB980F83C2000F0DCFB59
:100BCC000223206884F83D30211DFFF7B5FF012377
:100BDC00002084F83D3010BD012010BD70B5046AB2
:100BEC00124E24F001040462B0428469056A0AD0F2
:100BFC00B0F1804F07D0A6F59436B04203D006F57D
:100C0C008066B0420FD124F0030422431B0122F072
:100C1C00F002DBB225F00A0501F00A011A43294360
:100C2C008261016270BD44F00102EFE7002C0140CB
:100C3C00F8B590F83C300446012B0D464FF00200FD
:100C4C0019D0012384F83D0084F83C30A2B9CB685C
:100C5C00206806C9FFF7C2FF2368A9689A6922F0C9
:100C6C000C029A619A690A439A610123002084F864
:100C7C003D3084F83C00F8BD042A8E68236882C994
:100C8C00E8681FD11A6A000322F010021A629A69EE
:100C9C001D6A22F4407242EA072280B222F47042AA
:100CAC000901024301F0A00125F0A00001439A6163
:100CBC0019629A6922F440629A619A6942EA06269C
:100CCC009E61D2E7082A1A6A1CD122F480721A6239
:100CDC00DA69000122F003021D6A3A43C0B222F025
:100CEC00F0020902024301F4007125F40070014383
:100CFC00DA611962DA6922F00C02DA61DA691643F8
:100D0C00DE61B2E722F480521A62DA69000322F43F
:100D1C0040721D6A42EA072222F4704280B2090333
:100D2C00104301F4005125F400521143D8611962AB
:100D3C00DA6922F44062DA61DA6942EA0626DFE710
:100D4C0010B50124036A8C4023EA04030362036A8E
:100D5C008A401A43026210BD10B504460C290DD806
:100D6C00DFE801F0070C0C0C170C0C0C1C0C0C0C19
:100D7C0021000268D36843F00203D360206801228B
:100D8C00FFF7DEFF22680020136843F001031360B5
:100D9C0010BD0268D36843F00403EEE70268D36821
:100DAC0043F00803E9E70268D36843F01003E4E773
:100DBC0090F83C3010B5012B4FF0020318D080F89E
:100DCC003D3003680C685A68496822F070025A601A
:100DDC005A6822435A609A6822F080029A609A6894
:100DEC000A439A60012380F83D30002380F83C30A0
:100DFC00184610BD704770472DE9F0470568C2686A
:100E0C002B69016923F4405313432B618368EA680F
:100E1C000B43416922F4B05222F00C020B431343F2
:100E2C00EB606B69826923F4407313436B61404B35
:100E3C0081469D424FF0190446D1FFF7A3FD04FBF8
:100E4C0000F3D9F804604FF06408B600B3FBF6F376
:100E5C00B3FBF8F31E01FFF795FD6043D9F804309E
:100E6C009B00B0FBF3F7FFF78DFD6043D9F804301E
:100E7C009B00B0FBF3F3B3FBF8F308FB13731B01FC
:100E8C003233B3FBF8F303F0F007FFF77BFD60435D
:100E9C00D9F804209200B0FBF2FAFFF773FD60431F
:100EAC00D9F804309B00B0FBF3F3B3FBF8F308FB69
:100EBC0013A31B013233B3FBF8F303F00F033B43D3
:100ECC003344AB60BDE8F087FFF74CFD04FB00F347
:100EDC00D9F804604FF06408B600B3FBF6F3B3FB2B
:100EEC00F8F31E01FFF73EFD6043D9F804309B0078
:100EFC00B0FBF3F7FFF736FD6043D9F804309B00E5
:100F0C00B0FBF3F3B3FBF8F308FB13731B013233A1
:100F1C00B3FBF8F303F0F007FFF724FD6043D9F8B7
:100F2C0004209200B0FBF2FAFFF71CFDB7E700BFFC
:100F3C0000380140F8B504460E4617461D46216898
:100F4C000B6836EA030301D10020F8BD6B1CF7D007
:100F5C0095B923680320DA6822F4D072DA605A69F2
:100F6C0022F001025A61202384F8393084F83A3097
:100F7C00002384F83830F8BDFFF72CF9C01B8542EC
:100F8C00DDD2E6E710B5044640B390F8393003F0F3
:100F9C00FF021BB980F8382000F04CFA2423226899
:100FAC0084F83930D368204623F40053D360FFF71C
:100FBC0023FF236800201A6922F490421A615A69AF
:100FCC0022F02A025A61DA6842F40052DA602023D5
:100FDC00E06384F8393084F83A3010BD012010BD3C
:100FEC002DE9F0411F4690F839300446202B0D4670
:100FFC0090464ED1002949D0002A47D090F838307D
:10100C00012B46D0012380F838300023C363212301
:10101C0080F83930FFF7DEF80646A4F82480A4F8EF
:10102C002680E38C9BB26BB93B463246402120466E
:10103C00FFF780FFA8B9202384F8380084F83930F2
:10104C00BDE8F081E38C3246013B9BB2E384A3689C
:10105C008021B3F5805F20463B460ED1FFF76AFF37
:10106C0010B10320BDE8F0812B882268C3F308037C
:10107C005360236943B90235D3E7FFF75BFF0028C0
:10108C00EFD123682A785A600135CAE70120BDE800
:10109C00F0810220BDE8F0810268234B10B59A4222
:1010AC00044606D1037F012B24D100221F4B1B6861
:1010BC005A6222681E4B9A4235D1237F012B32D1C2
:1010CC0000211C4803685962FFF76CFC1A4A03465E
:1010DC0010601321194A1A4800F076FA1848FFF7E5
:1010EC002FF8BDE8104082B24FF47A7314491548BA
:1010FC00FFF776BF022BDCD104210C48FFF752FC22
:10110C000D4A0346106013210F4A0D4800F05CFA9B
:10111C000B48FFF715F84FF47A7382B20849094867
:10112C00FFF75EFFC5E710BD00040040F40000208F
:10113C0000080040B40000208C000020A41E000811
:10114C009000002034010020971E00084FF47A73A1
:10115C00062202490248FFF743BF00BF901E000859
:10116C003401002010B590B02822002106A800F010
:10117C0023FA1422002101A800F01EFA4FF4803348
:10118C000122079302240E934FF4E01306A8069253
:10119C000A920D940F93FFF76BF908B1FFF7D6FF86
:1011AC000F234FF4806201930023022101A80294C3
:1011BC00039304920593FFF723FB08B1FFF7C6FFD7
:1011CC0010B010BD002400B58BB0FEF7E5FFFFF7A3
:1011DC00C9FF514B21469A6906A842F020029A6138
:1011EC009A6902F020020192019A9A6942F0040273
:1011FC009A619A6902F004020292029A9A6942F088
:10120C0008029A619B69102203F008030393039B65
:10121C000494059400F0D0F94FF0480E3F48404B31
:10122C00846080E808404FF6FF730461C3608461FA
:10123C00FFF7BAFC08B1FFF789FF04A937480494FB
:10124C000594FFF7B5FD08B1FFF780FF00220123DD
:10125C0006A932480692079308920992FFF7E8FC18
:10126C0008B1FFF773FF0223042206A92B4806934B
:10127C000793FFF7DDFC08B1FFF768FF00244FF47C
:10128C00E13328482849C46080E81A000C23046123
:10129C0043618461C461FFF775FE08B1FFF756FF27
:1012AC001022002106A80494059400F085F9482327
:1012BC001E481F4A846080E80C004FF6FF730461DF
:1012CC00C3608461FFF770FC08B1FFF73FFF002497
:1012DC0004A9164804940594FFF76AFD08B1FFF7BA
:1012EC0035FF0123002206A91048069407930894A1
:1012FC000994FFF79DFC08B1FFF728FF0021074870
:10130C00FFF72AFD04210548FFF726FD00210748B9
:10131C00FFF722FDFEE700BF00100240F4000020A2
:10132C00000400403401002000380140B4000020CB
:10133C00000800400E4B82B09A6942F001029A619B
:10134C009A6902F001020092009ADA6942F0805226
:10135C00DA61DB69074A03F080530193019B536800
:10136C0023F0E06343F00073536002B0704700BF9A
:10137C000010024000000140102210B5044688B055
:10138C000DEB0200002100F017F92368244A934268
:10139C0022D1244B04A9DA69234842F00202DA6113
:1013AC00DA6902F002020092009A9A6942F0040291
:1013BC009A619B6903F004030193019B40230493FE
:1013CC00FEF776FF00221D201146FEF71BFF1D20A5
:1013DC00FEF74CFF08B010BD144A9342FAD1114BE2
:1013EC0004A9DA69124842F00402DA61DA6902F0FF
:1013FC0004020292029A9A6942F008029A619B696D
:10140C0003F008030393039B40230493FEF750FF60
:10141C0000221E201146FEF7F5FE1E20D8E700BF65
:10142C000004004000100240000801400008004089
:10143C00000C014010B5044686B01022002102A811
:10144C0000F0BAF82268174B9A4228D103F558439A
:10145C009A6902A942F480429A619A69124802F48C
:10146C0080420092009A9A6942F004029A619B6948
:10147C0003F004030193019B4FF4007302930223C6
:10148C00039303230593FEF713FF4FF4806302933A
:10149C00002302A9044803930493FEF709FF06B046
:1014AC0010BD00BF00380140000801407047FEE746
:1014BC00FEE7FEE7FEE7704770477047FEF77EBE1B
:1014CC000148FFF796BA00BFF40000200148FFF76F
:1014DC0090BA00BFB40000200F4B1A6842F0010212
:1014EC001A6059680D4A0A405A601A6822F08472D0
:1014FC0022F480321A601A6822F480221A605A6828
:10150C0022F4FE025A604FF41F029A604FF0006200
:10151C00034B9A60704700BF001002400000FFF8B8
:10152C0000ED00E0002103E00B4B5B58435004310D
:10153C000A480B4B42189A42F6D30A4A02E000239F
:10154C0042F8043B084B9A42F9D3FFF7C5FF00F071
:10155C000FF8FFF737FE7047041F0008000000204B
:10156C00700000207000002078010020FEE70000D1
:10157C0070B500250C4E0D4CA41BA410A54209D12E
:10158C0000F06CFC00250A4E0A4CA41BA410A542CA
:10159C0005D170BD56F8253098470135EEE756F861
:1015AC00253098470135F2E7FC1E0008FC1E0008A8
:1015BC00FC1E0008001F000803460244934200D1A1
:1015CC00704703F8011BF9E70CB430B5174B0C1E30
:1015DC009DB01D6808DA8B234FF0FF302B601DB0D7
:1015EC00BDE8304002B070474FF40273ADF81430D0
:1015FC000CBF234604F1FF33049307934FF6FF739C
:10160C0002900690ADF81630209A21AB02A928461C
:10161C00019300F069F8431CBCBF8B232B60002C9A
:10162C00DDD00022029B1A70D9E700BF0C0000200D
:10163C002DE9F0478E6882469E420C4691469846AC
:10164C0035D88A8912F4906F31D002232568096944
:10165C006F1A656905EB450595FBF3F508F1010378
:10166C003B449D4238BF1D46530531D5294600F0F9
:10167C0047FB064650B90C23CAF80030A3894FF03B
:10168C00FF3043F04003A381BDE8F0873A4621695F
:10169C0000F0C4FAA38923F4906343F08003A38180
:1016AC0026613E44266046466561ED1BA5604645B5
:1016BC0028BF464649463246206800F0BAFAA3686D
:1016CC0000209B1BA36023681E442660BDE8F087A6
:1016DC002A4600F073FB06460028E1D121695046EA
:1016EC0000F0C2FAC7E700002DE9F04F9DB003935C
:1016FC008B8980461C060D4616460FD50B696BB9B7
:10170C00402100F0FDFA2860286128B90C23C8F8A4
:10171C0000304FF0FF30C4E040236B61002309938D
:10172C0020238DF8293030234FF0010B8DF82A300F
:10173C0037463C4614F8013B002B3CD1B7EB060A6C
:10174C000BD05346324629464046FFF771FF013015
:10175C0000F0A280099B534409933B78002B00F0C6
:10176C009B8000234FF0FF3204930793059206935E
:10177C008DF853301A9305222178504800F040FA26
:10178C00671C049BD8B9D90644BF20228DF853207E
:10179C001A0744BF2B228DF8532022782A2A16D000
:1017AC0000210A20079A27463B780134303B092B4D
:1017BC0050D9C9B111E0252BC0D02746B9E73F4A13
:1017CC003C46801A0BFA00F018430490D3E7039AB6
:1017DC00111D12680391002A01DB079204E05242AA
:1017EC0043F00203079204933B782E2B0DD17B78A8
:1017FC00791C2A2B32D1039B02371A1D1B680392CA
:10180C00002BB8BF4FF0FF3305932D4C03223978D2
:10181C00204600F0F5F938B14023001B03FA00F024
:10182C00049B0137034304933978062225487E1C18
:10183C008DF8281000F0E4F9002835D0224BFBB9C4
:10184C00039B073323F0070308330393099B4B4493
:10185C0009936DE700FB02320121A4E700230A245F
:10186C00184605930F463A780131303A092A03D9C4
:10187C00002BCAD00590C8E704FB00200123F1E738
:10188C0003AB00932A46114B04A94046AFF30080EA
:10189C00B0F1FF3F8146D9D1AB895B063FF539AF3B
:1018AC0009981DB0BDE8F08F03AB00932A46074B97
:1018BC0004A9404600F084F8EAE700BFC81E0008FF
:1018CC00CE1E0008D21E0008000000003D160008C5
:1018DC002DE9F04791461F468A680B6906469342EC
:1018EC00B8BF1346C9F8003091F843200C46DDF818
:1018FC00208012B10133C9F800302368990642BF29
:10190C00D9F800300233C9F80030256815F0060507
:10191C0007D104F1190AE368D9F800209B1A9D42FB
:10192C002ADB94F843302268003318BF0123920657
:10193C002FD404F1430239463046C047013022D03F
:10194C002368E56803F00603042B18BF0025D9F8BB
:10195C0000204FF0000908BFAD1AA368226908BF28
:10196C0025EAE5759342C4BF9B1AED181A344D4510
:10197C001BD10020BDE8F087012352463946304682
:10198C00C047013003D14FF0FF30BDE8F08701357F
:10199C00C1E73020E11881F843005A1C94F8451037
:1019AC002244023382F84310C3E70123224639460E
:1019BC003046C0470130E6D009F10109D7E70000F5
:1019CC002DE9F04317460A7E85B06E2A98460646E6
:1019DC000C460C9B01F1430E00F0BC801AD8632A14
:1019EC002ED00AD8002A00F0C880582A00F08A802D
:1019FC0004F1420584F842202AE0642A01D0692AC5
:101A0C00F6D121681A6811F0800F23D0111D1960CE
:101A1C00136827E0732A00F0B48008D86F2A2AD004
:101A2C00702AE5D10A6842F020020A6003E0752AA8
:101A3C0021D0782ADCD178226F4984F8452064E0E3
:101A4C001A6801F14205111D1960136884F84230BF
:101A5C000123A3E011F0400F02F104011960D7D06B
:101A6C00B2F90030002B03DA2D225B4284F84320BC
:101A7C0062490A2217E02068196810F0800F03D021
:101A8C00081D18600B6806E010F0400F01F104000F
:101A9C001860F7D00B886F2A14BF0A220822574906
:101AAC00002084F843006568002DA560C0F29C807E
:101ABC00206820F004002060002B3FD1002D40F066
:101ACC0095807546082A0BD12368DA0708D5236957
:101ADC0062689A42DEBF302305F8013C05F1FF3500
:101AEC00AEEB05032361CDF800803B4603AA2146EB
:101AFC003046FFF7EDFE013055D14FF0FF3005B009
:101B0C00BDE8F08381F845203C492268186812F042
:101B1C00800F00F104051D6001D0036802E055063A
:101B2C00FBD50388D00744BF42F0200222601BB9CA
:101B3C00226822F0200222601022B1E77546B3FB26
:101B4C00F2F002FB1033CB5C05F8013D0346002894
:101B5C00F5D1B7E708681A6810F0800F496904D00E
:101B6C00101D18601368196007E010F0400F02F1A7
:101B7C00040018601368F6D01980002375462361A1
:101B8C00B1E71A68111D19601568002162682846B2
:101B9C0000F036F808B1401B6060636823610023D5
:101BAC0084F843309FE723692A4639463046C047BC
:101BBC000130A2D023689B0707D5002504F1190931
:101BCC00E368039A9B1A9D4205DBE068039B9842ED
:101BDC00B8BF184693E701234A4639463046C047FA
:101BEC0001308AD00135EBE7002BA7D10B7804F13B
:101BFC00420584F8423065E7EA1E0008D91E000849
:101C0C0010B5C9B202449042034601D1002010BD68
:101C1C001C7801308C42F6D1184610BD10B5431E0D
:101C2C000A44914200D110BD11F8014B03F8014F49
:101C3C00F7E7884210B501EB020303D8421E994224
:101C4C000CD110BD9842F9D28118D21AD34200D1CE
:101C5C0010BD13F8014D01F8014DF7E711F8014BD8
:101C6C0002F8014FEBE7000038B50546002943D0D8
:101C7C0051F8043C0C1F002BB8BFE41800F0D4F84A
:101C8C001E4A1368104633B9636014602846BDE8D9
:101C9C00384000F0CAB8A3420BD9216862189342AD
:101CAC0001BF1A685B685218226063600460EDE73C
:101CBC0013465A680AB1A242FAD919685818A042B8
:101CCC000BD120680144581882421960DED110688B
:101CDC005268014419605A60D8E702D90C232B6072
:101CEC00D4E7206821188A4201BF1168526809188C
:101CFC00216062605C60C9E738BD00BFA4000020B1
:101D0C0070B5CD1C25F0030508350C2D38BF0C25FE
:101D1C00002D064601DBA94203D90C2333600020B9
:101D2C0070BD00F081F8234A1468214691B9224C09
:101D3C0023681BB9304600F067F82060294630460E
:101D4C0000F062F8431C26D10C233046336000F0BF
:101D5C006CF8E4E70B685B1B1AD40B2B0FD90B60E8
:101D6C00CC18CD50304600F060F804F10B00231D68
:101D7C0020F00700C31A1BD05A42E25070BD8C42AF
:101D8C000BBF63684B681360636018BF0C46E9E7D0
:101D9C000C464968CAE7C41C24F00304A04205D0D1
:101DAC00211A304600F030F80130CDD02560D9E74B
:101DBC0070BD00BFA4000020A8000020F8B50746A5
:101DCC0014460E4621B91146BDE8F840FFF798BFFE
:101DDC0022B9FFF749FF25462846F8BD00F026F842
:101DEC0084420FD921463846FFF78AFF0546002862
:101DFC00F2D031462246FFF711FF31463846FFF745
:101E0C0033FFE9E73546E7E738B50023054C0546CF
:101E1C000846236000F014F8431C02D1236803B178
:101E2C002B6038BD740100207047704751F8040CCA
:101E3C000028A0F10400BCBF0B58C018704700006C
:101E4C00044B0246196809B9034919601868024421
:101E5C001A607047AC00002078010020F8B500BF74
:101E6C00F8BC08BC9E467047F8B500BFF8BC08BC6F
:041E7C009E467047C7
:101E800002030405060708090A0B0C0D0E0F1010BB
:101E90004552524F520A0050756C7365203220250E
:101EA0006C750A0050657231636820256C750A00F4
:101EB00000000000000000000102030406070809FA
:101EC0000000000001020304232D302B2000686C69
:101ED0004C0065666745464700303132333435364D
:101EE0003738394142434445460030313233343586
:0C1EF000363738396162636465660000B3
:041EFC0031010008A8
:041F00000D010008C7
:101F0400010000001000000000A24A04100000209C
:101F140000000000000000000000000000000000BD
:101F240000000000000000000000000000000000AD
:101F3400000000000000000000000000000000009D
:101F4400000000000000000000000000000000008D
:101F5400000000000000000000000000000000007D
:101F6400000000000000000000000000000000006D
:0400000508001531A9
:00000001FF
