:020000040800F2
:1000000000500020F11700083115000833150008D2
:1000100035150008371500083915000800000000E4
:100020000000000000000000000000003B15000878
:100030003D150008000000003F15000841150008AC
:10004000391800083918000839180008391800084C
:10005000391800083918000839180008391800083C
:10006000391800083918000839180008391800082C
:10007000391800083918000839180008391800081C
:10008000391800083918000839180008391800080C
:1000900039180008391800083918000839180008FC
:1000A00039180008391800083918000839180008EC
:1000B00039180008391800084515000839180008D3
:1000C00039180008391800083918000839180008CC
:1000D00039180008391800083918000839180008BC
:1000E00051150008391800083918000800000000F0
:1000F0000000000000000000000000000000000000
:0C01000000000000000000005FF808F1A3
:10010C0010B5054C237833B9044B13B10448AFF345
:10011C0000800123237010BD74000020000000003B
:10012C006021000808B5034B1BB103490348AFF32A
:10013C00008008BD0000000078000020602100084D
:10014C00034613F8012B002AFBD1181A013870470B
:10015C0038B50E4B054618784FF47A73B3FBF0F3B1
:10016C000B4A1068B0FBF3F000F08EF8044658B957
:10017C000F2D09D8024629464FF0FF3000F042F807
:10018C00044B20461D6038BD012038BD0000002006
:10019C000C00002004000020074A08B51368032057
:1001AC0043F01003136000F01BF80020FFF7D0FFA2
:1001BC0001F03CF9002008BD00200240034A044B2A
:1001CC0011681B780B441360704700BFB800002007
:1001DC0000000020014B1868704700BFB8000020D9
:1001EC00074A0002D36800F4E06023F4E0631B04C8
:1001FC001B0C43F0BF6343F400330343D3607047DD
:10020C0000ED00E0174B30B5DC68C4F30224C4F1F8
:10021C000703251D042B28BF0423062D4FF00105D1
:10022C0098BF002405FA03F303F1FF3388BF033CA6
:10023C001940A14005FA04F4013C2240002842EA8E
:10024C0001024FEA0212A9BF00F16040064BD2B284
:10025C0000F56140BBBF00F00F00D2B280F8002364
:10026C001A5430BD00ED00E014ED00E0002808DB6E
:10027C000123420900F01F0003FA00F0014B43F880
:10028C002200704700E100E00138B0F1807F0AD213
:10029C00F021064B064A586082F8231000200722F2
:1002AC0098601A6070470120704700BF10E000E0B2
:1002BC0000ED00E02DE9F74F00242646664BDFF8F1
:1002CC00A8E1DFF8A8C10A6832FA06F502D103B03A
:1002DC00BDE8F08F4FF0010808FA06F802EA0802B0
:1002EC0090457FD14D68122D00F0AA8000F28380DA
:1002FC00022D00F0A28077D8002D00F08980012D0E
:10030C0000F099804FF00F09FF2A93BF824606F147
:10031C008045083DD0F800B092BFB500D0F804B0CD
:10032C00AD0009FA05F82BEA080804FA05F588BFB0
:10033C0000F1040A48EA0505CAF80050D1F804A0F7
:10034C001AF0805F4ED0454D444FAD6926F003083E
:10035C0045F00105BD61BD6908F1804805F0010556
:10036C00019508F5803806F0030B019D4FEA8B0BC5
:10037C00D8F8085009FA0BF925EA0909384DA842B2
:10038C0063D005F58065A84261D005F58065A8426B
:10039C005FD005F58065A8420CBF0325042505FA3E
:1003AC000BF545EA0905C8F808501D681AF4803F9A
:1003BC0014BF154395431D605D681AF4003F14BFCC
:1003CC00154395435D609D681AF4801F14BF154357
:1003DC0095439D60DD681AF4001F14BF2A4325EA7B
:1003EC000202DA6001366EE7032D22D0112D89D17D
:1003FC00CC68043486E71B4FBD4209D012D8DFF815
:10040C0070904D4504D009F580394D457FF47AAF95
:10041C008C68C4B1012C0CBFC0F81080C0F81480DB
:10042C0008246FE77545F3D06545F1D0DFF84490AB
:10043C00EBE7002466E7CC6864E7CC68083461E736
:10044C00CC680C345EE704245CE70025A7E70125A3
:10045C00A5E70225A3E700BF0004014000100240FD
:10046C000008014000002110000031100000321083
:10047C00000011100000221008B5044B596901420C
:10048C0002D0586100F02AFE08BD00BF00040140F4
:10049C002DE9F341054608B901203CE00368DB0770
:1004AC0010D42B689F075DD42B68190700F194803A
:1004BC002B685A0700F1BE80E869002840F02C81B7
:1004CC00002028E08F4C636803F00C03042B07D04A
:1004DC00636803F00C03082B09D16368DE0306D5AF
:1004EC0023689C03DDD56B68002BDAD1D4E76B68ED
:1004FC00B3F5803F12D1236843F480332360FFF7B8
:10050C0069FE064623689803CBD4FFF763FE801B75
:10051C006428F7D9032002B0BDE8F0819BB92368A9
:10052C0023F480332360236823F480232360FFF7B4
:10053C0051FE064623689903B3D5FFF74BFE801B8B
:10054C006428F7D9E6E7B3F5A02F236803D143F469
:10055C0080232360CFE723F480332360236823F4C4
:10056C008023CBE7674C636813F00C0F07D06368EC
:10057C0003F00C03082B10D16368DA030DD4236845
:10058C009B0702D52B69012B86D123686A6923F05E
:10059C00F80343EAC203236086E72A695A4B6AB11F
:1005AC0001221A60FFF716FE064623689F07ECD45B
:1005BC00FFF710FE801B0228F7D9ABE71A60FFF794
:1005CC0009FE0646236898077FF56EAFFFF702FE1B
:1005DC00801B0228F6D99DE7AA694A4C4B4BDAB12D
:1005EC0001221A60FFF7F6FD0646636A9B070DD5DC
:1005FC004FF4FA52464B1B68B3FBF2F3019300BF66
:10060C00019B5A1E0192002BF9D151E7FFF7E2FD35
:10061C00801B0228E9D97DE71A60FFF7DBFD06464F
:10062C00636A9F077FF544AFFFF7D4FD801B022858
:10063C00F6D96FE7334CE369D80024D40127E3697A
:10064C0043F08053E361E36903F080530093009B14
:10065C00304E3368D90518D5EB68012B26D1236AA7
:10066C0043F001032362FFF7B5FD41F28836804663
:10067C00236A9B073FD5002F3FF41EAFE36923F09D
:10068C008053E36118E70027E2E7336843F4807393
:10069C003360FFF79FFD80463368DA05DCD4FFF743
:1006AC0099FDA0EB08006428F6D933E7ABB9236AAF
:1006BC0041F2883823F001032362236A23F00403F8
:1006CC002362FFF787FD0646236A9807D3D5FFF709
:1006DC0081FD801B4045F7D91CE7052B236A03D10C
:1006EC0043F004032362BAE723F001032362236A75
:1006FC0023F00403B6E7FFF76DFDA0EB0800B04252
:10070C00B6D907E700100240000042428004424282
:10071C000C000020007000402A4B5A681C4602F066
:10072C000C02082A3DD00023274E022833602BD11F
:10073C00FFF750FD0746236899011FD42B6AB3F5C8
:10074C00803F05D16268A96822F400320A436260D6
:10075C00696A62680B4322F47412134363600123C9
:10076C003360FFF737FD054623689A013FF5A8AEC5
:10077C00FFF730FD401B0228F6D9CBE6FFF72AFD28
:10078C00C01B0228D7D9C5E6FFF724FD0546236810
:10079C009B017FF595AEFFF71DFD401B0228F6D996
:1007AC00B8E601283FF4B7AE58682B6A00F48032E3
:1007BC009A427FF471AE6B6A00F47010C01A18BFC5
:1007CC000120A8E6001002406000424230B5194BEF
:1007DC0087B002AC03F1100522461868596808333B
:1007EC0003C2AB421446F7D101238DF80430022327
:1007FC0011498DF805304B6803F00C02082A17D10B
:10080C00C3F3834206A80244DB0312F8102C0CD568
:10081C004B680A48C3F34043504306AA134413F8E9
:10082C00143CB0FBF3F007B030BD05485043FAE779
:10083C000248F8E7782100080010024000127A0004
:10084C0000093D002DE9F0410D46044610B9012088
:10085C00BDE8F081454A136803F007038B4229D3A6
:10086C0021688E0731D4CA0744D4404A136803F078
:10087C0007039D4267D322683D4D12F0040F6ED1E1
:10088C00130706D56B68226923F4605343EAC2034D
:10089C006B60FFF79BFF6B68364AC3F30313D35CA3
:1008AC00D840354B1860354B1868FFF751FC0020C9
:1008BC00BDE8F081136823F007030B431360136842
:1008CC0003F007039942C2D1CAE7294B11F0040F78
:1008DC001EBF5A6842F4E0625A60080742BF5A6869
:1008EC0042F460525A605A68A06822F0F002024347
:1008FC005A60B8E762681E4E012A33681BD113F4A4
:10090C00003FA4D0736841F2883823F003031343EB
:10091C007360FFF75FFC07467368626803F00C03B3
:10092C00B3EB820FA1D0FFF755FCC01B4045F3D9A8
:10093C000320BDE8F081022A02D113F0007FE0E72A
:10094C0013F0020FDDE7136823F007032B4313604A
:10095C00136803F007039D427FF479AF8BE76B6854
:10096C00E16823F4E0630B436B6089E700200240ED
:10097C0000100240102200080C000020040000208F
:10098C00044B054A5B68C3F30223D35C034A10682B
:10099C00D840704700100240202200080C000020B4
:1009AC00044B054A5B68C3F3C223D35C034A10684B
:1009BC00D840704700100240202200080C00002094
:1009CC00036A70B523F001030362036A4468826909
:1009DC000D6822F073022A438D6823F002032B4327
:1009EC000A4DA8420BD1CD6823F008032B438E6926
:1009FC004D6924F44074354323F004032C434460C4
:100A0C0082614A684263036270BD00BF002C0140E2
:100A1C00036A70B523F480730362036A4468C26985
:100A2C000D6822F073022A438D6823F4007343EAA5
:100A3C0005230B4DA8420DD1CD6823F4006343EA86
:100A4C0005238E694D6924F44054354323F48063A7
:100A5C0044EA05144460C2614A68C263036270BD13
:100A6C00002C0140036A30B523F480530362036AFF
:100A7C004468C2690D6822F4E64242EA05228D6898
:100A8C0023F4005343EA0533064DA84202BF4D69D7
:100A9C0024F4804444EA85144460C2614A680264C8
:100AAC00036230BD002C014070477047704770479F
:100ABC007047036810B51A69044691070ED5DA68B9
:100ACC0092070BD56FF002021A6101229B69027723
:100ADC009B0777D0FFF7EAFF0023237723681A6977
:100AEC00500710D5DA6851070DD56FF004021A6162
:100AFC0002229B69227713F4407F204668D0FFF7CF
:100B0C00D5FF0023237723681A6912070FD5DA68FB
:100B1C0010070CD56FF008021A610422DB692277EA
:100B2C00990720465AD0FFF7C1FF0023237723688B
:100B3C001A69D20610D5DA68D0060DD56FF01002FE
:100B4C001A610822DB69227713F4407F20464BD0D0
:100B5C00FFF7ACFF0023237723681A69D10708D568
:100B6C00DA68D20705D56FF0010220461A61FFF74B
:100B7C009CFF23681A69100608D5DA68110605D59A
:100B8C006FF0800220461A6100F0BBF923681A69E5
:100B9C00520608D5DA68500605D56FF0400220469B
:100BAC001A61FFF785FF23681A69910622D5DA6866
:100BBC0092061FD56FF020022046BDE810401A6146
:100BCC0000F09EB900F09CFA2046FFF770FF83E717
:100BDC0000F096FA2046FFF76AFF92E700F090FAD1
:100BEC002046FFF764FFA0E700F08AFA2046FFF7E3
:100BFC005EFFAFE710BD00001A4A036890420AD0AE
:100C0C00B0F1804F07D0A2F59432904203D002F598
:100C1C008062904215D14A6823F070031343114A45
:100C2C0090420AD0B0F1804F07D0A2F59432904296
:100C3C0003D002F58062904203D1CA6823F440735A
:100C4C0013434A6923F08003134303608B68C36228
:100C5C000B688362034B984204BF0B690363012347
:100C6C0043617047002C014010B50446A0B190F8C8
:100C7C003D3003F0FF021BB980F83C2000F0F8FB7C
:100C8C000223206884F83D30211DFFF7B5FF0123B6
:100C9C00002084F83D3010BD012010BD38B50D4644
:100CAC000446E0B190F83D3003F0FF021BB980F828
:100CBC003C20FFF7F9FE0223211D84F83D3020680B
:100CCC00FFF79AFF236800201A6822F008021A60C6
:100CDC00196829431960012384F83D3038BD01207F
:100CEC0038BD0000036A70B523F010030362036A79
:100CFC00446882690D6822F4E64242EA05228D6856
:100D0C0023F0200343EA05130B4DA8420DD1CD6807
:100D1C0023F0800343EA05138E694D6924F4406483
:100D2C00354323F0400344EA8504446082614A68F9
:100D3C008263036270BD00BF002C014038B590F88F
:100D4C003C300446012B4FF0020018D0012384F8EC
:100D5C003D0084F83C301D460C2A0BD8DFE802F02D
:100D6C00070A0A0A100A0A0A140A0A0A1800206852
:100D7C00FFF726FE002084F83D5084F83C0038BD77
:100D8C002068FFF7AFFFF5E72068FFF741FEF1E7BA
:100D9C002068FFF767FEEDE710B50124036A01F048
:100DAC001F018C4023EA04030362036A8A401A433E
:100DBC00026210BD10B504460C290DD8DFE801F015
:100DCC00070C0C0C230C0C0C280C0C0C2D000268C2
:100DDC00D36843F00203D36020680122FFF7DCFFE5
:100DEC002368104A0020934202BF5A6C42F400421E
:100DFC005A649A6802F00702062A1EBF1A6842F06B
:100E0C0001021A6010BD0268D36843F00403E2E7E4
:100E1C000268D36843F00803DDE70268D36843F047
:100E2C001003D8E7002C0140FFF7C4BF10B50446EF
:100E3C000C290DD8DFE801F0070C0C0C320C0C0C53
:100E4C00370C0C0C3C000268D36823F00203D3600F
:100E5C0000222068FFF7A0FF2368184A93420DD1A7
:100E6C0041F21112196A114208D140F24442196A36
:100E7C00114202BF5A6C22F400425A6441F2111220
:100E8C00196A114208D140F24442196A114202BF58
:100E9C001A6822F001021A60002010BD0268D368A3
:100EAC0023F00403D3E70268D36823F00803CEE7EA
:100EBC000268D36823F01003C9E700BF002C01407F
:100ECC00FFF7B4BF90F83C3030B5012B4FF0020364
:100EDC0014D0046880F83D306268A3680D684968D6
:100EEC0022F0700223F080030B432A436260A3605C
:100EFC00012380F83D30002380F83C30184630BD8B
:100F0C007047704738B505460368C1681A691924DB
:100F1C0022F440520A431A6182680069D96802437C
:100F2C00686921F4B05121F00C0102430A43DA60E4
:100F3C005A69A96922F440720A435A610D4A9342D4
:100F4C0014D1FFF72DFD60436C686422A400B0FB44
:100F5C00F4F0B0FBF2F402FB14031B013233B3FBCD
:100F6C00F2F3296803EB04138B6038BDFFF708FD1F
:100F7C00E9E700BF00380140F8B504460E461746B5
:100F8C001D4621680B6836EA030301D10020F8BD29
:100F9C006B1CF7D095B923680320DA6822F4D07261
:100FAC00DA605A6922F001025A61202384F8393040
:100FBC0084F83A30002384F83830F8BDFFF70AF98A
:100FCC00C01B8542DDD2E6E710B5044640B390F86D
:100FDC00393003F0FF021BB980F8382000F066FAB4
:100FEC002423226884F83930D368204623F4005334
:100FFC00D360FFF787FF236800201A6922F4904220
:10100C001A615A6922F02A025A61DA6842F40052D3
:10101C00DA602023E06384F8393084F83A3010BD6C
:10102C00012010BD2DE9F0411F4690F839300446DF
:10103C00202B0D4690464ED1002949D0002A47D08E
:10104C0090F83830012B46D0012380F8383000233B
:10105C00C363212380F83930FFF7BCF80646A4F8A7
:10106C002480A4F82680E38C9BB26BB93B463246B5
:10107C0040212046FFF780FFA8B9202384F83800D0
:10108C0084F83930BDE8F081E38C3246013B9BB2E9
:10109C00E384A3688021B3F5805F20463B460ED1E4
:1010AC00FFF76AFF10B10320BDE8F0812B8822689E
:1010BC00C3F308035360236943B90235D3E7FFF741
:1010CC005BFF0028EFD123682A785A600135CAE704
:1010DC000120BDE8F0810220BDE8F081074B1A78B1
:1010EC0022B1B0F5805F01D100F084BA1B7823B136
:1010FC00B0F5005F01D100F0A1BA704708000020E4
:10110C000268034B9A4202BF0122024B1A707047CD
:10111C00000800409000002010B590B0282200215B
:10112C0006A800F0AFFB0021142201A800F0AAFBD6
:10113C004FF480330122022407930E934FF4E013F3
:10114C0006A806920A920F930D94FFF7A1F90F23AC
:10115C004FF4806201930023214601A8029403936B
:10116C0004920593FFF76EFB10B010BD2DE9F04F04
:10117C0099B0FFF711F8FFF7CFFF1022002108A854
:10118C0000F080FB964B00259A6908A942F02002DA
:10119C009A619A69934802F020020292029A9A6923
:1011AC00914E42F008029A619A69904C02F0080242
:1011BC000392039A9A69DFF8709242F004029A61E2
:1011CC009B6903F004030493049B4FF4405308936E
:1011DC00874B0993FFF76EF8002201212820FFF7B7
:1011EC0011F82820FFF742F829461C2208A805957B
:1011FC00069500F047FB41F61F437E4A304686E8D1
:10120C000C0049F64043B560F3603561B561FFF7FA
:10121C002BFD08213046FFF741FD05A93046059509
:10122C000695FFF74FFE3023089349F63F430C22F7
:10123C0008A9304609930A950C95FFF77FFD4FF4EA
:10124C00E1336D49204684E80A000C23A560E56073
:10125C0025616361A561E561FFF7B6FE059506950D
:10126C0007954FF0000800F031FA00284AD000250D
:10127C00624B4FF0010A1D7000F0B0F9074600F008
:10128C00B3F983465D4B4022294608A883F800A099
:10129C0000F0F8FA3B465A4A40218DE8800808A82D
:1012AC0000F0F8FA08A8FEF74BFF4FF47A7382B2FD
:1012BC0008A92046FFF7B6FEBBF1040F69D11B2F1E
:1012CC004FF47A730FD106224E492046FFF7AAFE3F
:1012DC000C214548FFF7F4FD33685D6205950695D2
:1012EC000795A8460EE00D2F35D10622464920461B
:1012FC00FFF798FE0C213C48FFF7E2FD33685D6276
:10130C0089F800A099F80030012BACD100254FF4DE
:10131C007A730B223D49204689F80050FFF782FE74
:10132C00202229460DEB020000F0ACFA202105AB7F
:10133C00374A0DEB010000F0ADFA08A8FEF700FFEC
:10134C004FF47A7382B208A92046FFF76BFE05951D
:10135C000695079585E70A222E492046FFF762FE7F
:10136C000C212148FFF760FD336808F1010A5D622A
:10137C0005AB5FFA8AFAFAB2274903EB080000F0D2
:10138C00BDFABAF10B0F28D94FF47A730E22234908
:10139C009BE7B7DD4FF47A73052221492046FFF70E
:1013AC0041FE0C211048FFF78BFD202133680DEB1B
:1013BC0001005D621B4A3B46009705950695079513
:1013CC0000F068FA08A8FEF7BBFE4FF47A7382B2FD
:1013DC0008A92046FFF726FE83E7D04692E700BF18
:1013EC0000100240000C0140BC000020FC0000205A
:1013FC0000002110000800400038014008000020C7
:10140C0088210008B0210008B7210008F721000846
:10141C0003220008BE210008C9210008CC210008C5
:10142C00DB210008E1210008900000200E4B82B067
:10143C009A6942F001029A619A6902F001020092E3
:10144C00009ADA6942F08052DA61DB69074A03F0EC
:10145C0080530193019B536823F0E06343F00073C6
:10146C00536002B0704700BF001002400000014002
:10147C0007B50D4B02689A4212D103F50233DA69B3
:10148C001E2042F00402DA61DB69002203F004033F
:10149C0001930221019BFEF7B5FE1E20FEF7E6FE2E
:1014AC0003B05DF804FB00BF0008004010B5044613
:1014BC0086B01022002102A800F0E4F92268174B34
:1014CC009A4228D103F558439A6902A942F4804202
:1014DC009A619A69124802F480420092009A9A69C1
:1014EC0042F004029A619B6903F004030193019B8F
:1014FC004FF4007302930223039303230593FEF727
:10150C00D9FE4FF480630293002302A9044803938D
:10151C000493FEF7CFFE06B010BD00BF00380140AB
:10152C00000801407047FEE7FEE7FEE7FEE7704764
:10153C0070477047FEF742BE0148FFF7BABA00BFCA
:10154C00BC00002008B54FF48050FEF795FFBDE8B5
:10155C0008404FF40050FEF78FBF000008B50A4B4F
:10156C000246196809B909491960694618680244A4
:10157C008A4206D900F05CF90C2303604FF0FF306F
:10158C0008BD1A6008BD00BF940000204001002077
:10159C000F4B1A6842F001021A6059680D4A0A4052
:1015AC005A601A6822F0847222F480321A601A6827
:1015BC0022F480221A605A6822F4FE025A604FF418
:1015CC001F029A604FF00062034B9A60704700BF95
:1015DC00001002400000FFF800ED00E0014B18681D
:1015EC00704700BFA4000020014BB3F90000704706
:1015FC00AC0000200D4A08B5138801331BB21380D0
:10160C0013881BB21F2B0A4B08DD0A4A1868116895
:10161C0041EAD07111601168490011601A685200DA
:10162C001A60FEF7D7FD044B186008BD9800002027
:10163C009C000020A0000020A80000200F4A08B544
:10164C00138801331BB2138013881BB21F2B0C4B56
:10165C0008DD0C4A1868116841EAD07111601168F4
:10166C00490011601A6842F001021A601A685200AF
:10167C001A60FEF7AFFD044B186008BD98000020FF
:10168C009C000020A0000020A80000201A2A03D1F2
:10169C000868C0F357007047222A0DD1036803F085
:1016AC000303036003689B0703600B685B080B6014
:1016BC0000680B6818437047086870470A2803D005
:1016CC000B2808BF0D2070471B2070472DE9F041F7
:1016DC00FEF780FD3D4A13689646C31A192B47D96D
:1016EC003B4B3C4D19881C4609B218293A4E13D075
:1016FC00198809B21A290FD0198809B220290BD0E0
:10170C00198809B2222907D0198809B2082903D0EF
:10171C00198809B2042951D12B68304F5B082B6012
:10172C0023881BB2202BC2BF33685B08336023882D
:10173C001BB2082B1FD12A682968238882F0F0027B
:10174C003B80002301F00F01C2F30312914223806E
:10175C002B60336007D10846FFF7B0FF204B1860B1
:10176C000120BDE8F081CEF8000023802B603360AF
:10177C000020BDE8F0812388DFF864801BB2042BC5
:10178C000DD1286800F00F00FFF798FF2388C8F8E8
:10179C0000003B80002323802B603360E0E722882D
:1017AC000C49D2B20C48FFF771FF2388C8F800002F
:1017BC003B80002323802B603360D1E71060002036
:1017CC00188028603060BDE8F08100BFA8000020C0
:1017DC00980000209C000020A0000020AC000020FD
:1017EC00A4000020002103E00B4B5B584350043154
:1017FC000A480B4B42189A42F6D30A4A02E00023DD
:10180C0042F8043B084B9A42F9D3FFF7C1FE00F0B3
:10181C0015F8FFF7ABFC70476422000800000020AD
:10182C00740000207400002040010020FEE700003E
:10183C00014B1868704700BF1000002070B50025E0
:10184C000C4E0D4CA41BA410A54209D100F082FC37
:10185C0000250A4E0A4CA41BA410A54205D170BD4C
:10186C0056F8253098470135EEE756F8253098475D
:10187C000135F2E75C2200085C2200085C220008BB
:10188C006022000803460244934200D1704703F8DB
:10189C00011BF9E70CB430B5174B0C1E9DB01D683D
:1018AC0008DA8B234FF0FF302B601DB0BDE83040C1
:1018BC0002B070474FF40273ADF814300CBF2346DE
:1018CC0004F1FF33049307934FF6FF7302900690D5
:1018DC00ADF81630209A21AB02A92846019300F0EE
:1018EC008DF8431CBCBF8B232B60002CDDD0002259
:1018FC00029B1A70D9E700BF100000200EB44FF401
:10190C00027100B59CB0ADF814106FF00041049159
:10191C0007914FF6FF711DAB02900690084853F8E3
:10192C00042BADF81610006802A9019300F066F8BC
:10193C000022029B1A701CB05DF804EB03B07047D8
:10194C00100000202DE9F0478E6882469E420C461E
:10195C009146984635D88A8912F4906F31D002237B
:10196C00256809696F1A656905EB450595FBF3F563
:10197C0008F101033B449D4238BF1D46530531D548
:10198C00294600F047FB064650B90C23CAF8003034
:10199C00A3894FF0FF3043F04003A381BDE8F087EB
:1019AC003A46216900F0C4FAA38923F4906343F00A
:1019BC008003A38126613E44266046466561ED1B8B
:1019CC00A560464528BF464649463246206800F089
:1019DC00BAFAA36800209B1BA36023681E442660F0
:1019EC00BDE8F0872A4600F073FB06460028E1D1DB
:1019FC002169504600F0C2FAC7E700002DE9F04F0C
:101A0C009DB003938B8980461C060D4616460FD558
:101A1C000B696BB9402100F0FDFA2860286128B9E8
:101A2C000C23C8F800304FF0FF30C4E040236B614A
:101A3C000023099320238DF8293030234FF0010B1C
:101A4C008DF82A3037463C4614F8013B002B3CD12C
:101A5C00B7EB060A0BD05346324629464046FFF7F1
:101A6C0071FF013000F0A280099B534409933B782D
:101A7C00002B00F09B8000234FF0FF320493079360
:101A8C00059206938DF853301A930522217850480D
:101A9C0000F040FA671C049BD8B9D90644BF202239
:101AAC008DF853201A0744BF2B228DF8532022782F
:101ABC002A2A16D000210A20079A27463B7801349F
:101ACC00303B092B50D9C9B111E0252BC0D027468A
:101ADC00B9E73F4A3C46801A0BFA00F018430490D1
:101AEC00D3E7039A111D12680391002A01DB0792B8
:101AFC0004E0524243F00203079204933B782E2BEE
:101B0C000DD17B78791C2A2B32D1039B02371A1DFD
:101B1C001B680392002BB8BF4FF0FF3305932D4C7D
:101B2C0003223978204600F0F5F938B14023001B28
:101B3C0003FA00F0049B013703430493397806221F
:101B4C0025487E1C8DF8281000F0E4F9002835D0CB
:101B5C00224BFBB9039B073323F007030833039392
:101B6C00099B4B4409936DE700FB02320121A4E76A
:101B7C0000230A24184605930F463A780131303A6F
:101B8C00092A03D9002BCAD00590C8E704FB002012
:101B9C000123F1E703AB00932A46114B04A94046FD
:101BAC00AFF30080B0F1FF3F8146D9D1AB895B0622
:101BBC003FF539AF09981DB0BDE8F08F03AB00932A
:101BCC002A46074B04A9404600F084F8EAE700BF18
:101BDC00282200082E2200083222000800000000F3
:101BEC00511900082DE9F04791461F468A680B6988
:101BFC0006469342B8BF1346C9F8003091F843200B
:101C0C000C46DDF8208012B10133C9F8003023688E
:101C1C00990642BFD9F800300233C9F80030256864
:101C2C0015F0060507D104F1190AE368D9F800206C
:101C3C009B1A9D422ADB94F843302268003318BF6C
:101C4C00012392062FD404F1430239463046C04793
:101C5C00013022D02368E56803F00603042B18BF7B
:101C6C000025D9F800204FF0000908BFAD1AA36871
:101C7C00226908BF25EAE5759342C4BF9B1AED188B
:101C8C001A344D451BD10020BDE8F0870123524684
:101C9C0039463046C047013003D14FF0FF30BDE824
:101CAC00F0870135C1E73020E11881F843005A1C58
:101CBC0094F845102244023382F84310C3E7012301
:101CCC00224639463046C0470130E6D009F10109B9
:101CDC00D7E700002DE9F04317460A7E85B06E2A3F
:101CEC00984606460C460C9B01F1430E00F0BC8056
:101CFC001AD8632A2ED00AD8002A00F0C880582A95
:101D0C0000F08A8004F1420584F842202AE0642A1B
:101D1C0001D0692AF6D121681A6811F0800F23D0FE
:101D2C00111D1960136827E0732A00F0B48008D8DD
:101D3C006F2A2AD0702AE5D10A6842F020020A6084
:101D4C0003E0752A21D0782ADCD178226F4984F8F7
:101D5C00452064E01A6801F14205111D19601368F1
:101D6C0084F842300123A3E011F0400F02F104018A
:101D7C001960D7D0B2F90030002B03DA2D225B4268
:101D8C0084F8432062490A2217E02068196810F091
:101D9C00800F03D0081D18600B6806E010F0400F90
:101DAC0001F104001860F7D00B886F2A14BF0A22C7
:101DBC0008225749002084F843006568002DA5606F
:101DCC00C0F29C80206820F004002060002B3FD1E2
:101DDC00002D40F095807546082A0BD12368DA0750
:101DEC0008D5236962689A42DEBF302305F8013CAE
:101DFC0005F1FF35AEEB05032361CDF800803B46C2
:101E0C0003AA21463046FFF7EDFE013055D14FF0C5
:101E1C00FF3005B0BDE8F08381F845203C492268CD
:101E2C00186812F0800F00F104051D6001D00368E2
:101E3C0002E05506FBD50388D00744BF42F02002D0
:101E4C0022601BB9226822F0200222601022B1E726
:101E5C007546B3FBF2F002FB1033CB5C05F8013D89
:101E6C0003460028F5D1B7E708681A6810F0800F10
:101E7C00496904D0101D18601368196007E010F050
:101E8C00400F02F1040018601368F6D0198000238B
:101E9C0075462361B1E71A68111D19601568002198
:101EAC006268284600F036F808B1401B6060636831
:101EBC002361002384F843309FE723692A4639467F
:101ECC003046C0470130A2D023689B0707D50025B8
:101EDC0004F11909E368039A9B1A9D4205DBE0683B
:101EEC00039B9842B8BF184693E701234A463946EC
:101EFC003046C04701308AD00135EBE7002BA7D123
:101F0C000B7804F1420584F8423065E74A22000858
:101F1C003922000810B5C9B202449042034601D1DF
:101F2C00002010BD1C7801308C42F6D1184610BD33
:101F3C0010B5431E0A44914200D110BD11F8014B5B
:101F4C0003F8014FF7E7884210B501EB020303D801
:101F5C00421E99420CD110BD9842F9D28118D21A66
:101F6C00D34200D110BD13F8014D01F8014DF7E734
:101F7C0011F8014B02F8014FEBE7000038B50546AC
:101F8C00002943D051F8043C0C1F002BB8BFE418B7
:101F9C0000F0D4F81E4A1368104633B9636014601D
:101FAC002846BDE8384000F0CAB8A3420BD92168D6
:101FBC006218934201BF1A685B6852182260636012
:101FCC000460EDE713465A680AB1A242FAD91968BF
:101FDC005818A0420BD1206801445818824219604D
:101FEC00DED110685268014419605A60D8E702D9F2
:101FFC000C232B60D4E7206821188A4201BF11689A
:10200C0052680918216062605C60C9E738BD00BF86
:10201C00B000002070B5CD1C25F0030508350C2D43
:10202C0038BF0C25002D064601DBA94203D90C2331
:10203C003360002070BD00F081F8234A14682146FB
:10204C0091B9224C23681BB9304600F067F8206028
:10205C002946304600F062F8431C26D10C2330464A
:10206C00336000F06CF8E4E70B685B1B1AD40B2BA5
:10207C000FD90B60CC18CD50304600F060F804F14D
:10208C000B00231D20F00700C31A1BD05A42E2504C
:10209C0070BD8C420BBF63684B681360636018BFE4
:1020AC000C46E9E70C464968CAE7C41C24F0030453
:1020BC00A04205D0211A304600F030F80130CDD0C6
:1020CC002560D9E770BD00BFB0000020B40000202F
:1020DC00F8B5074614460E4621B91146BDE8F8403E
:1020EC00FFF798BF22B9FFF749FF25462846F8BDF0
:1020FC0000F026F884420FD921463846FFF78AFFB4
:10210C0005460028F2D031462246FFF711FF314632
:10211C003846FFF733FFE9E73546E7E738B50023E4
:10212C00054C054608462360FFF718FA431C02D1FC
:10213C00236803B12B6038BD3C0100207047704709
:10214C0051F8040C0028A0F10400BCBF0B58C018B7
:10215C0070470000F8B500BFF8BC08BC9E4670473D
:0C216C00F8B500BFF8BC08BC9E467047E8
:1021780002030405060708090A0B0C0D0E0F1010C0
:102188004845583D3078256C58204445433D256CDA
:10219800752C2050726F746F6B6F6C205769656770
:1021A800616E642D25640A0052657365740A0045E2
:1021B8006E7465720A005265636976206469670AFD
:1021C8000025640042756666206F766572666C6FDE
:1021D800770A00436172740A0043617274204845AB
:1021E800583D256C58204445433D256C750A0041EF
:1021F8007272617920646967730A00417272617949
:102208004469672025730A000000000000000000F0
:102218000102030406070809000000000102030484
:10222800232D302B2000686C4C00656667454647B7
:10223800003031323334353637383941424344453A
:1022480046003031323334353637383961626364A9
:0422580065660000B7
:04225C003101000844
:042260000D01000864
:102264000100000010000000010000000024F40040
:102274001400002000000000000000000000000026
:10228400000000000000000000000000000000004A
:10229400000000000000000000000000000000003A
:1022A400000000000000000000000000000000002A
:1022B400000000000000000000000000000000001A
:1022C400000000000000000000000000000000000A
:0422D4000000000006
:04000005080017F1E7
:00000001FF
