:020000040800F2
:1000000000500020A91A0008491A00084B1A0008DD
:100010004D1A00084F1A0008511A0008000000008D
:10002000000000000000000000000000531A00085B
:10003000551A000800000000571A0008591A000855
:10004000F11A0008F11A0008F11A0008F11A000864
:10005000F11A0008F11A0008F11A0008F11A000854
:10006000F11A0008F11A0008F11A0008F11A000844
:10007000F11A0008F11A0008F11A0008F11A000834
:10008000F11A0008F11A0008F11A0008F11A000824
:10009000F11A0008F11A0008F11A0008F11A000814
:1000A000F11A0008F11A0008F11A0008F11A000804
:1000B000F11A0008F11A0008F11A0008F11A0008F4
:1000C000F11A0008F11A0008F11A0008F11A0008E4
:1000D000F11A0008F11A0008F11A0008F11A0008D4
:1000E000F11A0008F11A0008F11A000800000000D7
:1000F0000000000000000000000000000000000000
:0C01000000000000000000005FF808F1A3
:1001100010B5054C237833B9044B13B10448AFF341
:1001200000800123237010BDE001002000000000CA
:10013000583C000808B5034B1BB103490348AFF313
:10014000008008BD00000000E4010020583C0008C9
:10015000034613F8012B002AFBD1181A0138704707
:1001600081F0004102E000BF83F0004330B54FEA68
:1001700041044FEA430594EA050F08BF90EA020FD5
:100180001FBF54EA000C55EA020C7FEA645C7FEA68
:10019000655C00F0E2804FEA5454D4EB5555B8BF8B
:1001A0006D420CDD2C4480EA020281EA030382EAFC
:1001B000000083EA010180EA020281EA0303362D8E
:1001C00088BF30BD11F0004F4FEA01314FF4801C61
:1001D0004CEA113102D0404261EB410113F0004F73
:1001E0004FEA03334CEA133302D0524263EB43032A
:1001F00094EA050F00F0A780A4F10104D5F1200EC8
:100200000DDB02FA0EFC22FA05F2801841F1000122
:1002100003FA0EF2801843FA05F359410EE0A5F1F6
:1002200020050EF1200E012A03FA0EFC28BF4CF027
:10023000020C43FA05F3C01851EBE37101F00045DD
:1002400007D54FF0000EDCF1000C7EEB00006EEBEA
:100250000101B1F5801F1BD3B1F5001F0CD3490874
:100260005FEA30004FEA3C0C04F101044FEA4452CB
:1002700012F5800F80F09A80BCF1004F08BF5FEA52
:10028000500C50F1000041EB045141EA050130BD32
:100290005FEA4C0C404141EB010111F4801FA4F1D5
:1002A0000104E9D191F0000F04BF01460020B1FA2A
:1002B00081F308BF2033A3F10B03B3F120020CDA62
:1002C0000C3208DD02F1140CC2F10C0201FA0CF040
:1002D00021FA02F10CE002F11402D8BFC2F1200CA5
:1002E00001FA02F120FA0CFCDCBF41EA0C0190405B
:1002F000E41AA2BF01EB0451294330BD6FEA0404A4
:100300001F3C1CDA0C340EDC04F11404C4F120028E
:1003100020FA04F001FA02F340EA030021FA04F3A0
:1003200045EA030130BDC4F10C04C4F1200220FAF7
:1003300002F001FA04F340EA0300294630BD21FA35
:1003400004F0294630BD94F0000F83F4801306BFFB
:1003500081F480110134013D4EE77FEA645C18BFEF
:100360007FEA655C29D094EA050F08BF90EA020F86
:1003700005D054EA000C04BF1946104630BD91EA7E
:10038000030F1EBF0021002030BD5FEA545C05D181
:100390004000494128BF41F0004130BD14F58004C0
:1003A0003CBF01F5801130BD01F0004545F0FE4134
:1003B00041F470014FF0000030BD7FEA645C1ABF69
:1003C000194610467FEA655C1CBF0B46024650EAA0
:1003D000013406BF52EA033591EA030F41F40021CC
:1003E00030BD00BF90F0000F04BF0021704730B552
:1003F0004FF4806404F132044FF000054FF0000127
:1004000050E700BF90F0000F04BF0021704730B5E7
:100410004FF4806404F1320410F0004548BF4042BC
:100420004FF000013EE700BF42004FEAE2014FEA11
:1004300031014FEA02701FBF12F07F4393F07F4FEC
:1004400081F06051704792F0000F14BF93F07F4F1E
:10045000704730B54FF4607401F0004521F0004161
:1004600020E700BF50EA010208BF704730B54FF0E7
:1004700000050AE050EA010208BF704730B511F0EC
:10048000004502D5404261EB41014FF4806404F124
:1004900032045FEA915C3FF4DCAE4FF003025FEAA6
:1004A000DC0C18BF03325FEADC0C18BF033202EB2E
:1004B000DC02C2F1200300FA03FC20FA02F001FA88
:1004C00003FE40EA0E0021FA02F11444C1E600BF27
:1004D00070B54FF0FF0C4CF4E06C1CEA11541DBFDA
:1004E0001CEA135594EA0C0F95EA0C0F00F0DEF8A5
:1004F0002C4481EA030621EA4C5123EA4C5350EA8A
:10050000013518BF52EA033541F4801143F48013DA
:1005100038D0A0FB02CE4FF00005E1FB02E506F06B
:100520000042E0FB03E54FF00006E1FB03569CF0C0
:10053000000F18BF4EF0010EA4F1FF04B6F5007FC6
:1005400064F5407404D25FEA4E0E6D4146EB060638
:1005500042EAC62141EA55514FEAC52040EA5E50C1
:100560004FEACE2EB4F1FD0C88BFBCF5E06F1ED86B
:10057000BEF1004F08BF5FEA500E50F1000041EBA2
:10058000045170BD06F0004646EA010140EA02004F
:1005900081EA0301B4EB5C04C2BFD4EB0C0541EA71
:1005A000045170BD41F480114FF0000E013C00F386
:1005B000AB8014F1360FDEBF002001F0004170BDAA
:1005C000C4F10004203C35DA0C341BDC04F11404C3
:1005D000C4F1200500FA05F320FA04F001FA05F24F
:1005E00040EA020001F0004221F0004110EBD3701C
:1005F00021FA04F642EB06015EEA430E08BF20EA48
:10060000D37070BDC4F10C04C4F1200500FA04F3EA
:1006100020FA05F001FA04F240EA020001F000417C
:1006200010EBD37041F100015EEA430E08BF20EAEF
:10063000D37070BDC4F1200500FA05F24EEA020E37
:1006400020FA04F301FA05F243EA020321FA04F066
:1006500001F0004121FA04F220EA020000EBD3701D
:100660005EEA430E08BF20EAD37070BD94F0000F1D
:100670000FD101F00046400041EB010111F4801F51
:1006800008BF013CF7D041EA060195F0000F18BF02
:10069000704703F00046520043EB030313F4801F3E
:1006A00008BF013DF7D043EA0603704794EA0C0FF8
:1006B0000CEA135518BF95EA0C0F0CD050EA41060E
:1006C00018BF52EA4306D1D181EA030101F000418B
:1006D0004FF0000070BD50EA410606BF10461946B3
:1006E00052EA430619D094EA0C0F02D150EA0136BF
:1006F00013D195EA0C0F05D152EA03361CBF104600
:1007000019460AD181EA030101F0004141F0FE419E
:1007100041F470014FF0000070BD41F0FE4141F422
:10072000780170BD70B54FF0FF0C4CF4E06C1CEA22
:1007300011541DBF1CEA135594EA0C0F95EA0C0FD7
:1007400000F0A7F8A4EB050481EA030E52EA033592
:100750004FEA013100F088804FEA03334FF08055B3
:1007600045EA131343EA12634FEA022245EA1115E0
:1007700045EA10654FEA00260EF000419D4208BF91
:10078000964244F1FD0404F5407402D25B084FEA3E
:100790003202B61A65EB03055B084FEA32024FF4EA
:1007A00080104FF4002CB6EB020E75EB030E22BF47
:1007B000B61A754640EA0C005B084FEA3202B6EB07
:1007C000020E75EB030E22BFB61A754640EA5C00B6
:1007D0005B084FEA3202B6EB020E75EB030E22BF46
:1007E000B61A754640EA9C005B084FEA3202B6EB47
:1007F000020E75EB030E22BFB61A754640EADC0006
:1008000055EA060E18D04FEA051545EA16754FEA67
:1008100006164FEAC30343EA52734FEAC2025FEA85
:100820001C1CC0D111F4801F0BD141EA00014FF014
:1008300000004FF0004CB6E711F4801F04BF0143E5
:100840000020B4F1FD0C88BFBCF5E06F3FF6AFAE01
:10085000B5EB030C04BFB6EB020C5FEA500C50F191
:10086000000041EB045170BD0EF0004E4EEA113114
:1008700014EB5C04C2BFD4EB0C0541EA045170BD1B
:1008800041F480114FF0000E013C90E645EA060E5F
:100890008DE60CEA135594EA0C0F08BF95EA0C0F8D
:1008A0003FF43BAF94EA0C0F0AD150EA01347FF4D5
:1008B00034AF95EA0C0F7FF425AF104619462CE7AC
:1008C00095EA0C0F06D152EA03353FF4FDAE10460F
:1008D000194622E750EA410618BF52EA43067FF460
:1008E000C5AE50EA41047FF40DAF52EA43057FF4F0
:1008F000EBAE12E74FF0FF3C06E000BF4FF0010CFB
:1009000002E000BF4FF0010C4DF804CD4FEA410C5E
:100910007FEA6C5C4FEA430C18BF7FEA6C5C1BD02B
:1009200001B050EA410C0CBF52EA430C91EA030FAC
:1009300002BF90EA020F0020704710F1000F91EA09
:10094000030F58BF994208BF90422CBFD8176FEAD7
:10095000E37040F0010070474FEA410C7FEA6C5CA5
:1009600002D150EA013C07D14FEA430C7FEA6C5CAC
:10097000D6D152EA033CD3D05DF8040B704700BFD8
:100980008446104662468C461946634600E000BF26
:1009900001B5FFF7B7FF002848BF10F1000F01BDF8
:1009A0004DF808EDFFF7F4FF0CBF012000205DF8C3
:1009B00008FB00BF4DF808EDFFF7EAFF34BF012048
:1009C00000205DF808FB00BF4DF808EDFFF7E0FFE1
:1009D00094BF012000205DF808FB00BF4DF808ED32
:1009E000FFF7CEFF94BF012000205DF808FB00BF99
:1009F0004DF808EDFFF7C4FF34BF012000205DF87B
:100A000008FB00BF4FEA410C7FEA6C5C02D150EA60
:100A1000013C0AD14FEA430C7FEA6C5C02D152EAF6
:100A2000033C02D14FF0000070474FF001007047C7
:100A30004FEA410212F5001215D211D56FF4787306
:100A4000B3EB625212D94FEAC12343F0004343EAA9
:100A5000505311F0004F23FA02F018BF4042704784
:100A60004FF00000704750EA013005D111F000400E
:100A700008BF6FF0004070474FF00000704700BFA4
:100A80004FEA4102B2F1E04324BFB3F5001CDCF1B0
:100A9000FE5C0DD901F0004C4FEAC0024CEA5070E8
:100AA000B2F1004F40EB830008BF20F00100704717
:100AB00011F0804F21D113F13872BCBF01F000401A
:100AC000704741F480114FEA5252C2F11802C2F14C
:100AD000200C10FA0CF320FA02F018BF40F00100CD
:100AE0004FEAC1234FEAD32303FA0CFC40EA0C007F
:100AF00023FA02F34FEA4303CCE77FEA625307D1BC
:100B000050EA01331EBF4FF0FE4040F440007047F2
:100B100001F0004040F0FE4040F40000704700BF8C
:100B200038B50E4B054618784FF47A73B3FBF0F3E3
:100B30000B4A1068B0FBF3F000F092F8044658B985
:100B40000F2D09D8024629464FF0FF3000F054F827
:100B5000044B20461D6038BD012038BD0000002038
:100B60000C00002004000020074A08B51368032089
:100B700043F01003136000F02DF80020FFF7D0FFC2
:100B800000F004FF002008BD00200240034A044B8F
:100B900011681B780B441360704700BF08020020E7
:100BA00000000020014B1868704700BF08020020B9
:100BB00038B50446FFF7F6FF0546631C1EBF044B1D
:100BC0001B78E418FFF7EEFF401B8442FAD838BDCB
:100BD00000000020074A0002D36800F4E06023F41C
:100BE000E0631B041B0C43F0BF6343F40033034377
:100BF000D360704700ED00E0174B30B5DC68C4F3FC
:100C00000224C4F10703251D042B28BF0423062D4D
:100C10004FF0010598BF002405FA03F303F1FF33F9
:100C200088BF033C1940A14005FA04F4013C22406E
:100C3000002842EA01024FEA0212AFBF00F1604011
:100C4000064B00F00F00D2B2A5BFD2B200F5614052
:100C50001A5480F8002330BD00ED00E014ED00E0F0
:100C60000138B0F1807F0AD2F021064B064A586065
:100C700082F823100020072298601A607047012034
:100C8000704700BF10E000E000ED00E02DE9F74FF5
:100C900000221646654BDFF8A4E1DFF8A4C14FF04F
:100CA00001080C6808FA06F808EA0404A0457FD198
:100CB0004D68122D00F0AF8000F28880022D00F008
:100CC000A7807CD8002D00F08E80012D00F09E8042
:100CD0004FF00F09FF2C93BF824606F18045083D77
:100CE000D0F800B092BFB500D0F804B0AD0009FA5A
:100CF00005F82BEA080802FA05F588BF00F1040A96
:100D000048EA0505CAF80050D1F804A01AF0805F3F
:100D10004ED0474D464FAD6926F0030845F001051A
:100D2000BD61BD6908F1804805F00105019508F530
:100D3000803806F0030B019D4FEA8B0BD8F8085062
:100D400009FA0BF925EA09093A4DA84268D005F5D8
:100D50008065A84266D005F58065A84264D005F597
:100D60008065A8420CBF0325042505FA0BF545EA6A
:100D70000905C8F808501D681AF4803F14BF2543C0
:100D8000A5431D605D681AF4003F14BF2543A543C9
:100D90005D609D681AF4801F14BF2543A5439D60C4
:100DA000DD681AF4001F14BF2C4325EA0404DC603C
:100DB0000136102E7FF473AF03B0BDE8F08F032D22
:100DC00022D0112D84D1CA68043281E71A4FBD4266
:100DD00009D012D8DFF86C904D4504D009F5803960
:100DE0004D457FF475AF8A68C2B1012A0CBFC0F8C7
:100DF0001080C0F8148008226AE77545F3D0654575
:100E0000F1D0DFF84490EBE7002261E7CA685FE7C2
:100E1000CA6808325CE7CA680C3259E7042257E70F
:100E20000025A2E70125A0E702259EE70004014076
:100E300000100240000801400000211000003110A5
:100E400000003210000011100000221083681942C7
:100E500014BF0120002070470AB1016170470904E6
:100E6000FBE7000003682DE9F341DB07054610D4DA
:100E70002B689F075ED42B68190700F195802B68BB
:100E80005A0700F1BF80EA69002A40F02D81002056
:100E900014E0904C636803F00C03042B07D06368E4
:100EA00003F00C03082B0CD16368DE0309D523681B
:100EB0009C03DDD56B68002BDAD1012002B0BDE8C0
:100EC000F0816B68B3F5803F10D1236843F4803321
:100ED0002360FFF767FE064623689803C8D4FFF730
:100EE00061FE801B6428F7D90320E7E79BB92368DC
:100EF00023F480332360236823F480232360FFF7E7
:100F000051FE064623689903B2D5FFF74BFE801BBE
:100F10006428F7D9E8E7B3F5A02F236803D143F499
:100F200080232360D1E723F480332360236823F4F4
:100F30008023CDE7674C636813F00C0F07D063681C
:100F400003F00C03082B10D16368DA030DD4236877
:100F50009B0702D52B69012BAFD123686A6923F067
:100F6000F80343EAC203236085E72A695A4B6AB152
:100F700001221A60FFF716FE064623689F07ECD48D
:100F8000FFF710FE801B0228F7D9ADE71A60FFF7C4
:100F900009FE0646236898077FF56DAFFFF702FE4E
:100FA000801B0228F6D99FE7AA694A4C4B4BDAB15D
:100FB00001221A60FFF7F6FD0646636A9B070DD50E
:100FC0004FF4FA52464B1B68B3FBF2F3019300BF98
:100FD000019B5A1E0192002BF9D150E7FFF7E2FD69
:100FE000801B0228E9D97FE71A60FFF7DBFD064680
:100FF000636A9F077FF543AFFFF7D4FD801B02288C
:10100000F6D971E7334CE369D80024D40127E369AA
:1010100043F08053E361E36903F080530093009B46
:10102000304E3368D90518D5EB68012B26D1236AD9
:1010300043F001032362FFF7B5FD41F28836804695
:10104000236A9B073FD5002F3FF41DAFE36923F0D0
:101050008053E36117E70027E2E7336843F48073C6
:101060003360FFF79FFD80463368DA05DCD4FFF775
:1010700099FDA0EB08006428F6D935E7ABB9236ADF
:1010800041F2883823F001032362236A23F004032A
:101090002362FFF787FD0646236A9807D3D5FFF73B
:1010A00081FD801B4045F7D91EE7052B236A03D13C
:1010B00043F004032362BAE723F001032362236AA7
:1010C00023F00403B6E7FFF76DFDA0EB0800B04284
:1010D000B6D909E7001002400000424280044242B3
:1010E0000C00002000700040224C636803F00C03E9
:1010F000082B3FF4E2AE00231F4E022A33602BD1AF
:10110000FFF750FD0746236899011FD42B6AB3F5FA
:10111000803F05D16268A96822F400320A43626008
:10112000696A62680B4322F47412134363600123FB
:101130003360FFF737FD054623689A013FF5A7AEF8
:10114000FFF730FD401B0228F6D9CDE6FFF72AFD58
:10115000C01B0228D7D9C7E6FFF724FD0546236840
:101160009B017FF594AEFFF71DFD401B0228F6D9C9
:10117000BAE600BF001002406000424230B5194B91
:1011800087B002AC03F1100522461868596808338D
:1011900003C2AB421446F7D101238DF80430022379
:1011A00011498DF805304B6803F00C02082A17D15D
:1011B000C3F3834206A80244DB0312F8102C0CD5BB
:1011C0004B680A48C3F34043504306AA134413F83C
:1011D000143CB0FBF3F007B030BD05485043FAE7CC
:1011E0000248F8E7703C00080010024000127A0044
:1011F00000093D00544A2DE9F0411368054603F00B
:1012000007038B420E462AD329688C0734D4CA07B9
:1012100047D44D4A136803F007039E42C0F0828012
:101220002A684A4C12F0040F40F08780130706D555
:1012300063682A6923F4605343EAC2036360FFF7DB
:101240009DFF6368424AC3F30313D35CD840414B0C
:1012500018600020FFF764FC0020BDE8F0811368EF
:1012600023F007030B431360136803F0070399424D
:10127000CAD00120BDE8F081344B11F0040F1EBF2D
:101280005A6842F4E0625A60080742BF5A6842F462
:1012900060525A605A68A86822F0F00202435A600D
:1012A000B5E76A68294C012A23681CD113F4003F72
:1012B000DFD0636841F2883823F00303134363608F
:1012C000FFF770FC6B680746012B14D1636803F0CD
:1012D0000C03042B9DD0FFF765FCC01B4045F5D9DE
:1012E0000320BDE8F081022A02D113F0007FDFE77E
:1012F00013F0020FDCE7022B0FD1636803F00C033D
:10130000082B86D0FFF74EFCC01B4045F5D9E7E718
:10131000FFF748FCC01B4045E2D8636813F00C0F90
:10132000F6D176E7136823F007033343136013689D
:1013300003F007039E429CD172E76368E96823F4D7
:10134000E0630B43636071E700200240001002403D
:10135000A03C00080C000020044B054A5B68C3F366
:101360000223D35C034A1068D84070470010024043
:10137000B03C00080C000020044B054A5B68C3F336
:10138000C223D35C034A1068D84070470010024063
:10139000B03C00080C0000202DE9F0470568C26849
:1013A0002B69016923F4405313432B618368EA6876
:1013B0000B43416922F4B05222F00C020B43134359
:1013C000EB606B69826923F4407313436B61404B9C
:1013D00081469D424FF0190446D1FFF7CDFF04FB33
:1013E00000F3D9F804604FF06408B600B3FBF6F3DD
:1013F000B3FBF8F31E01FFF7BFFF6043D9F80430D9
:101400009B00B0FBF3F7FFF7B7FF6043D9F8043058
:101410009B00B0FBF3F3B3FBF8F308FB13731B0162
:101420003233B3FBF8F303F0F007FFF7A5FF604397
:10143000D9F804209200B0FBF2FAFFF79DFF604359
:10144000D9F804309B00B0FBF3F3B3FBF8F308FBCF
:1014500013A31B013233B3FBF8F303F00F033B4339
:101460003344AB60BDE8F087FFF776FF04FB00F381
:10147000D9F804604FF06408B600B3FBF6F3B3FB91
:10148000F8F31E01FFF768FF6043D9F804309B00B2
:10149000B0FBF3F7FFF760FF6043D9F804309B001F
:1014A000B0FBF3F3B3FBF8F308FB13731B01323308
:1014B000B3FBF8F303F0F007FFF74EFF6043D9F8F2
:1014C00004209200B0FBF2FAFFF746FFB7E700BF37
:1014D00000380140F8B504460E4617461D462168FF
:1014E0000B6836EA030301D10020F8BD6B1CF7D06E
:1014F00095B923680320DA6822F4D072DA605A6959
:1015000022F001025A61202384F8393084F83A30FD
:10151000002384F83830F8BDFFF744FBC01B854238
:10152000DDD2E6E710B5044640B390F8393003F059
:10153000FF021BB980F8382000F04AFA2423226801
:1015400084F83930D368204623F40053D360FFF782
:1015500023FF236800201A6922F490421A615A6915
:1015600022F02A025A61DA6842F40052DA6020233B
:10157000E06384F8393084F83A3010BD012010BDA2
:101580002DE9F0411F4690F839300446202B0D46D6
:1015900090464ED1002949D0002A47D090F83830E3
:1015A000012B46D0012380F838300023C363212368
:1015B00080F83930FFF7F6FA0646A4F82480A4F83C
:1015C0002680E38C9BB26BB93B46324640212046D5
:1015D000FFF780FFA8B9202384F8380084F8393059
:1015E000BDE8F081E38C3246013B9BB2E384A36803
:1015F0008021B3F5805F20463B460ED1FFF76AFF9E
:1016000010B10320BDE8F0812B882268C3F30803E2
:101610005360236943B90235D3E7FFF75BFF002826
:10162000EFD123682A785A600135CAE70120BDE866
:10163000F0810220BDE8F081054A136843F0807311
:101640001360044A136843F001031360704700BF3E
:10165000FCED00E0001000E0064B074A1B68B3FBFE
:10166000F2F300225843054B5A605A689042FCD866
:10167000704700BF0C00002040420F00001000E047
:1016800010B50A4C002220212046FFF7E5FB4FF45D
:10169000FA70FFF7E1FF204601222021FFF7DCFB73
:1016A000BDE810404FF4FA70FFF7D6BF000C0140C0
:1016B0003F2806D05F2806D01F280CBF0820012035
:1016C00070470420704702207047000010B50446A0
:1016D00000220C482021FFF7BFFB002C14BF0A207A
:1016E0003C20FFF7B9FF074801222021FFF7B4FB98
:1016F000002C18BF3C20BDE8104008BF0A20FFF7AF
:10170000ABBF00BF000C014038B50546002445FAC8
:1017100004F000F00100FFF7D9FF01340520FFF7C6
:101720009BFF082CF3D138BD10B50E4C00222021B0
:101730002046FFF791FB0A20FFF78EFF01222021B0
:101740002046FFF789FB0A20FFF786FF202120466D
:10175000FFF77CFB01463220FFF77EFF081C18BF15
:10176000012010BD000C014038B500252C46FFF7C4
:10177000DBFFA84001350444102DA4B2F7D1204668
:1017800038BD000008B5FFF77BFFCC20FFF7BCFF9A
:101790004420FFF7B9FF084B1868FFF75DFFFFF71C
:1017A0006FFFCC20FFF7B0FFBE20FFF7ADFFBDE815
:1017B0000840FFF7D9BF00BF0800002010B504465D
:1017C000FFF75EFFCC20FFF79FFF4E20FFF79CFF47
:1017D0004B20FFF799FF4620FFF796FF2046FFF7C3
:1017E00093FF2046FFF764FF024B93FBF0F0024BA0
:1017F000186010BDC0980B000800002008B5FFF766
:101800001BFFBDE80840FFF7D9BF10B590B02822F4
:10181000002106A800F092F90021142201A800F08E
:101820008DF94FF480330122022407930E934FF475
:10183000E01306A806920A920F930D94FFF712FB8D
:101840000F234FF4806201930023214601A80294E4
:10185000039304920593FFF7CDFC10B010BD000078
:10186000F0B58FB0FFF780F9FFF7CFFF102200210E
:1018700006A800F063F93E4B20219A693D4842F0EA
:1018800020029A619A69002502F020020392039ACD
:101890009A69394C42F004029A619A69002602F072
:1018A00004020492049A9A69344F42F008029A6141
:1018B0009B69002203F008030593059BFFF7CCFA10
:1018C0002023069311230793032306A9294809938C
:1018D0000895FFF7DBF94FF4E133294A204684E805
:1018E0000C000C23A5606361E5602561A561E561DD
:1018F000FFF718FE7F20FFF781FFFFF743FF054644
:101900002022002106A800F019F9C5F30F131D4A83
:10191000202106A800F07CFD06A8FEF719FC4FF474
:101920007A7382B206A92046FFF72AFE2846FEF700
:1019300069FD3B463246FEF7CBFDFFF7A1F8FEF707
:1019400073FD114ACDE90001202106A800F060FDD9
:1019500006A8FEF7FDFB4FF47A7382B206A9204673
:10196000FFF70EFE4FF47A70FFF722F9C5E700BFCC
:1019700000100240000C01400C0200200000B03FAB
:1019800000380140803C00088E3C00080E4B82B0BD
:101990009A6942F001029A619A6902F0010200928A
:1019A000009ADA6942F08052DA61DB69074A03F093
:1019B00080530193019B536823F0E06343F000736D
:1019C000536002B0704700BF0010024000000140A9
:1019D00010B5044686B01022002102A800F0AEF82F
:1019E0002268174B9A4228D103F558439A6902A9F5
:1019F00042F480429A619A69124802F4804200924D
:101A0000009A9A6942F004029A619B6903F0040308
:101A10000193019B4FF4007302930223039303236A
:101A20000593FFF733F94FF480630293002302A973
:101A3000044803930493FFF729F906B010BD00BFD3
:101A400000380140000801407047FEE7FEE7FEE76E
:101A5000FEE7704770477047FFF798B80F4B1A685A
:101A600042F001021A6059680D4A0A405A601A6829
:101A700022F0847222F480321A601A6822F48022E2
:101A80001A605A6822F4FE025A604FF41F029A60EC
:101A90004FF00062034B9A60704700BF0010024095
:101AA0000000FFF800ED00E0002103E00B4B5B5865
:101AB000435004310A480B4B42189A42F6D30A4A63
:101AC00002E0002342F8043B084B9A42F9D3FFF7A7
:101AD000C5FF00F00FF8FFF7C3FE7047203F000876
:101AE00000000020E0010020E00100205002002062
:101AF000FEE7000070B500250C4E0D4CA41BA41091
:101B0000A54209D102F0A8F800250A4E0A4CA41BF0
:101B1000A410A54205D170BD56F82530984701356F
:101B2000EEE756F8253098470135F2E7183F0008F0
:101B3000183F0008183F00081C3F000803460244F5
:101B4000934200D1704703F8011BF9E7002B2DE900
:101B5000F0471E46BBBF03F100431E4600232D2362
:101B600088B0149F129927F02007462F1446109D25
:101B7000DDF84CA00B7004D0452F00D101350223B5
:101B800000E0032307AA049206AA03928DE8280422
:101B90002246334600F0FCFC472F804602D1119BC1
:101BA000DB0726D5462F08EB050911D198F8003040
:101BB000302B0AD10022002320463146FEF7F0FEEA
:101BC00018B9C5F10105CAF80050DAF80030994497
:101BD0000022002320463146FEF7E2FE38B93022CB
:101BE000079B994505D9591C07911A70F8E7CDF85C
:101BF0001C904046079B159AA3EB0803136008B09E
:101C0000BDE8F0870346F7B5002903F8022BB6BFFD
:101C10002D222B2249420929427021DD0DF10702B4
:101C200017460A2691FBF6F506FB1511092D01F161
:101C3000300102F8011C02F1FF34294609DC303181
:101C4000023A04F8011CBA421C4604D3201A03B01D
:101C5000F0BD2246E6E712F8011B03F8011BF2E78C
:101C600030221C46114404F8022B5970EEE70000A4
:101C70002DE9F04F91B00C461A9F93461E4605463B
:101C800001F05AFA036818460993FEF761FA002337
:101C90000E933B680A90073323F0070303F1080211
:101CA00094F81880D4F800A03A60D3E90023C4E97E
:101CB0001223D4F84C90A76C29F000430B934FF0FB
:101CC000FF32A64B38460B99FEF79CFE002840F0E9
:101CD000F7814FF0FF32A14B38460B99FEF774FEA7
:101CE000002840F0ED810022002338464946FEF7E7
:101CF00061FE10B12D2384F84330994B994FB8F110
:101D0000470F98BF1F4603234FF0000923612AF0B5
:101D10000403236000965B460FAA2146284600F084
:101D2000DFF9013040F09A804FF0FF3011B0BDE88C
:101D3000F08F62680EA8531C0DF1340E4AF48063D4
:101D400041D10622626000212360019363680DF196
:101D500033020590029200933A464B460691CDF825
:101D60001080CDF80CE02846FFF7F0FE08F0DF0306
:101D7000472B074609D10D9BD81C02DB62689342B2
:101D800059DDA8F102085FFA88F8B8F1650F0D99DE
:101D900036D80139424604F150000D91FFF732FF69
:101DA0000E9A81468318012A236102DC2268D1073A
:101DB00001D5013323619DF83330002BAAD02D23A8
:101DC00084F84330A6E7B8F1670F02D0B8F1470FA7
:101DD000B9D19AB1002106910DF133018DE80C00C3
:101DE000236005903A46CDF81080CDF80CE00291C2
:101DF0004B462846FFF7AAFE0746BCE70122A1E7AB
:101E0000B8F1660F19D1002963680CDD216113B99F
:101E10002268D20702D501330B4423610D9B4FF09A
:101E20000009A365C7E713B92268D00701D50233BB
:101E3000F3E70123F1E74FF067080D9B0E9A9342F9
:101E400005DB22682361D107E8D50133E5E7002BE4
:101E5000CCBF0123C3F102031344DEE723685A0514
:101E600007D423693A4659462846B04701302AD15B
:101E70005AE7B8F1650F40F2DC80D4E91201002284
:101E80000023FEF78DFD002839D00123364A59463C
:101E90002846B04701303FF447AF0E9B0D9A9A4257
:101EA00002DB2368D8070ED50A9B099A59462846B3
:101EB000B04701303FF438AF002704F11A080E9BF9
:101EC000013B9F4211DB23689F0708D5002704F1DF
:101ED0001908E3680F9A9B1A9F42C0F2E780E068F6
:101EE0000F9B9842B8BF184620E701234246594647
:101EF0002846B04701303FF417AF0137DFE70D9BAD
:101F0000002B33DC0123184A59462846B0470130DC
:101F10003FF40AAF0D9B23B90E9B13B92368D90771
:101F2000D1D50A9B099A59462846B04701303FF45B
:101F3000FBAE4FF0000804F11A090D9B5B42984577
:101F400001DB0E9B8EE701234A4659462846B047DF
:101F500001303FF4E9AE08F10108EEE7FFFFEF7F43
:101F6000B83C0008BC3C0008C83C00080E9AA36DB1
:101F70009A42A8BF1A46002A904636DC4FF0000A63
:101F800004F11A0328EAE8780B93D4F85890A9EBE7
:101F900008039A4531DB0E9B0D9A9A4238DB236881
:101FA000DA0735D40E9B0D99A3EB0902A3EB0108C8
:101FB0009045A8BF9046B8F1000F31DC002728EA11
:101FC000E87804F11A090D9A0E9B9B1AA3EB0803FB
:101FD0009F42BFF678AF01234A4659462846B0478C
:101FE00001303FF4A1AE0137EDE7134659463A46BA
:101FF0002846B0470130C1D196E601230B9A5946D5
:102000002846B04701303FF48FAE0AF1010ABCE721
:102010000A9B099A59462846B0470130C2D183E647
:10202000434607EB090259462846B0470130C5D15F
:102030007AE60E9A012A01DCDB0734D501233A4601
:1020400059462846B04701303FF46EAE0A9B099AC4
:1020500059462846B04701303FF466AED4E9120134
:1020600000220023FEF79CFC50B1002704F11A085F
:102070000E9B013B9F420CDB4B4604F15002F2E603
:102080000E9B7A1C013B59462846B0470130F3D1DC
:102090004AE60123424659462846B04701303FF4FC
:1020A00043AE0137E4E701233A46ECE70123424619
:1020B00059462846B04701303FF436AE013708E7AD
:1020C0003A464B4638464946FEF79CFC00283FF40A
:1020D00030AE014B014F12E6C03C0008C43C000882
:1020E0002DE9F04791461F468A680B6906469342E0
:1020F000B8BF1346C9F8003091F843200C46DDF80C
:10210000208012B10133C9F800302368990642BF1C
:10211000D9F800300233C9F80030256815F00605FB
:1021200007D104F1190AE368D9F800209B1A9D42EF
:102130002ADB94F843302268003318BF012392064B
:102140002FD404F1430239463046C047013022D033
:102150002368E56803F00603042B18BF0025D9F8AF
:1021600000204FF0000908BFAD1AA368226908BF1C
:1021700025EAE5759342C4BF9B1AED181A344D4504
:102180001BD10020BDE8F087012352463946304676
:10219000C047013003D14FF0FF30BDE8F087013573
:1021A000C1E73020E11881F843005A1C94F845102B
:1021B0002244023382F84310C3E701232246394602
:1021C0003046C0470130E6D009F10109D7E70000E9
:1021D0002DE9F04317460A7E85B06E2A98460646DA
:1021E0000C460C9B01F1430E00F0BC801AD8632A08
:1021F0002ED00AD8002A00F0C880582A00F08A8021
:1022000004F1420584F842202AE0642A01D0692AB8
:10221000F6D121681A6811F0800F23D0111D1960C2
:10222000136827E0732A00F0B48008D86F2A2AD0F8
:10223000702AE5D10A6842F020020A6003E0752A9C
:1022400021D0782ADCD178226F4984F8452064E0D7
:102250001A6801F14205111D1960136884F84230B3
:102260000123A3E011F0400F02F104011960D7D05F
:10227000B2F90030002B03DA2D225B4284F84320B0
:1022800062490A2217E02068196810F0800F03D015
:10229000081D18600B6806E010F0400F01F1040003
:1022A0001860F7D00B886F2A14BF0A2208225749FA
:1022B000002084F843006568002DA560C0F29C8072
:1022C000206820F004002060002B3FD1002D40F05A
:1022D00095807546082A0BD12368DA0708D523694B
:1022E00062689A42DEBF302305F8013C05F1FF35F4
:1022F000AEEB05032361CDF800803B4603AA2146DF
:102300003046FFF7EDFE013055D14FF0FF3005B0FC
:10231000BDE8F08381F845203C492268186812F036
:10232000800F00F104051D6001D0036802E055062E
:10233000FBD50388D00744BF42F0200222601BB9BE
:10234000226822F0200222601022B1E77546B3FB1A
:10235000F2F002FB1033CB5C05F8013D0346002888
:10236000F5D1B7E708681A6810F0800F496904D002
:10237000101D18601368196007E010F0400F02F19B
:10238000040018601368F6D0198000237546236195
:10239000B1E71A68111D19601568002162682846A6
:1023A00000F0E0FE08B1401B606063682361002319
:1023B00084F843309FE723692A4639463046C047B0
:1023C0000130A2D023689B0707D5002504F1190925
:1023D000E368039A9B1A9D4205DBE068039B9842E1
:1023E000B8BF184693E701234A4639463046C047EE
:1023F00001308AD00135EBE7002BA7D10B7804F12F
:10240000420584F8423065E7DB3C0008CA3C00081E
:102410000CB430B5174B0C1E9DB01D6808DA8B2329
:102420004FF0FF302B601DB0BDE8304002B0704768
:102430004FF40273ADF814300CBF234604F1FF33A0
:10244000049307934FF6FF7302900690ADF8163091
:10245000209A21AB02A92846019301F081FA431C7E
:10246000BCBF8B232B60002CDDD00022029B1A7096
:10247000D9E700BF100000202DE9F74F03690C6970
:1024800080469C4200F38280013C01F1140700F178
:10249000140657F8245056F824000135B0FBF5F522
:1024A0004FEA840E06EB0E0307EB0E0901938DB382
:1024B0004FF0000A3846B446D34650F8042B93B286
:1024C00005FB03A3120C4FEA134A05FB02A29BB2C1
:1024D000ABEB0303BCF800B04FEA124A5B441FFAAF
:1024E00082FBDCF800208145CBEB124202EB234259
:1024F0009BB243EA02434FEA224B4CF8043BDCD246
:1025000056F80E3033B9019B043B9E421A4631D334
:10251000C8F81040404601F046F8002826DB304657
:102520004FF0000E013557F8041BD0F800C08BB2F5
:10253000AEEB03031FFA8CF213440A0CC2EB1C42ED
:1025400002EB23429BB243EA0243B9454FEA224ED3
:1025500040F8043BE7D256F8242006EB84032AB95E
:10256000043B9E421A460BD3C8F81040284603B0DD
:10257000BDE8F08F1268043B002AC9D1013CC4E7D2
:102580001268043B002AEFD1013CEAE70020EEE7A5
:102590002DE9F04F466A95B00446219DCDE902230E
:1025A0003EB9102000F0D6FD60624660866006608D
:1025B000C660636A196851B15A68012393404A6042
:1025C0008B60204600F01BFE0022636A1A60039BAA
:1025D000002BB7BF012300232B60039BAEBF2B60F2
:1025E00023F000430393DDF80C90AB4B33EA09036F
:1025F0001BD142F20F73209A1360029B23B9C9F3D7
:102600001300002800F08385229B53B9A34B21E0DF
:10261000A34B06930833229A1360069815B0BDE8C1
:10262000F08F9E4B06930333F5E7DDE90267002246
:10263000002330463946FEF7B3F9804660B10123E6
:10264000209A1360229B002B00F05E85954B229A06
:102650001360013B0693E0E712AB019313AB0093C9
:1026600032463B46204601F017F8C9F30A55824628
:10267000002D7DD03046C7F3130343F07F5141F462
:102680004011A5F2FF35CDF840800022864BFDF7C2
:102690006BFD7BA3D3E90023FDF71AFF7AA3D3E9EF
:1026A0000023FDF763FD064628460F46FDF7AAFE08
:1026B00077A3D3E90023FDF70BFF02460B46304614
:1026C0003946FDF753FD06460F46FEF7B1F90022E5
:1026D0008346002330463946FEF76CF958B1584618
:1026E000FDF790FE02460B4630463946FEF758F994
:1026F00008B90BF1FF3BBBF1160F58D8DDE90223F7
:102700006A4901EBCB01D1E90001FEF771F900281C
:102710004FD000230BF1FF3B0D93129B5D1B6B1EF3
:10272000079343BF0023C5F1010807934FF000084A
:10273000BBF1000F3FDB079BCDF830B05B44079344
:10274000002308931E9B092B00F2B480052BC4BF05
:10275000043B1E931E9BC8BF0026A3F10203D8BFF3
:102760000126032B00F2B280DFE803F084862D7887
:10277000139B129D1D4405F23243202B11DD029A5A
:1027800005F21240C3F1400322FA00F009FA03F304
:102790001843FDF727FE0123A1F1F871013D1093C5
:1027A00073E7C3F12000029B03FA00F0F1E7012375
:1027B000B2E70D90B1E7CBF1000308930023A8EB3B
:1027C0000B080C93BEE7012309931F9B002B40F3DA
:1027D00080809946049300220421656A6A6001F1B1
:1027E00014029A427AD96968204600F0D4FC636AE0
:1027F00028601B68B9F10E0F069300F2F080002EDE
:1028000000F0ED80DDE90223BBF1000FCDE90E23DE
:1028100079DD264A0BF00F034FEA2B1602EBC303B8
:10282000F006D3E90023CDE90A235CD5DDE90E01EA
:102830001F4B0325D3E90823FDF774FFCDE90201FF
:1028400006F00F061A4F002E4FD1DDE90A23DDE90D
:102850000201FDF767FFCDE902016EE00123099354
:102860001F9B5B4403F1010904934B46012BB8BF46
:102870000123B0E70023A7E70023F0E7AFF30080D0
:1028800061436F63A787D23FB3C8608B288AC63F76
:10289000FB799F501344D33F0000F07FF53C0008C4
:1028A000EC3C0008C93C00080000F83F283D000847
:1028B000003D00080126002309961E934FF0FF33C8
:1028C00000220493994612231F9284E7012309935F
:1028D000F4E70123049399461A46F5E76A6849002C
:1028E00001326A607BE70225ACE7F10708D5DDE934
:1028F0000A01D7E90023FDF7EBFDCDE90A01013517
:10290000761008379FE700F0A580DDE90E01CBF1D6
:102910000006A24B06F00F0203EBC203D3E900232B
:10292000FDF7D6FD02250023CDE902019C4F3611AB
:10293000002E40F08480002B8DD10D9B002B00F0E9
:102940008B80DDE90223CDE90A23DDE90A010022BB
:10295000944BFEF72FF800287ED0B9F1000F7BD002
:10296000049B002B37DDDDE90A0100228E4BFDF7C9
:10297000AFFDCDE90201049E0BF1FF37013528467A
:10298000FDF740FDDDE90223FDF7A2FD874B0022A4
:10299000FDF7ECFBCDE90A010B9BA3F150750B95FC
:1029A000002E5CD1DDE902010022814BFDF7DCFB4A
:1029B0000A9A2B46CDE90201FEF71AF8002840F0EA
:1029C000F782DDE902010A9A05F10043FDF7F2FF03
:1029D000002840F0EB82DDE90E23CDE90223139BB2
:1029E000002BC0F25081BBF10E0F00F34C816B4BFA
:1029F00003EBCB03D3E90023CDE904231F9B002B7A
:102A000080F2DA80B9F1000F00F3D68040F0CD8279
:102A1000DDE904010022664BFDF75AFDDDE90223E2
:102A2000FDF7DCFF4E464F46002840F0A482069B8F
:102A3000069A5D1C31230BF1010B13709FE2F20724
:102A400005D5D7E90023FDF743FD012301357610B5
:102A500008376DE7022570E75F464E468FE7069A16
:102A60004E4B32441192099A711E002A48D003EB52
:102A7000C103D3E9002300204E49FDF753FEDDE9F1
:102A80000A23FDF771FBCDE90A01069DDDE902018C
:102A9000FDF7CEFF0646FDF7B5FC02460B46DDE925
:102AA0000201FDF761FBDDE90A23303605F8016B11
:102AB000CDE90201FDF77EFF002864D1DDE90223A4
:102AC00000203849FDF750FBDDE90A23FDF772FFCE
:102AD000002840F0B980119B9D423FF47CAFDDE9B6
:102AE0000A010022304BFDF7F3FC0022CDE90A0178
:102AF000DDE902012C4BFDF7EBFCCDE90201C5E756
:102B000003EBC101D1E90001DDE90A23FDF7E0FC97
:102B1000CDE90A01069DDDE90201FDF789FF0646C0
:102B2000FDF770FC02460B46DDE90201FDF71CFBD8
:102B30003036119B05F8016BAB42CDE902014FF035
:102B4000000224D11B4BDDE90A01FDF70FFB024611
:102B50000B46DDE90201FDF74BFF002874D1DDE9EA
:102B60000A2300201349FDF7FFFA02460B46DDE970
:102B70000201FDF71FFF00283FF42DAF15F8013CBF
:102B80006A1E302B01D0BB464DE01546F6E7064BDA
:102B9000FDF79EFCCDE90201BDE700BF283D00081E
:102BA000003D00080000F03F0000244000001C40F1
:102BB000000014400000E03F069DDDE90267DDE90A
:102BC000042330463946FDF7ADFDFDF731FF804661
:102BD000FDF718FCDDE90423FDF77AFC02460B46FD
:102BE00030463946FDF7C0FA08F1300605F8016BAA
:102BF000069E0246AE1BB1450B4637D1FDF7B6FA2D
:102C000006460F4602460B46DDE90401FDF7D2FEFB
:102C1000C8B9DDE9040132463B46FDF7C1FE10B1FB
:102C200018F0010F0FD15146204600F0E8FA0023BA
:102C3000209A2B700BF101031360229B002B3FF4B1
:102C4000ECAC1D60E9E45F4615F8012C6B1E392AD7
:102C500006D1069A9A4207D13023137013460137E2
:102C60001A7801321A708EE71D46EDE70022B54B47
:102C7000FDF72EFC0022002306460F46FDF790FECE
:102C800000289CD0CFE7099A002A00F029811E9ADB
:102C9000012A00F30E81109A002A00F0068103F247
:102CA00033434546089E079A01211A44204698441A
:102CB000079200F044FB0746002D0BDD079B002B1D
:102CC00008DDAB42A8BF2B46079AA8EB0308ED1A14
:102CD000D31A0793089BFBB1099B002B00F00481DA
:102CE000002E11DD39463246204600F0BDFB52462B
:102CF00001460746204600F02BFB51460A9020462D
:102D000000F07DFA0A9B9A46089B9A1B04D0514614
:102D1000204600F0A9FB82460121204600F00FFB6F
:102D20000C9B0646002B40F3E1801A4601462046E4
:102D300000F09AFB1E9B0646012B40F3DA8000232D
:102D40000893336906EB8303186900F0AAFAC0F10F
:102D50002000079B184410F01F0000F0F080C0F125
:102D60002003042B40F3E280079BC0F11C00804449
:102D7000054403440793B8F1000F05DD5146424670
:102D8000204600F0BFFB8246079B002B05DD314645
:102D90001A46204600F0B6FB06460D9B002B00F0BD
:102DA000D3803146504600F0FEFB002880F2CC80F4
:102DB000002351460A22204600F038FA099B0BF105
:102DC000FF3B8246002B00F0A981002339460A22EE
:102DD000204600F02BFA049B0746002B03DC1E9BC9
:102DE000022B00F3B980002D05DD39462A46204626
:102DF00000F088FB0746089B002B00F010817968E3
:102E0000204600F0C8F905463A6907F10C01023284
:102E100092000C3000F0B4F901222946204600F05F
:102E200071FB07970746029BDDF8188003F001034A
:102E3000089331465046FFF71FFB0799054600F1FE
:102E40003009504600F0AFFB3A460290314620462A
:102E500000F0C3FBC3680246002B40F0E28001464D
:102E60000990504600F09FFB0346099A1146204600
:102E7000099300F0C4F9099B002B40F0D4801E9AFE
:102E8000002A40F0D080089A002A40F0CC80B9F1A6
:102E9000390F00F0E880029B002B01DD05F13109BC
:102EA00008F1010588F800906BE0129BC3F136032E
:102EB000F7E6089B09F1FF36B342B7BF089B9E1B9C
:102EC000F21A0C9BBFBF08969B180C930026B9F111
:102ED000000FB9BFA8EB0905002345464B46E2E6C3
:102EE000089E4546099FE7E6089A10E71E9B012BBE
:102EF00018DC029BB3B9039BC3F31303A3B9039B71
:102F000023F000431B0D1B052BB1079B08F10108A3
:102F100001330793012308930C9B002B7FF411AF1F
:102F2000012016E70023F6E7029BF4E73FF423AF06
:102F3000079A1C331A4498441D4413461AE7034663
:102F4000F6E700BF00002440B9F1000F33DC1E9B00
:102F5000022B30DDCDF81090049B63B93146052279
:102F6000204600F063F901460646504600F01BFB80
:102F700000283FF75CAD1F9B069D6FEA030B002303
:102F800007933146204600F03AF9002F3FF44BAE4C
:102F9000079B2BB1BB4203D01946204600F02FF906
:102FA0003946204600F02BF93DE600263746E2E799
:102FB000BB4637463BE5099BCDF81090002B7FF4CC
:102FC00012AF069D31465046FFF756FA069B00F1B8
:102FD000300905F8019B049AEB1A9A4200F38180AC
:102FE000069B012AACBF9B18013398460023079328
:102FF00051460122204600F085FA3146824600F013
:10300000D2FA002834DC02D119F0010F30D1454644
:1030100015F8013C6A1E302BB3D11546F8E7384647
:10302000FFE6012322E7029A002A04DB28D11E9A38
:1030300032BB089A22BB002B7FF732AF51460122E8
:10304000204600F05FFA3146824600F0ACFA0028D4
:1030500005DC7FF425AF19F0010F3FF421AFB9F182
:10306000390F7FF41BAF392308F1010808F8013C40
:10307000454615F8013C6A1E392B3AD001333FE032
:10308000002B08F1010505DDB9F1390FEBD009F18D
:10309000010907E7069B049AEB1A9342A84605F834
:1030A000019CA5D0514600230A22204600F0BEF81C
:1030B000079B8246BB424FF00A024FF0000307997C
:1030C000204604D100F0B2F807900746B1E600F0C0
:1030D000ADF8002307900A223946204600F0A6F8F2
:1030E000F3E7514600230A22204600F09FF882466B
:1030F00068E7069B934205D13123069A0BF1010B39
:1031000013703EE71546B4E7094BFFF7A3BA229BBD
:10311000002B7FF47DAA074BFFF79CBA049B002B82
:103120003FF74FAF1E9B022B7FF74BAF14E700BF5B
:10313000C83C0008EC3C0008044B1B68186A044BB0
:10314000002808BF1846F030704700BF100000206C
:1031500074000020024B0146186800F047BB00BF16
:103160001000002010B5C9B202449042034601D1BC
:10317000002010BD1C7801308C42F6D1184610BDDD
:1031800010B5431E0A44914200D110BD11F8014B05
:1031900003F8014FF7E770B5456A04460E463DB99E
:1031A0001020FFF7D7FF6062456085600560C5604D
:1031B000656AEB6883B1636ADB6853F82600B8B9C7
:1031C000012101FA06F56A1D9200204600F0B3FACB
:1031D00060B1466085600EE021220421204600F0A7
:1031E000AAFA636AE860DB68002BE4D1002070BDB6
:1031F000026843F8262000230361C36070BD70B5E8
:10320000446A06460D463CB91020FFF7A3FF7062E2
:10321000446084600460C4603DB1736A6A68DB68BE
:1032200053F82210296043F8225070BD2DE9F04177
:103230001F4606460C4600230D6901F1140EDEF808
:103240000000013381B202FB0171000C0F0C02FB84
:10325000007089B201EB00419D424FEA10474EF8E1
:10326000041BECDCD7B1A3689D4212DB61683046D9
:103270000131FFF790FF8046226904F10C01023210
:1032800092000C30FFF77CFF21463046FFF7B7FF76
:10329000444604EB850301355F6125612046BDE8A6
:1032A000F081020C12040346B2B90304102013F09B
:1032B0007F4F04BF1B02083013F0704F04BF1B0187
:1032C000043013F0404F04BF9B000230002B06DB9C
:1032D0005B0003D5013070470020E8E720207047ED
:1032E0000368014613F007020BD0DA0723D49807CE
:1032F00049BF5B089B0801200B605CBF0B6002208C
:10330000704798B2A8B910201B0C13F0FF0F04BF30
:103310001B0A08301A0704BF1B0904309A0704BFB0
:103320009B080230DA0702D45B0806D001300B603C
:1033300070471046E9E7002070472020704710B51D
:103340000C460121FFF727FF01224461026110BDF5
:103350002DE9F74F14460A69236989469A42BEBF90
:103360000B46A1461C46D9F81070D4F810A0D9F825
:103370000830D9F8041007EB0A069E42C8BF013195
:10338000FFF709FF00F114052B46002205EB860824
:10339000434516D304F1140209F1140102EB8A0328
:1033A00001EB87070193019C134694420CD8002E31
:1033B00003DD58F8043D002B54D0066103B0BDE88E
:1033C000F08F43F8042BE3E7B3F800A00432BAF11E
:1033D000000F20D0AE4689464FF0000C59F8044B40
:1033E000BEF800B0A3B20AFB03B34FEA144BDEF8F9
:1033F000004063444FEA144C0AFB0BC404EB134433
:103400009BB243EA04434F454FEA144C4EF8043B49
:10341000E4D8CEF800C032F8029CB9F1000F1FD0FA
:10342000AE468C464FF0000A2B68BCF80040BEF850
:1034300002B09BB209FB04B4A24443EA0A434EF82B
:10344000043B5CF8043BBEF800401B0C09FB034343
:10345000674503EB1A434FEA134AE6D8CEF800302B
:103460000435A0E7013EA2E72DE9F843154612F026
:10347000030206460F4607D0214C013A002354F8B8
:103480002220FFF7D3FE0746AD1035D0746A3CB951
:103490001020FFF75FFE7062446084600460C460C7
:1034A000D6F82480D8F808404CB940F27121304653
:1034B000FFF745FF00230446C8F8080003604FF0FB
:1034C0000008EB070AD5394622463046FFF740FF91
:1034D000814639463046FFF792FE4F466D100BD0BD
:1034E000206838B9224621463046FFF731FF206078
:1034F000C0F800800446E4E73846BDE8F88300BF22
:10350000F03D00082DE9F0470C46074616462369B2
:103510004FEA621A0AEB03094968A36809F1010539
:10352000AB4231DB3846FFF736FE002280461146BB
:1035300000F1140352452ADB20692AEAEA7A04F1F1
:10354000140116F01F0203EB8A0301EB800E22D058
:103550000020C2F1200C0E689640304343F8040B63
:1035600051F8040B8E4520FA0CF0F4D8186008B11D
:1035700009F10205013D3846C8F810502146FFF711
:103580003EFE4046BDE8F08701315B00C8E743F8E6
:1035900022100132CEE7043B51F8042B8E4543F84C
:1035A000042FF9D8E6E703690A6930B59B1A0CD1F4
:1035B0009200143014318418114454F8045D51F809
:1035C000042D954203D005D30123184630BDA042F7
:1035D000F3D3FAE74FF0FF33F7E72DE9F0470D4655
:1035E0000746114628461446FFF7DDFF061E08D1A0
:1035F00031463846FFF7CFFD012346610361BDE840
:10360000F087A4BF23462C4638466168A6BF1D46F6
:1036100000260126FFF7BFFD4FF0000CC6602B69A6
:10362000266904F1140205F1140902EB860709EB7F
:10363000830800F1140152F804AB59F8045B1FFA37
:103640008AF36344ACB21B1B2C0CC4EB1A4404EB8E
:1036500023449BB24FEA244CC84543EA04449646AF
:1036600041F8044BE7D8BE4505D351F8043D8BB172
:103670000661BDE8F0875EF8044BA2B26244131401
:1036800003EB144392B242EA03424FEA234C41F85F
:10369000042BE8E7013EE8E72DE9F3411C46012150
:1036A0009046089E099DFFF776FDC4F31302C4F30C
:1036B0000A54074634BB0192B8F1000F27D002A884
:1036C00040F8088DFFF70CFE0099F0B1019AC0F1A7
:1036D000200302FA03F30B43C2407B610192019B7A
:1036E000002B14BF02210121BB613961C4B1A4F2D6
:1036F000334404443460C0F135002860384602B0D9
:10370000BDE8F08142F48012D5E77961E7E701A8CE
:10371000FFF7E6FD0121019B39617B612030E5E780
:10372000A0F2324007EB810330601869FFF7B9FD62
:10373000C0EB4110E1E738B502FB01F4214600F08F
:1037400055F8054618B122460021FEF7F7F928463C
:1037500038BD000038B50546002943D051F8043C77
:103760000C1F002BB8BFE41800F02AFA1E4A136899
:10377000104633B9636014602846BDE8384000F055
:1037800020BAA3420BD921686218934201BF1A687C
:103790005B685218226063600460EDE713465A6864
:1037A0000AB1A242FAD919685818A0420BD1206870
:1037B0000144581882421960DED1106852680144F1
:1037C00019605A60D8E702D90C232B60D4E720682F
:1037D00021188A4201BF116852680918216062608D
:1037E0005C60C9E738BD00BFFC01002070B5CD1C8E
:1037F00025F0030508350C2D38BF0C25002D064695
:1038000001DBA94203D90C233360002070BD00F016
:10381000D7F9234A1468214691B9224C23681BB971
:10382000304600F091F920602946304600F08CF9CE
:10383000431C26D10C233046336000F0C2F9E4E784
:103840000B685B1B1AD40B2B0FD90B60CC18CD5017
:10385000304600F0B6F904F10B00231D20F00700FC
:10386000C31A1BD05A42E25070BD8C420BBF636832
:103870004B681360636018BF0C46E9E70C46496863
:10388000CAE7C41C24F00304A04205D0211A304624
:1038900000F05AF90130CDD02560D9E770BD00BFE6
:1038A000FC010020000200202DE9F0478E688246CE
:1038B0009E420C469146984635D88A8912F4906FFC
:1038C00031D00223256809696F1A656905EB450542
:1038D00095FBF3F508F101033B449D4238BF1D46BB
:1038E000530531D52946FFF781FF064650B90C2311
:1038F000CAF80030A3894FF0FF3043F04003A381A2
:10390000BDE8F0873A462169FFF73AFCA38923F422
:10391000906343F08003A38126613E4426604646BF
:103920006561ED1BA560464528BF464649463246BF
:10393000206800F02BF9A36800209B1BA36023687C
:103940001E442660BDE8F0872A4600F03BF9064693
:103950000028E1D121695046FFF7FCFEC7E70000CF
:103960002DE9F04F9DB003938B8980461C060D46D0
:1039700016460FD50B696BB94021FFF737FF28605A
:10398000286128B90C23C8F800304FF0FF30C4E09C
:1039900040236B610023099320238DF829303023C5
:1039A0004FF0010B8DF82A3037463C4614F8013BA6
:1039B000002B3CD1B7EB060A0BD0534632462946C2
:1039C0004046FFF771FF013000F0A280099B53448D
:1039D00009933B78002B00F09B8000234FF0FF32CF
:1039E00004930793059206938DF853301A9305229A
:1039F00021785048FFF7B6FB671C049BD8B9D9065D
:103A000044BF20228DF853201A0744BF2B228DF883
:103A1000532022782A2A16D000210A20079A274606
:103A20003B780134303B092B50D9C9B111E0252B2B
:103A3000C0D02746B9E73F4A3C46801A0BFA00F04F
:103A400018430490D3E7039A111D12680391002ACA
:103A500001DB079204E0524243F002030792049311
:103A60003B782E2B0DD17B78791C2A2B32D1039BEE
:103A700002371A1D1B680392002BB8BF4FF0FF33AB
:103A800005932D4C032239782046FFF76BFB38B1A4
:103A90004023001B03FA00F0049B01370343049307
:103AA0003978062225487E1C8DF82810FFF75AFB2E
:103AB000002835D0224BFBB9039B073323F00703C3
:103AC00008330393099B4B4409936DE700FB0232D3
:103AD0000121A4E700230A24184605930F463A78EB
:103AE0000131303A092A03D9002BCAD00590C8E722
:103AF00004FB00200123F1E703AB00932A46114B9E
:103B000004A94046FEF7B4F8B0F1FF3F8146D9D191
:103B1000AB895B063FF539AF09981DB0BDE8F08F62
:103B200003AB00932A46074B04A94046FEF750FB1F
:103B3000EAE700BFFC3D0008023E0008063E000820
:103B4000711C0008A938000838B50023054C05464B
:103B50000846236000F072F8431C02D1236803B1C9
:103B60002B6038BD4C02002082B001B901A942B1DE
:103B70004BB113780B601278101C18BF012002B0F3
:103B800070471046FBE76FF00100F8E7884210B578
:103B900001EB020303D8421E99420CD110BD98429A
:103BA000F9D28118D21AD34200D110BD13F8014DB9
:103BB00001F8014DF7E711F8014B02F8014FEBE76F
:103BC00070477047F8B5074614460E4621B91146AE
:103BD000BDE8F840FFF70ABE22B9FFF7BBFD254656
:103BE0002846F8BD00F021F884420FD92146384616
:103BF000FFF7FCFD05460028F2D031462246FFF7CC
:103C0000BFFA31463846FFF7A5FDE9E73546E7E755
:103C100049B1FF2A8BBF8A230A700360012088BF45
:103C20004FF0FF3070470846704751F8040C0028E9
:103C3000A0F10400BCBF0B58C0187047044B0246EB
:103C4000196809B903491960186802441A60704775
:103C50000402002050020020F8B500BFF8BC08BCE8
:103C60009E467047F8B500BFF8BC08BC9E4670473A
:103C700002030405060708090A0B0C0D0E0F1010AD
:103C800054656D70206465633A2025640A005465AC
:103C90006D7020666C6F61743A20252E32660A00C2
:103CA00000000000000000000102030406070809EC
:103CB0000000000001020304494E4600696E6600E0
:103CC0004E414E006E616E0030003031323334357B
:103CD0003637383941424344454600303132333477
:103CE000353637383961626364656600496E6669E6
:103CF0006E697479004E614E000000000000000003
:103D00000080E03779C34143176E05B5B5B89346D7
:103D1000F5F93FE9034F384D321D30F94877825AA3
:103D20003CBF737FDD4F1575000000000000F03FC1
:103D30000000000000002440000000000000594086
:103D40000000000000408F40000000000088C340D9
:103D500000000000006AF8400000000080842E414E
:103D600000000000D01263410000000084D797419A
:103D70000000000065CDCD41000000205FA00242A0
:103D8000000000E876483742000000A2941A6D4215
:103D9000000040E59C30A2420000901EC4BCD64208
:103DA00000003426F56B0C430080E03779C34143B3
:103DB00000A0D8855734764300C84E676DC1AB4329
:103DC000003D9160E458E143408CB5781DAF154447
:103DD00050EFE2D6E41A4B4492D54D06CFF0804422
:103DE000F64AE1C7022DB544B49DD9794378EA4437
:103DF00005000000190000007D000000232D302B7D
:103E00002000686C4C0065666745464700430050DB
:103E10004F534958002E0000202020202020202031
:103E2000202828282828202020202020202020206A
:103E3000202020202020202088101010101010108A
:103E400010101010101010100404040404040404D2
:103E50000404101010101010104141414141410163
:103E60000101010101010101010101010101010142
:103E70000101011010101010104242424242420251
:103E80000202020202020202020202020202020212
:103E900002020210101010200000000000000000BC
:103EA0000000000000000000000000000000000012
:103EB0000000000000000000000000000000000002
:103EC00000000000000000000000000000000000F2
:103ED00000000000000000000000000000000000E2
:103EE00000000000000000000000000000000000D2
:103EF00000000000000000000000000000000000C2
:103F000000000000000000000000000000000000B1
:083F10000000000000000000A9
:043F18003501000867
:043F1C001101000887
:103F20000100000010000000C0980B0000A24A042D
:103F3000140000200000000000000000000000004D
:103F40000000000000000000000000000000000071
:103F50000000000000000000000000000000000061
:103F60000000000000000000000000000000000051
:103F70000000000000000000000000000000000041
:103F80000000000000000000000000000000000031
:103F900000000000430000000000000000000000DE
:103FA0000000000000000000000000000000000011
:103FB00000000000430000000000000000000000BE
:103FC00000000000000000000000000000000000F1
:103FD000000000004300000000000000000000009E
:103FE00000000000000000000000000000000000D1
:103FF000000000004300000000000000000000007E
:1040000000000000000000000000000000000000B0
:10401000000000004300000000000000000000005D
:104020000000000000000000000000000000000090
:10403000000000004300000000000000000000003D
:104040000000000000000000000000000000000070
:10405000000000004300000000000000000000001D
:104060000000000000000000000000000000000050
:1040700000000000113C0008693B0008000000003F
:10408000173E0008153E00088D3C00088D3C0008D6
:104090008D3C00088D3C00088D3C00088D3C0008DC
:1040A0008D3C00088D3C00088D3C0008FFFFFFFFA1
:1040B000FFFFFFFFFFFFFFFFFFFF00000100415375
:1040C000434949000000000000000000000000001B
:1040D000000000000000000000000000000041534C
:1040E00043494900000000000000000000000000FB
:1040F00000000000000000000000000000000000C0
:0400000508001AA92C
:00000001FF
