:020000040800F2
:1000000000500020591F0008651D0008671D0008EA
:10001000691D00086B1D00086D1D00080000000030
:100020000000000000000000000000006F1D00083C
:10003000711D000800000000731D0008751D0008F8
:10004000A11F0008A11F0008A11F0008A11F000890
:10005000A11F0008A11F0008A11F0008A11F000880
:10006000A11F0008A11F0008A11F0008A11F000870
:10007000A11F0008A11F0008A11F0008A11F000860
:10008000A11F0008A11F0008A11F0008A11F000850
:10009000A11F0008A11F0008A11F0008A11F000840
:1000A000A11F0008A11F0008A11F0008A11F000830
:1000B000A11F0008A11F0008791D0008A11F00084A
:1000C000A11F0008A11F0008A11F0008A11F000810
:1000D000A11F0008851D0008A11F0008CD1D0008F4
:1000E000A11F0008A11F0008A11F000800000000B8
:1000F0000000000000000000000000000000000000
:0C01000000000000000000005FF808F1A3
:10010C0010B5054C237833B9044B13B10448AFF345
:10011C0000800123237010BD70000020000000003F
:10012C00D028000808B5034B1BB103490348AFF3B3
:10013C00008008BD0000000074000020D0280008DA
:10014C00034613F8012B002AFBD1181A013870470B
:10015C0038B50E4B054618784FF47A73B3FBF0F3B1
:10016C000B4A1068B0FBF3F000F0A0F8044658B945
:10017C000F2D09D8024629464FF0FF3000F054F8F5
:10018C00044B20461D6038BD012038BD0000002006
:10019C000800002004000020074A08B5136803205B
:1001AC0043F01003136000F02DF80020FFF7D0FF90
:1001BC0001F016FD002008BD00200240034A044B4C
:1001CC0011681B780B441360704700BFE4040020D7
:1001DC0000000020014B1868704700BFE4040020A9
:1001EC0038B50446FFF7F6FF0546631C1EBF044BEB
:1001FC001B78E418FFF7EEFF401B8442FAD838BD99
:10020C0000000020074A0002D36800F4E06023F4E9
:10021C00E0631B041B0C43F0BF6343F40033034344
:10022C00D360704700ED00E0174B30B5DC68C4F3C9
:10023C000224C4F10703251D042B28BF0423062D1B
:10024C004FF0010598BF002405FA03F303F1FF33C7
:10025C0088BF033C1940A14005FA04F4013C22403C
:10026C00002842EA01024FEA0212A9BF00F16040E5
:10027C00064BD2B200F56140BBBF00F00F00D2B20A
:10028C0080F800231A5430BD00ED00E014ED00E0BE
:10029C00002808DB0123420900F01F0003FA00F0DC
:1002AC00014B43F82200704700E100E00138B0F147
:1002BC00807F0AD2F021064B064A586082F8231040
:1002CC000020072298601A6070470120704700BF19
:1002DC0010E000E000ED00E02DE9F74F0024264689
:1002EC00664BDFF8A8E1DFF8A8C10A6832FA06F518
:1002FC0002D103B0BDE8F08F4FF0010808FA06F800
:10030C0002EA080290457FD14D68122D00F0AA80B8
:10031C0000F28380022D00F0A28077D8002D00F02F
:10032C008980012D00F099804FF00F09FF2A93BFAF
:10033C00824606F18045083DD0F800B092BFB5006A
:10034C00D0F804B0AD0009FA05F82BEA080804FA55
:10035C0005F588BF00F1040A48EA0505CAF8005003
:10036C00D1F804A01AF0805F4ED0454D444FAD69D2
:10037C0026F0030845F00105BD61BD6908F1804810
:10038C0005F00105019508F5803806F0030B019D79
:10039C004FEA8B0BD8F8085009FA0BF925EA090932
:1003AC00384DA84263D005F58065A84261D005F5AB
:1003BC008065A8425FD005F58065A8420CBF032577
:1003CC00042505FA0BF545EA0905C8F808501D681F
:1003DC001AF4803F14BF154395431D605D681AF4F1
:1003EC00003F14BF154395435D609D681AF4801F50
:1003FC0014BF154395439D60DD681AF4001F14BFAC
:10040C002A4325EA0202DA6001366EE7032D22D078
:10041C00112D89D1CC68043486E71B4FBD4209D01D
:10042C0012D8DFF870904D4504D009F580394D4550
:10043C007FF47AAF8C68C4B1012C0CBFC0F810806B
:10044C00C0F8148008246FE77545F3D06545F1D0EA
:10045C00DFF84490EBE7002466E7CC6864E7CC68EF
:10046C00083461E7CC680C345EE704245CE70025B3
:10047C00A7E70125A5E70225A3E700BF000401407B
:10048C000010024000080140000021100000311053
:10049C000000321000001110000022100AB101619E
:1004AC0070470904FBE7C3680B4214BF416101614B
:1004BC00704700002DE9F341054608B901203CE0E6
:1004CC000368DB0710D42B689F075DD42B681907D2
:1004DC0000F194802B685A0700F1BE80E86900286F
:1004EC0040F02C81002028E08F4C636803F00C0353
:1004FC00042B07D0636803F00C03082B09D1636845
:10050C00DE0306D523689C03DDD56B68002BDAD19E
:10051C00D4E76B68B3F5803F12D1236843F4803382
:10052C002360FFF757FE064623689803CBD4FFF7EA
:10053C0051FE801B6428F7D9032002B0BDE8F0817E
:10054C009BB9236823F480332360236823F480232E
:10055C002360FFF73FFE064623689903B3D5FFF7E8
:10056C0039FE801B6428F7D9E6E7B3F5A02F236882
:10057C0003D143F480232360CFE723F4803323603B
:10058C00236823F48023CBE7674C636813F00C0FCC
:10059C0007D0636803F00C03082B10D16368DA03EF
:1005AC000DD423689B0702D52B69012B86D12368B8
:1005BC006A6923F0F80343EAC203236086E72A69D9
:1005CC005A4B6AB101221A60FFF704FE06462368F3
:1005DC009F07ECD4FFF7FEFD801B0228F7D9ABE791
:1005EC001A60FFF7F7FD0646236898077FF56EAF94
:1005FC00FFF7F0FD801B0228F6D99DE7AA694A4C4B
:10060C004B4BDAB101221A60FFF7E4FD0646636A30
:10061C009B070DD54FF4FA52464B1B68B3FBF2F314
:10062C00019300BF019B5A1E0192002BF9D151E797
:10063C00FFF7D0FD801B0228E9D97DE71A60FFF790
:10064C00C9FD0646636A9F077FF544AFFFF7C2FDFD
:10065C00801B0228F6D96FE7334CE369D80024D409
:10066C000127E36943F08053E361E36903F08053AE
:10067C000093009B304E3368D90518D5EB68012BDD
:10068C0026D1236A43F001032362FFF7A3FD41F255
:10069C0088368046236A9B073FD5002F3FF41EAF58
:1006AC00E36923F08053E36118E70027E2E733683E
:1006BC0043F480733360FFF78DFD80463368DA05B1
:1006CC00DCD4FFF787FDA0EB08006428F6D933E7EC
:1006DC00ABB9236A41F2883823F001032362236A01
:1006EC0023F004032362FFF775FD0646236A98077F
:1006FC00D3D5FFF76FFD801B4045F7D91CE7052BC1
:10070C00236A03D143F004032362BAE723F0010305
:10071C002362236A23F00403B6E7FFF75BFDA0EB2B
:10072C000800B042B6D907E7001002400000424270
:10073C008004424208000020007000402A4B5A6896
:10074C001C4602F00C02082A3DD00023274E02283A
:10075C0033602BD1FFF73EFD0746236899011FD468
:10076C002B6AB3F5803F05D16268A96822F4003288
:10077C000A436260696A62680B4322F47412134381
:10078C00636001233360FFF725FD054623689A015A
:10079C003FF5A8AEFFF71EFD401B0228F6D9CBE6AD
:1007AC00FFF718FDC01B0228D7D9C5E6FFF712FDCD
:1007BC00054623689B017FF595AEFFF70BFD401BAB
:1007CC000228F6D9B8E601283FF4B7AE58682B6A70
:1007DC0000F480329A427FF471AE6B6A00F47010B0
:1007EC00C01A18BF0120A8E6001002406000424267
:1007FC0030B5194B87B002AC03F1100522461868CE
:10080C005968083303C2AB421446F7D101238DF863
:10081C000430022311498DF805304B6803F00C02AB
:10082C00082A17D1C3F3834206A80244DB0312F84B
:10083C00102C0CD54B680A48C3F34043504306AA0E
:10084C00134413F8143CB0FBF3F007B030BD05486B
:10085C005043FAE70248F8E7E82800080010024085
:10086C0000127A0000093D002DE9F0410D460446C6
:10087C0010B90120BDE8F081454A136803F0070365
:10088C008B4229D321688E0731D4CA0744D4404AFD
:10089C00136803F007039D4267D322683D4D12F0A5
:1008AC00040F6ED1130706D56B68226923F46053CD
:1008BC0043EAC2036B60FFF79BFF6B68364AC3F3D6
:1008CC000313D35CD840354B1860354B1868FFF7D1
:1008DC003FFC0020BDE8F081136823F007030B43B5
:1008EC001360136803F007039942C2D1CAE7294B7E
:1008FC0011F0040F1EBF5A6842F4E0625A600807F8
:10090C0042BF5A6842F460525A605A68A06822F09A
:10091C00F00202435A60B8E762681E4E012A33683F
:10092C001BD113F4003FA4D0736841F2883823F034
:10093C00030313437360FFF74DFC0746736862684B
:10094C0003F00C03B3EB820FA1D0FFF743FCC01BE9
:10095C004045F3D90320BDE8F081022A02D113F0FF
:10096C00007FE0E713F0020FDDE7136823F00703C5
:10097C002B431360136803F007039D427FF479AF98
:10098C008BE76B68E16823F4E0630B436B6089E7EA
:10099C000020024000100240722C000808000020C9
:1009AC0004000020044B054A5B68C3F30223D35CAC
:1009BC00034A1068D840704700100240822C00088F
:1009CC0008000020044B054A5B68C3F3C223D35CC8
:1009DC00034A1068D840704700100240822C00086F
:1009EC000800002003680020DA6842F00102DA6097
:1009FC009A6802F00702062A1EBF1A6842F001022A
:100A0C001A6070477047704770477047036810B59D
:100A1C001A69044691070ED5DA6892070BD56FF068
:100A2C0002021A6101229B6902779B0777D0FFF7BC
:100A3C00EAFF0023237723681A69500710D5DA6878
:100A4C0051070DD56FF004021A6102229B692277BF
:100A5C0013F4407F204668D0FFF7D5FF002323779F
:100A6C0023681A6912070FD5DA6810070CD56FF0D6
:100A7C0008021A610422DB692277990720465AD0B2
:100A8C00FFF7C1FF0023237723681A69D20610D51C
:100A9C00DA68D0060DD56FF010021A610822DB69F6
:100AAC00227713F4407F20464BD0FFF7ACFF002396
:100ABC00237723681A69D10708D5DA68D20705D5D8
:100ACC006FF0010220461A6100F08CFC23681A6951
:100ADC00100608D5DA68110605D56FF0800220469D
:100AEC001A6100F044F923681A69520608D5DA68CD
:100AFC00500605D56FF0400220461A61FFF785FFBE
:100B0C0023681A69910622D5DA6892061FD56FF010
:100B1C0020022046BDE810401A6100F027B9FFF70B
:100B2C0071FF2046FFF770FF83E7FFF76BFF20464E
:100B3C00FFF76AFF92E7FFF765FF2046FFF764FFB8
:100B4C00A0E7FFF75FFF2046FFF75EFFAFE710BDA2
:100B5C001A4A036890420AD0B0F1804F07D0A2F530
:100B6C009432904203D002F58062904215D14A68CB
:100B7C0023F070031343114A90420AD0B0F1804F16
:100B8C0007D0A2F59432904203D002F580629042D5
:100B9C0003D1CA6823F4407313434A6923F08003DA
:100BAC00134303608B68C3620B688362034B9842E8
:100BBC0004BF0B690363012343617047002C0140A0
:100BCC0010B50446A0B190F83D3003F0FF021BB9FC
:100BDC0080F83C2001F026F80223206884F83D3090
:100BEC00211DFFF7B5FF0123002084F83D3010BD17
:100BFC00012010BD10B584680A4324F47F4442EAF6
:100C0C0003232343836010BD90F83C3070B5012B57
:100C1C0004464FF0020019D0012384F83D002068EF
:100C2C0084F83C30836823F47F4323F0770383609C
:100C3C000B68402B65D015D8102B0CD007D853B1AE
:100C4C000123002084F83D3084F83C0070BD202B3B
:100C5C0001D0302BF4D1826843F0070322F07002EC
:100C6C0013431AE0602B34D019D8502BE8D14A68C2
:100C7C00CE68016A056A21F00A0125F001050562BA
:100C8C0083690A4323F0F00343EA0613836102628B
:100C9C00836823F0700343F057038360D0E7702B15
:100CAC000CD0B3F5005FCBD1CB684A688968FFF7ED
:100CBC00A1FF2268936843F4804308E0CB684A683C
:100CCC008968FFF797FF2268936843F07703936076
:100CDC00B6E74D68CE68016A21F0100101628269A5
:100CEC00036A22F4704223F0A00343EA051342EA9C
:100CFC00063282610362836823F0700343F067035A
:100D0C00CBE74A68CE68016A056A21F00A0125F032
:100D1C000105056283690A4323F0F00343EA0613D5
:100D2C0083610262836823F0700343F04703B4E7E6
:100D3C0090F83C3030B5012B4FF0020314D004680E
:100D4C0080F83D306268A3680D68496822F0700233
:100D5C0023F080030B432A436260A360012380F8D5
:100D6C003D30002380F83C30184630BD704770474A
:100D7C0038B505460368C1681A69192422F4405233
:100D8C000A431A6182680069D9680243686921F4D0
:100D9C00B05121F00C0102430A43DA605A69A96987
:100DAC0022F440720A435A610D4A934214D1FFF760
:100DBC0009FE60436C686422A400B0FBF4F0B0FB45
:100DCC00F2F402FB14031B013233B3FBF2F3296878
:100DDC0003EB04138B6038BDFFF7E4FDE9E700BFBC
:100DEC0000380140F8B504460E4617461D462168EA
:100DFC000B6836EA030301D10020F8BD6B1CF7D059
:100E0C0095B923680320DA6822F4D072DA605A6943
:100E1C0022F001025A61202384F8393084F83A30E8
:100E2C00002384F83830F8BDFFF7D4F9C01B854295
:100E3C00DDD2E6E710B5044640B390F8393003F044
:100E4C00FF021BB980F8382000F00AFF2423226827
:100E5C0084F83930D368204623F40053D360FFF76D
:100E6C0087FF236800201A6922F490421A615A699C
:100E7C0022F02A025A61DA6842F40052DA60202326
:100E8C00E06384F8393084F83A3010BD012010BD8D
:100E9C002DE9F0411F4690F839300446202B0D46C1
:100EAC0090464ED1002949D0002A47D090F83830CE
:100EBC00012B46D0012380F838300023C363212353
:100ECC0080F83930FFF786F90646A4F82480A4F898
:100EDC002680E38C9BB26BB93B46324640212046C0
:100EEC00FFF780FFA8B9202384F8380084F8393044
:100EFC00BDE8F081E38C3246013B9BB2E384A368EE
:100F0C008021B3F5805F20463B460ED1FFF76AFF88
:100F1C0010B10320BDE8F0812B882268C3F30803CD
:100F2C005360236943B90235D3E7FFF75BFF002811
:100F3C00EFD123682A785A600135CAE70120BDE851
:100F4C00F0810220BDE8F08110B12022037803B9B2
:100F5C0070470A2B01D00D2B00D102700130F5E740
:100F6C0070B50646CAB002AC80220021204601F0C2
:100F7C003DF833466D4A8021204601F03FF820466B
:100F8C00FFF7DEF84FF47A7382B221466848FFF718
:100F9C007FFFC820FFF724F980220021204601F0B2
:100FAC0025F81E2500F084FF002800F09B8000250A
:100FBC0000F07EFF28B100F087FF60550135802DD1
:100FCC002FD12046FFF7C0FF5A49204601F058F8B0
:100FDC00054650BB5849204601F052F805460028FA
:100FEC0043D05649204601F04BF8002862D12846E0
:100FFC00FFF7A6F84FF47A7382B229465048FFF7F0
:10100C0047FF4FF47A7320224E494D48FFF740FFBB
:10101C004D4C20468021FFF746FA6420FFF7E0F89C
:10102C00F7E70120FFF7DCF8C2E73021204601F09A
:10103C0019F800283ED12846FFF782F84FF47A734E
:10104C0082B229463E48FFF723FF4FF47A731E22E3
:10105C003E493B48FFF71CFF3B4C20468021FFF7E5
:10106C0022FA6420FFF7BCF8F7E73949204601F073
:10107C0007F80546F0B13121204600F0F3FFC8B95E
:10108C002846FFF75DF84FF47A7382B229462C4854
:10109C00FFF7FEFE4FF47A731F222E492848FFF704
:1010AC00F7FE294C20468021FFF7FDF96420FFF75D
:1010BC0097F8F7E7A022002122A800F097FF33460B
:1010CC00254AA021009422A800F098FF22A8FFF73F
:1010DC0037F84FF47A7382B222A91948FFF7D8FE79
:1010EC004AB070BD4FF4FA70013DFFF779F815F076
:1010FC00FF057FF457AF4FF47A730A221749104853
:10110C00FFF7C6FE3046FFF71BF84FF47A7382B236
:10111C0031460B48FFF7BCFE0B4C20468021FFF7F5
:10112C00C2F96420FFF75CF8F7E700BF5C29000800
:10113C006805002061290008872900088E2900080D
:10114C0028050020922900080008014068290008A1
:10115C00B3290008BB290008DB290008E629000890
:10116C00F0B50646CBB002AC80220F4620460021DB
:10117C0000F03CFF3346674A8021204600F03EFFDA
:10118C002046FEF7DDFF4FF47A7382B221466248A7
:10119C00FFF77EFEC820FFF723F8802200212046AF
:1011AC0000F024FF1E2500F083FE002800F08E8046
:1011BC00002500F07DFE28B100F086FE605501355B
:1011CC00802D1FD12046FFF7BFFE5449204600F06A
:1011DC0057FFD8B9A022002122A800F007FF334600
:1011EC004F4AA021009422A800F008FF22A8FEF785
:1011FC00A7FF4FF47A7382B222A94A48FFF748FE40
:10120C004BB0F0BD0120FEF7EBFFD2E7012F15D15B
:10121C004549204600F034FF0028DBD14FF47A73A7
:10122C00102242493F48FFF733FE414C20468021B3
:10123C00FFF739F96420FEF7D3FFF7E7022F15D13A
:10124C003C49204600F01CFF0028C3D14FF47A73B0
:10125C000E2239493348FFF71BFE354C20468021BE
:10126C00FFF721F96420FEF7BBFFF7E7032F15D139
:10127C003249204600F004FF0028ABD14FF47A73BA
:10128C0010222F492748FFF703FE294C20468021C6
:10129C00FFF709F96420FEF7A3FFF7E7042F99D1B4
:1012AC002849204600F0ECFE002893D14FF47A73C5
:1012BC000F2225491B48FFF7EBFD1D4C20468021D2
:1012CC00FFF7F1F86420FEF78BFFF7E74FF4FA70A5
:1012DC00013DFEF785FF15F0FF057FF464AF4FF479
:1012EC007A730A2219490F48FFF7D2FD3046FEF7F0
:1012FC0027FF4FF47A7382B231460A48FFF7C8FDD4
:10130C000B4C20468021FFF7CEF86420FEF768FFD7
:10131C00F7E700BF5C29000868050020F8280008E2
:10132C00DB29000828050020FF28000807290008F1
:10133C0000080140182900081E2900082D29000862
:10134C0035290008842A000846290008E6290008E7
:10135C0007B5094B18689B8800906846ADF80430B7
:10136C00FEF7EEFE4FF47A7382B269460348FFF73C
:10137C008FFD03B05DF804FB5629000868050020BA
:10138C0010B528B101460022202403780BB90B704C
:10139C0010BD012A07D80A2B01D00D2B08D1013220
:1013AC00D2B20130F1E70A2B01D00D2B00D1047021
:1013BC000378013101F8013CF3E700004FF4614C74
:1013CC000648074B0C2280E808100023426183601A
:1013DC00C36003618361C361FFF72CBD6805002006
:1013EC00003801400268034B9A4202BF0122024BB3
:1013FC001A707047000800408C0000202DE9F04165
:10140C004FF4166300253D4E3D4FDFF8088194B034
:10141C00002473600C23394873613760B460F46046
:10142C003461B461F461FFF705FD10222146684672
:10143C0000F0DCFD4FF47A73042241462F48FFF78D
:10144C0027FD4FF49670FEF7CBFE00F031FD00281F
:10145C0041D000F02DFD30B100F036FD0DF8040048
:10146C000134102C33D12749684600F009FE90B3A3
:10147C004022002104A800F0B9FD7368224A4021E3
:10148C0004A800F0BBFD04A8FEF75AFE642382B248
:10149C0004A91E48FFF7FCFC4FF47A730E221C497A
:1014AC001648FFF7F5FCFA20FEF79AFEFFF786FFC9
:1014BC0014B0BDE8F0814FF49653A9E74FF41653DE
:1014CC00A6E74FF49643A3E74FF41643A0E7022098
:1014DC00FEF786FEBDE70135EDB2072DE8D0012DF4
:1014EC00E9D0022DEAD0032DEBD0042DECD0052D44
:1014FC000CBF4FF461434FF4E13389E768050020DA
:10150C0000380140142C0008F6290008280500209A
:10151C001D2A0008F12900082DE9F04FADF2244DE9
:10152C0005AF3B46A34A08AC1068516844F62066E8
:10153C0003C39068002118609F4B4FF480621868B9
:10154C009B8803902046ADF8103000F04FFD00F062
:10155C0099FC5023994A4FF48061009320463B46F6
:10156C0000F04CFD2046FEF7EBFD4FF47A7382B28F
:10157C0021469348FFF78CFC4FF4806200212046F3
:10158C0000F034FDDFF88092DFF880A200F090FCD0
:10159C00002853D0002507E000F096FCEDB2605512
:1015AC000120FEF71DFE454600F082FC05F1010806
:1015BC0083460028F0D18349204600F061FDE8B154
:1015CC0064230B2280498148FFF762FC6420FEF7FC
:1015DC0007FE4FF47A730C227D497948FFF758FCCB
:1015EC004FF480625946204600F000FD4FF4FA6635
:1015FC0000F05EFC00287BD0002533E049462046F5
:10160C0000F03EFD48B164230D2272496F48FFF78C
:10161C003FFC0DF2244DBDE8F08F5146204600F002
:10162C002FFD58B1642310226B496848FFF730FC3A
:10163C004FF47A730D2269496148E8E7013EB6B26E
:10164C0026B94FF47A7316226549DFE70120FEF7BD
:10165C00C7FD9BE700F038FCEDB260550120FEF7AA
:10166C00BFFD4D4600F024FC05F101098046002821
:10167C00F0D13E21204600F0F5FC002838D0642340
:10168C00072258495148FFF703FC00F0FBFB64208C
:10169C00FEF7A6FD4FF480624146204600F0A6FC02
:1016AC001A23514A4FF480610193009703AB2046F3
:1016BC0000F0A4FC2046FEF743FD4FF47A7382B28F
:1016CC0021463F48FFF7E4FB4FF480624146204639
:1016DC0000F08CFC64230C2244493C48FFF7D8FBF7
:1016EC0044F6206500F0E4FB002857D0002514E0F8
:1016FC00013EB6B226B94FF47A730F223C4994E7F7
:10170C000120FEF76DFD73E700F0DEFB605501353F
:10171C000C2D1AD00120FEF763FDAFB200F0C8FB10
:10172C000028F1D13349204600F0AAFC054680B3CD
:10173C0042F2107600F0BCFB68B9013EB6B226BB93
:10174C004FF47A7316222C496FE72F46EAE70120F3
:10175C00FEF746FD374600F0ABFB38B100F0B4FBAA
:10176C007E1CB6B2B6F5806FE055F0D1642305222D
:10177C00224909351548FFF78BFB2846FEF7E0FC9C
:10178C004FF47A7382B229464FE70120FEF728FD09
:10179C00D0E74FF47A731522194946E7013DADB2F3
:1017AC0025B94FF47A73152216493EE70120FEF74E
:1017BC0017FD97E7602C00086C2C00081F2B000805
:1017CC00680500203D2B0008AA2B000828050020E6
:1017DC00482B0008622B0008802B0008912B000876
:1017EC009F2B0008B62B0008BE2B0008F22B00081C
:1017FC00FF2B00080F2C00081D2C0008172C0008CC
:10180C00342C00084A2C0008552B0008702B0008BB
:10181C0010B590B02822002106A800F0E7FB0021AB
:10182C00142201A800F0E2FB4FF4803301220224C1
:10183C0007930E934FF4E01306A806920A920F93A7
:10184C000D94FEF737FE0F234FF4806201930023B3
:10185C00214601A80294039304920593FFF704F820
:10186C0010B010BD2DE9F047C4B024AEFEF794FCC7
:10187C00FFF7CEFF10220021304600F0B7FBBA4B29
:10188C0081219A69B94842F020029A619A6900252F
:10189C0002F020020192019A9A694FF0010942F07C
:1018AC0004029A619A694FF0020A02F00402029251
:1018BC00029A9A69AE4F42F008029A619B69002223
:1018CC0003F008030393039BFEF7E8FD81233146E5
:1018DC00A6482493CDF894902695CDF89CA0FEF7BD
:1018EC00FBFC29461022304600F080FB41F61F43DA
:1018FC00A04A04AC87E80C0042F20F733846FB6038
:10190C00BD603D61BD6125606560FFF759F94FF41D
:10191C008053314638462493FFF776F921463846F2
:10192C0025606560FFF704FAFFF748FD4FF461434B
:10193C00DFF890829049404688E80A000C23C8F8EA
:10194C000850C8F81430C8F80C50C8F81050C8F833
:10195C001850C8F81C50FFF76DFA4FF47A70FEF768
:10196C003FFC49464A468148FEF798FD41F27070AB
:10197C00FEF736FC814B1A68D36843F02003D36022
:10198C00D8F80020DFF85082D36843F02003D360EE
:10199C00FFF734FD7A48FFF7E3FA7A48FFF7E0FAED
:1019AC007948FFF7DDFA7948FFF7DAFA7848FFF75C
:1019BC00D7FA7848FFF7D4FA7748FFF7D1FA774887
:1019CC00FFF7CEFA7648FFF7CBFA49467548FFF792
:1019DC00C7FB7548FFF7C4FA51467248FFF7C0FBC6
:1019EC007248FFF7BDFA03216E48FFF7B9FB704848
:1019FC00FFF7B6FA04216B48FFF7B2FB6D48FFF70F
:101A0C00AFFAFFF789FD3846FEF7ECFF6A4FDFF8B7
:101A1C00CC913B78012B04BF00233B7000F048FABB
:101A2C00002871D080220021204600F0DFFA8022AD
:101A3C000021304600F0DAFA3220FEF7D1FB002507
:101A4C0000F036FA28B100F03FFA60550135802DD0
:101A5C0038D12046FFF794FC4146204600F010FB9D
:101A6C00002833D15549204600F00AFB00283BD012
:101A7C004FF47A73092252495248FFF709FA524837
:101A8C00FFF76EFA4648FFF76BFA01214548FFF75E
:101A9C0067FB4548FFF764FA02214248FFF760FBF9
:101AAC004248FFF75DFA03213E48FFF759FB4048D7
:101ABC00FFF756FA04213B48FFF752FB3D48FFF76E
:101ACC004FFA11E00120FEF78BFBB9E73F492046A6
:101ADC0000F0D6FA40B14FF47A730A223C493948E7
:101AEC00FFF7D6F9FFF734FC23464A4680213046EF
:101AFC0000F084FA3046FEF723FB4FF47A7382B27F
:101B0C0031463048FFF7C4F900F0FAF9002880D0CC
:101B1C0080220021204600F069FA80220021304604
:101B2C0000F064FA002500F0EBF928B100F0F4F9AC
:101B3C0070550135802D13D13046FFF721FC33460B
:101B4C00244A8021204600F059FA2046FEF7F8FA84
:101B5C004FF47A7382B221460848FFF799F958E797
:101B6C000120FEF73DFBDEE70010024000080140BB
:101B7C00E8040020000800400048004068050020F0
:101B8C002C2A0008342A00083D2A0008472A00089D
:101B9C004C2A0008532A00085D2A0008682A00080D
:101BAC00722A00087E2A00088B2A0008B12A000835
:101BBC00BA2A0008C32A00088C000020FD2A00085D
:101BCC00032B0008280500200D2B0008E72A00082D
:101BDC00F22A00085C290008E22A0008182B0008E9
:101BEC000E4B82B09A6942F001029A619A6902F036
:101BFC0001020092009ADA6942F08052DA61DB69E4
:101C0C00074A03F080530193019B536823F0E06370
:101C1C0043F00073536002B0704700BF00100240E5
:101C2C000000014007B50D4B02689A4212D103F532
:101C3C000233DA691E2042F00402DA61DB69002209
:101C4C0003F0040301930321019BFEF7EDFA1E2020
:101C5C00FEF71EFB03B05DF804FB00BF000800405C
:101C6C00102230B5044689B00DEB0200002100F0C3
:101C7C00BDF92368334A934231D1334B04A99A6995
:101C8C00324842F480429A619A69002402F48042FC
:101C9C000092009A9A6942F004029A619B6903F0DF
:101CAC0004030193019B4FF40073049302230593E7
:101CBC0003230793FEF710FB4FF4806304A923481A
:101CCC00049305940694FEF707FB25202246012178
:101CDC00FEF7AAFA2520FEF7DBFA09B030BD1C4A44
:101CEC009342FAD1184B0225DA6904A942F48022F6
:101CFC00DA61DA69174802F480220292029A9A6930
:101D0C00002442F008029A619B69059503F00803D0
:101D1C000393039B4FF48063049303230793FEF711
:101D2C00DBFA4FF4006304A90A4804930594069463
:101D3C00FEF7D2FA272022462946FEF775FA27200D
:101D4C00C9E700BF00380140001002400008014004
:101D5C0000480040000C01407047FEE7FEE7FEE73C
:101D6C00FEE7704770477047FEF728BA0148FEF748
:101D7C004DBE00BFE80400200D4B10B51B681A685F
:101D8C00910613D5DA68920610D50A4A0A495868A2
:101D9C00138809880133C3F3090389B28B42C0B29B
:101DAC0004D01188054C89B26054138010BD00BF5B
:101DBC0068050020D6040020D8040020D60000209E
:101DCC000C4B10B51B681A68910612D5DA6892068E
:101DDC000FD5094A5968094813780078013303F084
:101DEC003F0383421CBF1078054CC9B21CBF215461
:101DFC00137010BD28050020D4000020D500002051
:101E0C009400002008B50A4B0246196809B9094923
:101E1C0019606946186802448A4206D900F0BCF879
:101E2C000C2303604FF0FF3008BD1A6008BD00BFE3
:101E3C0090000020AC0500200F4B1A6842F0010204
:101E4C001A6059680D4A0A405A601A6822F0847266
:101E5C0022F480321A601A6822F480221A605A68BE
:101E6C0022F4FE025A604FF41F029A604FF0006297
:101E7C00034B9A60704700BF001002400000FFF84F
:101E8C0000ED00E0074B08491B68DA6822F02002DD
:101E9C00DA6000220A8005490A80DA6842F02002E2
:101EAC00DA60704768050020D6040020D8040020B2
:101EBC00034B1888034B1B88C01AC0F309007047EA
:101ECC00D6040020D80400200A4B0B4A198813882A
:101EDC0089B29BB299420AD0138808499BB2C85C5C
:101EEC00138880B20133C3F30903138070474FF694
:101EFC00FF707047D6040020D8040020D6000020C4
:101F0C00034B1878034B1B78C01A00F03F00704746
:101F1C00D4000020D5000020094B0A4A1978137808
:101F2C00994209D013780849C85C137880B2013300
:101F3C0003F03F03137070474FF6FF70704700BFFC
:101F4C00D4000020D500002094000020002103E0E4
:101F5C000B4B5B58435004310A480B4B42189A42C6
:101F6C00F6D30A4A02E0002342F8043B084B9A429B
:101F7C00F9D3FFF761FF00F015F8FFF773FC70471A
:101F8C00C82C000800000020700000207000002009
:101F9C00AC050020FEE70000014B1868704700BF3D
:101FAC000C00002070B500250C4E0D4CA41BA41089
:101FBC00A54209D100F086FC00250A4E0A4CA41B50
:101FCC00A410A54205D170BD56F8253098470135AF
:101FDC00EEE756F8253098470135F2E7C02C00089B
:101FEC00C02C0008C02C0008C42C00080346024476
:101FFC00934200D1704703F8011BF9E70CB430B5DC
:10200C00174B0C1E9DB01D6808DA8B234FF0FF3068
:10201C002B601DB0BDE8304002B070474FF4027326
:10202C00ADF814300CBF234604F1FF33049307932F
:10203C004FF6FF7302900690ADF81630209A21AB44
:10204C0002A92846019300F091F8431CBCBF8B23D6
:10205C002B60002CDDD00022029B1A70D9E700BF48
:10206C000C000020C9B2034610F8012B1AB19142A2
:10207C00F9D11846704700290CBF1846002070474C
:10208C00F0B5037833B1034618465E1C1B7833B9A0
:10209C001846F0BD0B78002B18BF0020F0BD4D1E6C
:1020AC00441E15F8012F002AF3D014F8017F334693
:1020BC009742F6D0E8E72DE9F0478E6882469E42BB
:1020CC000C469146984635D88A8912F4906F31D0D7
:1020DC000223256809696F1A656905EB450595FBAF
:1020EC00F3F508F101033B449D4238BF1D465305EF
:1020FC0031D5294600F046FB064650B90C23CAF8E8
:10210C000030A3894FF0FF3043F04003A381BDE8BA
:10211C00F0873A46216900F0C3FAA38923F490634F
:10212C0043F08003A38126613E44266046466561E8
:10213C00ED1BA560464528BF4646494632462068F9
:10214C0000F0B9FAA36800209B1BA36023681E440F
:10215C002660BDE8F0872A4600F072FB0646002890
:10216C00E1D12169504600F0C1FAC7E72DE9F04FE3
:10217C009DB003938B8980461C060D4616460FD5E1
:10218C000B696BB9402100F0FDFA2860286128B971
:10219C000C23C8F800304FF0FF30C4E040236B61D3
:1021AC000023099320238DF8293030234FF0010BA5
:1021BC008DF82A3037463C4614F8013B002B3CD1B5
:1021CC00B7EB060A0BD05346324629464046FFF77A
:1021DC0072FF013000F0A280099B534409933B78B5
:1021EC00002B00F09B8000234FF0FF3204930793E9
:1021FC00059206938DF853301A9305222178504896
:10220C0000F040FA671C049BD8B9D90644BF2022C1
:10221C008DF853201A0744BF2B228DF853202278B7
:10222C002A2A16D000210A20079A27463B78013427
:10223C00303B092B50D9C9B111E0252BC0D0274612
:10224C00B9E73F4A3C46801A0BFA00F01843049059
:10225C00D3E7039A111D12680391002A01DB079240
:10226C0004E0524243F00203079204933B782E2B76
:10227C000DD17B78791C2A2B32D1039B02371A1D86
:10228C001B680392002BB8BF4FF0FF3305932D4C06
:10229C0003223978204600F0F5F938B14023001BB1
:1022AC0003FA00F0049B01370343049339780622A8
:1022BC0025487E1C8DF8281000F0E4F9002835D054
:1022CC00224BFBB9039B073323F00703083303931B
:1022DC00099B4B4409936DE700FB02320121A4E7F3
:1022EC0000230A24184605930F463A780131303AF8
:1022FC00092A03D9002BCAD00590C8E704FB00209B
:10230C000123F1E703AB00932A46114B04A9404685
:10231C00AFF30080B0F1FF3F8146D9D1AB895B06AA
:10232C003FF539AF09981DB0BDE8F08F03AB0093B2
:10233C002A46074B04A9404600F084F8EAE700BFA0
:10234C008A2C0008902C0008942C00080000000037
:10235C00C32000082DE9F04791461F468A680B6997
:10236C0006469342B8BF1346C9F8003091F8432093
:10237C000C46DDF8208012B10133C9F80030236817
:10238C00990642BFD9F800300233C9F800302568ED
:10239C0015F0060507D104F1190AE368D9F80020F5
:1023AC009B1A9D422ADB94F843302268003318BFF5
:1023BC00012392062FD404F1430239463046C0471C
:1023CC00013022D02368E56803F00603042B18BF04
:1023DC000025D9F800204FF0000908BFAD1AA368FA
:1023EC00226908BF25EAE5759342C4BF9B1AED1814
:1023FC001A344D451BD10020BDE8F087012352460D
:10240C0039463046C047013003D14FF0FF30BDE8AC
:10241C00F0870135C1E73020E11881F843005A1CE0
:10242C0094F845102244023382F84310C3E7012389
:10243C00224639463046C0470130E6D009F1010941
:10244C00D7E700002DE9F04317460A7E85B06E2AC7
:10245C00984606460C460C9B01F1430E00F0BC80DE
:10246C001AD8632A2ED00AD8002A00F0C880582A1D
:10247C0000F08A8004F1420584F842202AE0642AA4
:10248C0001D0692AF6D121681A6811F0800F23D087
:10249C00111D1960136827E0732A00F0B48008D866
:1024AC006F2A2AD0702AE5D10A6842F020020A600D
:1024BC0003E0752A21D0782ADCD178226F4984F880
:1024CC00452064E01A6801F14205111D196013687A
:1024DC0084F842300123A3E011F0400F02F1040113
:1024EC001960D7D0B2F90030002B03DA2D225B42F1
:1024FC0084F8432062490A2217E02068196810F01A
:10250C00800F03D0081D18600B6806E010F0400F18
:10251C0001F104001860F7D00B886F2A14BF0A224F
:10252C0008225749002084F843006568002DA560F7
:10253C00C0F29C80206820F004002060002B3FD16A
:10254C00002D40F095807546082A0BD12368DA07D8
:10255C0008D5236962689A42DEBF302305F8013C36
:10256C0005F1FF35AEEB05032361CDF800803B464A
:10257C0003AA21463046FFF7EDFE013055D14FF04E
:10258C00FF3005B0BDE8F08381F845203C49226856
:10259C00186812F0800F00F104051D6001D003686B
:1025AC0002E05506FBD50388D00744BF42F0200259
:1025BC0022601BB9226822F0200222601022B1E7AF
:1025CC007546B3FBF2F002FB1033CB5C05F8013D12
:1025DC0003460028F5D1B7E708681A6810F0800F99
:1025EC00496904D0101D18601368196007E010F0D9
:1025FC00400F02F1040018601368F6D01980002314
:10260C0075462361B1E71A68111D19601568002120
:10261C006268284600F036F808B1401B60606368B9
:10262C002361002384F843309FE723692A46394607
:10263C003046C0470130A2D023689B0707D5002540
:10264C0004F11909E368039A9B1A9D4205DBE068C3
:10265C00039B9842B8BF184693E701234A46394674
:10266C003046C04701308AD00135EBE7002BA7D1AB
:10267C000B7804F1420584F8423065E7AC2C000875
:10268C009B2C000810B5C9B202449042034601D1FC
:10269C00002010BD1C7801308C42F6D1184610BDBC
:1026AC0010B5431E0A44914200D110BD11F8014BE4
:1026BC0003F8014FF7E7884210B501EB020303D88A
:1026CC00421E99420CD110BD9842F9D28118D21AEF
:1026DC00D34200D110BD13F8014D01F8014DF7E7BD
:1026EC0011F8014B02F8014FEBE7000038B5054635
:1026FC00002943D051F8043C0C1F002BB8BFE41840
:10270C0000F0D4F81E4A1368104633B963601460A5
:10271C002846BDE8384000F0CAB8A3420BD921685E
:10272C006218934201BF1A685B685218226063609A
:10273C000460EDE713465A680AB1A242FAD9196847
:10274C005818A0420BD120680144581882421960D5
:10275C00DED110685268014419605A60D8E702D97A
:10276C000C232B60D4E7206821188A4201BF116822
:10277C0052680918216062605C60C9E738BD00BF0F
:10278C00DC04002070B5CD1C25F0030508350C2D9C
:10279C0038BF0C25002D064601DBA94203D90C23BA
:1027AC003360002070BD00F081F8234A1468214684
:1027BC0091B9224C23681BB9304600F067F82060B1
:1027CC002946304600F062F8431C26D10C233046D3
:1027DC00336000F06CF8E4E70B685B1B1AD40B2B2E
:1027EC000FD90B60CC18CD50304600F060F804F1D6
:1027FC000B00231D20F00700C31A1BD05A42E250D5
:10280C0070BD8C420BBF63684B681360636018BF6C
:10281C000C46E9E70C464968CAE7C41C24F00304DB
:10282C00A04205D0211A304600F030F80130CDD04E
:10283C002560D9E770BD00BFDC040020E004002057
:10284C00F8B5074614460E4621B91146BDE8F840C6
:10285C00FFF798BF22B9FFF749FF25462846F8BD78
:10286C0000F026F884420FD921463846FFF78AFF3C
:10287C0005460028F2D031462246FFF711FF3146BB
:10288C003846FFF733FFE9E73546E7E738B500236D
:10289C00054C054608462360FFF7B4FA431C02D1E9
:1028AC00236803B12B6038BDA80500207047704722
:1028BC0051F8040C0028A0F10400BCBF0B58C01840
:1028CC0070470000F8B500BFF8BC08BC9E467047C6
:0C28DC00F8B500BFF8BC08BC9E46704771
:1028E80002030405060708090A0B0C0D0E0F101049
:1028F80053544154453A00494E495449414C000A01
:102908004E6F7420495020494E495449414C0A00A1
:102918005354415254000A4E6F7420495020535466
:102928004152540A0047505253414354000A4E6FD3
:102938007420495020475052534143540A000A4ECC
:102948006F74204950205354415455530A00415440
:10295800480D0A0025730D0A002B435041533A00D5
:102968000A2B43504153206E6F742072656164795D
:102978002C206D757374206265202730270A002B80
:10298800435245473A00302C31000A2B4352454701
:10299800206E6F742072656164792C206D75737474
:1029A8002062652027302C31270A002B43474154E9
:1029B800543A000A2B4347415454206E6F742072D6
:1029C800656164792C206D757374206265202731E8
:1029D800270A005365742025732025730A004E6F5B
:1029E80074207265706C79200041540D0A0055619D
:1029F8007274206D6F64656D2077617320256C7526
:102A08002C20737769746368656420746F20353788
:102A18003630300A0041542B4950523D3537363054
:102A2800300D0A0041542B435041530041542B436D
:102A38005245473F0041542B434C49503D310041DA
:102A480054453000415453303D300041542B434DE0
:102A580045453D320041542B43474154543D3100D4
:102A680041542B43474154543F0041542B43495050
:102A78004D55583D300041542B434950535441540F
:102A880055530041542B435354543D22696E746589
:102A9800726E65742E6D74732E7275222C226D748D
:102AA80073222C226D7473220041542B43494943ED
:102AB800520041542B43494653520041542B43443E
:102AC8004E534346473D22382E382E382E38222C76
:102AD80022382E382E342E34220052494E470039DF
:102AE800383233313234353631004D79206E756DD8
:102AF8006265720A004445414354004D795F44457C
:102B08004143540A0041542B4349505348555400FB
:102B18004D792025730A0041542B434950535441A1
:102B280052543D22544350222C222573222C222514
:102B380064220D0A00434F4E4E454354204F4B002C
:102B480041542B43495053454E440D0A00434F4EC0
:102B58004E454354204641494C00434F4E4E454351
:102B680054204641494C0A00414C524541445920A1
:102B7800434F4E4E45435400414C52454144592021
:102B8800434F4E4E4543540A0041542B434950434A
:102B98004C4F53450D0A004572726F722C206E6FB0
:102BA8007420434F4E4E454354204F4B0A004F4B21
:102BB80020273E270A00257320485454502F312ED1
:102BC800310D0A486F73743A2025730D0A436F6EEE
:102BD8006E656374696F6E3A206B6565702D616C04
:102BE8006976650D0A0D0A2563002D2D2D2D2D2DD5
:102BF8002D2D2D2D2D0A004572726F722C206E6FAF
:102C08007420273E270A0053454E44204F4B00525C
:102C180045533A20004E6F206461746120616674E8
:102C280065722053454E44204F4B0A004572726F1F
:102C3800722C206E6F742053454E44204F4B203128
:102C48000A004572726F722C206E6F742053454EC5
:102C580044204F4B20320A006578616D706C652EF8
:102C6800636F6D00474554202F00000000000000EE
:102C78000000010203040607080900000000010221
:102C88000304232D302B2000686C4C0065666745D3
:102C980046470030313233343536373839414243CC
:102CA800444546003031323334353637383961627D
:082CB800636465660000000082
:042CC00031010008D6
:042CC4000D010008F6
:102CC80001000000100000000024F40010000020A3
:102CD80000000000000000000000000000000000EC
:102CE80000000000000000000000000000000000DC
:102CF80000000000000000000000000000000000CC
:102D080000000000000000000000000000000000BB
:102D180000000000000000000000000000000000AB
:102D2800000000000000000000000000000000009B
:0400000508001F5977
:00000001FF
