:020000040800F2
:1000000000500020011500089514000897140008FE
:10001000991400089B1400089D14000800000000BB
:100020000000000000000000000000009F14000815
:10003000A114000800000000A3140008A514000883
:100040004915000849150008491500084915000818
:100050004915000849150008491500084915000808
:1000600049150008491500084915000849150008F8
:1000700049150008491500084915000849150008E8
:1000800049150008491500084915000849150008D8
:1000900049150008491500084915000849150008C8
:1000A00049150008491500084915000849150008B8
:1000B00049150008491500084915000849150008A8
:1000C0004915000849150008491500084915000898
:1000D00049150008A9140008491500084915000829
:1000E00049150008491500084915000800000000DE
:1000F0000000000000000000000000000000000000
:0C01000000000000000000005FF808F1A3
:10010C0010B5054C237833B9044B13B10448AFF345
:10011C0000800123237010BD0C00002000000000A3
:10012C00A415000808B5034B1BB103490348AFF3F2
:10013C00008008BD0000000010000020A41500087D
:10014C0038B50E4B054618784FF47A73B3FBF0F3C1
:10015C000B4A1068B0FBF3F000F08CF8044658B969
:10016C000F2D09D8024629464FF0FF3000F042F817
:10017C00044B20461D6038BD012038BD0000002016
:10018C000800002004000020074A08B5136803206B
:10019C0043F01003136000F01BF80020FFF7D0FFB2
:1001AC0001F00CF9002008BD00200240034A044B6A
:1001BC0011681B780B441360704700BF640000206B
:1001CC0000000020014B1868704700BF640000203D
:1001DC00074A0002D36800F4E06023F4E0631B04D8
:1001EC001B0C43F0BF6343F400330343D3607047ED
:1001FC0000ED00E0174B30B5DC68C4F30224C4F109
:10020C000703251D042B28BF0423062D4FF00105E1
:10021C0098BF002405FA03F303F1FF3388BF033CB6
:10022C001940A14005FA04F4013C2240002842EA9E
:10023C0001024FEA0212AFBF00F16040064B00F022
:10024C000F00D2B2A5BFD2B200F561401A5480F8AB
:10025C00002330BD00ED00E014ED00E00123420965
:10026C0000F01F0003FA00F0014B43F82200704726
:10027C0000E100E00138B0F1807F0AD2F021064B9A
:10028C00064A586082F823100020072298601A60F2
:10029C0070470120704700BF10E000E000ED00E067
:1002AC00026803461168C06B21F00E0111601168E1
:1002BC0021F00101116001211A6C01FA02F2426075
:1002CC00002083F8211083F82000704790F821302B
:1002DC0010B5022B03D004238363012010BD0368E7
:1002EC001A6822F00E021A601A6822F001021A60D3
:1002FC00184A93421FD0143293421ED014329342A8
:10030C001DD0143293421DD0143293421DD014329E
:10031C0093420CBF4FF480134FF080730E4A0024AD
:10032C005360012380F82130436B80F820407BB16F
:10033C009847204610BD0123F0E71023EEE74FF459
:10034C008073EBE74FF48053E8E74FF48033E5E735
:10035C00184610BD08000240000002402DE9F74F7E
:10036C0000221646654BDFF8A4E1DFF8A4C14FF07C
:10037C0001080C6808FA06F808EA0404A0457FD1C5
:10038C004D68122D00F0AF8000F28880022D00F035
:10039C00A7807CD8002D00F08E80012D00F09E806F
:1003AC004FF00F09FF2C93BF824606F18045083DA4
:1003BC00D0F800B092BFB500D0F804B0AD0009FA87
:1003CC0005F82BEA080802FA05F588BF00F1040AC3
:1003DC0048EA0505CAF80050D1F804A01AF0805F6D
:1003EC004ED0474D464FAD6926F0030845F0010548
:1003FC00BD61BD6908F1804805F00105019508F55E
:10040C00803806F0030B019D4FEA8B0BD8F808508F
:10041C0009FA0BF925EA09093A4DA84268D005F505
:10042C008065A84266D005F58065A84264D005F5C4
:10043C008065A8420CBF0325042505FA0BF545EA97
:10044C000905C8F808501D681AF4803F14BF2543ED
:10045C00A5431D605D681AF4003F14BF2543A543F6
:10046C005D609D681AF4801F14BF2543A5439D60F1
:10047C00DD681AF4001F14BF2C4325EA0404DC6069
:10048C000136102E7FF473AF03B0BDE8F08F032D4F
:10049C0022D0112D84D1CA68043281E71A4FBD4293
:1004AC0009D012D8DFF86C904D4504D009F580398D
:1004BC004D457FF475AF8A68C2B1012A0CBFC0F8F4
:1004CC001080C0F8148008226AE77545F3D06545A2
:1004DC00F1D0DFF84490EBE7002261E7CA685FE7F0
:1004EC00CA6808325CE7CA680C3259E7042257E73D
:1004FC000025A2E70125A0E702259EE700040140A4
:10050C0000100240000801400000211000003110D2
:10051C000000321000001110000022100AB101611D
:10052C0070470904FBE7C3685940C160704700007D
:10053C0003682DE9F341DB07054610D42B689F07B0
:10054C005ED42B68190700F195802B685A0700F1CF
:10055C00BF80EA69002A40F02D81002014E0904C05
:10056C00636803F00C03042B07D0636803F00C03DF
:10057C00082B0CD16368DE0309D523689C03DDD5F9
:10058C006B68002BDAD1012002B0BDE8F0816B68FA
:10059C00B3F5803F10D1236843F480332360FFF719
:1005AC0011FE064623689803C8D4FFF70BFE801B88
:1005BC006428F7D90320E7E79BB9236823F4803339
:1005CC002360236823F480232360FFF7FBFD06469A
:1005DC0023689903B2D5FFF7F5FD801B6428F7D982
:1005EC00E8E7B3F5A02F236803D143F480232360FD
:1005FC00D1E723F480332360236823F48023CDE7F1
:10060C00674C636813F00C0F07D0636803F00C039E
:10061C00082B10D16368DA030DD423689B0702D52D
:10062C002B69012BAFD123686A6923F0F80343EAE5
:10063C00C203236085E72A695A4B6AB101221A600A
:10064C00FFF7C0FD064623689F07ECD4FFF7BAFD01
:10065C00801B0228F7D9ADE71A60FFF7B3FD0646F9
:10066C00236898077FF56DAFFFF7ACFD801B022860
:10067C00F6D99FE7AA694A4C4B4BDAB101221A60B2
:10068C00FFF7A0FD0646636A9B070DD54FF4FA529F
:10069C00464B1B68B3FBF2F3019300BF019B5A1E40
:1006AC000192002BF9D150E7FFF78CFD801B02283B
:1006BC00E9D97FE71A60FFF785FD0646636A9F0755
:1006CC007FF543AFFFF77EFD801B0228F6D971E75B
:1006DC00334CE369D80024D40127E36943F08053F9
:1006EC00E361E36903F080530093009B304E336861
:1006FC00D90518D5EB68012B26D1236A43F00103E9
:10070C002362FFF75FFD41F288368046236A9B0720
:10071C003FD5002F3FF41DAFE36923F08053E36115
:10072C0017E70027E2E7336843F480733360FFF781
:10073C0049FD80463368DA05DCD4FFF743FDA0EBB6
:10074C0008006428F6D935E7ABB9236A41F288383A
:10075C0023F001032362236A23F004032362FFF7CF
:10076C0031FD0646236A9807D3D5FFF72BFD801B76
:10077C004045F7D91EE7052B236A03D143F0040348
:10078C002362BAE723F001032362236A23F00403F4
:10079C00B6E7FFF717FDA0EB0800B042B6D909E7A2
:1007AC000010024000004242800442420800002037
:1007BC0000700040224C636803F00C03082B3FF4DC
:1007CC00E2AE00231F4E022A33602BD1FFF7FAFC56
:1007DC000746236899011FD42B6AB3F5803F05D1D6
:1007EC006268A96822F400320A436260696A62682E
:1007FC000B4322F474121343636001233360FFF73D
:10080C00E1FC054623689A013FF5A7AEFFF7DAFC39
:10081C00401B0228F6D9CDE6FFF7D4FCC01B0228FA
:10082C00D7D9C7E6FFF7CEFC054623689B017FF5B9
:10083C0094AEFFF7C7FC401B0228F6D9BAE600BFFE
:10084C00001002406000424230B5194B87B002AC38
:10085C0003F11005224618685968083303C2AB42ED
:10086C001446F7D101238DF80430022311498DF879
:10087C0005304B6803F00C02082A17D1C3F38342EE
:10088C0006A80244DB0312F8102C0CD54B680A485E
:10089C00C3F34043504306AA134413F8143CB0FB73
:1008AC00F3F007B030BD05485043FAE70248F8E7CB
:1008BC00BC1500080010024000127A0000093D002F
:1008CC00544A2DE9F0411368054603F007038B42A7
:1008DC000E462AD329688C0734D4CA0747D44D4A0C
:1008EC00136803F007039E42C0F082802A684A4CCA
:1008FC0012F0040F40F08780130706D563682A694D
:10090C0023F4605343EAC2036360FFF79DFF6368FF
:10091C00424AC3F30313D35CD840414B1860002008
:10092C00FFF70EFC0020BDE8F081136823F00703ED
:10093C000B431360136803F007039942CAD00120DC
:10094C00BDE8F081344B11F0040F1EBF5A6842F41D
:10095C00E0625A60080742BF5A6842F460525A601B
:10096C005A68A86822F0F00202435A60B5E76A6838
:10097C00294C012A23681CD113F4003FDFD0636893
:10098C0041F2883823F0030313436360FFF71AFC2A
:10099C006B680746012B14D1636803F00C03042B1E
:1009AC009DD0FFF70FFCC01B4045F5D90320BDE8D7
:1009BC00F081022A02D113F0007FDFE713F0020F5F
:1009CC00DCE7022B0FD1636803F00C03082B86D0F5
:1009DC00FFF7F8FBC01B4045F5D9E7E7FFF7F2FB43
:1009EC00C01B4045E2D8636813F00C0FF6D176E7D4
:1009FC00136823F0070333431360136803F00703F2
:100A0C009E429CD172E76368E96823F4E0630B4370
:100A1C00636071E70020024000100240A516000838
:100A2C0008000020044B054A5B68C3F30223D35C27
:100A3C00034A1068D840704700100240B5160008F1
:100A4C0008000020044B054A5B68C3F3C223D35C47
:100A5C00034A1068D840704700100240B5160008D1
:100A6C00080000200368DA6822F49072DA605A6990
:100A7C0022F001025A61202380F83A3070470000BE
:100A8C002DE9F0470568C2682B69016923F44053CE
:100A9C0013432B618368EA680B43416922F4B0521B
:100AAC0022F00C020B431343EB606B69826923F455
:100ABC00407313436B61404B81469D424FF01904C8
:100ACC0046D1FFF7BFFF04FB00F3D9F804604FF0E9
:100ADC006408B600B3FBF6F3B3FBF8F31E01FFF7A3
:100AEC00B1FF6043D9F804309B00B0FBF3F7FFF77C
:100AFC00A9FF6043D9F804309B00B0FBF3F3B3FBC0
:100B0C00F8F308FB13731B013233B3FBF8F303F058
:100B1C00F007FFF797FF6043D9F804209200B0FB71
:100B2C00F2FAFFF78FFF6043D9F804309B00B0FB5B
:100B3C00F3F3B3FBF8F308FB13A31B013233B3FB42
:100B4C00F8F303F00F033B433344AB60BDE8F0878D
:100B5C00FFF768FF04FB00F3D9F804604FF064085A
:100B6C00B600B3FBF6F3B3FBF8F31E01FFF75AFF25
:100B7C006043D9F804309B00B0FBF3F7FFF752FF4A
:100B8C006043D9F804309B00B0FBF3F3B3FBF8F3EC
:100B9C0008FB13731B013233B3FBF8F303F0F007BC
:100BAC00FFF740FF6043D9F804209200B0FBF2FA43
:100BBC00FFF738FFB7E700BF00380140F8B504462F
:100BCC000E4617461D4621680B6836EA030301D111
:100BDC000020F8BD6B1CF7D095B923680320DA68A8
:100BEC0022F4D072DA605A6922F001025A61202391
:100BFC0084F8393084F83A30002384F83830F8BD62
:100C0C00FFF7E0FAC01B8542DDD2E6E710B50446DB
:100C1C0040B390F8393003F0FF021BB980F838204C
:100C2C0000F0EEFB2423226884F83930D368204688
:100C3C0023F40053D360FFF723FF236800201A69C5
:100C4C0022F490421A615A6922F02A025A61DA6837
:100C5C0042F40052DA602023E06384F8393084F8DF
:100C6C003A3010BD012010BD2DE9F0411F4690F81F
:100C7C0039300446202B0D4690464ED1002949D0E0
:100C8C00002A47D090F83830012B46D0012380F849
:100C9C0038300023C363212380F83930FFF792FAF0
:100CAC000646A4F82480A4F82680E38C9BB26BB98A
:100CBC003B46324640212046FFF780FFA8B920234F
:100CCC0084F8380084F83930BDE8F081E38C324682
:100CDC00013B9BB2E384A3688021B3F5805F20467F
:100CEC003B460ED1FFF76AFF10B10320BDE8F0813F
:100CFC002B882268C3F308035360236943B9023578
:100D0C00D3E7FFF75BFF0028EFD123682A785A60FE
:100D1C000135CAE70120BDE8F0810220BDE8F08171
:100D2C0090F83930202B18D1A9B1A2B190F83830F5
:100D3C00012B12D0C284828400232122016201681B
:100D4C00C36380F83920CA6880F8383042F08002DA
:100D5C00CA6018467047012070470220704790F80F
:100D6C003A30202B20D1E9B1E2B190F83830012B88
:100D7C001AD0C285828500232222C36380F83A20D0
:100D8C0002688162D16880F8383041F48071D1609A
:100D9C005169184641F001015161D16841F02001BF
:100DAC00D16070470120704702207047036810B56E
:100DBC00DA68044622F49072DA605A6922F0010271
:100DCC005A615A69520609D55A69406B22F04002A1
:100DDC005A6118B100234363FFF762FA0020202305
:100DEC00E08584F83A3010BD704790F83A3010B571
:100DFC00222B36D183680169B3F5805F0268836A60
:100E0C0023D15268E9B9C2F3080223F8022B83629A
:100E1C00C48D013CA4B2C4858CB90368DA6822F095
:100E2C002002DA60DA6822F48072DA605A6922F001
:100E3C0001025A61202380F83A3000F089F9002031
:100E4C0010BDD2B223F8012BE1E721B9591C52682D
:100E5C0081621A70DCE75268591C816202F07F02D1
:100E6C00F7E7022010BD0000036870B51A6804464D
:100E7C001607D9685D6907D196065AD58D0658D5DF
:100E8C00BDE87040FFF7B1BF15F0010502D111F4B8
:100E9C00907F4ED0D60705D5C80542BFE36B43F013
:100EAC000103E363530704D51DB1E36B43F0020365
:100EBC00E363960704D51DB1E36B43F00403E363CE
:100ECC00100704D51DB1E36B43F00803E363E36B38
:100EDC00002B70D0920604D58B0602D52046FFF766
:100EEC0084FF236820465D69E26B160702D415F077
:100EFC0040051AD0FFF7B6FD23685A69550610D580
:100F0C005A69606B22F040025A6150B12A4B43631C
:100F1C00FFF7DCF900284ED0606BBDE87040436BE6
:100F2C001847204600F03EF970BD00F03BF9E56330
:100F3C0070BD100627D50E0625D594F83920212A28
:100F4C0039D1A268B2F5805F226A17D11188C1F33A
:100F5C0008015960216979B902322262E28C013AA6
:100F6C0092B2E2843ABBDA6822F08002DA60DA6884
:100F7C0042F04002DA6070BD0132EEE7511C216292
:100F8C0012785A60EAE755060CD548060AD5DA6895
:100F9C00204622F04002DA60202384F83930FFF733
:100FAC0023FF70BDD20606D5CB0604D52046BDE87E
:100FBC00704000F08BB870BDC90F000808B5002355
:100FCC00406AC385C38400F0EDF808BD704700008B
:100FDC00036810B5DA68044622F4F072DA605A69D4
:100FEC00006B22F001025A6128B15A6912F080029A
:100FFC0018BF1F4A4263616B29B15A6912F0400253
:10100C0018BF1C4A4A635A6912061DD40123226870
:10101C005169490627D55169606B21F04001516136
:10102C0008B3FFF753F900B30022636B5A63002334
:10103C00E384E385E3632023204684F8393084F885
:10104C003A30FFF7C3FF10E05A6922F080025A6170
:10105C000028DBD0FFF73AF918B10022236B5A6352
:10106C00D4E70346D3E7002BE1D1002010BD00BF2D
:10107C00AD1000088510000808B50023406A426BCB
:10108C005363026B0AB1526B4AB9C384C385C36301
:10109C00202380F8393080F83A30FFF797FF08BDED
:1010AC0008B50023406A026B5363426B0AB1526B62
:1010BC004AB9C384C385C363202380F8393080F8D0
:1010CC003A30FFF783FF08BDC06B704713B51B4C5C
:1010DC0084422AD122681A49D36823F01003D360C2
:1010EC00E28D184BC2F13C0292B21A80FFF718FE47
:1010FC0001281CD14FF47A73302213492046FFF794
:10110C00B3FD0E48FFF752FE0023019323680C49F0
:10111C001A680A4801925A680192019ADA6842F0F8
:10112C001002DA603C22FFF71AFE02B010BD022852
:10113C00E7D14FF47A7309220449DFE76C000020F1
:10114C0028000020680000205D1600088E1600089C
:10115C00114B13B5984204461CD102680F49D36851
:10116C0023F01003D3600C22FFF7DAFD2046FFF7C3
:10117C001DFE00230193236809491A682046019239
:10118C005A680192019ADA6842F01002DA603C2245
:10119C00FFF7E5FD02B010BD6C00002098160008AA
:1011AC002800002030B5364C85B084422DD1226801
:1011BC004FF40051D368334823F01003D360FFF78A
:1011CC00B2F92046FFF780FF05462046FFF700FFE7
:1011DC00681E0F2819D8DFE800F0081A182A18180A
:1011EC00183A181818181818184A4FF47A731B2242
:1011FC0025492348FFF738FD002322680093116826
:10120C00009152680092009AE36305B030BD4FF430
:10121C007A731A221D491A48FFF726FD002322680B
:10122C0001931168019152680192019AECE74FF415
:10123C007A731A2216491248FFF716FD002322680A
:10124C0002931168029152680292029ADCE74FF401
:10125C007A731C220F490A48FFF706FD0023226807
:10126C0003931168039152680392039ACCE74FF4ED
:10127C007A73212208490248FFF7F6FC0023C3E7E2
:10128C006C00002000100140CC150008E815000887
:10129C00031600081E1600083B16000810B590B087
:1012AC002822002106A800F06FF90021142201A8C1
:1012BC0000F06AF94FF480330122022407930E9355
:1012CC004FF4E01306A806920A920F930D94FFF7C1
:1012DC002FF90F234FF4806201930023214601A8BC
:1012EC000294039304920593FFF7EAFA10B010BD31
:1012FC0080B588B0FEF748FFFFF7D0FF1022002121
:10130C000DEB020000F040F9274B4FF400519A69A5
:10131C00264842F010029A619A69002502F01002E8
:10132C000192019A9A694FF4005642F020029A6198
:10133C009A69012702F020020292029A9A691C4CC7
:10134C0042F004029A619B69002203F004030393A8
:10135C00039BFFF7E3F8022304A9144807930496B0
:10136C0005970695FEF7FAFF4FF4E133114A204634
:10137C0084E80C000C23A5606361E5602561A56120
:10138C00E561FFF743FC22680B49D368204643F024
:10139C001003D3603C22FFF7E2FC3A463146034887
:1013AC00FFF7BCF8FEE700BF001002400010014040
:1013BC006C00002000380140280000200E4B82B049
:1013CC009A6942F001029A619A6902F00102009254
:1013DC00009ADA6942F08052DA61DB69074A03F05D
:1013EC0080530193019B536823F0E06343F0007337
:1013FC00536002B0704700BF001002400000014073
:10140C0010B5044686B01022002102A800F0BCF8EA
:10141C0022681B4B9A4230D103F558439A6902A9B2
:10142C0042F480429A619A69164802F48042009212
:10143C00009A9A69002442F004029A619B6903F0B5
:10144C0004030193019B4FF4007302930223039353
:10145C0003230593FEF782FF4FF4806302A909482A
:10146C00029303940494FEF779FF2520224621462B
:10147C00FEF7C0FE2520FEF7F1FE06B010BD00BF42
:10148C0000380140000801407047FEE7FEE7FEE728
:10149C00FEE7704770477047FEF788BE0148FFF7BC
:1014AC00E3BC00BF6C0000200F4B1A6842F0010235
:1014BC001A6059680D4A0A405A601A6822F0847200
:1014CC0022F480321A601A6822F480221A605A6858
:1014DC0022F4FE025A604FF41F029A604FF0006231
:1014EC00034B9A60704700BF001002400000FFF8E9
:1014FC0000ED00E0002103E00B4B5B58435004313E
:10150C000A480B4B42189A42F6D30A4A02E00023CF
:10151C0042F8043B084B9A42F9D3FFF7C5FF00F0A1
:10152C000FF8FFF7E5FE7047C81600080000002012
:10153C000C0000200C000020AC000020FEE7000096
:10154C0070B500250C4E0D4CA41BA410A54209D15E
:10155C0000F022F800250A4E0A4CA41BA410A54248
:10156C0005D170BD56F8253098470135EEE756F891
:10157C00253098470135F2E7C0160008C016000860
:10158C00C0160008C416000803460244934200D15A
:10159C00704703F8011BF9E7F8B500BFF8BC08BCAD
:1015AC009E467047F8B500BFF8BC08BC9E46704715
:1015BC0002030405060708090A0B0C0D0E0F101088
:1015CC004552525F43616C6C62636B202D205061FD
:1015DC0072697479206572726F720A004552525F9B
:1015EC0043616C6C62636B202D204E6F69736520B8
:1015FC006572726F720A004552525F43616C6C6285
:10160C00636B202D204672616D65206572726F725E
:10161C000A004552525F43616C6C62636B202D2053
:10162C004F76657272756E206572726F720A004524
:10163C0052525F43616C6C62636B202D20444D41B0
:10164C00207472616E73666572206572726F720AB5
:10165C000048414C5F4552524F52202D2072785F0A
:10166C0062756666203D3D204E554C4C206F7220B5
:10167C0072785F627566665F6C656E203D3D2030EA
:10168C000A0048414C5F425553590A0046756C6C30
:10169C00206275666665720A00000000000000009A
:1016AC000001020304060708090000000001020300
:0416BC000400000026
:0416C00031010008EC
:0416C4000D0100080C
:0C16C800010000001000000000A24A0415
:0400000508001501D9
:00000001FF
