:020000040800F2
:1000000000A000209D360008A52F0008A72F00089B
:10001000A92F0008AB2F0008AD2F0008000000003A
:10002000000000000000000000000000AF2F0008EA
:10003000B12F000800000000B32F0008B52F000802
:10004000ED360008ED360008ED360008ED36000804
:10005000ED360008ED360008ED360008ED360008F4
:10006000ED360008ED360008ED360008ED360008E4
:10007000ED360008ED360008ED360008ED360008D4
:10008000ED360008ED360008ED360008ED360008C4
:10009000B92F0008ED360008ED360008ED360008EF
:1000A000ED360008ED360008ED360008ED360008A4
:1000B000ED360008ED360008ED360008ED36000894
:1000C000ED360008ED360008ED360008ED36000884
:1000D000ED360008C52F0008ED360008ED360008A3
:1000E000ED360008ED360008ED360008ED36000864
:1000F000ED360008ED360008ED360008ED36000854
:10010000000000000000000000000000ED360008C4
:10011000ED360008ED360008ED360008ED36000833
:10012000ED360008ED360008ED360008ED36000823
:10013000ED360008ED360008000000000000000069
:10014000ED360008ED360008ED360008000000002E
:10015000000000000000000000000000000000009F
:100160000000000000000000ED360008ED36000839
:10017000ED36000800000000000000000000000054
:0801800000000000ED3600084C
:1001900010B5054C237833B9044B13B10448AFF3C1
:1001A00000800123237010BDC40100200000000066
:1001B000C03F000808B5034B1BB103490348AFF328
:1001C000008008BD00000000C8010020C03F0008FA
:1001D000034613F8012B002AFBD1181A0138704787
:1001E00001F0FF01102A2BDB10F0070F08D010F8E8
:1001F000013B013A8B422DD010F0070F42B3F6D1EC
:10020000F0B441EA012141EA014122F007047FF004
:1002100000070023F0E80256083C85EA010586EA5B
:10022000010685FA47F5A3FA87F586FA47F6A5FA97
:1002300087F68EB9EED1F0BC01F0FF0102F00702A3
:1002400032B110F8013B013A83EA010313B1F8D14E
:100250000020704701387047002D06BF354603382F
:10026000073815F0010F07D1013015F4807F02BF68
:10027000013015F4C03F0130F0BC0138704700BFB9
:1002800038B50E4A0E4B054618784FF47A73B3FB17
:10029000F0F31068B0FBF3F000F0A0F8044658B992
:1002A0000F2D09D8024629464FF0FF3000F056F8CE
:1002B000044B20461D6038BD012038BD18010020C8
:1002C0000000002004000020074A08B5136843F02E
:1002D00010031360032000F02FF80020FFF7D0FF79
:1002E00002F00AFE002008BD00200240034A044B31
:1002F00011681B780B441360704700BF1004002086
:1003000000000020014B1868704700BF1004002057
:1003100038B50446FFF7F6FF631C1CBF054B1B787E
:10032000054618BFE418FFF7EDFF401B8442FAD8DA
:1003300038BD00BF00000020074AD36823F4E06303
:100340001B041B0C43F0BF63000243F4003300F4B2
:10035000E0600343D360704700ED00E0174B30B519
:10036000DC68C4F30224C4F10703251D042B28BF55
:100370000423062D4FF0010505FA03F303F1FF33C3
:100380008CBF033C00241940A14005FA04F4013C51
:100390002240002842EA01024FEA0212AFBF00F1F8
:1003A000604000F00F00064BD2B2A5BF00F56140DF
:1003B000D2B21A5480F8002330BD00BF00ED00E037
:1003C00014ED00E04209012300F01F0003FA00F0E1
:1003D000014B43F82200704700E100E00138B0F122
:1003E000807F0AD2064B074A5860F02182F823101A
:1003F0000020072298601A6070470120704700BFF4
:1004000010E000E000ED00E090F82120022A10B595
:1004100003D004228263012010BD0268C46B1168FE
:10042000436B21F00E011160116821F00101116090
:10043000026C012101FA02F26260002480F82110AE
:1004400080F8204013B19847204610BD184610BDD3
:100450002DE9F74FD1F80080DFF874915A4A002354
:1004600038FA03F402D103B0BDE8F08F012404FA96
:1004700003FA18EA0A0500F09C804C6824F0100B7F
:10048000BBF1020F14D14FEAD30E00EB8E0E03F036
:10049000070CDEF820604FEA8C0C0F2707FA0CF7E8
:1004A00026EA07070E6906FA0CF63E43CEF82060EE
:1004B0004FEA430C0327066807FA0CF7FF4304F0E2
:1004C000030E3E400EFA0CFE0BF1FF3B4EEA060611
:1004D000BBF1010F066011D8866806EA070BCE68EB
:1004E00006FA0CFE4EEA0B068660466826EA0A0A01
:1004F000C4F300169E4046EA0A064660C6683740C6
:100500008E6806FA0CF63743E600C76051D5D9F875
:10051000186046F00106C9F81860D9F8186023F091
:10052000030707F1804706F0010607F580370196BB
:1005300003F0030C019EBE684FEA8C0C4FF00F0EC7
:100540000EFA0CFEB0F1904F26EA0E0E33D01F4E7D
:10055000B04232D006F58066B04230D006F58066F3
:10056000B0422ED006F58066B04214BF05260426A0
:1005700006FA0CF646EA0E06BE601668EF4314F45F
:10058000803F0CBF3E402E431660566814F4003F77
:100590000CBF3E402E435660966814F4801F0CBF7B
:1005A0003E402E439660D668A40254BF3E402E4380
:1005B000D660013354E70026DAE70126D8E70226A1
:1005C000D6E70326D4E700BF00040140000400483A
:1005D000001002400AB1816170478162704738B5EE
:1005E000044600284DD090F8713303F0FF021BB988
:1005F00080F8702302F0C2FE03230021606884F8B3
:1006000071330A4604F128030125814203F11C03DA
:100610001BD1002004F5E6720346814202F11C0260
:1006200021D1226801214FF43F40A2F84010A2F8E6
:100630004030A2F84430A2F85030A2F8400084F8CC
:100640002430002084F8711338BD03F81C1C03F813
:100650001B5C03F8192C43F8102C43F80C2C43F8BE
:10066000082C0131D1E702F81C0C02F81B3C02F8FF
:10067000193C42F8103C42F80C3C42F8083C01306E
:10068000CBE7012038BD08B5012102F0B4FF0020FE
:1006900008BD90F87033012B0FD0012380F8703320
:1006A00041B903688022A3F84C20002380F87033FE
:1006B0001846704780F82410F7E7022070470000C2
:1006C000F0B54CB2002C01F07F064FF01C05B5BF11
:1006D00005FB060105FB0101283101F5E671E40F78
:1006E0000E704C70CB7090F87033CA60012B00F024
:1006F0007A81012380F87033CD780C780368032D5C
:1007000010D8DFE805F0026B555F24B233F82450AF
:1007100025F4EC4525F070052D042D0C45F40075ED
:1007200023F824500D782FB240F60F7433F8276069
:1007300045F40045264045F08005354323F8275011
:100740008D7A0F78002D40F09B804D788E88002D9B
:1007500050D0B3F85050ADB205EBC70503EB4505DB
:1007600026F00106A5F800640D7833F8252052061E
:1007700008D533F82520144044F4004444F0C00464
:1007800023F82540097833F8212022F4E04222F0B2
:1007900040021204120C82F0200242F4004242F0A5
:1007A000800223F82120002380F870331846F0BD22
:1007B00024B233F8245025F4EC4525F070052D04BF
:1007C0002D0CADE724B233F8245025F4EC4525F088
:1007D00070052D042D0C45F4C065A1E724B233F853
:1007E000245025F4EC4525F070052D042D0C45F41E
:1007F000806595E7B3F850500824ADB214FB075557
:10080000043503F5806E26F001062EF81560B3F866
:1008100050500E78ADB214FB06543E2A04F1060483
:1008200028D95509D70608BF05F1FF356F4A08BF1B
:10083000ADB242EA85252EF814500C7833F8242006
:1008400052040BD533F8242022F0F0021205120DC9
:1008500042F4404242F0800223F82420097833F821
:10086000212022F4804222F070021204120C82F441
:10087000405292E75508D60748BF0135AD02DAE786
:100880003DB233F8252022F4F8721205120D42F41D
:10089000014242F0800223F82520B3F85060B7B23D
:1008A0000E78082212FB0676CF8803F5806527F0C4
:1008B000010725F81670B3F850600F78B6B212FB36
:1008C00007620E89043226F0010625F812600A78C4
:1008D0004D7812B2002D45D133F822506F0408D55F
:1008E00033F822502C4044F4404444F0800423F870
:1008F00022400C7833F8242056060BD533F82420F8
:1009000022F0F0021205120D42F4004242F0C00241
:1009100023F824200C7833F8242022F0F00212056A
:10092000120D42F4004242F0C00223F824200D7858
:1009300033F8252022F4804222F070021204120CB7
:1009400082F4405248F28004224323F8252009789B
:1009500033F8212022F4E04222F040021204120C6B
:1009600022431EE733F822506D0408D533F8225095
:100970002C4044F4404444F0800423F822400C7896
:1009800033F8242052060BD533F8242022F0F0024D
:100990001205120D42F4004242F0C00223F8242056
:1009A0000C7833F8242022F0F0021205120D42F4E4
:1009B000404242F0800223F824200D7833F82520AD
:1009C00022F4E04222F040021204120C48F28004A9
:1009D000224323F82520097833F8212022F480428D
:1009E00022F07002BAE70220F0BD00BF0080FFFFD6
:1009F0004BB2002B30B54FF01C0201F07F04B5BFA5
:100A000002FB040102FB0101283101F5E671DB0F55
:100A10000C704B7090F87033012B00F0D4800123E0
:100A200080F870330A788D7A4C78036812B2002D02
:100A30003CD11CB333F8224064060BD533F8224076
:100A400024F0F0042405240D44F4004444F0C004D0
:100A500023F82240097833F8212022F4E04222F0E2
:100A600040021204120C42F4004242F0800223F8C9
:100A70002120002380F87033184630BD33F822401F
:100A800065040BD533F8224024F0F0042405240D2E
:100A900044F4404444F0800423F82240097833F8B9
:100AA000212022F4804222F07002DAE7002C46D1A5
:100AB00033F8224064040BD533F8224024F0F004CC
:100AC0002405240D44F4404444F0800423F82240DB
:100AD0000C7833F8242055060BD533F8242022F067
:100AE000F0021205120D42F4004242F0C00223F857
:100AF00024200C7833F8242022F0F0021205120D85
:100B000042F4004242F0C00223F824200D7833F86A
:100B1000252022F4804222F070021204120C48F2C6
:100B20008004224323F82520097833F8212022F479
:100B3000E04222F040021204120C224397E733F8FD
:100B4000224064040BD533F8224024F0F00424053D
:100B5000240D44F4404444F0800423F822400C78EF
:100B600033F8242052060BD533F8242022F0F0026B
:100B70001205120D42F4004242F0C00223F8242074
:100B80000C7833F8242022F0F0021205120D42F402
:100B9000404242F0800223F824200D7833F82520CB
:100BA00022F4E04222F040021204120C48F28004C7
:100BB000224323F82520097833F8212022F48042AB
:100BC00022F07002B7E7022030BD000070B501F0DE
:100BD0007F011C2404FB01050026C5F8DC21D5F8A3
:100BE000D821C5F8E031934286BF9B1AC5F8E031A1
:100BF0001A4604FB0103C5F8E46185F8CD6185F868
:100C0000CC1198BFC5F8E06193F8D651046885BB54
:100C1000B4F8505093F8CC31ADB205EBC3033E2A83
:100C200003F1060304F5806635D9C2F34F15D206E9
:100C300008BF05F1FF351C4A08BFADB242EA852561
:100C400026F813501C2303FB010090F8CC2134F844
:100C5000223023F4804323F070031B041B0C83F425
:100C6000405343F4004343F0800324F82230002033
:100C700070BD93F8CD51002DCAD0012DE2D1B4F84A
:100C8000505093F8CC31ADB205EBC30304EB4303F2
:100C9000A3F80C24D6E7C2F34F05D20744BF0135B1
:100CA000ADB2AD02CCE700BF0080FFFF1C2301F016
:100CB0007F0103FB0101B1F8E4017047F8B501F0D1
:100CC0007F071C2404FB070105464E6BCB63B34230
:100CD00088BF9B1B8A634FF001004FF0000204FBAA
:100CE00007540A6481F8290081F828708EBFCB630D
:100CF000CA631E4694F83230B6B24BBB3346A28D5F
:100D0000A16B286800F070FB2A6894F82810B2F8EC
:100D100050309BB203EBC10302EB4303A3F804641E
:100D20001C2303FB07572A6897F8281032F8213054
:100D300023F4E04323F040031B041B0C83F0300337
:100D400043F4004343F0800322F821300020F8BD33
:100D500094F82830286830F823305B064CBF228E88
:100D6000E28D1C2404FB07543346A16B00F03CFBCE
:100D700094F829302A6873B994F8281032F8213091
:100D800023F0F0031B051B0D43F4004343F0C003A5
:100D900022F82130C4E7012BC2D194F8281032F890
:100DA000213023F0F0031B051B0D43F4404343F0B7
:100DB0008003EDE70368B3F844301B042DE9F347E3
:100DC000044672D42368B3F8442057050AD54FF679
:100DD000FF322046A3F8442002F019FB00212046F0
:100DE000FFF757FC2368B3F84420520444BF4BF686
:100DF000FF72A3F84420B3F84420970444BF4DF693
:100E0000FF72A3F84420B3F84420D60417D5B3F8F2
:100E1000402022F004021204120CA3F84020B3F880
:100E2000402022F008021204120CA3F840202046B1
:100E300002F00AFB23684EF6FF72A3F844202368F1
:100E4000B3F84420150518D5B3F8402092B242F00B
:100E50000802A3F840204FF2FF72A3F84420B3F831
:100E6000402092B242F00402A3F84020B3F844308C
:100E7000D80402D4204602F0D7FA2368B3F84420FD
:100E8000910506D54FF6FF52A3F84420204602F004
:100E9000BAFA2368B3F84420D20544BF4FF6FF6284
:100EA000A3F8442002B0BDE8F0870023C64FDFF866
:100EB0001C83DFF81C93ADF806302068B0F844308E
:100EC0009BB21904ADF804307FF57CAFBDF8046027
:100ED00016F00F0640F0AA80BDF80410038811F048
:100EE00010019BB226D13B400380B0F8503094F8FB
:100EF00028209BB203EBC20300EB4300A26BB0F8C7
:100F00000434C3F3090323641344A363204602F0AB
:100F100072FA94F82430002BCFD0E26B002ACCD1A7
:100F200094F82430216843F08003A1F84C3084F811
:100F30002420C2E7ADF80630BDF806301E051FD5E7
:100F4000B0F8503094F8CC219BB203EBC20300EB15
:100F50004303B4F8D021B3F80C34C3F30903C4F845
:100F6000E43104F55D7100F052FA2268138823F031
:100F700070031B051B0D1380204602F02DFA9CE721
:100F8000BDF806301D0498D5038823F070031B05B7
:100F90001B0D0380B0F8503094F8CC219BB203EBCA
:100FA000C20300EB4303B3F80C34C3F30903C4F8E2
:100FB000E43163B1B4F8D021D4F8DC1100F027FAA1
:100FC000D4F8DC31D4F8E4211344C4F8DC31002136
:100FD000204602F007FA2268D4F8D801B2F850107F
:100FE0003E2889B201F1060102F5806516D9C0F3E9
:100FF0004F13C00604BF03F1FF339BB249EA8323BA
:1010000025F8113013889BB203EA080383F4405398
:1010100043F4004343F0800313804EE7C0F34F03D3
:10102000C60744BF01339BB29B02E9E70FFA86FA79
:1010300030F82A309BB2ADF80630BDF806301D04FA
:1010400040D530F82A3023F070031B051B0D1C21FE
:1010500020F82A3001FB064191F8D631002B73D1DC
:10106000B0F8503091F8CC219BB203EBC20300EBF7
:101070004303B3F80C54C5F3090535B1B1F8D021D9
:10108000D1F8DC112B4600F0C2F91C2101FB06410E
:10109000D1F8E431D1F8DC212B44C1F8E431D1F8A6
:1010A000E0312A44C1F8DC2123B1D1F8D8018542CE
:1010B00080F084801C2303FB0643204693F8CC1168
:1010C00002F090F9BDF8063018067FF5F6AE2068FC
:1010D00030F82A309BB23B401C2120F82A3001FB1B
:1010E000064191F83230002B74D1B0F8503091F8AD
:1010F00028209BB203EBC20300EB4303B3F8043494
:10110000C3F309030B641BB18A8D896B00F06CF982
:1011100022681C2101FB0646B2F8503096F82810D0
:101120009BB203EBC10302EB43032046B3F8042454
:10113000B36BC2F3090232641A44F36BB263002B3F
:101140007FD102F058F9B8E691F8CC512BB230F8C3
:101150002330B0F8502013F4804F92B24FF00803C0
:1011600013FB052300EB43031ED0B3F80454C5F36F
:10117000090535B1B1F8D2212B46D1F8DC1100F0C8
:1011800046F91C2303FB0643226893F8CC1132F87E
:10119000213023F0F0031B051B0D43F4004343F003
:1011A000C00322F8213070E7B3F80C54C5F30905E9
:1011B000002DE6D02B46B1F8D421DEE791F8CC1112
:1011C0002046FFF703FD7DE70F8FFFFF8FBFFFFF77
:1011D0000080FFFF91F828502BB230F82330B0F890
:1011E000502013F0400F92B24FF0080313FB052379
:1011F00000EB43031CD0B3F80434C3F309030B64BE
:101200001BB1CA8D896B00F0EFF81C2303FB06436A
:10121000226893F8281032F8213023F0F0031B05E0
:101220001B0D43F4404343F0800322F821306FE765
:10123000B3F80C34C3F309030B64002BE5D00A8E1A
:10124000E0E7FFF73BFD38E690F87033012B10B56F
:1012500049D04CB201231C2280F87033002C01F0DD
:101260007F03B5BF02FB030202FB0102283202F535
:10127000E67201219170D9B2E30F117053700268C8
:10128000A1B9138823F4804323F040031B041B0CF3
:1012900083F4805383F0100343F4004343F080034E
:1012A0001380002380F87033184610BD09B2002C5B
:1012B00032F821300EDA23F4E04323F040031B041C
:1012C0001B0C83F0100343F4004343F0800322F827
:1012D0002130E6E723F4804323F070031B041B0C4A
:1012E00083F48053EFE7022010BD4BB2002B10B502
:1012F0004FF01C0201F07F04B5BF02FB040102FBAA
:101300000101283101F5E671DB0F00228A700C70B3
:101310004B7090F87033012B49D0012380F8703363
:101320000B784C7802681BB22CB332F82340640669
:101330000BD532F8234024F0F0042405240D44F4A6
:10134000004444F0C00422F82340097832F82130E8
:1013500023F4E04323F040031B041B0C83F0300311
:1013600043F4004343F0800322F82130002380F847
:101370007033184610BD32F8234064040BD532F8A0
:10138000234024F0F0042405240D44F4404444F0A8
:10139000800422F82340097832F8213023F4804376
:1013A00023F070031B041B0C83F44053D8E7022086
:1013B00010BD11F0800F10B518BF01F07F014FF084
:1013C0001C0415BF04FB010004FB0100283000F5DC
:1013D000E6701AB982728380002010BD0122C3809A
:1013E0001B0C82720381F7E7013300F5806023F064
:1013F000010330B500EB42020B440C469C4200D185
:1014000030BD601A258822F810500234F6E770B516
:1014100000F580605D0800EB42028C1C2E4636B958
:10142000DB0744BF32F8253001F8153070BD601A73
:1014300002EB4000013E30F8040C04F8020C000AF4
:1014400004F8010C0234EAE72DE9F347054618B920
:10145000012002B0BDE8F0870368DA0711D42B68D9
:101460009B0700F185802B681C0700F1F6802B6834
:10147000580700F13F81EA69002A40F0D681002038
:10148000E7E7BA4C636803F00C03042B07D06368EA
:1014900003F00C03082B16D16368DF0313D54FF458
:1014A000003393FAA3F2216893FAA3F3B3FA83F318
:1014B00003F01F03012202FA03F30B42CFD06B6843
:1014C000002BCCD1C4E76A68B2F5803F25D12368F0
:1014D00043F480332360E36AA96823F00F030B43CE
:1014E000E36252B3FEF70EFF4FF400368046012749
:1014F00096FAA6F3226896FAA6F3B3FA83F303F0FA
:101500001F0307FA03F31342A9D1FEF7FBFEA0EB7A
:1015100008006428ECD903209BE7236832B923F440
:1015200080332360236823F48023D3E7B2F5A02F10
:10153000F5D143F480232360C9E7FEF7E3FE4FF4BF
:1015400000368046012796FAA6F3226896FAA6F39B
:10155000B3FA83F303F01F0307FA03F313423FF4D4
:101560007EAFFEF7CFFEA0EB08006428EBD9D2E7F0
:101570007E4C636813F00C0F07D0636803F00C0314
:10158000082B22D16368DE031FD4022393FAA3F24F
:10159000216893FAA3F3B3FA83F303F01F03012244
:1015A00002FA03F30B4203D02B6993427FF450AF4E
:1015B0002168F82393FAA3F3B3FA83F26B6993409B
:1015C00021F0F802134323604DE72A6901260AB38C
:1015D00096FAA6F3B3FA83F303F1845303F5841365
:1015E0009B0002271E60FEF78DFE804697FAA7F348
:1015F000226897FAA7F3B3FA83F303F01F0306FAFE
:1016000003F31342D4D1FEF77DFEA0EB08000228BD
:10161000ECD980E796FAA6F3B3FA83F303F1845387
:1016200003F584139B0002271A60FEF76BFE8046C9
:1016300097FAA7F3226897FAA7F3B3FA83F303F0B4
:101640001F0306FA03F313423FF40DAFFEF75AFEF1
:10165000A0EB08000228EBD95DE7AA69434E444994
:1016600001241AB394FAA4F3B3FA83F30B449B0056
:1016700002271C60FEF746FE804697FAA7F397FA0A
:10168000A7F397FAA7F3726A97FAA7F3B3FA83F36B
:1016900003F01F0304FA03F313427FF4E8AEFEF7EE
:1016A00031FEA0EB08000228E7D934E794FAA4F34E
:1016B000B3FA83F30B449B0002271A60FEF722FE65
:1016C000804697FAA7F397FAA7F397FAA7F3726AF7
:1016D00097FAA7F3B3FA83F303F01F0304FA03F3B3
:1016E00013423FF4C4AEFEF70DFEA0EB0800022843
:1016F000E7D910E71D4CE369D90034D4E36943F01E
:101700008053E361E36903F080530193019B012659
:10171000184F3B68DA052FD5EB68012B3DD1236AC2
:1017200043F001032362FEF7EDFD02278246B9462E
:101730004FF0010897FAA7F397FAA7F3002B6CD0A4
:10174000226A99FAA9F3B3FA83F303F01F0308FAA4
:1017500003F3134258D0002E3FF48DAEE36923F01B
:101760008053E36187E60026D2E700BF0010024005
:1017700020819010007000403B6843F480733B6010
:10178000FEF7C0FD80463B68DB05C5D4FEF7BAFD19
:10179000A0EB08006428F6D9BDE63BBB236A23F022
:1017A00001032362236A23F004032362FEF7AAFDE8
:1017B00002278246B9464FF0010897FAA7F397FA35
:1017C000A7F373B3226A99FAA9F3B3FA83F303F088
:1017D0001F0308FA03F31342BDD0FEF793FD41F255
:1017E0008833A0EB0A009842E7D994E6052B236AD8
:1017F00003D143F00403236291E723F00103236242
:10180000236A23F004038DE7FEF77CFD41F2883361
:10181000A0EB0A0098428DD97DE697FAA7F3626A99
:101820008FE797FAA7F3626ACDE7414C636803F04C
:101830000C03082B3FF40CAE022A4FF0807352D1F8
:1018400093FAA3F3B3FA83F303F1845303F58413F8
:101850009B0000221A60FEF755FD4FF0007780468E
:10186000012697FAA7F3226897FAA7F3B3FA83F34E
:1018700003F01F0306FA03F313422DD162686B6A6B
:10188000296A22F474120B43134363604FF0807390
:1018900093FAA3F3B3FA83F303F1845303F58413A8
:1018A0009B004FF000751E60FEF72CFD01260746D9
:1018B00095FAA5F3226895FAA5F3B3FA83F303F03A
:1018C0001F0306FA03F313427FF4D9ADFEF71AFDA6
:1018D000C01B0228ECD91EE6FEF714FDA0EB0800A1
:1018E0000228BED917E693FAA3F3B3FA83F303F100
:1018F000845303F584139B0000221A60FEF702FD57
:101900004FF000750746012695FAA5F3226895FA6F
:10191000A5F3B3FA83F303F01F0306FA03F31342AC
:101920003FF4ADADFEF7EEFCC01B0228ECD9F2E5AA
:101930000010024010B5134C616801F00C03082B35
:101940001ED14FF4701393FAA3F301F47012B3FA9B
:1019500083F322FA03F30C4AD05CE36A0F2292FA73
:10196000A2F2B2FA82F203F00F03D340074AD25C2C
:10197000CB034ABF064B074BB3FBF2F3584310BDF2
:10198000034810BD00100240DE3F0008EE3F000893
:1019900000127A0000093D002DE9F0410D46044691
:1019A00010B90120BDE8F0814C4A136803F0070329
:1019B0008B422ED32268910736D4D2073CD4474AB3
:1019C000136803F007039D4275D32268444D12F05B
:1019D000040F7CD1130706D56B68226923F460538A
:1019E00043EAC2036B60FFF7A5FF6B68F02292FA2F
:1019F000A2F2B2FA82F203F0F003D340394AD35C88
:101A0000D840394B18600020FEF73AFC0020BDE8B2
:101A1000F081136823F007030B431360136803F08E
:101A200007039942BDD1C5E72D49A0684B6823F053
:101A3000F00303434B60C0E76268294E012A27D1B7
:101A40004FF4003393FAA3F1316893FAA3F3B3FA96
:101A500083F303F01F0302FA03F30B42A1D0736870
:101A600023F003031A437260FEF74CFC41F28838FE
:101A700007467368626803F00C03B3EB820F9ED0D5
:101A8000FEF740FCC01B4045F3D90320BDE8F081C0
:101A9000022A0CBF4FF00073022393FAA3F13068BF
:101AA00093FAA3F3B3FA83F303F01F03012101FABE
:101AB00003F30342D2E7136823F007032B431360B9
:101AC000136803F007039D427FF46BAF7DE76B68FB
:101AD000E16823F4E0630B436B607BE70020024086
:101AE000001002400240000818010020084B4FF48B
:101AF000E0625B6892FAA2F2B2FA82F203F4E06367
:101B0000D340044AD35C044A1068D840704700BFF1
:101B1000001002401240000818010020084B4FF44A
:101B200060525B6892FAA2F2B2FA82F203F4605356
:101B3000D340044AD35C044A1068D840704700BFC1
:101B400000100240124000081801002003682DE92F
:101B5000F347DD03044623D57C4DEB69D80000F143
:101B60009880EB6943F08053EB61EB6903F080539D
:101B70000193019B0126764F3B68D90540F18B808C
:101B80002B6A13F4407340F09B802B6A626823F445
:101B9000407313432B621EB1EB6923F08053EB615A
:101BA0002068C70706D5694AA168136B23F00303B1
:101BB0000B431363860706D5644AE168136B23F46D
:101BC00040330B431363450706D5604A2169136B05
:101BD00023F440230B431363810606D55B4AE16976
:101BE000136B23F010030B431363820306D5574A8C
:101BF000A16B536823F480030B435360430606D55F
:101C0000524A216A136B23F020030B431363070727
:101C100006D54E4A6169136B23F440130B431363DB
:101C2000C60606D5494AA169136B23F440030B434A
:101C30001363850506D5454AE16A536823F400031A
:101C40000B435360010606D5404A616AD36A23F408
:101C5000F8730B43D362C20506D53C4AA16AD36A26
:101C600023F478530B43D362C30406D5374A216B60
:101C7000136B23F480730B43136310F400501CD0D8
:101C8000324A616B136B23F400730B431363002020
:101C900013E000266FE73B6843F480733B60FEF778
:101CA00031FB80463B68DA053FF56AAFFEF72AFB59
:101CB000A0EB08006428F5D9032002B0BDE8F08746
:101CC000626802F4407293423FF45FAF296A4FF4B6
:101CD000803321F4407093FAA3F2DFF878E0B2FA8F
:101CE00082F2724492000127176093FAA3F3B3FAC9
:101CF00083F373449B0000221A60CB0728627FF5B0
:101D000044AFFEF7FFFA4FF002088246C14698FA48
:101D1000A8F398FAA8F3A3B12A6A99FAA9F3B3FA37
:101D200083F303F01F0307FA03F313427FF42DAF8D
:101D3000FEF7E8FA41F28833A0EB0A009842E6D9B0
:101D4000BAE798FAA8F36A6AE7E700BF0010024012
:101D5000007000400081901003681A6822F49072AD
:101D60001A609A6822F001029A60202380F86A3093
:101D7000704790F86A30202B35D1002931D082B3DA
:101D800090F86830012B2ED0012380F868308368EA
:101D90004165B3F5805FA0F85820A0F85A2019D10A
:101DA0000369ABB940F2FF13A0F85C300023222294
:101DB000C36680F86A20026880F86830916841F054
:101DC00001019160116841F49071116018467047EB
:101DD000FF23E9E7002BE9D10369002BF8D07F232B
:101DE000E2E7012070470220704770477047704754
:101DF00008B5406A0023A0F85A30A0F85230FFF727
:101E0000F6FF08BD38B582680568C36929680446CD
:101E100000690243606921F41641024321F00C017C
:101E20001A430A432A606A68E168206A22F4405231
:101E30000A436A60A968A26921F4306102430A4337
:101E4000AA606E4A954212D102F558426C49126B53
:101E500002F00302B3F5004F8A5C66D0082A19D855
:101E6000DFE802F0C2929E18A9181818AC00654A63
:101E7000954224D102F5E632126B02F44032B2F5FB
:101E8000803F00F0A08007D8002A00F0AA80B3F5B8
:101E9000004F76D0012038BDB2F5003F00F09980A8
:101EA000B2F5403FF3D1B3F5004F79D160684308F4
:101EB00003F5740303F51053B3FBF0F354E0524AF7
:101EC00095420ED102F5E432126B02F44022B2F5D3
:101ED000802F78D0D8D9B2F5002F7AD0B2F5402F24
:101EE000E0E74A4A95420ED102F5E232126B02F463
:101EF0004012B2F5801F66D0C6D9B2F5001F68D077
:101F0000B2F5401FCEE7424A9542C0D102F5E03219
:101F1000126B02F44002B2F5800F54D0B4D9B2F57E
:101F2000000F56D0B2F5400FBCE7082A29D801A30C
:101F300053F822F0591F00087D1F0008AD1E00084D
:101F4000831F0008CD1F0008831F0008831F00089F
:101F5000831F0008D91F0008FFF7C8FD61684A0801
:101F600002EB4003B3FBF1F39BB2002023F00F021E
:101F70002168C3F342031343CB6038BDFFF7CEFDA6
:101F8000ECE701200023F1E7FFF7C8FD636800EBF1
:101F90005300B0FBF3F0194B80B2D860002038BD7D
:101FA0006268530803F5F40303F59053B3FBF2F3AF
:101FB0009BB2EB60F2E7FFF7BDFC17E062685308E5
:101FC00003F50043F2E7B3F5004FF4D1FFF7B2FC9D
:101FD000C4E7B3F5004FF1D16068430803F58033DF
:101FE0006AE7B3F5004FB7D0FFF780FD636800EBF9
:101FF0005300B0FBF3F080B2E860CFE70038014057
:10200000FE3F00080044004000480040004C0040F3
:1020100000500040436ADA0710B506D50168846AAB
:102020004A6822F4003222434A609C0706D50168C0
:10203000C46A4A6822F4803222434A60590706D5AE
:102040000168046B4A6822F4802222434A601A071E
:1020500006D50168446B4A6822F4004222434A6074
:10206000DC0606D50168846B8A6822F4805222431C
:102070008A60990606D50168C46B8A6822F400520A
:1020800022438A605A060FD50168046C4A6822F41C
:1020900080122243B4F5801F4A6005D14A68446C1F
:1020A00022F4C00222434A601B0606D50268816CF6
:1020B000536823F400230B43536010BD2DE9F04116
:1020C000069D04460F46164698462168CA6937EAB7
:1020D00002030CBF01220022B24202D00020BDE860
:1020E000F0816B1CF2D09DB923681A6822F4D0727B
:1020F0001A609A6822F001029A60202384F86930FD
:1021000084F86A30002384F868300320BDE8F08149
:10211000FEF7F8F8A0EB08008542D6D2E4E72DE9F7
:10212000F3411F4690F86930202B04460D46904637
:102130004CD1002948D0002A46D090F86830012BB5
:1021400044D0012380F868300023C366212380F83F
:102150006930FEF7D7F8A4F850800646A4F85280FC
:10216000B4F8522092B262B900973346402120461B
:10217000FFF7A4FF98B9202384F8693084F8680039
:102180000EE0B4F852300097013B9BB2A4F85230F5
:102190000022334680212046FFF790FF18B103202C
:1021A00002B0BDE8F081A3682268B3F5805F07D173
:1021B00023692BB935F8023BC3F308031385CFE736
:1021C0002B7813850135CBE70120E9E70220E7E70B
:1021D00073B504460026C666FEF794F823681B68AC
:1021E0001A07054617D423681B685B070AD56FF0EA
:1021F0007E43009300222B464FF480012046FFF7D8
:102200005DFFA0B92023002084F8693084F86800BD
:1022100084F86A300CE06FF07E4300933246034648
:102220004FF400112046FFF749FF0028DBD00320C0
:1022300002B070BD10B5044660B390F8693003F089
:10224000FF021BB980F8682000F072FE2268242388
:1022500084F86930136823F0010313602046FFF708
:10226000D1FD012816D0636A13B12046FFF7D2FED4
:1022700023685A6822F490425A609A6822F02A022F
:102280009A601A6842F0010220461A60BDE81040C8
:10229000FFF79EBF012010BD90F86930212B27D198
:1022A000B0F8523002689BB24BB9116821F080013E
:1022B0001160116841F0400111600020704783688F
:1022C000B3F5805FC36C0ED1016961B933F8021BAD
:1022D000C1F308011185C364B0F85230013B9BB2D1
:1022E000A0F85230E9E7591CC1641B781385F3E765
:1022F00002207047016808B50B6823F040030B60AB
:10230000202380F86930FFF770FD002008BD90F8A9
:102310006A30222B10B5036829D1998C8368B0F8F4
:102320005C20B3F5805F02EA0102436D1BD10169B5
:10233000C9B923F8022B4365B0F85A40013CA4B256
:10234000A0F85A406CB903681A6822F490721A60B7
:102350009A6822F001029A60202380F86A30FFF721
:1023600045FD002010BD591C41651A70E4E79A69CB
:1023700042F008029A61022010BD00000268D36991
:10238000116870B513F00F05044607D19E0605D5F8
:102390008E0603D5BDE87040FFF7B9BF9068002DE9
:1023A0005CD010F0010502D111F4907F56D0D8070F
:1023B00007D5CE0505D501201062E06E40F0010082
:1023C000E066980706D52DB102201062E06E40F05D
:1023D0000400E0665E0706D52DB104201062E06EB1
:1023E00040F00200E066180707D58E0600D425B13C
:1023F00008201062E26E0243E266E26E002A50D0CC
:10240000980604D58A0602D52046FFF780FFE36EC2
:102410001B07204604D423689D6815F0400519D099
:10242000FFF79AFC23689A6856060FD59A68606E83
:1024300022F040029A6048B11A4B4363FDF7E4FF73
:1024400078B3606EBDE87040436B18472046FFF7D5
:10245000CEFC70BDFFF7CBFCE56670BDDD020ED58E
:1024600046020CD54FF480131362202384F86930A0
:10247000204684F86A30BDE8704000F015B81D06AB
:1024800006D5080604D52046BDE87040FFF704BF16
:102490005A0606D54B0604D52046BDE87040FFF726
:1024A00029BF70BDF11D00087047D0F818321BB16C
:1024B0000020C3F81402704702207047D0F81C3285
:1024C00010B5D0F818425BB194F80002FF2807D08D
:1024D0009B6894F8012221469847FF2384F8003234
:1024E000002010BD432303800048704740000020B7
:1024F0004323038000487047840000204323038067
:1025000000487047D40000200A2303800048704729
:10251000C800002038B50546D0F8184201F060F830
:10252000D5F81832C4F80C024BB1D5F81C32D4F8E7
:102530000402DB6804F503719847002038BD0220CF
:1025400038BD0000F8B50F7817F0600306460C465A
:1025500023D0202B19D1CA884B78C2B13906D0F8C4
:1025600018520BD5D0F81C1218468F682946B84768
:10257000E2882946304600F08AFB06E085F8003202
:1025800085F80122294600F097FB0020F8BDD0F81D
:102590001C0284681846A047F7E74B780A2BF4D151
:1025A00001220149E7E700BFE001002010B58121C9
:1025B000044600F0ADFF0121204600F0A9FF822172
:1025C000204600F0A5FFD4F8183253B1D4F81C32DD
:1025D0005B689847D4F8180201F00CF80023C4F89F
:1025E0001832002010BDF8B5037C04467BBB4FF4C5
:1025F00000730222812100F07BFF4FF4007302225E
:102600000121204600F074FF082303228221204686
:1026100000F06EFF4FF4077000F0E8FF0646C4F8C4
:10262000180220B3D4F81C321B689847277C002579
:10263000C6F81452C6F8185287B94FF40073D6F88A
:1026400004220121204600F0BDFF3846F8BD40239A
:102650000222812100F04CFF4023D0E74023D6F82E
:1026600004220121204600F0ADFF2846F8BD0120DC
:10267000F8BD19B1C0F81C12002070470220704745
:10268000D0F818320020C3F80812C3F8102270479F
:10269000D0F818320020C3F804127047D0F818227E
:1026A00010B572B1D2F81442012364B9C2F81432E1
:1026B0008121B2F81032D2F8082200F075FF2046CE
:1026C00010BD022010BD184610BDD0F8182210B55C
:1026D00062B1047C44B94FF40073D2F804220121A2
:1026E00000F070FF002010BD4023F6E7022010BD6F
:1026F00008B580B1D0F8143213B10023C0F81432F9
:1027000009B1C0F81012012380F8FC31027000F00A
:102710009FFE002008BD022008BD19B1C0F81412A8
:10272000002070470220704708B500F0D3FE00205B
:1027300008BD08B5D0F814320BB9022008BD1B68DB
:1027400098470028F9D108BD08B5D0F814325B6865
:102750009847002008BD38B5044600F502752846A4
:1027600000F065FA012394F80812C4F8F431B4F8C3
:102770000E32C4F8F83101F01F03012B0ED007D33D
:10278000022B10D001F08001204600F0CFFE03E0C4
:102790002946204600F0D6F8002038BD29462046BC
:1027A00000F0CAF9F8E72946204600F0DDF9F3E722
:1027B00038B50446154611BBD0F8F431032B0FD1C0
:1027C000D0F80C31D0F8102193420BD99B1A9A42C1
:1027D00028BF1A46C0F80C3192B2294600F07BFAA5
:1027E000002038BDD0F814321B6923B190F8FC21C9
:1027F000032A00D19847204600F075FAF0E7D0F898
:1028000014329B69002BEBD090F8FC21032AE7D10E
:102810009847E5E770B5134604460E4600293DD1BA
:10282000D0F8F421022A0FD1C569026A954214D961
:10283000AA1AC261194692B200F036FA33461A4615
:102840001946204600F0BEFE94F80032012B02D15A
:10285000002384F80032002070BD8369B3FBF2F5D9
:1028600002FB153565B99A420AD8D0F8F82193428F
:1028700006D22A4600F018FAC4F8F8512B46DEE7D3
:10288000D4F81432DB682BB194F8FC21032A01D16F
:1028900020469847204600F031FAD5E7D0F81432A8
:1028A0005B69002BD7D090F8FC21032AD3D198473D
:1028B000D1E738B50022044611464025402300F0F8
:1028C00017FE2B46C4F8105100228021204600F04C
:1028D0000FFE012384F8FC31D4F8183225622BB1A5
:1028E000D4F8143221795B6820469847002038BD1F
:1028F00001740020704790F8FC3180F8FD3104230A
:1029000080F8FC310020704790F8FD3180F8FC31F0
:102910000020704708B590F8FC21032A04D1D0F8B4
:102920001432DB6903B19847002008BD10B580213F
:10293000044600F0FBFD20460021BDE8104000F0F9
:10294000F5BD000037B54B7804460D46092B79D804
:10295000DFE813F0C900E5007800D90078006D00C9
:102960000A007800B9008D004B881A0A013A062A3D
:1029700068D8DFE802F0041C296767495200D0F8E4
:1029800010321B68207C0DF106019847BDF8062027
:10299000002A67D0EB88002B64D09A4228BF1A46E1
:1029A000ADF806200146204600F071F95AE0027C9D
:1029B000D0F8143232B99B6A0DF106009847022311
:1029C0004370E3E7DB6AF7E7DBB2052B3AD8DFE8D1
:1029D00003F003070B0F1317D0F810325B68D1E731
:1029E000D0F810329B68CDE7D0F81032DB68C9E729
:1029F000D0F810321B69C5E7D0F810325B69C1E727
:102A0000D0F810329B69BDE7037CDBB9D0F81432F3
:102A10000DF106005B6B9847B8E7037C93B9D0F8DB
:102A200014320DF106001B6B98470723C8E78B880B
:102A300043B9CB8833B990F8FC318D78032B05F07E
:102A40007F0503D12046FFF771FF0BE080F8FE51B0
:102A5000294600F09BFD204600F045F92DB10223E8
:102A600084F8FC31002003B030BD0123F8E78978F9
:102A7000304D01292970E5D890F8FC31022B0CD09B
:102A8000032BDFD1B1B9022380F8FC314160FFF79D
:102A90005BFE204600F027F9E4E70029F9D0012188
:102AA0000323416080F8FC312046FFF742FE0228F4
:102AB000EFD1C7E741680129EBD0C9B2FFF744FE67
:102AC00029786160F0E7CA88012ABBD190F8FC310F
:102AD000022B03D0032BB5D1011D64E7014600236F
:102AE00041F8083F5FE790F8FC31023B012BA9D881
:102AF0000123C360D0F804320BB10323C360022268
:102B000004F10C014FE74B88012BABD1C4F8043220
:102B1000D4F8143229469B6820469847B9E790F8C4
:102B2000FC31023B012B8DD84B88012B9AD100231D
:102B3000ECE700BFE101002038B590F8FC31032B31
:102B400004460D460DD10B79012B0AD8D0F814326A
:102B50009B689847EB8813B9204600F0C4F8002022
:102B600038BDFFF7E3FEFAE770B50A788E8802F009
:102B70006002202A04460D46F3B205D1D0F8143283
:102B80009B689847002070BD4A78012A1CD02AD340
:102B9000032AF7D190F8FC21022A40D0032A02D060
:102BA000FFF7C4FEEEE74A8822B95E0602D0194656
:102BB00000F0BCFCD4F8143229469B6820469847A4
:102BC000204600F090F8DDE790F8FC21022A26D09C
:102BD000032AE5D14A88002AD4D15906F0D01946F3
:102BE00000F0B2FCE6E790F8FC21022A17D0032A95
:102BF000D6D103F07F0516F0800F00EB05151946BE
:102C000014BF143505F5827500F0ACFC68B10123E2
:102C10002B6002222946204600F039F8B2E75A0616
:102C2000B0D0194600F082FCACE72860F1E70B78E1
:102C300003704B784370CA788B7803EB0223438090
:102C40004A790B7903EB02238380CA798B7903EBF2
:102C50000223C380704730B588B105462B1A15F89A
:102C6000014BDBB2002CF9D15B00023313800B70F7
:102C700003234B700138022310F8015F05B930BD02
:102C80005A1CD2B2CD540233DBB28C54F4E710B5E7
:102C900013460222C0F8F42183610A46C361002171
:102CA00000F082FC002010BD08B513460A46002142
:102CB00000F07AFC002008BD10B513460322C0F8CE
:102CC000F421C0F808310A46C0F80C31002100F0A8
:102CD00079FC002010BD08B513460A46002100F01B
:102CE00071FC002008BD08B50423C0F8F4310023AE
:102CF0001A46194600F058FC002008BD08B5052307
:102D0000C0F8F43100231A46194600F05BFC00209D
:102D100008BD0000034B02781A70034B01221A70A1
:102D2000704700BF84040020E201002030B59FB04E
:102D30002822002105A800F0FFFC1422002168468B
:102D400000F0FAFC3C2200210DEB020000F0F4FC44
:102D50000123059309934FF480334FF4A0220225F9
:102D60000D9305A84FF4E01306920E930C95FEF711
:102D70006BFB0F2300248DE8280029464FF4806365
:102D80006846039302940494FEF706FE044B0F93E7
:102D90000FA811941D94FEF7D9FE1FB030BD00BFDF
:102DA0000100020010B586B01422002101A800F035
:102DB000C3FC4FF48054012301A94FF090400293CB
:102DC0000194FDF745FB002221464FF09040FDF7AE
:102DD00001FC002301A94FF0904002930393FDF7FB
:102DE00037FB06B010BD000000B58BB0FDF76CFAE4
:102DF000FFF79CFF142200210DEB020000F09CFC69
:102E0000374B384D5A69384E42F400225A615A699C
:102E100002F400220192019A5A6942F480025A6136
:102E20005A6902F480020292029A5A6942F400320C
:102E30005A615A6902F400320392039A5A6942F4C1
:102E400080225A615B6903F480230022049360218D
:102E50004FF09040049BFDF7BDFB6023002405A9C3
:102E60004FF0904005930123069307940894FDF7D3
:102E7000EFFAFFF797FF00F027FA1C481C49C460DF
:102E80004FF461424FF4805380E80E004FF48063AA
:102E900003610C2343618461C46104624462FFF7EF
:102EA000C9F92B78002BFCD033782C70422B02D13F
:102EB00000F00AF9F5E7522B02D100F0D5F8F0E75F
:102EC000452B02D100F03AF9EBE7532B02D100F089
:102ED000D1F9E6E7492BE4D100F05CF9E1E700BF66
:102EE00000100240E20100208404002014040020AD
:102EF00000380140704700000C4B07B59A6942F05A
:102F000001029A619A6902F001020092009ADA695C
:102F100042F08052DA61DB6903F0805301930720AD
:102F2000019BFDF709FA03B05DF804FB00100240B5
:102F300010B5044688B01422002103A800F0FCFB61
:102F40002268164B9A4227D103F5584303A99A6980
:102F5000134842F480429A619A6902F480420192D5
:102F6000019A5A6942F400225A615B6903F4002312
:102F70000293029B302303930223049303230693BB
:102F800007230793FDF764FA002225201146FDF779
:102F9000E5F92520FDF716FA08B010BD003801400C
:102FA000000800487047FEE7FEE7FEE7FEE77047CF
:102FB00070477047FDF79AB90148FDF7FBBE00BFA7
:102FC0007C0E00200148FFF7D9B900BF140400208F
:102FD0001549D1F8883043F47003C1F88830134B99
:102FE0001A6842F001021A605868114A02405A6099
:102FF0001A6822F0847222F480321A601A6822F46D
:1030000080221A605A6822F4FE025A60DA6A22F0BC
:103010000F02DA62186B074A02401A6300229A60B4
:103020004FF000638B60704700ED00E0001002403D
:103030000CC07FF8CCFC00FF08B5012240214FF006
:103040009040FDF7C7FA3220FDF762F900224021D7
:103050004FF09040BDE80840FDF7BCBA0246202181
:103060004FF09040FDF7B6BA08B50020FFF7F6FF25
:103070004FF4FA70FDF74CF9FFF7DEFF1421024818
:10308000BDE8084000F064B91A40000813B502A971
:10309000002301F8013D01220A48FEF76AFE4FF4C1
:1030A000FA749DF80730792B09D0013C0120A4B2B5
:1030B000FDF72EF9002CF4D1012002B010BD002044
:1030C000FBE700BF1404002007B50120FFF7C6FF8F
:1030D0004FF4FA70FDF71CF9FFF7AEFFC820FDF7BB
:1030E00017F902A97F2301F8043D01224FF47A73F6
:1030F0000748FFF714F8FFF7C9FF30B90548112159
:1031000000F026F903B05DF804FB14210248F7E74C
:10311000140400202F4000084140000808B5014673
:103120004FF47A7302220448FEF7F9FFFFF7AEFF6F
:10313000003018BF012008BD1404002013B5114B46
:1031400068461B88ADF80030FFF7E8FFB0B9FF23F1
:103150008DF8050001A88DF80430FFF7DFFF044665
:1031600030B91321084800F0F3F8204602B010BD32
:1031700006481E2100F0ECF80124F6E7202104485F
:10318000F8E700BFD83F0008564000086A40000832
:103190008940000830B51F4B1F481B8889B00522A5
:1031A00002A90025ADF8043002958DF80C50FEF709
:1031B000E0FD01A8FFF7B2FF0A20FDF7A9F89DF88E
:1031C0000830792B22D19DF80C30792B1BD19DF83A
:1031D0000A309DF80B40102229460DEB020044EA0C
:1031E000032400F0A9FA10210DEB010023460B4A3D
:1031F00000F0AAFA04A8FCF7EBFF81B204A800F0E3
:10320000A7F809B030BD10210548F8E7142105489A
:10321000F5E700BFDA3F000814040020AA400008C8
:10322000BA400008CB40000807B5C0F30741020EC2
:10323000C0F307238DF80020C0B24A408DF8030088
:10324000504058408DF801108DF802308DF8040080
:103250004FF47A73052269460548FEF760FFFFF7D1
:1032600015FF003018BF012003B05DF804FB00BF5C
:103270001404002007B50F4B01A81B88ADF80430DB
:10328000FFF74CFF90B919210B4800F061F84FF09F
:103290000060FFF7C9FF30B90848152100F058F861
:1032A00003B05DF804FB20210548F7E71C21054821
:1032B000F4E700BFDC3F0008E0400008FA400008E7
:1032C000104100083141000810B5094C094900229D
:1032D0002046FFF70DFA08492046FFF71EFA204660
:1032E0000649FFF7C6F92046BDE81040FFF71CBAB3
:1032F000880400202C010020080000201C01002070
:10330000002070470020704738B5064C0546FFF78F
:1033100001FD29462046FFF7BBF92046FFF7D5F906
:10332000002038BD8804002010B5064C0649002254
:103330002046FFF7A5F905492046FFF7A9F9002027
:1033400010BD00BF88040020940A0020AC060020B5
:1033500010B5094CD4F81832D3F814320A4643B9E0
:1033600001462046FFF78CF92046BDE81040FFF7E4
:1033700095B9012010BD00BF8804002010B5026877
:10338000134B9A4286B021D14FF4C05301930223CC
:10339000029303230024049301A90E234FF09040CD
:1033A00005930394FDF754F80A4BD96941F40001E1
:1033B000D961DB6903F400030093142022462146FF
:1033C000009BFCF7CBFF1420FCF7FCFF06B010BD00
:1033D000005C00400010024000F55D71D0F8A403CD
:1033E000FFF7B9B91C2303FB0103D0F8A403D3F8FA
:1033F000DC21FFF7DDB91C2303FB0103D0F8A40394
:103400009A6BFFF707BAD0F8A403FFF783BA10B599
:1034100004460121D0F8A403FFF76AFAD4F8A40304
:10342000BDE81040FFF745BA10B50446D0F8A40334
:10343000FFF761FAA36923B1024A136943F0060357
:10344000136110BD00ED00E0D0F8A403FFF75CBAF3
:1034500010B51E4A04461E48082380E80C00C0F838
:10346000A44300230222C4F820028260C3600261E8
:1034700083610362FDF7B3F808B1FFF73BFD00225B
:1034800011461823D4F82002FDF793FF5823002299
:103490008021D4F82002FDF78CFFC0230022812177
:1034A000D4F82002FDF785FF4FF488730022012134
:1034B000D4F82002FDF77DFF4FF4807300228221B3
:1034C000D4F82002FDF775FF002010BD005C00401D
:1034D0007C0E002008B5D0F82002FDF7D4F80328B0
:1034E0009ABF024B185C022008BD00BF4E41000885
:1034F00010B51C46D0F8200213462246FDF7E0F82E
:1035000003289ABF014B185C022010BD4E410008F1
:1035100008B5D0F82002FDF76BFA03289ABF024BDA
:10352000185C022008BD00BF4E41000808B5D0F865
:103530002002FDF789FE03289ABF024B185C022087
:1035400008BD00BF4E41000808B5D0F82002FDF7C5
:10355000CCFE03289ABF024B185C022008BD00BFB6
:103560004E41000811F0800FD0F820324FF01C02BD
:103570001BBF01F07F0102FB013102FB013191F819
:103580002A0008BF91F8CE017047000008B5D0F8B6
:103590002002FDF77EF803289ABF024B185C022038
:1035A00008BD00BF4E41000808B5D0F82002FDF765
:1035B00085FB03289ABF024B185C022008BD00BFA0
:1035C0004E41000808B5D0F82002FDF7FFFA0328A5
:1035D0009ABF024B185C022008BD00BF4E41000894
:1035E00008B5D0F82002FDF761FB08BD0048704720
:1035F000E40100207047704712230B800048704799
:103600004801002004230B80004870475C01002023
:1036100010B5044C04480A462146FFF71CFB20461F
:1036200010BD00BF241200206B41000810B5044CEF
:1036300004480A462146FFF70EFB204610BD00BF96
:10364000241200207E41000810B5044C04480A46AC
:103650002146FFF700FB204610BD00BF24120020CA
:103660009441000810B5044C04480A462146FFF76F
:10367000F2FA204610BD00BF24120020524100087B
:1036800010B5044C04480A462146FFF7E4FA2046E8
:1036900010BD00BF241200205D410008DFF834D0C7
:1036A000002103E00C4B5B58435004310B480C4B9A
:1036B00042189A42F6D30B4A02E0002342F8043B38
:1036C000094B9A42F9D3FFF783FC00F011F8FFF79A
:1036D0008BFBFEE700A00020DC410008000000207A
:1036E000C4010020C401002028140020FEE70000CF
:1036F00070B50D4E0D4CA41BA4100025A54209D198
:103700000B4E0C4C00F05CFCA41BA4100025A54241
:1037100005D170BD56F8253098470135EEE756F8CB
:10372000253098470135F2E7D4410008D44100081C
:10373000D4410008D841000802440346934200D116
:10374000704703F8011BF9E70CB430B5174B0C1E9A
:103750009DB01D6808DA8B232B604FF0FF301DB041
:10376000BDE8304002B070474FF40273ADF814303A
:1037700014BF04F1FF332346049307934FF6FF73FE
:1037800002900690ADF81630209A21AB02A9284687
:10379000019300F069F8431CBCBF8B232B60002C05
:1037A000DDD0029B00221A70D9E700BF6001002023
:1037B0002DE9F0478E689E4282460C469146984617
:1037C00035D88A8912F4906F31D0256809696F1A4B
:1037D0006569022305EB450595FBF3F508F1010347
:1037E0003B449D4238BF1D46530531D5294600F064
:1037F00039FB064650B90C23CAF80030A38943F0C0
:103800004003A3814FF0FF30BDE8F0873A462169BD
:1038100000F0B4FAA38923F4906343F08003A381FA
:10382000266165613E44ED1B2660A560464646451F
:1038300028BF464632464946206800F0AAFAA368E7
:103840009B1BA36023681E4426600020BDE8F08710
:103850002A4600F065FB06460028E1D12169504662
:1038600000F0B2FAC7E700002DE9F04F9DB08046A6
:1038700003938B891C060D4616460FD50B696BB951
:10388000402100F0EFFA2860286128B90C23C8F81D
:1038900000304FF0FF30C5E040236B6100230993F7
:1038A00020238DF8293030238DF82A304FF0010B7A
:1038B00037463C4614F8013B002B3CD1B7EB060AD7
:1038C0000BD05346324629464046FFF771FF013080
:1038D00000F0A380099B534409933B78002B00F030
:1038E0009C8000234FF0FF320493079305920693C8
:1038F0008DF853301A93052221785048FCF770FC5C
:10390000671C049BD8B9D90644BF20228DF85320E8
:103910001A0744BF2B228DF8532022782A2A16D06A
:10392000079A00210A20274601343B78303B092BB7
:1039300051D9C9B111E0252BC0D02746B9E73F4A7C
:10394000801A0BFA00F0184304903C46D3E7039A20
:10395000111D12680391002A01DB079204E0524214
:1039600043F00203079204933B782E2B0ED17B7811
:103970002A2B07F1010132D1039B1A1D1B68039208
:10398000002BB8BF4FF0FF33023705932C4C39782A
:1039900003222046FCF724FC38B14023001B03FA25
:1039A00000F0049B034304930137397825488DF8D0
:1039B000281006227E1CFCF713FC002835D0224B71
:1039C000FBB9039B073323F0070308330393099BD9
:1039D0004B4409936CE700FB02320121A3E700236B
:1039E000059318460A240F4601313A78303A092ADD
:1039F00003D9002BCAD00590C8E704FB002001239F
:103A0000F1E703AB00932A46104B04A94046AFF3FD
:103A10000080B0F1FF3F8146D9D1AB895B063FF50D
:103A200038AF09981DB0BDE8F08F03AB00932A466C
:103A3000064B04A9404600F081F8EAE7A1410008DE
:103A4000A7410008AB41000800000000B1370008A2
:103A50002DE9F04791461F468A680B69DDF8208002
:103A60009342B8BF1346C9F8003091F84320064688
:103A70000C4612B10133C9F800302368990642BFE1
:103A8000D9F800300233C9F80030256815F0060572
:103A900007D104F1190AE368D9F800209B1A9D4266
:103AA00029DB94F843302268003318BF01239206C3
:103AB0002ED404F1430239463046C047013021D0AC
:103AC0002368E568D9F8002003F00603042B08BF3B
:103AD000AD1AA36822690CBF25EAE575002593425B
:103AE000C4BF9B1AED184FF000091A344D451BD185
:103AF0000020BDE8F0870123524639463046C047D2
:103B0000013003D14FF0FF30BDE8F0870135C2E747
:103B1000E1185A1C302081F84300224494F84510E3
:103B200082F843100233C4E7012322463946304667
:103B3000C0470130E6D009F10109D7E72DE9F0438C
:103B400017460A7E85B06E2A984606460C460C9BA0
:103B500001F1430E00F0BC801AD8632A2ED00AD897
:103B6000002A00F0C880582A00F08A8004F142053B
:103B700084F842202AE0642A01D0692AF6D121681B
:103B80001A6811F0800F23D0111D1960136827E007
:103B9000732A00F0B48008D86F2A2AD0702AE5D1A1
:103BA0000A6842F020020A6003E0752A21D0782AD0
:103BB000DCD1782284F845206E4964E01A6801F16E
:103BC0004205111D1960136884F842300123A3E0F7
:103BD00011F0400F02F104011960D7D0B2F90030A2
:103BE000002B03DA2D225B4284F8432062490A222B
:103BF00017E02068196810F0800F03D0081D1860C6
:103C00000B6806E010F0400F01F104001860F7D0D7
:103C10000B8859496F2A14BF0A220822002084F811
:103C200043006568A560002DC0F29C80206820F0EC
:103C300004002060002B3FD1002D40F09580754698
:103C4000082A0BD12368DA0708D5236962689A42EB
:103C5000DEBF302305F8013C05F1FF35AEEB05036F
:103C60002361CDF800803B4603AA21463046FFF78A
:103C7000EFFE013055D14FF0FF3005B0BDE8F083C5
:103C800081F845203C492268186812F0800F00F145
:103C900004051D6001D0036802E05506FBD50388CA
:103CA000D00744BF42F0200222601BB9226822F0F4
:103CB000200222601022B1E77546B3FBF2F002FB4E
:103CC0001033CB5C05F8013D03460028F5D1B7E77A
:103CD00008681A68496910F0800F04D0101D186038
:103CE0001368196007E010F0400F02F1040018603B
:103CF0001368F6D01980002323617546B1E71A686E
:103D0000111D19601568626800212846FCF768FAE1
:103D100008B1401B606063682361002384F843306E
:103D20009FE723692A4639463046C0470130A2D072
:103D300023689B0707D5002504F11909E368039A56
:103D40009B1A9D4205DBE068039B9842B8BF18466A
:103D500093E701234A4639463046C04701308AD0AE
:103D60000135EBE7002BA7D10B7884F8423004F142
:103D7000420565E7C3410008B241000810B5431E83
:103D80000A44914200D110BD11F8014B03F8014FD4
:103D9000F7E7884210B501EB020303D8421E9942AF
:103DA0000CD110BD9842F9D28118D21AD34200D159
:103DB00010BD13F8014D01F8014DF7E711F8014B63
:103DC00002F8014FEBE7000038B50546002945D061
:103DD00051F8043C0C1F002BB8BFE41800F0D6F8D3
:103DE0001F4A1368104633B9636014602846BDE863
:103DF000384000F0CCB8A3420CD921686218934235
:103E000004BF1A685B68636004BF521822600460D4
:103E1000ECE713465A680AB1A242FAD91968581851
:103E2000A0420BD120680144581882421960DDD1AC
:103E3000106852685A6001441960D7E702D90C2310
:103E40002B60D3E7206821188A4204BF11685268AA
:103E5000626004BF091821605C60C7E738BD00BF1D
:103E60000404002070B5CD1C25F0030508350C2D89
:103E700038BF0C25002D064601DBA94203D90C23CF
:103E80003360002070BD00F081F8234A1468214699
:103E900091B9224C23681BB9304600F067F82060C6
:103EA0002946304600F062F8431C26D10C233360CB
:103EB000304600F06CF8E4E70B685B1B1AD40B2B60
:103EC0000FD90B60CD50CC18304600F060F804F1EB
:103ED0000B00231D20F00700C31A1BD05A42E250EA
:103EE00070BD8C420DBF63684B686360136018BF80
:103EF0000C46E9E70C464968CAE7C41C24F00304F1
:103F0000A04205D0211A304600F030F80130CDD063
:103F10002560D9E770BD00BF04040020080400201C
:103F2000F8B5074614460E4621B91146BDE8F840DB
:103F3000FFF798BF22B9FFF747FF25462846F8BD8F
:103F400000F026F884420FD921463846FFF78AFF51
:103F500005460028F2D031462246FFF70FFF3146D2
:103F60003846FFF731FFE9E73546E7E738B5064C55
:103F7000002305460846236000F014F8431C02D1D4
:103F8000236803B12B6038BD2414002070477047AC
:103F900051F8040C0028A0F10400BCBF0B58C01855
:103FA00070470000044B1968024609B903491960BB
:103FB000186802441A6070470C040020281400207E
:103FC000F8B500BFF8BC08BC9E467047F8B500BF06
:083FD000F8BC08BC9E467047D6
:103FD80043BC02FD21DE02030405060708090A0B9B
:103FE8000C0D0E0F10100102030405060708090A3C
:103FF8000B0C0D0E0F100104080200000000000059
:10400800000001020304060708090000000001027D
:104018000304426F6F74206F666620616E642072BD
:10402800657365740D0A00426F6F746C6F61646527
:1040380072202D204F4B0D0A00426F6F746C6F6118
:10404800646572202D204552524F520D0A00457268
:10405800617365204D656D6F7279202D204F4B0D72
:104068000A00436D6420636F6420457261736520A4
:104078004D656D6F7279202D204552524F520D0AB1
:1040880000436D64207374617274204572617365B6
:10409800204D656D6F7279202D204552524F520D7B
:1040A8000A0049445F636869703A20307825580DE2
:1040B8000A004E6F74204944202D204552524F5219
:1040C8000D0A00436D6420476574204944202D2063
:1040D8004552524F520D0A00436D64207374617249
:1040E800742070726F6772616D6D202D204F4B0DBB
:1040F8000A0053746172742070726F6772616D6D1B
:10410800202D204F4B0D0A004164647265737320A3
:1041180073746172742070726F6772616D6D202D97
:10412800204552524F520D0A00436D64207374614A
:1041380072742070726F6772616D6D202D20455208
:10414800524F520D0A000002010243444320436FBC
:104158006E6669670043444320496E746572666100
:1041680063650053544D6963726F656C656374725F
:104178006F6E6963730053544D33322056697274FD
:1041880075616C20436F6D506F7274003030303041
:10419800303030303030314100232D302B20006852
:1041A8006C4C00656667454647003031323334351C
:1041B800363738394142434445460030313233348A
:0C41C80035363738396162636465660083
:0441D400B501000829
:0441D8009101000849
:1041DC000100000010000000E7250008AD250008D4
:1041EC004525000800000000BD240008AB24000891
:1041FC001525000800000000000000000000000071
:10420C00F1240008E5240008FD2400080925000815
:10421C0009024300020100C032090400000102023D
:10422C0001000524001001052401000104240202F0
:10423C00052406000107058203080010090401008B
:10424C00020A000000070501024000000705810278
:10425C004000000009024300020100C032090400C2
:10426C0000010202010005240010010524010001D7
:10427C00042402020524060001070582030800102D
:10428C0009040100020A00000007050102000200F7
:10429C0007058102000200000A060002000000402F
:1042AC000100000009074300020104C032090400A8
:1042BC000001020201000524001001052401000187
:1042CC00042402020524060001070582030800FFEE
:1042DC0009040100020A0000000705010240000069
:1042EC00070581024000000000127A002933000803
:1042FC00013300080533000809330008F9350008BC
:10430C0005360008113600082D360008493600081D
:10431C0065360008813600081201000202020040D6
:10432C008304405700020102030100000403090446
:10433C0064010020000000000000000000000000EC
:10434C000000000000000000000000000000000061
:10435C000000000000000000000000000000000051
:10436C000000000000000000000000000000000041
:10437C000000000000000000000000000000000031
:10438C000000000000000000000000000000000021
:04439C00000000001D
:040000050800369D1C
:00000001FF
