:020000040800F2
:10000000005000205D0B0008FD0A0008FF0A0008F0
:10001000010B0008030B0008050B0008000000009E
:10002000000000000000000000000000070B0008B6
:10003000090B0008000000000B0B00080D0B000866
:10004000A50B0008A50B0008A50B0008A50B0008D0
:10005000A50B0008A50B0008A50B0008A50B0008C0
:10006000A50B0008A50B0008A50B0008A50B0008B0
:10007000A50B0008A50B0008A50B0008A50B0008A0
:10008000A50B0008A50B0008A50B0008A50B000890
:10009000A50B0008A50B0008A50B0008A50B000880
:1000A000A50B0008A50B0008A50B0008A50B000870
:1000B000A50B0008A50B0008A50B0008A50B000860
:1000C000A50B0008A50B0008A50B0008A50B000850
:1000D000A50B0008A50B0008A50B0008A50B000840
:1000E000A50B0008A50B0008A50B000800000000E8
:1000F0000000000000000000000000000000000000
:0C01000000000000000000005FF808F1A3
:10010C0010B5054C237833B9044B13B10448AFF345
:10011C0000800123237010BD70000020000000003F
:10012C003C1B000808B5034B1BB103490348AFF354
:10013C00008008BD00000000740000203C1B00087B
:10014C0038B50E4B054618784FF47A73B3FBF0F3C1
:10015C000B4A1068B0FBF3F000F092F8044658B963
:10016C000F2D09D8024629464FF0FF3000F054F805
:10017C00044B20461D6038BD012038BD0000002016
:10018C000800002004000020074A08B5136803206B
:10019C0043F01003136000F02DF80020FFF7D0FFA0
:1001AC0000F084FC002008BD00200240034A044BF0
:1001BC0011681B780B441360704700BF9800002037
:1001CC0000000020014B1868704700BF9800002009
:1001DC0038B50446FFF7F6FF0546631C1EBF044BFB
:1001EC001B78E418FFF7EEFF401B8442FAD838BDA9
:1001FC0000000020074A0002D36800F4E06023F4FA
:10020C00E0631B041B0C43F0BF6343F40033034354
:10021C00D360704700ED00E0174B30B5DC68C4F3D9
:10022C000224C4F10703251D042B28BF0423062D2B
:10023C004FF0010598BF002405FA03F303F1FF33D7
:10024C0088BF033C1940A14005FA04F4013C22404C
:10025C00002842EA01024FEA0212AFBF00F16040EF
:10026C00064B00F00F00D2B2A5BFD2B200F5614030
:10027C001A5480F8002330BD00ED00E014ED00E0CE
:10028C000138B0F1807F0AD2F021064B064A586043
:10029C0082F823100020072298601A607047012012
:1002AC00704700BF10E000E000ED00E02DE9F74FD3
:1002BC0000221646654BDFF8A4E1DFF8A4C14FF02D
:1002CC0001080C6808FA06F808EA0404A0457FD176
:1002DC004D68122D00F0AF8000F28880022D00F0E6
:1002EC00A7807CD8002D00F08E80012D00F09E8020
:1002FC004FF00F09FF2C93BF824606F18045083D55
:10030C00D0F800B092BFB500D0F804B0AD0009FA37
:10031C0005F82BEA080802FA05F588BF00F1040A73
:10032C0048EA0505CAF80050D1F804A01AF0805F1D
:10033C004ED0474D464FAD6926F0030845F00105F8
:10034C00BD61BD6908F1804805F00105019508F50E
:10035C00803806F0030B019D4FEA8B0BD8F8085040
:10036C0009FA0BF925EA09093A4DA84268D005F5B6
:10037C008065A84266D005F58065A84264D005F575
:10038C008065A8420CBF0325042505FA0BF545EA48
:10039C000905C8F808501D681AF4803F14BF25439E
:1003AC00A5431D605D681AF4003F14BF2543A543A7
:1003BC005D609D681AF4801F14BF2543A5439D60A2
:1003CC00DD681AF4001F14BF2C4325EA0404DC601A
:1003DC000136102E7FF473AF03B0BDE8F08F032D00
:1003EC0022D0112D84D1CA68043281E71A4FBD4244
:1003FC0009D012D8DFF86C904D4504D009F580393E
:10040C004D457FF475AF8A68C2B1012A0CBFC0F8A4
:10041C001080C0F8148008226AE77545F3D0654552
:10042C00F1D0DFF84490EBE7002261E7CA685FE7A0
:10043C00CA6808325CE7CA680C3259E7042257E7ED
:10044C000025A2E70125A0E702259EE70004014054
:10045C000010024000080140000021100000311083
:10046C000000321000001110000022100AB10161CE
:10047C0070470904FBE7000003682DE9F341DB0733
:10048C00054610D42B689F075ED42B68190700F122
:10049C0095802B685A0700F1BF80EA69002A40F06A
:1004AC002D81002014E0904C636803F00C03042BA6
:1004BC0007D0636803F00C03082B0CD16368DE03D0
:1004CC0009D523689C03DDD56B68002BDAD101209C
:1004DC0002B0BDE8F0816B68B3F5803F10D12368A2
:1004EC0043F480332360FFF76DFE064623689803C0
:1004FC00C8D4FFF767FE801B6428F7D90320E7E711
:10050C009BB9236823F480332360236823F480236E
:10051C002360FFF757FE064623689903B2D5FFF711
:10052C0051FE801B6428F7D9E8E7B3F5A02F2368A8
:10053C0003D143F480232360D1E723F48033236079
:10054C00236823F48023CDE7674C636813F00C0F0A
:10055C0007D0636803F00C03082B10D16368DA032F
:10056C000DD423689B0702D52B69012BAFD12368CF
:10057C006A6923F0F80343EAC203236085E72A691A
:10058C005A4B6AB101221A60FFF71CFE064623681B
:10059C009F07ECD4FFF716FE801B0228F7D9ADE7B6
:1005AC001A60FFF70FFE0646236898077FF56DAFBC
:1005BC00FFF708FE801B0228F6D99FE7AA694A4C70
:1005CC004B4BDAB101221A60FFF7FCFD0646636A59
:1005DC009B070DD54FF4FA52464B1B68B3FBF2F355
:1005EC00019300BF019B5A1E0192002BF9D150E7D9
:1005FC00FFF7E8FD801B0228E9D97FE71A60FFF7B7
:10060C00E1FD0646636A9F077FF543AFFFF7DAFD0E
:10061C00801B0228F6D971E7334CE369D80024D447
:10062C000127E36943F08053E361E36903F08053EE
:10063C000093009B304E3368D90518D5EB68012B1D
:10064C0026D1236A43F001032362FFF7BBFD41F27D
:10065C0088368046236A9B073FD5002F3FF41DAF99
:10066C00E36923F08053E36117E70027E2E733687F
:10067C0043F480733360FFF7A5FD80463368DA05D9
:10068C00DCD4FFF79FFDA0EB08006428F6D935E712
:10069C00ABB9236A41F2883823F001032362236A41
:1006AC0023F004032362FFF78DFD0646236A9807A7
:1006BC00D3D5FFF787FD801B4045F7D91EE7052BE7
:1006CC00236A03D143F004032362BAE723F0010346
:1006DC002362236A23F00403B6E7FFF773FDA0EB54
:1006EC000800B042B6D909E70010024000004242AF
:1006FC00800442420800002000700040224C6368D5
:10070C0003F00C03082B3FF4E2AE00231F4E022A29
:10071C0033602BD1FFF756FD0746236899011FD490
:10072C002B6AB3F5803F05D16268A96822F40032C8
:10073C000A436260696A62680B4322F474121343C1
:10074C00636001233360FFF73DFD054623689A0182
:10075C003FF5A7AEFFF736FD401B0228F6D9CDE6D4
:10076C00FFF730FDC01B0228D7D9C7E6FFF72AFDDB
:10077C00054623689B017FF594AEFFF723FD401BD4
:10078C000228F6D9BAE600BF0010024060004242CF
:10079C0030B5194B87B002AC03F11005224618682E
:1007AC005968083303C2AB421446F7D101238DF8C4
:1007BC000430022311498DF805304B6803F00C020C
:1007CC00082A17D1C3F3834206A80244DB0312F8AC
:1007DC00102C0CD54B680A48C3F34043504306AA6F
:1007EC00134413F8143CB0FBF3F007B030BD0548CC
:1007FC005043FAE70248F8E7541B00080010024087
:10080C0000127A0000093D00544A2DE9F0411368AA
:10081C00054603F007038B420E462AD329688C0742
:10082C0034D4CA0747D44D4A136803F007039E42D9
:10083C00C0F082802A684A4C12F0040F40F0878086
:10084C00130706D563682A6923F4605343EAC2038D
:10085C006360FFF79DFF6368424AC3F30313D35CE5
:10086C00D840414B18600020FFF76AFC0020BDE81F
:10087C00F081136823F007030B431360136803F034
:10088C0007039942CAD00120BDE8F081344B11F026
:10089C00040F1EBF5A6842F4E0625A60080742BF58
:1008AC005A6842F460525A605A68A86822F0F00202
:1008BC0002435A60B5E76A68294C012A23681CD1A7
:1008CC0013F4003FDFD0636841F2883823F0030350
:1008DC0013436360FFF776FC6B680746012B14D15A
:1008EC00636803F00C03042B9DD0FFF76BFCC01B5B
:1008FC004045F5D90320BDE8F081022A02D113F05E
:10090C00007FDFE713F0020FDCE7022B0FD16368E7
:10091C0003F00C03082B86D0FFF754FCC01B40459A
:10092C00F5D9E7E7FFF74EFCC01B4045E2D86368FA
:10093C0013F00C0FF6D176E7136823F0070333435B
:10094C001360136803F007039E429CD172E763683F
:10095C00E96823F4E0630B43636071E70020024015
:10096C0000100240871B00080800002010B590B052
:10097C002822002106A800F035F90021142201A834
:10098C0000F030F94FF480330122022407930E93C8
:10099C004FF4E01306A806920A920F930D94FFF7FA
:1009AC006BFD0F234FF4806201930023214601A8B5
:1009BC000294039304920593FFF726FF10B010BD29
:1009CC0030B589B0FFF7E0FBFFF7D0FF1022002114
:1009DC000DEB020000F006F9234B4FF400519A691D
:1009EC00224842F010029A619A69002402F0100227
:1009FC000092009A9A691E4D42F020029A619A69FF
:100A0C0002F020020192019A9A6942F004029A6162
:100A1C009A6902F004020292029A9A6942F0080260
:100A2C009A619B69002203F008030393039BFFF771
:100A3C001DFD4FF40053049301230593022304A9D5
:100A4C000A4807930694FFF731FC0A4800F046F970
:100A5C00214628464C1C00F0CDF84FF47A70FFF775
:100A6C00B7FB2146F5E700BF001002400010014023
:100A7C00771B0008641B000810B500234FF060447E
:100A8C00934201DB104610BDD4F8800EC00703D58D
:100A9C00D4F8000EC00702D40133F1E700BF206880
:100AAC000028FBD0C85C2070F6E700000E4B82B02B
:100ABC009A6942F001029A619A6902F0010200926D
:100ACC00009ADA6942F08052DA61DB69074A03F076
:100ADC0080530193019B536823F0E06343F0007350
:100AEC00536002B0704700BF00100240000001408C
:100AFC007047FEE7FEE7FEE7FEE77047704770477A
:100B0C00FFF754BB0F4B1A6842F001021A60596888
:100B1C000D4A0A405A601A6822F0847222F480321C
:100B2C001A601A6822F480221A605A6822F4FE02B3
:100B3C005A604FF41F029A604FF00062034B9A60A8
:100B4C00704700BF001002400000FFF800ED00E00D
:100B5C00002103E00B4B5B58435004310A480B4B0C
:100B6C0042189A42F6D30A4A02E0002342F8043BA8
:100B7C00084B9A42F9D3FFF7C5FF00F00FF8FFF7C7
:100B8C001FFF7047381C0008000000207000002078
:100B9C0070000020A0000020FEE7000070B50025CA
:100BAC000C4E0D4CA41BA410A54209D100F0C0FFA3
:100BBC0000250A4E0A4CA41BA410A54205D170BDF9
:100BCC0056F8253098470135EEE756F8253098470A
:100BDC000135F2E7301C0008301C0008301C0008FE
:100BEC00341C000803460244934200D1704703F8BA
:100BFC00011BF9E70FB40A4B13B51C6824B1A369A8
:100C0C0013B9204600F024FA05AB049AA1682046DB
:100C1C00019300F0DDFB02B0BDE8104004B070475A
:100C2C000C00002070B50E46054618B183690BB94F
:100C3C0000F00EFAAB69AC6813B9284600F008FA5C
:100C4C00234B9C4217D16C68A3891B071DD52369C4
:100C5C00DBB1013EA36816F8011F013BA360E9B9A3
:100C6C00002B2EDA22460A21284600F03FF80130EC
:100C7C0011D00A2070BD174B9C4201D1AC68E3E740
:100C8C00154B9C4208BFEC68DEE72146284600F075
:100C9C007FF80028DDD04FF0FF3070BD002B04DA58
:100CAC00A269934206DB0A2904D023685A1C2260ED
:100CBC001970CFE72246284600F018F80130C9D148
:100CCC00E9E70A2023685A1C2260187070BD00BF27
:100CDC00B81B0008D81B0008981B0008024B0146E3
:100CEC001868FFF79FBF00BF0C000020F8B50E4638
:100CFC001446054618B183690BB900F0A9F9214BCC
:100D0C009C422AD16C68A369A360A3891A072ED5CB
:100D1C00236963B323692068F6B2C01A6369374646
:100D2C00984204DB2146284600F028F928BBA3682A
:100D3C000130013BA36023685A1C22601E7063695A
:100D4C00984204D0A389DB0719D50A2E17D1214666
:100D5C00284600F013F990B10FE00B4B9C4201D1E7
:100D6C00AC68D0E7094B9C4208BFEC68CBE7214646
:100D7C00284600F00DF80028CCD04FF0FF3738464D
:100D8C00F8BD00BFB81B0008D81B0008981B000852
:100D9C00324B70B51D6806460C4625B1AB6913B9CC
:100DAC00284600F055F92E4B9C420FD16C68B4F9D3
:100DBC000C309AB215072CD4D00611D4092232600B
:100DCC0043F04003A3814FF0FF3070BD254B9C4294
:100DDC0001D1AC68EBE7244B9C4208BFEC68E6E71A
:100DEC00510712D5616B41B104F14403994202D011
:100DFC00304600F01BFA00236363A38923F024031D
:100E0C00A3810023636023692360A38943F0080353
:100E1C00A38123694BB9A38903F42073B3F5007F35
:100E2C0003D02146304600F0C1F9A28912F001032B
:100E3C000CD00023A36063695B42A361236953B99F
:100E4C00B4F90C3013F08000BAD170BD920758BFC2
:100E5C006369A360F2E70020F7E700BF0C000020F5
:100E6C00B81B0008D81B0008981B00088A892DE9BC
:100E7C00F041054610070C465AD44B68002B05DC94
:100E8C000B6C002B02DC0020BDE8F081E66A002E22
:100E9C00F9D0002312F480522F682B6033D0606D90
:100EAC00A3895A0705D56368C01A636B0BB1236C11
:100EBC00C01A00230246E66A216A2846B047431C42
:100ECC00A38906D129681D294BD82B4ACA40D607BD
:100EDC0047D5002262602269D904226004D5421CE5
:100EEC0001D12B6803B96065616B2F600029CAD0F2
:100EFC0004F14403994202D0284600F097F90020EF
:100F0C006063BDE8F081216A01232846B047411C8B
:100F1C00C6D12B68002BC3D01D2B01D0162B01D1B1
:100F2C002F60B0E7A38943F04003A381BDE8F081B3
:100F3C000F69002FA7D0930718BF00230E6808BFB6
:100F4C004B69A6EB07080F608B60B8F1000F9ADDB8
:100F5C0043463A46216A2846A66AB047002807DC71
:100F6C00A38943F04003A3814FF0FF30BDE8F0812B
:100F7C000744A8EB0008E8E70100402038B50B69EE
:100F8C0005460C46DBB118B183690BB900F060F86B
:100F9C000C4B9C4209D16C68B4F90C307BB12146E6
:100FAC002846BDE83840FFF761BF074B9C4201D192
:100FBC00AC68F1E7054B9C4208BFEC68ECE70020FD
:100FCC0038BD00BFB81B0008D81B0008981B0008D0
:100FDC00014900F0A9B800BF890F0008002310B523
:100FEC00044603604360836081814366C281036170
:100FFC0043618361194608225C30FFF7F3FD054B12
:10100C0024626362044BA362044BE362044B2363CC
:10101C0010BD00BF591900087B190008B31900084E
:10102C00D719000870B568254A1E55430E4605F1C0
:10103C00740100F047F9044640B1002180E84200F9
:10104C000C30A06005F16802FFF7CCFD204670BDA6
:10105C00836910B5044633BB8364C3640365124BC8
:10106C00124A1B688262984204BF0123836100F01C
:10107C001FF86060204600F01BF8A060204600F0CE
:10108C0017F80022E06004216068FFF7A7FF012237
:10109C000921A068FFF7A2FF02221221E068FFF7E6
:1010AC009DFF0123A36110BDF81B0008DD0F000894
:1010BC00F8B51C4B07461E68B36913B93046FFF7E9
:1010CC00C7FF4836B4687368013B03D5336833B146
:1010DC003668F7E7B4F90C506DB16834F4E70421C5
:1010EC003846FFF79FFF30600028F1D10C230446EF
:1010FC003B602046F8BD4FF6FF73E3810123656624
:10110C00A3812560A560656025616561A5610822E4
:10111C00294604F15C00FFF765FD6563A563A564D2
:10112C00E564E6E7F81B00082DE9F843804689469C
:10113C00002600F1480414B93046BDE8F883A568D0
:10114C006768013F01D52468F5E7AB89012B07D906
:10115C00B5F90E30013303D029464046C847064343
:10116C006835EEE770B50E46B1F90E1090B0002957
:10117C0014461D4607DA00232B60B3891A0610D4D7
:10118C004FF480630EE001AA00F046FC0028F2DB6D
:10119C00029A02F47042A2F500535A425A412A6054
:1011AC00EEE740230020236010B070BD8B8973B52F
:1011BC009D0706460C4607D504F1470323602361BF
:1011CC000123636102B070BD01AB6A46FFF7CAFF31
:1011DC0000990546304600F075F848B9B4F90C3062
:1011EC009A05EFD423F0030343F00203A381E3E752
:1011FC000D4BB362A389206043F08003A381009B55
:10120C0020616361019B5BB1B4F90E10304600F0B4
:10121C0015FC28B1A38923F0030343F00103A38138
:10122C00A3891D43A581CDE7DD0F000838B5054620
:10123C00002943D051F8043C0C1F002BB8BFE41814
:10124C0000F02CFC1E4A1368104633B9636014601E
:10125C002846BDE8384000F022BCA3420BD92168D7
:10126C006218934201BF1A685B685218226063606F
:10127C000460EDE713465A680AB1A242FAD919681C
:10128C005818A0420BD120680144581882421960AA
:10129C00DED110685268014419605A60D8E702D94F
:1012AC000C232B60D4E7206821188A4201BF1168F7
:1012BC0052680918216062605C60C9E738BD00BFE4
:1012CC008C00002070B5CD1C25F0030508350C2DC5
:1012DC0038BF0C25002D064601DBA94203D90C238F
:1012EC003360002070BD00F0D9FB234A14682146FE
:1012FC0091B9224C23681BB9304600F017FB2060D3
:10130C002946304600F012FB431C26D10C233046F4
:10131C00336000F0C4FBE4E70B685B1B1AD40B2BA7
:10132C000FD90B60CC18CD50304600F0B8FB04F14F
:10133C000B00231D20F00700C31A1BD05A42E250A9
:10134C0070BD8C420BBF63684B681360636018BF41
:10135C000C46E9E70C464968CAE7C41C24F00304B0
:10136C00A04205D0211A304600F0E0FA0130CDD071
:10137C002560D9E770BD00BF8C00002090000020D4
:10138C00936810B4013B002B936008DA9469A34274
:10139C0002DBCBB20A2B02D110BCFFF7A7BC13683F
:1013AC00581C10601970C8B210BC7047F8B50646CE
:1013BC000F461446D518AC4201D1002007E03A463E
:1013CC0014F8011B3046FFF7DBFF431CF3D1F8BDCB
:1013DC002DE9F04F9DB00C4617460393064618B105
:1013EC0083690BB9FFF734FE7C4B9C4257D1746870
:1013FC00A38918075DD52369002B5AD000230993C4
:10140C0020238DF8293030234FF0010B8DF82A3032
:10141C00B846454615F8013B002B55D1B8EB070AE9
:10142C000BD053463A4621463046FFF7BFFF0130FA
:10143C0000F0C480099B5344099398F80030002BAA
:10144C0000F0BC8000234FF0FF3204930793059209
:10145C0006938DF853301A9305222978604800F0D2
:10146C000FFB05F10108049B002831D1D90644BFBC
:10147C0020228DF853201A0744BF2B228DF85320BD
:10148C002A782A2A2CD000210A20079AA84698F8F4
:10149C0000300135303B092B6DD971B326E0514B2F
:1014AC009C4201D1B468A3E74F4B9C4208BFF4683F
:1014BC009EE721463046FFF76BFC00289ED04FF08C
:1014CC00FF301DB0BDE8F08F252BA7D0A846A0E7B4
:1014DC00434A4546801A0BFA00F018430490BBE7C8
:1014EC00039A111D12680391002A01DB079204E094
:1014FC00524243F002030792049398F800302E2BCB
:10150C0010D198F8013008F101012A2B37D1039B37
:10151C0008F102081A1D1B680392002BB8BF4FF08C
:10152C00FF330593314D032298F80010284600F044
:10153C00A7FA40B14023401B03FA00F0049B08F1CA
:10154C0001080343049398F800100622284808F178
:10155C0001078DF8281000F093FA002834D0254BA1
:10156C0003BB039B073323F0070308330393099B47
:10157C004B4409934CE700FB0232012186E7002320
:10158C000A2518460593884698F800200131303A10
:10159C00092A03D9002BC5D00590C3E705FB002011
:1015AC000123F0E703AB00932246134B04A930460A
:1015BC00AFF30080B0F1FF3F8146D8D1A3895B0621
:1015CC003FF57DAF09987CE703AB009322460A4BAD
:1015DC0004A9304600F08AF8ECE700BFB81B0008FD
:1015EC00FC1B0008D81B0008981B0008021C0008F4
:1015FC00061C000800000000B91300082DE9F04794
:10160C0091461F468A680B6906469342B8BF13463B
:10161C00C9F8003091F843200C46DDF8208012B157
:10162C000133C9F800302368990642BFD9F800305D
:10163C000233C9F80030256815F0060507D104F10E
:10164C00190AE368D9F800209B1A9D422ADB94F80A
:10165C0043302268003318BF012392062FD404F1C3
:10166C00430239463046C047013022D02368E56832
:10167C0003F00603042B18BF0025D9F800204FF007
:10168C00000908BFAD1AA368226908BF25EAE575F1
:10169C009342C4BF9B1AED181A344D451BD1002040
:1016AC00BDE8F0870123524639463046C047013029
:1016BC0003D14FF0FF30BDE8F0870135C1E7302092
:1016CC00E11881F843005A1C94F845102244023367
:1016DC0082F84310C3E70123224639463046C047FF
:1016EC000130E6D009F10109D7E700002DE9F043FC
:1016FC0017460A7E85B06E2A984606460C460C9B09
:10170C0001F1430E00F0BC801AD8632A2ED00AD8FF
:10171C00002A00F0C880582A00F08A8004F14205A3
:10172C0084F842202AE0642A01D0692AF6D1216883
:10173C001A6811F0800F23D0111D1960136827E06F
:10174C00732A00F0B48008D86F2A2AD0702AE5D109
:10175C000A6842F020020A6003E0752A21D0782A38
:10176C00DCD178226F4984F8452064E01A6801F1D5
:10177C004205111D1960136884F842300123A3E05F
:10178C0011F0400F02F104011960D7D0B2F900300A
:10179C00002B03DA2D225B4284F8432062490A2293
:1017AC0017E02068196810F0800F03D0081D18602E
:1017BC000B6806E010F0400F01F104001860F7D040
:1017CC000B886F2A14BF0A2208225749002084F87C
:1017DC0043006568002DA560C0F29C80206820F055
:1017EC0004002060002B3FD1002D40F09580754601
:1017FC00082A0BD12368DA0708D5236962689A4254
:10180C00DEBF302305F8013C05F1FF35AEEB0503D7
:10181C002361CDF800803B4603AA21463046FFF7F2
:10182C00EDFE013055D14FF0FF3005B0BDE8F0832F
:10183C0081F845203C492268186812F0800F00F1AD
:10184C0004051D6001D0036802E05506FBD5038832
:10185C00D00744BF42F0200222601BB9226822F05C
:10186C00200222601022B1E77546B3FBF2F002FBB6
:10187C001033CB5C05F8013D03460028F5D1B7E7E2
:10188C0008681A6810F0800F496904D0101D1860A0
:10189C001368196007E010F0400F02F104001860A3
:1018AC001368F6D01980002375462361B1E71A68D6
:1018BC00111D1960156800216268284600F0E0F8D7
:1018CC0008B1401B606063682361002384F84330D7
:1018DC009FE723692A4639463046C0470130A2D0DB
:1018EC0023689B0707D5002504F11909E368039ABF
:1018FC009B1A9D4205DBE068039B9842B8BF1846D3
:10190C0093E701234A4639463046C04701308AD016
:10191C000135EBE7002BA7D10B7804F1420584F8D5
:10192C00423065E71E1C00080D1C000838B500236A
:10193C00054C05460846236000F0ECF8431C02D128
:10194C00236803B12B6038BD9C00002010B50C46F9
:10195C00B1F90E1000F0A4F80028ABBF636DA38999
:10196C001B1823F48053ACBF6365A38110BD2DE914
:10197C00F0411F468B890546DB050C46164605D5FE
:10198C0002230022B1F90E1000F068F8A389324648
:10199C0023F48053A381B4F90E103B462846BDE8CE
:1019AC00F04100F017B810B50C46B1F90E1000F06C
:1019BC0055F8431CA38915BF606523F4805343F489
:1019CC008053A38118BFA38110BDB1F90E1000F094
:1019DC0013B8000038B50546084611460022054CE0
:1019EC0022601A46FFF748F8431C02D1236803B162
:1019FC002B6038BD9C00002038B50023054C0546F3
:101A0C000846236000F05EF8431C02D1236803B142
:101A1C002B6038BD9C00002038B50023064C0546D1
:101A2C0008461146236000F055F8431C02D1236888
:101A3C0003B12B6038BD00BF9C00002038B50023DB
:101A4C00054C05460846236000F04CF8431C02D1B7
:101A5C00236803B12B6038BD9C00002038B50546C7
:101A6C00084611460022054C22601A4600F042F846
:101A7C00431C02D1236803B12B6038BD9C000020AD
:101A8C0010B5C9B202449042034601D1002010BDEA
:101A9C001C7801308C42F6D1184610BD7047704747
:101AAC0038B50546084611460022054C22601A46F8
:101ABC0000F028F8431C02D1236803B12B6038BD19
:101ACC009C0000205822024B4FF0FF301A607047E8
:101ADC009C0000205822024B4FF0FF301A607047D8
:101AEC009C0000205822024B00201A60704700BF57
:101AFC009C0000205822024B4FF0FF301A607047B8
:101B0C009C0000205822024B4FF0FF301A607047A7
:101B1C009C000020044B0246196809B9034919605E
:101B2C00186802441A60704794000020A00000203E
:101B3C00F8B500BFF8BC08BC9E467047F8B500BFAE
:081B4C00F8BC08BC9E4670477E
:101B540002030405060708090A0B0C0D0E0F1010EA
:101B64004170706C69636174696F6E207374617223
:101B7400742E0048656C6C6F20576F726C6420255E
:101B8400640A0000000000000000000102030406D3
:101B94000708090000000000000000000000000029
:101BA4000000000000000000000000000000000031
:101BB4000000000000000000000000000000000021
:101BC4000000000000000000000000000000000011
:101BD4000000000000000000000000000000000001
:101BE40000000000000000000000000000000000F1
:101BF4000000000010000020232D302B2000686C12
:101C04004C0065666745464700303132333435361B
:101C14003738394142434445460030313233343554
:0C1C240036373839616263646566000081
:041C30003101000876
:041C34000D01000896
:101C3800010000001000000000A24A04100000206B
:101C480000000000B81B0008D81B0008981B0008FB
:101C5800000000000000000000000000000000007C
:101C6800000000000000000000000000000000006C
:101C7800000000000000000000000000000000005C
:101C8800000000000000000000000000000000004C
:101C9800000000000000000000000000000000003C
:0400000508000B5D87
:00000001FF
