:020000040800F2
:1000000000500020751B0008151B0008171B000876
:10001000191B00081B1B00081D1B00080000000026
:100020000000000000000000000000001F1B00088E
:10003000211B000800000000231B0008251B0008EE
:10004000BD1B0008BD1B0008BD1B0008BD1B000830
:10005000BD1B0008BD1B0008BD1B0008BD1B000820
:10006000BD1B0008BD1B0008BD1B0008BD1B000810
:10007000BD1B0008BD1B0008BD1B0008BD1B000800
:10008000BD1B0008BD1B0008BD1B0008BD1B0008F0
:10009000BD1B0008BD1B0008BD1B0008BD1B0008E0
:1000A000BD1B0008BD1B0008BD1B0008BD1B0008D0
:1000B000BD1B0008BD1B0008BD1B0008BD1B0008C0
:1000C000BD1B0008BD1B0008BD1B0008BD1B0008B0
:1000D000BD1B0008BD1B0008BD1B0008BD1B0008A0
:1000E000BD1B0008BD1B0008BD1B00080000000070
:1000F0000000000000000000000000000000000000
:0C01000000000000000000005FF808F1A3
:10010C0010B5054C237833B9044B13B10448AFF345
:10011C0000800123237010BD70000020000000003F
:10012C00BC24000808B5034B1BB103490348AFF3CB
:10013C00008008BD0000000074000020BC240008F2
:10014C00034613F8012B002AFBD1181A013870470B
:10015C0038B50E4B054618784FF47A73B3FBF0F3B1
:10016C000B4A1068B0FBF3F000F080F8044658B965
:10017C000F2D09D8024629464FF0FF3000F042F807
:10018C00044B20461D6038BD012038BD0000002006
:10019C000800002004000020074A08B5136803205B
:1001AC0043F01003136000F01BF80020FFF7D0FFA2
:1001BC0001F01AFC002008BD00200240034A044B49
:1001CC0011681B780B441360704700BF9800002027
:1001DC0000000020014B1868704700BF98000020F9
:1001EC00074A0002D36800F4E06023F4E0631B04C8
:1001FC001B0C43F0BF6343F400330343D3607047DD
:10020C0000ED00E0174B30B5DC68C4F30224C4F1F8
:10021C000703251D042B28BF0423062D4FF00105D1
:10022C0098BF002405FA03F303F1FF3388BF033CA6
:10023C001940A14005FA04F4013C2240002842EA8E
:10024C0001024FEA0212AFBF00F16040064B00F012
:10025C000F00D2B2A5BFD2B200F561401A5480F89B
:10026C00002330BD00ED00E014ED00E00138B0F1EA
:10027C00807F0AD2F021064B064A586082F8231080
:10028C000020072298601A6070470120704700BF59
:10029C0010E000E000ED00E02DE9F74F00221646DB
:1002AC00654BDFF8A4E1DFF8A4C14FF001080C683E
:1002BC0008FA06F808EA0404A0457FD14D68122D0F
:1002CC0000F0AF8000F28880022D00F0A7807CD86F
:1002DC00002D00F08E80012D00F09E804FF00F0954
:1002EC00FF2C93BF824606F18045083DD0F800B044
:1002FC0092BFB500D0F804B0AD0009FA05F82BEAAE
:10030C00080802FA05F588BF00F1040A48EA050559
:10031C00CAF80050D1F804A01AF0805F4ED0474DB7
:10032C00464FAD6926F0030845F00105BD61BD6976
:10033C0008F1804805F00105019508F5803806F0B4
:10034C00030B019D4FEA8B0BD8F8085009FA0BF9F7
:10035C0025EA09093A4DA84268D005F58065A842FE
:10036C0066D005F58065A84264D005F58065A84285
:10037C000CBF0325042505FA0BF545EA0905C8F859
:10038C0008501D681AF4803F14BF2543A5431D6017
:10039C005D681AF4003F14BF2543A5435D609D685A
:1003AC001AF4801F14BF2543A5439D60DD681AF421
:1003BC00001F14BF2C4325EA0404DC600136102E08
:1003CC007FF473AF03B0BDE8F08F032D22D0112D55
:1003DC0084D1CA68043281E71A4FBD4209D012D8C1
:1003EC00DFF86C904D4504D009F580394D457FF40C
:1003FC0075AF8A68C2B1012A0CBFC0F81080C0F872
:10040C00148008226AE77545F3D06545F1D0DFF812
:10041C004490EBE7002261E7CA685FE7CA680832DC
:10042C005CE7CA680C3259E7042257E70025A2E7BB
:10043C000125A0E702259EE70004014000100240C0
:10044C0000080140000021100000311000003210A3
:10045C0000001110000022100268536913F480632D
:10046C000DD06FF4806353610423202203640023B6
:10047C00036380F83C3080F83D200120704718461B
:10048C0070472DE9F843044617469946C1F30748CF
:10049C008EB22568B8F1010F0CBF6B69AB6936EAF7
:1004AC00030314BF0120002008B9BDE8F8836B6971
:1004BC005A0512D52B68202243F400732B606FF47D
:1004CC0080636B610423236400230120236384F87D
:1004DC003C3084F83D20BDE8F8837B1CD9D04FB963
:1004EC0000232022236384F83C3084F83D20032031
:1004FC00BDE8F883FFF76EFEA0EB09008742C8D277
:10050C00EEE72DE9F843044690461F46089EC1F3DA
:10051C0007498DB22368B9F1010F0CBF5B699B6968
:10052C0035EA03030CBF01230023434502D000200E
:10053C00BDE8F8837B1CEDD05FB900232022236338
:10054C0084F83C3084F83D20032084F83E30BDE82C
:10055C00F883FFF73FFE801B8742DBD2EDE770B5D7
:10056C0004460D46164623685B691B0601D5002020
:10057C0070BD2046FFF770FFA8B96A1CF3D065B9AF
:10058C00236C202243F020032364002303202363E5
:10059C0084F83C3084F83D2070BDFFF71BFE801BB7
:1005AC008542E0D2ECE7012070BD00002DE9FF414F
:1005BC0015460268984613680B9E43F480731360CB
:1005CC000F4600960A9B00224FF001110446FFF7DC
:1005DC0098FF68B9236807F0FE071F610A9A334633
:1005EC001A492046FFF74DFF30B1236C042B18D06D
:1005FC00032004B0BDE8F081236803905A690A997E
:10060C0003929B69324603932046039BFFF7A7FF97
:10061C0048B1236C042BEBD12268136843F40073AC
:10062C0013600120E5E7B8F1010F236802D1EDB2A8
:10063C001D61DEE72A0A1A610A9932462046FFF745
:10064C008EFF0028E5D12368F1E700BF020001000E
:10065C002DE9FF419846036816461A680B9D42F433
:10066C0080621A601A680F4642F480721A604FF06A
:10067C00011100950A9B00220446FFF742FF80B946
:10068C002368FFB207F0FE021A612D492B460A9A25
:10069C002046FFF7F6FE40B1236C042B01D101205C
:1006AC0000E0032004B0BDE8F081236803905A6990
:1006BC000A9903929B692A4603932046039BFFF7F2
:1006CC004EFF40B1236C042BEBD12268136843F42A
:1006DC0000731360E3E7B8F1010F236824D1F6B27D
:1006EC001E612A460A992046FFF739FF0246002868
:1006FC00E8D1216820460B6843F480730B600095A9
:10070C000A9B4FF00111FFF7FCFE0028C9D12368AA
:10071C0047F001071F610A9A2B4609492046FFF74B
:10072C00B0FE0028B8D1BDE7320A1A610A992A46F0
:10073C002046FFF714FF0028C4D12368CFE700BF81
:10074C000200010070B504460D4616462068436948
:10075C0013F0400301D0002070BD4269D2060BD5C6
:10076C006FF0100242612022236484F83C30236332
:10077C00012084F83D2070BD5DB9236C032043F04B
:10078C0020032364202384F83D30002384F83C307C
:10079C0070BDFFF71FFD801B8542D7D2EDE770B50A
:1007AC0004460D46164623685B695B0701D500209D
:1007BC0070BD2046FFF750FEA8B96A1CF3D065B98E
:1007CC00236C202243F020032364002303202363A3
:1007DC0084F83C3084F83D2070BDFFF7FBFC801B97
:1007EC008542E0D2ECE7012070BD000038B504462C
:1007FC0008B9012038BD90F83D3003F0FF021BB959
:10080C0080F83C2001F012F92423226884F83D3052
:10081C00136823F00103136000F04AFD63682F4A4C
:10082C00934230D82E4A9042E3D92E4A2168B0FB2D
:10083C00F2F24A6001320A62284A0138934232D8F5
:10084C005B00B0FBF3F0431CC3F30B03042B38BF6A
:10085C000423CB61226AE369002013430B60E26836
:10086C00236913438B60A26963691343CB600B68E4
:10087C0043F001030B602023206484F83D30206397
:10088C0084F83E0038BD184A9042B2D9154D4FF449
:10089C009672B0FBF5F521686A434D604FF47A759A
:1008AC00B2FBF5F2C6E7A26852B903EB4303B0FB07
:1008BC00F3F0431CC3F30B036BB143F40043C8E7E1
:1008CC0019225343B0FBF3F0431CC3F30B0313B1D6
:1008DC0043F44043BDE70123BBE700BFA086010002
:1008EC007F841E0040420F00FF083D002DE9F347B6
:1008FC0004469A46884691460C9EFFF76BFC94F88A
:10090C003D300546202B03D0022002B0BDE8F08715
:10091C000090192301223E492046FFF7F2FD0028E2
:10092C00F2D194F83C30012BEED0012384F83C300A
:10093C00236800271A684146D20758BF1A68204618
:10094C005CBF42F001021A601A6822F400621A605D
:10095C00212384F83D30402384F83E300A9B2764E1
:10096C006362BDF82C30019563852A4B0096E362D7
:10097C00638D4A4623855346FFF718FE00282AD07C
:10098C00236C84F83C70042B07D10120BDE7FFF7E2
:10099C00E6FD20B1236C042B34D00320B5E7616A4B
:1009AC0027684B1C63620B78228D3B61638D501E54
:1009BC00013B9BB263857B6980B25B0720850AD5BE
:1009CC0048B18B1C63624B78023A3B61638D228584
:1009DC00013B9BB26385238D2A4631462046002B72
:1009EC00D5D1FFF7DCFE0028D4D12268136843F47C
:1009FC0000731360202384F83C0084F83D3084F8A5
:100A0C003E0082E72268136843F400731360BCE76E
:100A1C00020010000000FFFF2DE9F047044686B0ED
:100A2C009A460D469146109FFFF7D4FB94F83D3043
:100A3C000646202B04D00225284606B0BDE8F087D8
:100A4C0000901923012281492046FFF75AFD002806
:100A5C00F1D194F83C30012BEDD0012384F83C30DB
:100A6C0023684FF000081A682946D20758BF1A6845
:100A7C0020465CBF42F001021A601A6822F4006240
:100A8C001A60222384F83D30402384F83E300E9BBC
:100A9C00C4F840806362BDF83C30019663856C4BB2
:100AAC000097E362638D4A4623855346FFF7D0FDDA
:100ABC00054630B1236C84F83C80042B3DD10125D4
:100ACC00BAE7228D236892B902905A6902929A6908
:100ADC000292029A1A6842F400721A60202384F877
:100AEC003D30002384F83E3084F83C30A4E7012AE2
:100AFC0025D11A6822F480621A6072B623680390BA
:100B0C005A6903929A690392039A1A6842F4007222
:100B1C001A6062B6DFF83C81238D002BDED0032BEC
:100B2C0077D8012B27D1324639462046FFF70AFEEB
:100B3C0000283FD0236C202BC1D103257CE7022A4F
:100B4C001A680ED142F400621A6072B623680490DF
:100B5C005A6904929A690492049A1A6822F480627F
:100B6C00D6E742F480621A6005905A6905929B6937
:100B7C000593059BCEE7022B00963B464FF00002F7
:100B8C004146204624D1FFF7BCFC0028D5D172B6D3
:100B9C0023681A6842F400721A60626A1B69511C5D
:100BAC0061621370238D013B2385638D013B9BB2E6
:100BBC00638562B6636A5A1C6262226812691A7093
:100BCC00238D013B2385638D013B9BB26385A3E79A
:100BDC00FFF797FC02460028AFD121680B6823F47D
:100BEC0080630B6072B6636A2046591C616221688F
:100BFC0009691970238D0096013B2385638D41464D
:100C0C00013B9BB263853B46FFF77BFC0028BFD0C2
:100C1C0093E7324639462046FFF794FD002889D1E8
:100C2C00636A5A1C6262226812691A70238D2268E8
:100C3C00013B2385638D013B9BB2638553695B0745
:100C4C007FF56AAF636A591C6162B7E70200100056
:100C5C000000FFFF040001002DE9F04F044685B0B1
:100C6C00984689469246FFF7B5FA94F83D30064609
:100C7C00202B03D0022005B0BDE8F08F0090192383
:100C8C0001224B492046FFF73CFC0028F2D194F896
:100C9C003C30012BEED0012384F83C302368002536
:100CAC001A68DFF80CB1D20758BF1A6809F0FE09B0
:100CBC005CBF42F001021A601A6822F400621A60EA
:100CCC00242384F83D303B4B2564E36222684FF0CB
:100CDC0001111368204643F4807313600096434659
:100CEC000022FFF70EFC08B10320C4E72368A027FD
:100CFC00C3F81090FFF76EFA0646236859695A69D3
:100D0C0094F83D30C1F34001C2F38022DBB211B93B
:100D1C000AB9A02B20D12027236884F83D705A698A
:100D2C0012F0020F1A6842F400721A602AD00022E4
:100D3C0003925A691E4903929B6901220393039BF8
:100D4C00009619232046FFF7DCFB0028CCD184F851
:100D5C003D7084F83C008EE7B8F1000F0CD184F89C
:100D6C003D70236859695A6994F83D30C1F34001CC
:100D7C00C2F38022DBB2CAE7FFF72CFA801B804556
:100D8C00EDD3EEE76FF4806259465A612046009627
:100D9C0019230122FFF7B5FB0028A5D10135AA457F
:100DAC0094D884F83C0084F83D70012063E700BFC0
:100DBC00020010000000FFFF006C704703682DE973
:100DCC00F341DB07054610D42B689F075ED42B68D4
:100DDC00190700F195802B685A0700F1BF80EA696A
:100DEC00002A40F02D81002014E0904C636803F041
:100DFC000C03042B07D0636803F00C03082B0CD1F5
:100E0C006368DE0309D523689C03DDD56B68002B72
:100E1C00DAD1012002B0BDE8F0816B68B3F5803FF8
:100E2C0010D1236843F480332360FFF7D3F90646CF
:100E3C0023689803C8D4FFF7CDF9801B6428F7D931
:100E4C000320E7E79BB9236823F4803323602368EE
:100E5C0023F480232360FFF7BDF90646236899032A
:100E6C00B2D5FFF7B7F9801B6428F7D9E8E7B3F5DB
:100E7C00A02F236803D143F480232360D1E723F40C
:100E8C0080332360236823F48023CDE7674C6368A9
:100E9C0013F00C0F07D0636803F00C03082B10D170
:100EAC006368DA030DD423689B0702D52B69012BE9
:100EBC00AFD123686A6923F0F80343EAC2032360C5
:100ECC0085E72A695A4B6AB101221A60FFF782F949
:100EDC00064623689F07ECD4FFF77CF9801B022899
:100EEC00F7D9ADE71A60FFF775F90646236898073E
:100EFC007FF56DAFFFF76EF9801B0228F6D99FE7DF
:100F0C00AA694A4C4B4BDAB101221A60FFF762F91D
:100F1C000646636A9B070DD54FF4FA52464B1B6885
:100F2C00B3FBF2F3019300BF019B5A1E0192002BFD
:100F3C00F9D150E7FFF74EF9801B0228E9D97FE77A
:100F4C001A60FFF747F90646636A9F077FF543AFC0
:100F5C00FFF740F9801B0228F6D971E7334CE3699F
:100F6C00D80024D40127E36943F08053E361E3699B
:100F7C0003F080530093009B304E3368D90518D58D
:100F8C00EB68012B26D1236A43F001032362FFF7A0
:100F9C0021F941F288368046236A9B073FD5002F02
:100FAC003FF41DAFE36923F08053E36117E700279B
:100FBC00E2E7336843F480733360FFF70BF9804644
:100FCC003368DA05DCD4FFF705F9A0EB08006428D8
:100FDC00F6D935E7ABB9236A41F2883823F001031F
:100FEC002362236A23F004032362FFF7F3F8064617
:100FFC00236A9807D3D5FFF7EDF8801B4045F7D946
:10100C001EE7052B236A03D143F004032362BAE7DE
:10101C0023F001032362236A23F00403B6E7FFF7EE
:10102C00D9F8A0EB0800B042B6D909E7001002408D
:10103C000000424280044242080000200070004040
:10104C00224C636803F00C03082B3FF4E2AE002340
:10105C001F4E022A33602BD1FFF7BCF807462368DA
:10106C0099011FD42B6AB3F5803F05D16268A9683A
:10107C0022F400320A436260696A62680B4322F40C
:10108C0074121343636001233360FFF7A3F8054622
:10109C0023689A013FF5A7AEFFF79CF8401B022886
:1010AC00F6D9CDE6FFF796F8C01B0228D7D9C7E6CC
:1010BC00FFF790F8054623689B017FF594AEFFF788
:1010CC0089F8401B0228F6D9BAE600BF001002408E
:1010DC006000424230B5194B87B002AC03F11005E9
:1010EC00224618685968083303C2AB421446F7D13C
:1010FC0001238DF80430022311498DF805304B681B
:10110C0003F00C02082A17D1C3F3834206A8024449
:10111C00DB0312F8102C0CD54B680A48C3F3404380
:10112C00504306AA134413F8143CB0FBF3F007B079
:10113C0030BD05485043FAE70248F8E7D4240008CC
:10114C000010024000127A0000093D00544A2DE9BB
:10115C00F0411368054603F007038B420E462AD371
:10116C0029688C0734D4CA0747D44D4A136803F056
:10117C0007039E42C0F082802A684A4C12F0040F8A
:10118C0040F08780130706D563682A6923F46053FF
:10119C0043EAC2036360FFF79DFF6368424AC3F3EF
:1011AC000313D35CD840414B18600020FEF7D0FFEE
:1011BC000020BDE8F081136823F007030B43136094
:1011CC00136803F007039942CAD00120BDE8F081EF
:1011DC00344B11F0040F1EBF5A6842F4E0625A609F
:1011EC00080742BF5A6842F460525A605A68A868AD
:1011FC0022F0F00202435A60B5E76A68294C012AD2
:10120C0023681CD113F4003FDFD0636841F28838A7
:10121C0023F0030313436360FEF7DCFF6B680746A0
:10122C00012B14D1636803F00C03042B9DD0FEF743
:10123C00D1FFC01B4045F5D90320BDE8F081022A3F
:10124C0002D113F0007FDFE713F0020FDCE7022B73
:10125C000FD1636803F00C03082B86D0FEF7BAFF9E
:10126C00C01B4045F5D9E7E7FEF7B4FFC01B40456E
:10127C00E2D8636813F00C0FF6D176E7136823F00D
:10128C00070333431360136803F007039E429CD19A
:10129C0072E76368E96823F4E0630B43636071E70A
:1012AC000020024000100240FC250008080000202D
:1012BC00044B054A5B68C3F30223D35C034A1068F2
:1012CC00D8407047001002400C260008080000208F
:1012DC00044B054A5B68C3F3C223D35C034A106812
:1012EC00D8407047001002400C260008080000206F
:1012FC002DE9F0470568C2682B69016923F4405356
:10130C0013432B618368EA680B43416922F4B052A2
:10131C0022F00C020B431343EB606B69826923F4DC
:10132C00407313436B61404B81469D424FF019044F
:10133C0046D1FFF7CDFF04FB00F3D9F804604FF062
:10134C006408B600B3FBF6F3B3FBF8F31E01FFF72A
:10135C00BFFF6043D9F804309B00B0FBF3F7FFF7F5
:10136C00B7FF6043D9F804309B00B0FBF3F3B3FB39
:10137C00F8F308FB13731B013233B3FBF8F303F0E0
:10138C00F007FFF7A5FF6043D9F804209200B0FBEB
:10139C00F2FAFFF79DFF6043D9F804309B00B0FBD5
:1013AC00F3F3B3FBF8F308FB13A31B013233B3FBCA
:1013BC00F8F303F00F033B433344AB60BDE8F08715
:1013CC00FFF776FF04FB00F3D9F804604FF06408D4
:1013DC00B600B3FBF6F3B3FBF8F31E01FFF768FF9F
:1013EC006043D9F804309B00B0FBF3F7FFF760FFC4
:1013FC006043D9F804309B00B0FBF3F3B3FBF8F374
:10140C0008FB13731B013233B3FBF8F303F0F00743
:10141C00FFF74EFF6043D9F804209200B0FBF2FABC
:10142C00FFF746FFB7E700BF00380140F8B50446A8
:10143C000E4617461D4621680B6836EA030301D198
:10144C000020F8BD6B1CF7D095B923680320DA682F
:10145C0022F4D072DA605A6922F001025A61202318
:10146C0084F8393084F83A30002384F83830F8BDE9
:10147C00FEF7B0FEC01B8542DDD2E6E710B5044690
:10148C0040B390F8393003F0FF021BB980F83820D4
:10149C0000F0FEFA2423226884F83930D368204601
:1014AC0023F40053D360FFF723FF236800201A694D
:1014BC0022F490421A615A6922F02A025A61DA68BF
:1014CC0042F40052DA602023E06384F8393084F867
:1014DC003A3010BD012010BD2DE9F0411F4690F8A7
:1014EC0039300446202B0D4690464ED1002949D068
:1014FC00002A47D090F83830012B46D0012380F8D1
:10150C0038300023C363212380F83930FEF762FEA4
:10151C000646A4F82480A4F82680E38C9BB26BB911
:10152C003B46324640212046FFF780FFA8B92023D6
:10153C0084F8380084F83930BDE8F081E38C324609
:10154C00013B9BB2E384A3688021B3F5805F204606
:10155C003B460ED1FFF76AFF10B10320BDE8F081C6
:10156C002B882268C3F308035360236943B90235FF
:10157C00D3E7FFF75BFF0028EFD123682A785A6086
:10158C000135CAE70120BDE8F0810220BDE8F081F9
:10159C002DE9F04F05460F4614464FF000084FF06A
:1015AC00FF3ADFF890908DB04FEA521B1FFA88F388
:1015BC009B4502DA0DB0BDE8F08F202CCDF808A0C9
:1015CC002BD92023009701932A461023AE2148469D
:1015DC00FFF78CF90646203C20352037A4B2ADB27B
:1015EC0066B12022002104A800F008FB104904A8D1
:1015FC0000F040FB314604A800F08AF8642664230E
:10160C000122AE214846FFF727FB18B1013E16F028
:10161C00FF06F4D108F10108C8E7019400971023E4
:10162C002A46AE214846FFF761F90646D8E700BFC7
:10163C00F52400089C0000204FF0FF3310B58CB04F
:10164C008DE80E0002461023AE210A48FFF7E4F99C
:10165C00044660B12022002104A800F0CFFA06490C
:10166C0004A800F007FB214604A800F051F80CB0C8
:10167C0010BD00BF9C000020E4240008F0B597B01A
:10168C0005466A466E461F4B03F110071446186850
:10169C005968083303C4BB422246F7D118681B793A
:1016AC00206023713046FEF74BFD314682B24FF479
:1016BC007A731548FFF710FF0024144E124F610087
:1016CC0089B2642301222846FFF7C6FA014698B96D
:1016DC00402206A800F092FA23463246402106A882
:1016EC0000F094FA06A8FEF72BFD4FF47A7382B241
:1016FC0006A93846FFF7F0FE0134802CDFD117B075
:10170C00F0BD00BFD3250008F0000020C325000861
:10171C0030B50D4691B0044640220021684600F0D9
:10172C006DFA022D1FD0032D20D0012D0FD1234691
:10173C00484A4021684600F069FA6846FEF700FD09
:10174C004FF47A7382B269464348FFF7C5FE4348AB
:10175C00FFF732FB042840D00BD801281FD00FD341
:10176C0002282BD0FEE723463D4AE2E723463D4ABA
:10177C00DFE710284FD020285CD008283CD0F1E7B8
:10178C003949684600F076FA6846FEF7D9FC4FF402
:10179C007A7382B269463048FFF79EFEE2E733491E
:1017AC00684600F067FA6846FEF7CAFC4FF47A7395
:1017BC0082B269462848FFF78FFED3E72C4968466A
:1017CC0000F058FA6846FEF7BBFC4FF47A7382B20D
:1017DC0069462148FFF780FEC4E72649684600F0B9
:1017EC0049FA6846FEF7ACFC4FF47A7382B269464C
:1017FC001948FFF771FEB5E71F49684600F03AFA41
:10180C006846FEF79DFC4FF47A7382B26946124823
:10181C00FFF762FEA6E71949684600F02BFA684606
:10182C00FEF78EFC4FF47A7382B269460A48FFF7D2
:10183C0053FE97E71249684600F01CFA6846FEF71B
:10184C007FFC4FF47A7382B269460348FFF744FE7B
:10185C0088E700BF07250008F00000209C0000204E
:10186C001725000826250008382500084C250008F7
:10187C0060250008742500088625000899250008B5
:10188C00AC25000810B590B02822002106A800F065
:10189C00B5F90021142201A800F0B0F94FF48033FF
:1018AC000122022407930E934FF4E01306A806922C
:1018BC000A920F930D94FFF781FA0F234FF4806275
:1018CC0001930023214601A80294039304920593EB
:1018DC00FFF73CFC10B010BD00B50025BBB0FEF707
:1018EC005BFCFFF7CFFF384B384C9A69204642F02F
:1018FC0020029A619A6902F020020092009A9A6979
:10190C0042F004029A619A6902F004020192019A6F
:10191C009A6942F008029A619B692D4A03F0080308
:10192C000293029B2B4BE56084E82C004FF4804320
:10193C0065612361A561E5612562FEF757FF4FF4F0
:10194C00E13325482549856080E80A000C23C560F1
:10195C00436105618561C561FFF790FD2046FFF786
:10196C008DFE03AA15461E4B03F11006144618688B
:10197C005968083303C4B3422246F7D11B78284672
:10198C002370FEF7DDFB294682B20020FFF700FE34
:10199C00C822002108A800F031F9C82208A90020AB
:1019AC00FFF74AFE08A8FEF7CBFB4FF47A7382B21E
:1019BC0008A90948FFF790FD4FF47A7302220949F0
:1019CC000548FFF789FDFEE7001002409C0000204F
:1019DC0000540040A0860100F000002000380140B7
:1019EC00EB250008E82500080E4B82B09A6942F0FE
:1019FC0001029A619A6902F001020092009ADA6976
:101A0C0042F08052DA61DB69074A03F0805301939C
:101A1C00019B536823F0E06343F00073536002B002
:101A2C00704700BF001002400000014010B5044692
:101A3C0086B01022002102A800F0E0F82268114BB9
:101A4C009A421CD1104C02A9A369104843F0080318
:101A5C00A361A36903F008030093009BC0230293C6
:101A6C001223039303230593FEF716FCE36943F457
:101A7C000013E361E36903F400130193019B06B0C7
:101A8C0010BD00BF0054004000100240000C01408B
:101A9C0010B5044686B01022002102A800F0AEF862
:101AAC002268174B9A4228D103F558439A6902A928
:101ABC0042F480429A619A69124802F48042009280
:101ACC00009A9A6942F004029A619B6903F004033C
:101ADC000193019B4FF4007302930223039303239E
:101AEC000593FEF7D9FB4FF480630293002302A900
:101AFC00044803930493FEF7CFFB06B010BD00BF60
:101B0C0000380140000801407047FEE7FEE7FEE7A1
:101B1C00FEE7704770477047FEF750BB0F4B1A68D3
:101B2C0042F001021A6059680D4A0A405A601A685C
:101B3C0022F0847222F480321A601A6822F4802215
:101B4C001A605A6822F4FE025A604FF41F029A601F
:101B5C004FF00062034B9A60704700BF00100240C8
:101B6C000000FFF800ED00E0002103E00B4B5B5898
:101B7C00435004310A480B4B42189A42F6D30A4A96
:101B8C0002E0002342F8043B084B9A42F9D3FFF7DA
:101B9C00C5FF00F00FF8FFF79FFE704750260008B6
:101BAC000000002070000020700000203401002094
:101BBC00FEE7000070B500250C4E0D4CA41BA410C4
:101BCC00A54209D100F074FC00250A4E0A4CA41B56
:101BDC00A410A54205D170BD56F8253098470135A3
:101BEC00EEE756F8253098470135F2E7482600080D
:101BFC0048260008482600084C26000803460244E4
:101C0C00934200D1704703F8011BF9E70CB430B5CF
:101C1C00174B0C1E9DB01D6808DA8B234FF0FF305C
:101C2C002B601DB0BDE8304002B070474FF402731A
:101C3C00ADF814300CBF234604F1FF330493079323
:101C4C004FF6FF7302900690ADF81630209A21AB38
:101C5C0002A92846019300F071F8431CBCBF8B23EA
:101C6C002B60002CDDD00022029B1A70D9E700BF3C
:101C7C000C000020034611F8012B03F8012B002A5D
:101C8C00F9D170472DE9F0478E6882469E420C468A
:101C9C009146984635D88A8912F4906F31D0022338
:101CAC00256809696F1A656905EB450595FBF3F520
:101CBC0008F101033B449D4238BF1D46530531D505
:101CCC00294600F047FB064650B90C23CAF80030F1
:101CDC00A3894FF0FF3043F04003A381BDE8F087A8
:101CEC003A46216900F0C4FAA38923F4906343F0C7
:101CFC008003A38126613E44266046466561ED1B48
:101D0C00A560464528BF464649463246206800F045
:101D1C00BAFAA36800209B1BA36023681E442660AC
:101D2C00BDE8F0872A4600F073FB06460028E1D197
:101D3C002169504600F0C2FAC7E700002DE9F04FC8
:101D4C009DB003938B8980461C060D4616460FD515
:101D5C000B696BB9402100F0FDFA2860286128B9A5
:101D6C000C23C8F800304FF0FF30C4E040236B6107
:101D7C000023099320238DF8293030234FF0010BD9
:101D8C008DF82A3037463C4614F8013B002B3CD1E9
:101D9C00B7EB060A0BD05346324629464046FFF7AE
:101DAC0071FF013000F0A280099B534409933B78EA
:101DBC00002B00F09B8000234FF0FF32049307931D
:101DCC00059206938DF853301A93052221785048CA
:101DDC0000F040FA671C049BD8B9D90644BF2022F6
:101DEC008DF853201A0744BF2B228DF853202278EC
:101DFC002A2A16D000210A20079A27463B7801345C
:101E0C00303B092B50D9C9B111E0252BC0D0274646
:101E1C00B9E73F4A3C46801A0BFA00F0184304908D
:101E2C00D3E7039A111D12680391002A01DB079274
:101E3C0004E0524243F00203079204933B782E2BAA
:101E4C000DD17B78791C2A2B32D1039B02371A1DBA
:101E5C001B680392002BB8BF4FF0FF3305932D4C3A
:101E6C0003223978204600F0F5F938B14023001BE5
:101E7C0003FA00F0049B01370343049339780622DC
:101E8C0025487E1C8DF8281000F0E4F9002835D088
:101E9C00224BFBB9039B073323F00703083303934F
:101EAC00099B4B4409936DE700FB02320121A4E727
:101EBC0000230A24184605930F463A780131303A2C
:101ECC00092A03D9002BCAD00590C8E704FB0020CF
:101EDC000123F1E703AB00932A46114B04A94046BA
:101EEC00AFF30080B0F1FF3F8146D9D1AB895B06DF
:101EFC003FF539AF09981DB0BDE8F08F03AB0093E7
:101F0C002A46074B04A9404600F084F8EAE700BFD4
:101F1C00142600081A2600081E26000800000000DF
:101F2C00911C00082DE9F04791461F468A680B6901
:101F3C0006469342B8BF1346C9F8003091F84320C7
:101F4C000C46DDF8208012B10133C9F8003023684B
:101F5C00990642BFD9F800300233C9F80030256821
:101F6C0015F0060507D104F1190AE368D9F8002029
:101F7C009B1A9D422ADB94F843302268003318BF29
:101F8C00012392062FD404F1430239463046C04750
:101F9C00013022D02368E56803F00603042B18BF38
:101FAC000025D9F800204FF0000908BFAD1AA3682E
:101FBC00226908BF25EAE5759342C4BF9B1AED1848
:101FCC001A344D451BD10020BDE8F0870123524641
:101FDC0039463046C047013003D14FF0FF30BDE8E1
:101FEC00F0870135C1E73020E11881F843005A1C15
:101FFC0094F845102244023382F84310C3E70123BE
:10200C00224639463046C0470130E6D009F1010975
:10201C00D7E700002DE9F04317460A7E85B06E2AFB
:10202C00984606460C460C9B01F1430E00F0BC8012
:10203C001AD8632A2ED00AD8002A00F0C880582A51
:10204C0000F08A8004F1420584F842202AE0642AD8
:10205C0001D0692AF6D121681A6811F0800F23D0BB
:10206C00111D1960136827E0732A00F0B48008D89A
:10207C006F2A2AD0702AE5D10A6842F020020A6041
:10208C0003E0752A21D0782ADCD178226F4984F8B4
:10209C00452064E01A6801F14205111D19601368AE
:1020AC0084F842300123A3E011F0400F02F1040147
:1020BC001960D7D0B2F90030002B03DA2D225B4225
:1020CC0084F8432062490A2217E02068196810F04E
:1020DC00800F03D0081D18600B6806E010F0400F4D
:1020EC0001F104001860F7D00B886F2A14BF0A2284
:1020FC0008225749002084F843006568002DA5602C
:10210C00C0F29C80206820F004002060002B3FD19E
:10211C00002D40F095807546082A0BD12368DA070C
:10212C0008D5236962689A42DEBF302305F8013C6A
:10213C0005F1FF35AEEB05032361CDF800803B467E
:10214C0003AA21463046FFF7EDFE013055D14FF082
:10215C00FF3005B0BDE8F08381F845203C4922688A
:10216C00186812F0800F00F104051D6001D003689F
:10217C0002E05506FBD50388D00744BF42F020028D
:10218C0022601BB9226822F0200222601022B1E7E3
:10219C007546B3FBF2F002FB1033CB5C05F8013D46
:1021AC0003460028F5D1B7E708681A6810F0800FCD
:1021BC00496904D0101D18601368196007E010F00D
:1021CC00400F02F1040018601368F6D01980002348
:1021DC0075462361B1E71A68111D19601568002155
:1021EC006268284600F036F808B1401B60606368EE
:1021FC002361002384F843309FE723692A4639463C
:10220C003046C0470130A2D023689B0707D5002574
:10221C0004F11909E368039A9B1A9D4205DBE068F7
:10222C00039B9842B8BF184693E701234A463946A8
:10223C003046C04701308AD00135EBE7002BA7D1DF
:10224C000B7804F1420584F8423065E73626000825
:10225C002526000810B5C9B202449042034601D1AC
:10226C00002010BD1C7801308C42F6D1184610BDF0
:10227C0010B5431E0A44914200D110BD11F8014B18
:10228C0003F8014FF7E7884210B501EB020303D8BE
:10229C00421E99420CD110BD9842F9D28118D21A23
:1022AC00D34200D110BD13F8014D01F8014DF7E7F1
:1022BC0011F8014B02F8014FEBE7000038B5054669
:1022CC00002943D051F8043C0C1F002BB8BFE41874
:1022DC0000F0D4F81E4A1368104633B963601460DA
:1022EC002846BDE8384000F0CAB8A3420BD9216893
:1022FC006218934201BF1A685B68521822606360CF
:10230C000460EDE713465A680AB1A242FAD919687B
:10231C005818A0420BD12068014458188242196009
:10232C00DED110685268014419605A60D8E702D9AE
:10233C000C232B60D4E7206821188A4201BF116856
:10234C0052680918216062605C60C9E738BD00BF43
:10235C008C00002070B5CD1C25F0030508350C2D24
:10236C0038BF0C25002D064601DBA94203D90C23EE
:10237C003360002070BD00F081F8234A14682146B8
:10238C0091B9224C23681BB9304600F067F82060E5
:10239C002946304600F062F8431C26D10C23304607
:1023AC00336000F06CF8E4E70B685B1B1AD40B2B62
:1023BC000FD90B60CC18CD50304600F060F804F10A
:1023CC000B00231D20F00700C31A1BD05A42E25009
:1023DC0070BD8C420BBF63684B681360636018BFA1
:1023EC000C46E9E70C464968CAE7C41C24F0030410
:1023FC00A04205D0211A304600F030F80130CDD083
:10240C002560D9E770BD00BF8C0000209000002033
:10241C00F8B5074614460E4621B91146BDE8F840FA
:10242C00FFF798BF22B9FFF749FF25462846F8BDAC
:10243C0000F026F884420FD921463846FFF78AFF70
:10244C0005460028F2D031462246FFF711FF3146EF
:10245C003846FFF733FFE9E73546E7E738B50023A1
:10246C00054C05460846236000F014F8431C02D1C5
:10247C00236803B12B6038BD3001002070477047D2
:10248C0051F8040C0028A0F10400BCBF0B58C01874
:10249C0070470000044B0246196809B903491960DA
:1024AC00186802441A607047940000203401002020
:1024BC00F8B500BFF8BC08BC9E467047F8B500BF25
:0824CC00F8BC08BC9E467047F5
:1024D40002030405060708090A0B0C0D0E0F101061
:1024E40048414C5F4932435F4D656D5F526561649D
:1024F4000048414C5F4932435F4D656D5F577269D7
:102504007465002573202D2048414C5F4552524F7D
:10251400520A002573202D2048414C5F42555359DF
:102524000A002573202D2048414C5F54494D454FE6
:1025340055540A0048414C5F4932435F4552524F5B
:10254400525F4E4F4E450A0048414C5F4932435F4B
:102554004552524F525F424552520A0048414C5F25
:102564004932435F4552524F525F41524C4F0A0029
:1025740048414C5F4932435F4552524F525F414696
:102584000A0048414C5F4932435F4552524F525F03
:102594004F56520A0048414C5F4932435F455252FC
:1025A4004F525F444D410A0048414C5F4932435FFA
:1025B4004552524F525F54494D454F55540A0044B9
:1025C40065766963653A203078253032580A0053BD
:1025D40063616E6E696E6720493243206275732EA3
:1025E4002E2E0A000D0A006973746172696B2E72D3
:1025F40075202D20737444000000000000000000CA
:102604000102030406070809000000000102030494
:10261400232D302B2000686C4C00656667454647C7
:10262400003031323334353637383941424344454A
:1026340046003031323334353637383961626364B9
:0426440065660000C7
:042648003101000854
:04264C000D01000874
:10265000010000001000000000A24A041000002049
:10266000000000000000000000000000000000006A
:10267000000000000000000000000000000000005A
:10268000000000000000000000000000000000004A
:10269000000000000000000000000000000000003A
:1026A000000000000000000000000000000000002A
:1026B000000000000000000000000000000000001A
:0400000508001B755F
:00000001FF
